{
  "contractName": "Contract",
  "abi": [
    {
      "inputs": [
        {
          "internalType": "address[]",
          "name": "_trusteeAddresses",
          "type": "address[]"
        },
        {
          "internalType": "uint256",
          "name": "_threshold",
          "type": "uint256"
        }
      ],
      "stateMutability": "nonpayable",
      "type": "constructor"
    },
    {
      "inputs": [],
      "name": "AlreadyCommitted",
      "type": "error"
    },
    {
      "inputs": [],
      "name": "AlreadyKeySet",
      "type": "error"
    },
    {
      "inputs": [],
      "name": "AlreadyProcessed",
      "type": "error"
    },
    {
      "inputs": [],
      "name": "AlreadyPublished",
      "type": "error"
    },
    {
      "inputs": [],
      "name": "AlreadyRegistered",
      "type": "error"
    },
    {
      "inputs": [],
      "name": "AlreadyVoted",
      "type": "error"
    },
    {
      "inputs": [],
      "name": "CandidateCountMismatch",
      "type": "error"
    },
    {
      "inputs": [],
      "name": "ElectionAlreadyStarted",
      "type": "error"
    },
    {
      "inputs": [],
      "name": "ElectionNotEnded",
      "type": "error"
    },
    {
      "inputs": [],
      "name": "ElectionNotFound",
      "type": "error"
    },
    {
      "inputs": [],
      "name": "ElectionNotOpen",
      "type": "error"
    },
    {
      "inputs": [],
      "name": "EmailAlreadyUsed",
      "type": "error"
    },
    {
      "inputs": [],
      "name": "EmptyInput",
      "type": "error"
    },
    {
      "inputs": [],
      "name": "ICAlreadyUsed",
      "type": "error"
    },
    {
      "inputs": [],
      "name": "InsufficientTrustees",
      "type": "error"
    },
    {
      "inputs": [],
      "name": "InvalidAge",
      "type": "error"
    },
    {
      "inputs": [],
      "name": "InvalidCommitment",
      "type": "error"
    },
    {
      "inputs": [],
      "name": "InvalidDate",
      "type": "error"
    },
    {
      "inputs": [],
      "name": "InvalidElectionId",
      "type": "error"
    },
    {
      "inputs": [],
      "name": "InvalidThreshold",
      "type": "error"
    },
    {
      "inputs": [],
      "name": "KeyNotSet",
      "type": "error"
    },
    {
      "inputs": [],
      "name": "NoVerifier",
      "type": "error"
    },
    {
      "inputs": [],
      "name": "NoVotesCast",
      "type": "error"
    },
    {
      "inputs": [],
      "name": "NotAdmin",
      "type": "error"
    },
    {
      "inputs": [],
      "name": "NotInNominationWindow",
      "type": "error"
    },
    {
      "inputs": [],
      "name": "NotPending",
      "type": "error"
    },
    {
      "inputs": [],
      "name": "NotRegistered",
      "type": "error"
    },
    {
      "inputs": [],
      "name": "NotTrustee",
      "type": "error"
    },
    {
      "inputs": [],
      "name": "NotVerified",
      "type": "error"
    },
    {
      "inputs": [],
      "name": "ProofFailed",
      "type": "error"
    },
    {
      "inputs": [],
      "name": "TallyHashMismatch",
      "type": "error"
    },
    {
      "inputs": [],
      "name": "TallyNotStored",
      "type": "error"
    },
    {
      "inputs": [],
      "name": "ThresholdTooLarge",
      "type": "error"
    },
    {
      "inputs": [],
      "name": "TimingError",
      "type": "error"
    },
    {
      "inputs": [],
      "name": "Unauthorized",
      "type": "error"
    },
    {
      "inputs": [],
      "name": "ZeroAddress",
      "type": "error"
    },
    {
      "anonymous": false,
      "inputs": [
        {
          "indexed": true,
          "internalType": "uint256",
          "name": "electionId",
          "type": "uint256"
        },
        {
          "indexed": true,
          "internalType": "address",
          "name": "candidateWallet",
          "type": "address"
        },
        {
          "indexed": false,
          "internalType": "uint256",
          "name": "timestamp",
          "type": "uint256"
        }
      ],
      "name": "CandidateApplied",
      "type": "event"
    },
    {
      "anonymous": false,
      "inputs": [
        {
          "indexed": true,
          "internalType": "uint256",
          "name": "electionId",
          "type": "uint256"
        },
        {
          "indexed": true,
          "internalType": "address",
          "name": "candidateWallet",
          "type": "address"
        },
        {
          "indexed": true,
          "internalType": "address",
          "name": "approver",
          "type": "address"
        },
        {
          "indexed": false,
          "internalType": "uint256",
          "name": "timestamp",
          "type": "uint256"
        }
      ],
      "name": "CandidateApproved",
      "type": "event"
    },
    {
      "anonymous": false,
      "inputs": [
        {
          "indexed": true,
          "internalType": "address",
          "name": "wallet",
          "type": "address"
        },
        {
          "indexed": false,
          "internalType": "string",
          "name": "name",
          "type": "string"
        },
        {
          "indexed": false,
          "internalType": "string",
          "name": "email",
          "type": "string"
        },
        {
          "indexed": false,
          "internalType": "uint256",
          "name": "timestamp",
          "type": "uint256"
        }
      ],
      "name": "CandidateRegistered",
      "type": "event"
    },
    {
      "anonymous": false,
      "inputs": [
        {
          "indexed": true,
          "internalType": "uint256",
          "name": "electionId",
          "type": "uint256"
        },
        {
          "indexed": true,
          "internalType": "address",
          "name": "candidateWallet",
          "type": "address"
        },
        {
          "indexed": true,
          "internalType": "address",
          "name": "rejector",
          "type": "address"
        },
        {
          "indexed": false,
          "internalType": "uint256",
          "name": "timestamp",
          "type": "uint256"
        }
      ],
      "name": "CandidateRejected",
      "type": "event"
    },
    {
      "anonymous": false,
      "inputs": [
        {
          "indexed": true,
          "internalType": "address",
          "name": "wallet",
          "type": "address"
        },
        {
          "indexed": false,
          "internalType": "uint256",
          "name": "timestamp",
          "type": "uint256"
        }
      ],
      "name": "CandidateVerified",
      "type": "event"
    },
    {
      "anonymous": false,
      "inputs": [
        {
          "indexed": true,
          "internalType": "uint256",
          "name": "electionId",
          "type": "uint256"
        },
        {
          "indexed": false,
          "internalType": "string",
          "name": "title",
          "type": "string"
        },
        {
          "indexed": true,
          "internalType": "address",
          "name": "organizer",
          "type": "address"
        },
        {
          "indexed": false,
          "internalType": "uint256",
          "name": "nominationStartTime",
          "type": "uint256"
        },
        {
          "indexed": false,
          "internalType": "uint256",
          "name": "nominationEndTime",
          "type": "uint256"
        },
        {
          "indexed": false,
          "internalType": "uint256",
          "name": "startTime",
          "type": "uint256"
        },
        {
          "indexed": false,
          "internalType": "uint256",
          "name": "endTime",
          "type": "uint256"
        },
        {
          "indexed": false,
          "internalType": "uint256",
          "name": "timestamp",
          "type": "uint256"
        }
      ],
      "name": "ElectionCreated",
      "type": "event"
    },
    {
      "anonymous": false,
      "inputs": [
        {
          "indexed": true,
          "internalType": "uint256",
          "name": "electionId",
          "type": "uint256"
        },
        {
          "indexed": false,
          "internalType": "string",
          "name": "encryptedTally",
          "type": "string"
        },
        {
          "indexed": false,
          "internalType": "uint256",
          "name": "totalVotesCounted",
          "type": "uint256"
        },
        {
          "indexed": false,
          "internalType": "uint256",
          "name": "timestamp",
          "type": "uint256"
        }
      ],
      "name": "EncryptedTallyStored",
      "type": "event"
    },
    {
      "anonymous": false,
      "inputs": [
        {
          "indexed": true,
          "internalType": "address",
          "name": "applicant",
          "type": "address"
        },
        {
          "indexed": false,
          "internalType": "string",
          "name": "organizationName",
          "type": "string"
        },
        {
          "indexed": false,
          "internalType": "uint256",
          "name": "timestamp",
          "type": "uint256"
        }
      ],
      "name": "OrganizerRegistered",
      "type": "event"
    },
    {
      "anonymous": false,
      "inputs": [
        {
          "indexed": true,
          "internalType": "address",
          "name": "applicant",
          "type": "address"
        },
        {
          "indexed": false,
          "internalType": "uint256",
          "name": "timestamp",
          "type": "uint256"
        }
      ],
      "name": "OrganizerRejected",
      "type": "event"
    },
    {
      "anonymous": false,
      "inputs": [
        {
          "indexed": true,
          "internalType": "address",
          "name": "applicant",
          "type": "address"
        },
        {
          "indexed": false,
          "internalType": "uint256",
          "name": "timestamp",
          "type": "uint256"
        }
      ],
      "name": "OrganizerVerified",
      "type": "event"
    },
    {
      "anonymous": false,
      "inputs": [
        {
          "indexed": false,
          "internalType": "string",
          "name": "publicKeyN",
          "type": "string"
        },
        {
          "indexed": false,
          "internalType": "uint256",
          "name": "timestamp",
          "type": "uint256"
        }
      ],
      "name": "PaillierPublicKeySet",
      "type": "event"
    },
    {
      "anonymous": false,
      "inputs": [
        {
          "indexed": true,
          "internalType": "uint256",
          "name": "electionId",
          "type": "uint256"
        },
        {
          "indexed": false,
          "internalType": "string",
          "name": "decryptedResult",
          "type": "string"
        },
        {
          "indexed": false,
          "internalType": "uint256",
          "name": "timestamp",
          "type": "uint256"
        }
      ],
      "name": "ResultsPublished",
      "type": "event"
    },
    {
      "anonymous": false,
      "inputs": [
        {
          "indexed": true,
          "internalType": "address",
          "name": "trusteeAddress",
          "type": "address"
        },
        {
          "indexed": false,
          "internalType": "bytes32",
          "name": "commitment",
          "type": "bytes32"
        },
        {
          "indexed": false,
          "internalType": "uint256",
          "name": "timestamp",
          "type": "uint256"
        }
      ],
      "name": "ShareCommitmentSubmitted",
      "type": "event"
    },
    {
      "anonymous": false,
      "inputs": [
        {
          "indexed": true,
          "internalType": "address",
          "name": "trusteeAddress",
          "type": "address"
        },
        {
          "indexed": false,
          "internalType": "uint256",
          "name": "timestamp",
          "type": "uint256"
        }
      ],
      "name": "TrusteeRegistered",
      "type": "event"
    },
    {
      "anonymous": false,
      "inputs": [
        {
          "indexed": true,
          "internalType": "uint256",
          "name": "electionId",
          "type": "uint256"
        },
        {
          "indexed": true,
          "internalType": "address",
          "name": "voter",
          "type": "address"
        },
        {
          "indexed": true,
          "internalType": "address",
          "name": "candidate",
          "type": "address"
        },
        {
          "indexed": false,
          "internalType": "uint256",
          "name": "timestamp",
          "type": "uint256"
        }
      ],
      "name": "VoteCast",
      "type": "event"
    },
    {
      "anonymous": false,
      "inputs": [
        {
          "indexed": true,
          "internalType": "bytes32",
          "name": "commitment",
          "type": "bytes32"
        },
        {
          "indexed": false,
          "internalType": "uint256",
          "name": "timestamp",
          "type": "uint256"
        }
      ],
      "name": "VoterCommitmentStored",
      "type": "event"
    },
    {
      "anonymous": false,
      "inputs": [
        {
          "indexed": true,
          "internalType": "address",
          "name": "wallet",
          "type": "address"
        },
        {
          "indexed": false,
          "internalType": "string",
          "name": "name",
          "type": "string"
        },
        {
          "indexed": false,
          "internalType": "string",
          "name": "email",
          "type": "string"
        },
        {
          "indexed": false,
          "internalType": "uint256",
          "name": "timestamp",
          "type": "uint256"
        }
      ],
      "name": "VoterRegistered",
      "type": "event"
    },
    {
      "anonymous": false,
      "inputs": [
        {
          "indexed": true,
          "internalType": "address",
          "name": "wallet",
          "type": "address"
        },
        {
          "indexed": false,
          "internalType": "uint256",
          "name": "timestamp",
          "type": "uint256"
        }
      ],
      "name": "VoterVerified",
      "type": "event"
    },
    {
      "anonymous": false,
      "inputs": [
        {
          "indexed": true,
          "internalType": "uint256",
          "name": "electionId",
          "type": "uint256"
        },
        {
          "indexed": true,
          "internalType": "bytes32",
          "name": "nullifierHash",
          "type": "bytes32"
        },
        {
          "indexed": true,
          "internalType": "bytes32",
          "name": "choiceCommitment",
          "type": "bytes32"
        },
        {
          "indexed": false,
          "internalType": "uint256",
          "name": "timestamp",
          "type": "uint256"
        }
      ],
      "name": "ZKPVoteCast",
      "type": "event"
    },
    {
      "inputs": [],
      "name": "admin",
      "outputs": [
        {
          "internalType": "address",
          "name": "",
          "type": "address"
        }
      ],
      "stateMutability": "view",
      "type": "function",
      "constant": true
    },
    {
      "inputs": [
        {
          "internalType": "uint256",
          "name": "",
          "type": "uint256"
        },
        {
          "internalType": "address",
          "name": "",
          "type": "address"
        }
      ],
      "name": "candidateApplicationStatus",
      "outputs": [
        {
          "internalType": "uint8",
          "name": "",
          "type": "uint8"
        }
      ],
      "stateMutability": "view",
      "type": "function",
      "constant": true
    },
    {
      "inputs": [
        {
          "internalType": "address",
          "name": "",
          "type": "address"
        }
      ],
      "name": "candidates",
      "outputs": [
        {
          "internalType": "address",
          "name": "wallet",
          "type": "address"
        },
        {
          "internalType": "string",
          "name": "name",
          "type": "string"
        },
        {
          "internalType": "bytes32",
          "name": "icHash",
          "type": "bytes32"
        },
        {
          "internalType": "string",
          "name": "email",
          "type": "string"
        },
        {
          "internalType": "string",
          "name": "party",
          "type": "string"
        },
        {
          "internalType": "string",
          "name": "manifesto",
          "type": "string"
        },
        {
          "internalType": "uint8",
          "name": "status",
          "type": "uint8"
        },
        {
          "internalType": "bytes32",
          "name": "verificationCode",
          "type": "bytes32"
        },
        {
          "internalType": "uint256",
          "name": "registeredAt",
          "type": "uint256"
        },
        {
          "internalType": "uint256",
          "name": "verifiedAt",
          "type": "uint256"
        },
        {
          "internalType": "bool",
          "name": "isRegistered",
          "type": "bool"
        }
      ],
      "stateMutability": "view",
      "type": "function",
      "constant": true
    },
    {
      "inputs": [
        {
          "internalType": "uint256",
          "name": "",
          "type": "uint256"
        }
      ],
      "name": "decryptionShareCount",
      "outputs": [
        {
          "internalType": "uint256",
          "name": "",
          "type": "uint256"
        }
      ],
      "stateMutability": "view",
      "type": "function",
      "constant": true
    },
    {
      "inputs": [
        {
          "internalType": "uint256",
          "name": "",
          "type": "uint256"
        }
      ],
      "name": "elections",
      "outputs": [
        {
          "internalType": "uint256",
          "name": "id",
          "type": "uint256"
        },
        {
          "internalType": "string",
          "name": "title",
          "type": "string"
        },
        {
          "internalType": "string",
          "name": "description",
          "type": "string"
        },
        {
          "internalType": "address",
          "name": "organizer",
          "type": "address"
        },
        {
          "internalType": "uint256",
          "name": "nominationStartTime",
          "type": "uint256"
        },
        {
          "internalType": "uint256",
          "name": "nominationEndTime",
          "type": "uint256"
        },
        {
          "internalType": "uint256",
          "name": "startTime",
          "type": "uint256"
        },
        {
          "internalType": "uint256",
          "name": "endTime",
          "type": "uint256"
        },
        {
          "internalType": "bool",
          "name": "isActive",
          "type": "bool"
        },
        {
          "internalType": "uint256",
          "name": "createdAt",
          "type": "uint256"
        },
        {
          "internalType": "uint256",
          "name": "totalVotes",
          "type": "uint256"
        },
        {
          "internalType": "string",
          "name": "encryptedTally",
          "type": "string"
        },
        {
          "internalType": "bool",
          "name": "tallyStored",
          "type": "bool"
        },
        {
          "internalType": "string",
          "name": "decryptedResult",
          "type": "string"
        },
        {
          "internalType": "bool",
          "name": "resultsPublished",
          "type": "bool"
        }
      ],
      "stateMutability": "view",
      "type": "function",
      "constant": true
    },
    {
      "inputs": [
        {
          "internalType": "uint256",
          "name": "",
          "type": "uint256"
        },
        {
          "internalType": "address",
          "name": "",
          "type": "address"
        }
      ],
      "name": "hasSubmittedDecryptionShare",
      "outputs": [
        {
          "internalType": "bool",
          "name": "",
          "type": "bool"
        }
      ],
      "stateMutability": "view",
      "type": "function",
      "constant": true
    },
    {
      "inputs": [
        {
          "internalType": "uint256",
          "name": "",
          "type": "uint256"
        },
        {
          "internalType": "address",
          "name": "",
          "type": "address"
        }
      ],
      "name": "hasVoted",
      "outputs": [
        {
          "internalType": "bool",
          "name": "",
          "type": "bool"
        }
      ],
      "stateMutability": "view",
      "type": "function",
      "constant": true
    },
    {
      "inputs": [],
      "name": "isPaillierKeySet",
      "outputs": [
        {
          "internalType": "bool",
          "name": "",
          "type": "bool"
        }
      ],
      "stateMutability": "view",
      "type": "function",
      "constant": true
    },
    {
      "inputs": [
        {
          "internalType": "uint256",
          "name": "",
          "type": "uint256"
        },
        {
          "internalType": "bytes32",
          "name": "",
          "type": "bytes32"
        }
      ],
      "name": "nullifierUsed",
      "outputs": [
        {
          "internalType": "bool",
          "name": "",
          "type": "bool"
        }
      ],
      "stateMutability": "view",
      "type": "function",
      "constant": true
    },
    {
      "inputs": [],
      "name": "numTrustees",
      "outputs": [
        {
          "internalType": "uint256",
          "name": "",
          "type": "uint256"
        }
      ],
      "stateMutability": "view",
      "type": "function",
      "constant": true
    },
    {
      "inputs": [
        {
          "internalType": "address",
          "name": "",
          "type": "address"
        }
      ],
      "name": "organizers",
      "outputs": [
        {
          "internalType": "address",
          "name": "wallet",
          "type": "address"
        },
        {
          "internalType": "string",
          "name": "organizationName",
          "type": "string"
        },
        {
          "internalType": "string",
          "name": "email",
          "type": "string"
        },
        {
          "internalType": "string",
          "name": "description",
          "type": "string"
        },
        {
          "internalType": "uint8",
          "name": "status",
          "type": "uint8"
        },
        {
          "internalType": "uint256",
          "name": "registeredAt",
          "type": "uint256"
        },
        {
          "internalType": "bool",
          "name": "isRegistered",
          "type": "bool"
        }
      ],
      "stateMutability": "view",
      "type": "function",
      "constant": true
    },
    {
      "inputs": [],
      "name": "paillierPublicKeyN",
      "outputs": [
        {
          "internalType": "string",
          "name": "",
          "type": "string"
        }
      ],
      "stateMutability": "view",
      "type": "function",
      "constant": true
    },
    {
      "inputs": [],
      "name": "threshold",
      "outputs": [
        {
          "internalType": "uint256",
          "name": "",
          "type": "uint256"
        }
      ],
      "stateMutability": "view",
      "type": "function",
      "constant": true
    },
    {
      "inputs": [
        {
          "internalType": "uint256",
          "name": "",
          "type": "uint256"
        }
      ],
      "name": "trusteeAddresses",
      "outputs": [
        {
          "internalType": "address",
          "name": "",
          "type": "address"
        }
      ],
      "stateMutability": "view",
      "type": "function",
      "constant": true
    },
    {
      "inputs": [
        {
          "internalType": "address",
          "name": "",
          "type": "address"
        }
      ],
      "name": "trustees",
      "outputs": [
        {
          "internalType": "address",
          "name": "walletAddress",
          "type": "address"
        },
        {
          "internalType": "bytes32",
          "name": "shareCommitment",
          "type": "bytes32"
        },
        {
          "internalType": "bool",
          "name": "hasSubmittedCommitment",
          "type": "bool"
        },
        {
          "internalType": "uint256",
          "name": "registeredAt",
          "type": "uint256"
        }
      ],
      "stateMutability": "view",
      "type": "function",
      "constant": true
    },
    {
      "inputs": [
        {
          "internalType": "uint256",
          "name": "",
          "type": "uint256"
        },
        {
          "internalType": "bytes32",
          "name": "",
          "type": "bytes32"
        }
      ],
      "name": "voteChoiceCommitments",
      "outputs": [
        {
          "internalType": "bytes32",
          "name": "",
          "type": "bytes32"
        }
      ],
      "stateMutability": "view",
      "type": "function",
      "constant": true
    },
    {
      "inputs": [],
      "name": "voteVerifier",
      "outputs": [
        {
          "internalType": "contract IVoteVerifier",
          "name": "",
          "type": "address"
        }
      ],
      "stateMutability": "view",
      "type": "function",
      "constant": true
    },
    {
      "inputs": [
        {
          "internalType": "bytes32",
          "name": "",
          "type": "bytes32"
        }
      ],
      "name": "voterCommitments",
      "outputs": [
        {
          "internalType": "bool",
          "name": "",
          "type": "bool"
        }
      ],
      "stateMutability": "view",
      "type": "function",
      "constant": true
    },
    {
      "inputs": [
        {
          "internalType": "address",
          "name": "",
          "type": "address"
        }
      ],
      "name": "voters",
      "outputs": [
        {
          "internalType": "address",
          "name": "wallet",
          "type": "address"
        },
        {
          "internalType": "string",
          "name": "name",
          "type": "string"
        },
        {
          "internalType": "bytes32",
          "name": "icHash",
          "type": "bytes32"
        },
        {
          "internalType": "string",
          "name": "email",
          "type": "string"
        },
        {
          "internalType": "uint8",
          "name": "status",
          "type": "uint8"
        },
        {
          "internalType": "bytes32",
          "name": "verificationCode",
          "type": "bytes32"
        },
        {
          "internalType": "uint256",
          "name": "registeredAt",
          "type": "uint256"
        },
        {
          "internalType": "uint256",
          "name": "verifiedAt",
          "type": "uint256"
        },
        {
          "internalType": "bool",
          "name": "isRegistered",
          "type": "bool"
        }
      ],
      "stateMutability": "view",
      "type": "function",
      "constant": true
    },
    {
      "inputs": [
        {
          "internalType": "address",
          "name": "_voteVerifier",
          "type": "address"
        }
      ],
      "name": "setVoteVerifier",
      "outputs": [],
      "stateMutability": "nonpayable",
      "type": "function"
    },
    {
      "inputs": [
        {
          "internalType": "string",
          "name": "_publicKeyN",
          "type": "string"
        }
      ],
      "name": "setPaillierPublicKey",
      "outputs": [],
      "stateMutability": "nonpayable",
      "type": "function"
    },
    {
      "inputs": [
        {
          "internalType": "address",
          "name": "_trustee",
          "type": "address"
        },
        {
          "internalType": "bytes32",
          "name": "_commitment",
          "type": "bytes32"
        }
      ],
      "name": "submitShareCommitment",
      "outputs": [],
      "stateMutability": "nonpayable",
      "type": "function"
    },
    {
      "inputs": [],
      "name": "getPaillierPublicKey",
      "outputs": [
        {
          "internalType": "string",
          "name": "",
          "type": "string"
        }
      ],
      "stateMutability": "view",
      "type": "function",
      "constant": true
    },
    {
      "inputs": [],
      "name": "getTrusteeAddresses",
      "outputs": [
        {
          "internalType": "address[]",
          "name": "",
          "type": "address[]"
        }
      ],
      "stateMutability": "view",
      "type": "function",
      "constant": true
    },
    {
      "inputs": [],
      "name": "allTrusteesCommitted",
      "outputs": [
        {
          "internalType": "bool",
          "name": "",
          "type": "bool"
        }
      ],
      "stateMutability": "view",
      "type": "function",
      "constant": true
    },
    {
      "inputs": [
        {
          "internalType": "address",
          "name": "_trustee",
          "type": "address"
        }
      ],
      "name": "getTrusteeInfo",
      "outputs": [
        {
          "internalType": "address",
          "name": "walletAddress",
          "type": "address"
        },
        {
          "internalType": "bytes32",
          "name": "shareCommitment",
          "type": "bytes32"
        },
        {
          "internalType": "bool",
          "name": "hasSubmittedCommitment",
          "type": "bool"
        },
        {
          "internalType": "uint256",
          "name": "registeredAt",
          "type": "uint256"
        }
      ],
      "stateMutability": "view",
      "type": "function",
      "constant": true
    },
    {
      "inputs": [
        {
          "internalType": "uint256",
          "name": "_electionId",
          "type": "uint256"
        },
        {
          "internalType": "string",
          "name": "_encryptedTally",
          "type": "string"
        },
        {
          "internalType": "bytes32",
          "name": "_tallyInputHash",
          "type": "bytes32"
        }
      ],
      "name": "storeEncryptedTally",
      "outputs": [],
      "stateMutability": "nonpayable",
      "type": "function"
    },
    {
      "inputs": [
        {
          "internalType": "uint256",
          "name": "_electionId",
          "type": "uint256"
        }
      ],
      "name": "getEncryptedTally",
      "outputs": [
        {
          "internalType": "string",
          "name": "encryptedTally",
          "type": "string"
        },
        {
          "internalType": "uint256",
          "name": "totalVotes",
          "type": "uint256"
        },
        {
          "internalType": "bool",
          "name": "tallyStored",
          "type": "bool"
        }
      ],
      "stateMutability": "view",
      "type": "function",
      "constant": true
    },
    {
      "inputs": [
        {
          "internalType": "string",
          "name": "_ic",
          "type": "string"
        }
      ],
      "name": "isICRegistered",
      "outputs": [
        {
          "internalType": "bool",
          "name": "",
          "type": "bool"
        }
      ],
      "stateMutability": "view",
      "type": "function",
      "constant": true
    },
    {
      "inputs": [
        {
          "internalType": "string",
          "name": "_email",
          "type": "string"
        }
      ],
      "name": "isEmailRegistered",
      "outputs": [
        {
          "internalType": "bool",
          "name": "",
          "type": "bool"
        }
      ],
      "stateMutability": "view",
      "type": "function",
      "constant": true
    },
    {
      "inputs": [
        {
          "internalType": "string",
          "name": "_name",
          "type": "string"
        },
        {
          "internalType": "string",
          "name": "_ic",
          "type": "string"
        },
        {
          "internalType": "string",
          "name": "_email",
          "type": "string"
        }
      ],
      "name": "registerVoter",
      "outputs": [
        {
          "internalType": "bytes32",
          "name": "",
          "type": "bytes32"
        }
      ],
      "stateMutability": "nonpayable",
      "type": "function"
    },
    {
      "inputs": [
        {
          "internalType": "uint256[2]",
          "name": "_pA",
          "type": "uint256[2]"
        },
        {
          "internalType": "uint256[2][2]",
          "name": "_pB",
          "type": "uint256[2][2]"
        },
        {
          "internalType": "uint256[2]",
          "name": "_pC",
          "type": "uint256[2]"
        },
        {
          "internalType": "uint256[9]",
          "name": "_pubSignals",
          "type": "uint256[9]"
        }
      ],
      "name": "verifyVoterWithZKP",
      "outputs": [],
      "stateMutability": "nonpayable",
      "type": "function"
    },
    {
      "inputs": [
        {
          "internalType": "address",
          "name": "_wallet",
          "type": "address"
        }
      ],
      "name": "isVoterRegistered",
      "outputs": [
        {
          "internalType": "bool",
          "name": "",
          "type": "bool"
        }
      ],
      "stateMutability": "view",
      "type": "function",
      "constant": true
    },
    {
      "inputs": [
        {
          "internalType": "address",
          "name": "_wallet",
          "type": "address"
        }
      ],
      "name": "isWalletRegistered",
      "outputs": [
        {
          "internalType": "bool",
          "name": "",
          "type": "bool"
        }
      ],
      "stateMutability": "view",
      "type": "function",
      "constant": true
    },
    {
      "inputs": [],
      "name": "getAllVoterAddresses",
      "outputs": [
        {
          "internalType": "address[]",
          "name": "",
          "type": "address[]"
        }
      ],
      "stateMutability": "view",
      "type": "function",
      "constant": true
    },
    {
      "inputs": [],
      "name": "getTotalRegisteredVoters",
      "outputs": [
        {
          "internalType": "uint256",
          "name": "",
          "type": "uint256"
        }
      ],
      "stateMutability": "view",
      "type": "function",
      "constant": true
    },
    {
      "inputs": [
        {
          "internalType": "address",
          "name": "_wallet",
          "type": "address"
        }
      ],
      "name": "getVoterInfo",
      "outputs": [
        {
          "internalType": "string",
          "name": "name",
          "type": "string"
        },
        {
          "internalType": "string",
          "name": "email",
          "type": "string"
        },
        {
          "internalType": "string",
          "name": "status",
          "type": "string"
        },
        {
          "internalType": "uint256",
          "name": "registeredAt",
          "type": "uint256"
        },
        {
          "internalType": "uint256",
          "name": "verifiedAt",
          "type": "uint256"
        }
      ],
      "stateMutability": "view",
      "type": "function",
      "constant": true
    },
    {
      "inputs": [
        {
          "internalType": "string",
          "name": "_name",
          "type": "string"
        },
        {
          "internalType": "string",
          "name": "_ic",
          "type": "string"
        },
        {
          "internalType": "string",
          "name": "_email",
          "type": "string"
        },
        {
          "internalType": "string",
          "name": "_party",
          "type": "string"
        },
        {
          "internalType": "string",
          "name": "_manifesto",
          "type": "string"
        }
      ],
      "name": "registerCandidate",
      "outputs": [
        {
          "internalType": "bytes32",
          "name": "",
          "type": "bytes32"
        }
      ],
      "stateMutability": "nonpayable",
      "type": "function"
    },
    {
      "inputs": [
        {
          "internalType": "uint256[2]",
          "name": "_pA",
          "type": "uint256[2]"
        },
        {
          "internalType": "uint256[2][2]",
          "name": "_pB",
          "type": "uint256[2][2]"
        },
        {
          "internalType": "uint256[2]",
          "name": "_pC",
          "type": "uint256[2]"
        },
        {
          "internalType": "uint256[9]",
          "name": "_pubSignals",
          "type": "uint256[9]"
        }
      ],
      "name": "verifyCandidateWithZKP",
      "outputs": [],
      "stateMutability": "nonpayable",
      "type": "function"
    },
    {
      "inputs": [
        {
          "internalType": "address",
          "name": "_wallet",
          "type": "address"
        }
      ],
      "name": "isCandidateRegistered",
      "outputs": [
        {
          "internalType": "bool",
          "name": "",
          "type": "bool"
        }
      ],
      "stateMutability": "view",
      "type": "function",
      "constant": true
    },
    {
      "inputs": [],
      "name": "getAllCandidateAddresses",
      "outputs": [
        {
          "internalType": "address[]",
          "name": "",
          "type": "address[]"
        }
      ],
      "stateMutability": "view",
      "type": "function",
      "constant": true
    },
    {
      "inputs": [],
      "name": "getTotalRegisteredCandidates",
      "outputs": [
        {
          "internalType": "uint256",
          "name": "",
          "type": "uint256"
        }
      ],
      "stateMutability": "view",
      "type": "function",
      "constant": true
    },
    {
      "inputs": [
        {
          "internalType": "address",
          "name": "_wallet",
          "type": "address"
        }
      ],
      "name": "getCandidateInfo",
      "outputs": [
        {
          "internalType": "string",
          "name": "name",
          "type": "string"
        },
        {
          "internalType": "string",
          "name": "email",
          "type": "string"
        },
        {
          "internalType": "string",
          "name": "party",
          "type": "string"
        },
        {
          "internalType": "string",
          "name": "manifesto",
          "type": "string"
        },
        {
          "internalType": "string",
          "name": "status",
          "type": "string"
        },
        {
          "internalType": "uint256",
          "name": "registeredAt",
          "type": "uint256"
        },
        {
          "internalType": "uint256",
          "name": "verifiedAt",
          "type": "uint256"
        }
      ],
      "stateMutability": "view",
      "type": "function",
      "constant": true
    },
    {
      "inputs": [
        {
          "internalType": "string",
          "name": "_organizationName",
          "type": "string"
        },
        {
          "internalType": "string",
          "name": "_email",
          "type": "string"
        },
        {
          "internalType": "string",
          "name": "_description",
          "type": "string"
        }
      ],
      "name": "registerOrganizer",
      "outputs": [
        {
          "internalType": "bool",
          "name": "",
          "type": "bool"
        }
      ],
      "stateMutability": "nonpayable",
      "type": "function"
    },
    {
      "inputs": [
        {
          "internalType": "address",
          "name": "_applicant",
          "type": "address"
        }
      ],
      "name": "verifyOrganizer",
      "outputs": [
        {
          "internalType": "bool",
          "name": "",
          "type": "bool"
        }
      ],
      "stateMutability": "nonpayable",
      "type": "function"
    },
    {
      "inputs": [
        {
          "internalType": "address",
          "name": "_applicant",
          "type": "address"
        }
      ],
      "name": "getOrganizerInfo",
      "outputs": [
        {
          "internalType": "string",
          "name": "organizationName",
          "type": "string"
        },
        {
          "internalType": "string",
          "name": "email",
          "type": "string"
        },
        {
          "internalType": "string",
          "name": "description",
          "type": "string"
        },
        {
          "internalType": "string",
          "name": "status",
          "type": "string"
        },
        {
          "internalType": "uint256",
          "name": "registeredAt",
          "type": "uint256"
        }
      ],
      "stateMutability": "view",
      "type": "function",
      "constant": true
    },
    {
      "inputs": [],
      "name": "getAllOrganizers",
      "outputs": [
        {
          "internalType": "address[]",
          "name": "",
          "type": "address[]"
        }
      ],
      "stateMutability": "view",
      "type": "function",
      "constant": true
    },
    {
      "inputs": [],
      "name": "getPendingOrganizers",
      "outputs": [
        {
          "internalType": "address[]",
          "name": "",
          "type": "address[]"
        }
      ],
      "stateMutability": "view",
      "type": "function",
      "constant": true
    },
    {
      "inputs": [
        {
          "internalType": "address",
          "name": "_address",
          "type": "address"
        }
      ],
      "name": "isOrganizer",
      "outputs": [
        {
          "internalType": "bool",
          "name": "",
          "type": "bool"
        }
      ],
      "stateMutability": "view",
      "type": "function",
      "constant": true
    },
    {
      "inputs": [
        {
          "internalType": "address",
          "name": "_address",
          "type": "address"
        }
      ],
      "name": "isOrganizerRegistered",
      "outputs": [
        {
          "internalType": "bool",
          "name": "",
          "type": "bool"
        }
      ],
      "stateMutability": "view",
      "type": "function",
      "constant": true
    },
    {
      "inputs": [
        {
          "internalType": "address",
          "name": "_address",
          "type": "address"
        }
      ],
      "name": "isAdmin",
      "outputs": [
        {
          "internalType": "bool",
          "name": "",
          "type": "bool"
        }
      ],
      "stateMutability": "view",
      "type": "function",
      "constant": true
    },
    {
      "inputs": [
        {
          "internalType": "string",
          "name": "_title",
          "type": "string"
        },
        {
          "internalType": "string",
          "name": "_description",
          "type": "string"
        },
        {
          "internalType": "uint256",
          "name": "_nominationStartTime",
          "type": "uint256"
        },
        {
          "internalType": "uint256",
          "name": "_nominationEndTime",
          "type": "uint256"
        },
        {
          "internalType": "uint256",
          "name": "_startTime",
          "type": "uint256"
        },
        {
          "internalType": "uint256",
          "name": "_endTime",
          "type": "uint256"
        }
      ],
      "name": "createElection",
      "outputs": [
        {
          "internalType": "uint256",
          "name": "",
          "type": "uint256"
        }
      ],
      "stateMutability": "nonpayable",
      "type": "function"
    },
    {
      "inputs": [
        {
          "internalType": "uint256",
          "name": "_electionId",
          "type": "uint256"
        }
      ],
      "name": "getElectionInfo",
      "outputs": [
        {
          "internalType": "string",
          "name": "title",
          "type": "string"
        },
        {
          "internalType": "string",
          "name": "description",
          "type": "string"
        },
        {
          "internalType": "address",
          "name": "organizer",
          "type": "address"
        },
        {
          "internalType": "uint256",
          "name": "nominationStartTime",
          "type": "uint256"
        },
        {
          "internalType": "uint256",
          "name": "nominationEndTime",
          "type": "uint256"
        },
        {
          "internalType": "uint256",
          "name": "startTime",
          "type": "uint256"
        },
        {
          "internalType": "uint256",
          "name": "endTime",
          "type": "uint256"
        },
        {
          "internalType": "bool",
          "name": "isActive",
          "type": "bool"
        },
        {
          "internalType": "uint256",
          "name": "createdAt",
          "type": "uint256"
        }
      ],
      "stateMutability": "view",
      "type": "function",
      "constant": true
    },
    {
      "inputs": [],
      "name": "getAllElectionIds",
      "outputs": [
        {
          "internalType": "uint256[]",
          "name": "",
          "type": "uint256[]"
        }
      ],
      "stateMutability": "view",
      "type": "function",
      "constant": true
    },
    {
      "inputs": [],
      "name": "getTotalElections",
      "outputs": [
        {
          "internalType": "uint256",
          "name": "",
          "type": "uint256"
        }
      ],
      "stateMutability": "view",
      "type": "function",
      "constant": true
    },
    {
      "inputs": [
        {
          "internalType": "address",
          "name": "_organizer",
          "type": "address"
        }
      ],
      "name": "getElectionsByOrganizer",
      "outputs": [
        {
          "internalType": "uint256[]",
          "name": "",
          "type": "uint256[]"
        }
      ],
      "stateMutability": "view",
      "type": "function",
      "constant": true
    },
    {
      "inputs": [],
      "name": "getActiveElections",
      "outputs": [
        {
          "internalType": "uint256[]",
          "name": "",
          "type": "uint256[]"
        }
      ],
      "stateMutability": "view",
      "type": "function",
      "constant": true
    },
    {
      "inputs": [
        {
          "internalType": "uint256",
          "name": "_electionId",
          "type": "uint256"
        }
      ],
      "name": "applyToElection",
      "outputs": [
        {
          "internalType": "bool",
          "name": "",
          "type": "bool"
        }
      ],
      "stateMutability": "nonpayable",
      "type": "function"
    },
    {
      "inputs": [
        {
          "internalType": "uint256",
          "name": "_electionId",
          "type": "uint256"
        }
      ],
      "name": "getElectionCandidateApplicants",
      "outputs": [
        {
          "internalType": "address[]",
          "name": "",
          "type": "address[]"
        }
      ],
      "stateMutability": "view",
      "type": "function",
      "constant": true
    },
    {
      "inputs": [
        {
          "internalType": "uint256",
          "name": "_electionId",
          "type": "uint256"
        },
        {
          "internalType": "address",
          "name": "_candidateWallet",
          "type": "address"
        }
      ],
      "name": "approveCandidateForElection",
      "outputs": [
        {
          "internalType": "bool",
          "name": "",
          "type": "bool"
        }
      ],
      "stateMutability": "nonpayable",
      "type": "function"
    },
    {
      "inputs": [
        {
          "internalType": "uint256",
          "name": "_electionId",
          "type": "uint256"
        },
        {
          "internalType": "address",
          "name": "_candidateWallet",
          "type": "address"
        }
      ],
      "name": "rejectCandidateForElection",
      "outputs": [
        {
          "internalType": "bool",
          "name": "",
          "type": "bool"
        }
      ],
      "stateMutability": "nonpayable",
      "type": "function"
    },
    {
      "inputs": [
        {
          "internalType": "uint256",
          "name": "_electionId",
          "type": "uint256"
        }
      ],
      "name": "getApprovedCandidates",
      "outputs": [
        {
          "internalType": "address[]",
          "name": "",
          "type": "address[]"
        }
      ],
      "stateMutability": "view",
      "type": "function",
      "constant": true
    },
    {
      "inputs": [
        {
          "internalType": "uint256",
          "name": "_electionId",
          "type": "uint256"
        },
        {
          "internalType": "string",
          "name": "_ipfsCID",
          "type": "string"
        },
        {
          "internalType": "uint256[2]",
          "name": "_pA",
          "type": "uint256[2]"
        },
        {
          "internalType": "uint256[2][2]",
          "name": "_pB",
          "type": "uint256[2][2]"
        },
        {
          "internalType": "uint256[2]",
          "name": "_pC",
          "type": "uint256[2]"
        },
        {
          "internalType": "uint256[9]",
          "name": "_pubSignals",
          "type": "uint256[9]"
        }
      ],
      "name": "vote",
      "outputs": [
        {
          "internalType": "bool",
          "name": "",
          "type": "bool"
        }
      ],
      "stateMutability": "nonpayable",
      "type": "function"
    },
    {
      "inputs": [
        {
          "internalType": "uint256",
          "name": "_electionId",
          "type": "uint256"
        },
        {
          "internalType": "bytes32",
          "name": "_nullifier",
          "type": "bytes32"
        }
      ],
      "name": "getZKPVote",
      "outputs": [
        {
          "internalType": "string",
          "name": "",
          "type": "string"
        }
      ],
      "stateMutability": "view",
      "type": "function",
      "constant": true
    },
    {
      "inputs": [
        {
          "internalType": "uint256",
          "name": "_electionId",
          "type": "uint256"
        }
      ],
      "name": "getZKPVoteNullifiers",
      "outputs": [
        {
          "internalType": "bytes32[]",
          "name": "",
          "type": "bytes32[]"
        }
      ],
      "stateMutability": "view",
      "type": "function",
      "constant": true
    },
    {
      "inputs": [
        {
          "internalType": "uint256",
          "name": "_electionId",
          "type": "uint256"
        },
        {
          "internalType": "bytes32",
          "name": "_nullifier",
          "type": "bytes32"
        }
      ],
      "name": "getChoiceCommitment",
      "outputs": [
        {
          "internalType": "bytes32",
          "name": "",
          "type": "bytes32"
        }
      ],
      "stateMutability": "view",
      "type": "function",
      "constant": true
    },
    {
      "inputs": [
        {
          "internalType": "uint256",
          "name": "_electionId",
          "type": "uint256"
        },
        {
          "internalType": "bytes32",
          "name": "_nullifier",
          "type": "bytes32"
        }
      ],
      "name": "hasVoterVoted",
      "outputs": [
        {
          "internalType": "bool",
          "name": "",
          "type": "bool"
        }
      ],
      "stateMutability": "view",
      "type": "function",
      "constant": true
    },
    {
      "inputs": [
        {
          "internalType": "uint256",
          "name": "_electionId",
          "type": "uint256"
        }
      ],
      "name": "getElectionTotalVotes",
      "outputs": [
        {
          "internalType": "uint256",
          "name": "",
          "type": "uint256"
        }
      ],
      "stateMutability": "view",
      "type": "function",
      "constant": true
    },
    {
      "inputs": [
        {
          "internalType": "uint256",
          "name": "_electionId",
          "type": "uint256"
        },
        {
          "internalType": "string",
          "name": "_decryptedResult",
          "type": "string"
        }
      ],
      "name": "publishResults",
      "outputs": [],
      "stateMutability": "nonpayable",
      "type": "function"
    },
    {
      "inputs": [
        {
          "internalType": "uint256",
          "name": "_electionId",
          "type": "uint256"
        }
      ],
      "name": "getResults",
      "outputs": [
        {
          "internalType": "string",
          "name": "decryptedResult",
          "type": "string"
        },
        {
          "internalType": "bool",
          "name": "resultsPublished",
          "type": "bool"
        },
        {
          "internalType": "uint256",
          "name": "shareCount",
          "type": "uint256"
        }
      ],
      "stateMutability": "view",
      "type": "function",
      "constant": true
    }
  ],
  "bytecode": "0x60406080815234620002df5762005b65803803806200001e81620002e4565b9283398101908281830312620002df5780516001600160401b039190828111620002df57810183601f82011215620002df578051948386116200026a5760059286841b956020938462000073818a01620002e4565b809a81520190858299820101928311620002df5790858094939201905b828210620002b35750505001519360029384885110620002a257848610620002915787518611620002805760018060a01b031990338260065416176006558851978389116200026a576801000000000000000089116200026a578654898855808a106200023f575b5097600098878a52868a208a5b838110620002235750505050600496875588518155875b8951811015620002145780821b8a018601516001600160a01b0390811690811562000204578651906080820182811088821117620001f15789918d918a528484528284018281528a8501918383528b6060870194428652888152600380975220955116898654161785555160018501558b84019051151560ff80198354169116179055519101557f7f13f422b26c2e8231c2ecd513ed654d95c661911a55fc299b5838be808b5777878751428152a26000198114620001de576001016200011c565b634e487b7160e01b895260118852602489fd5b634e487b7160e01b8d5260418c5260248dfd5b865163d92e233d60e01b81528a90fd5b845161585a90816200030b8239f35b82516001600160a01b0316828201559188019160010162000105565b60008881528a88822092830192015b8281106200025e575050620000f8565b8181556001016200024e565b634e487b7160e01b600052604160045260246000fd5b825163f342327960e01b8152600490fd5b825163aabd5a0960e01b8152600490fd5b8251633846957b60e21b8152600490fd5b815193945091929091906001600160a01b0381168103620002df57815285939291840190840162000090565b600080fd5b6040519190601f01601f191682016001600160401b038111838210176200026a5760405256fe608080604052600436101561001357600080fd5b60003560e01c908163042ae68e14614d0e575080630544c5b914614c4957806307439509146148035780630e5495a1146147b857806314eab6dc1461476b5780631e67f721146146e95780631f28762d146146c657806324d7806c1461469157806326789d56146144f357806328bde1e11461435f57806329e7dbd91461431d5780632b1294161461415e5780632e337e6814613fab57806338325c6614613e685780633b0c9d2a146132815780633b1951d614613e2657806341676f1514613e0357806342cde4e814613de55780634385963214613d9857806344a2d45d14613d7a5780634baa690114613d5c5780634bf80a27146135a157806354733f43146134e157806354ea3e87146133ef5780635e6fef01146132b457806366404230146132815780636769a2141461304057806369a37b3e146130225780636ca0f0af146114095780636d28b65314612dfb5780636d993ba1146129375780637445917e146128d557806378187770146128b65780637cf434f7146128915780637f247e491461283057806381a60c0d146127b357806384c08217146127875780638644fd71146126e15780638a3b63b0146123f05780638ab66a90146122e65780638d6d4b25146121df5780638eff7ae81461215d57806392d725951461212a57806395af6074146119d157806399d74c71146119a85780639ed1f25514611864578063a2f52aa1146116ba578063a3ec138d146115f1578063a79a93f8146115ca578063a9392e0c146115ac578063b1717fa814611535578063b46f49a4146114fd578063b9919e7e146114cd578063c214e6d514611441578063c556bff814611409578063cb2b6ad2146112fc578063cc24179f1461128d578063cd3b869814610ecf578063ce99b5df14610d3f578063cea04b0014610cbd578063d0c2a60914610c8c578063d567c41e14610bfe578063dee40f7414610b79578063df3cdad714610b18578063eb2119db14610ad6578063eee608a414610a7b578063f13a3ab614610892578063f1ecdc5814610850578063f851a440146108275763f86bfe1d1461032157600080fd5b3461082257610260366003190112610822576024356001600160401b038111610822576103529036906004016150b4565b3660841161082257366101041161082257366101441161082257366102641161082257600a546004351161081057600435600052600c6020526040600020600681015442108015610803575b6107f1578151156107df5760ff60015416156107cd576015546001600160a01b031680156107bb5760043561018435036107a95760126101443503610797576103e642615664565b916101c43503610785576101e435036107855761020435036107855761040d6004356154f2565b51610224350361077357600435600052601760205260406000206101643560005260205260ff60406000205416610761576101a435600052601660205260ff604060002054161561074f576040805163c542c93b60e01b81529190604460048401378160846000604483015b600282106107355750505061022481602093604061010460c48401376101206101446101048401375afa908115610729576000916106fa575b50156106e857610244359060043560005260176020526040600020610164356000526020526040600020600160ff1982541617905560043560005260186020526040600020610164356000526020526040600020835160018060401b0381116106195761051f8254614e0c565b601f81116106a0575b50602094601f821160011461063a5794819293949560009261062f575b50508160011b916000199060031b1c19161790555b600435600052601a6020526040600020610164356000526020528160406000205560043560005260196020526040600020908154600160401b811015610619576105af81600a9460016105cc9401815561520b565b610164929192359083549060031b91821b91600019901b19161790565b9055016105d98154615295565b905560405142815261016435907f391cb40dccdc4624de65b9b4f3b144896d68978477f9dc45e908c63d3fedc465602060043592a4602060405160018152f35b634e487b7160e01b600052604160045260246000fd5b015190503880610545565b601f198216958360005260206000209160005b8881106106885750836001959697981061066f575b505050811b01905561055a565b015160001960f88460031b161c19169055388080610662565b9192602060018192868501518155019401920161064d565b826000526020600020601f830160051c810191602084106106de575b601f0160051c01905b8181106106d25750610528565b600081556001016106c5565b90915081906106bc565b604051638dce817560e01b8152600490fd5b61071c915060203d602011610722575b6107148183614eeb565b8101906153a8565b386104b2565b503d61070a565b6040513d6000823e3d90fd5b829350604081816001949581943701930191018492610479565b60405163aba4733960e01b8152600490fd5b604051637c9a1cf960e01b8152600490fd5b60405163167dfbb760e11b8152600490fd5b6040516381bf7f6760e01b8152600490fd5b6040516304530cb760e41b8152600490fd5b604051631ec4422d60e11b8152600490fd5b6040516379e2e00360e01b8152600490fd5b604051639096cccb60e01b8152600490fd5b60405163a447fc5360e01b8152600490fd5b60405163b5e0f85160e01b8152600490fd5b506007810154421161039e565b6040516305ce45f760e51b8152600490fd5b600080fd5b34610822576000366003190112610822576006546040516001600160a01b039091168152602090f35b34610822576020366003190112610822576001600160a01b03610871614de0565b166000526010602052602060ff600a60406000200154166040519015158152f35b34610822576040366003190112610822576004356108ae614df6565b90600a5481116108105780600052602091600c835260406000206040516108d481614e99565b815481526108e460018301614fc8565b858201526108f460028301614fc8565b604082015260018060a01b03809181600385015416906060810191825260048501546080820152600585015460a08201526101c060ff600e60068801549760c08501988952600781015460e08601528260088201541615156101008601526009810154610120860152600a810154610140860152610974600b8201614fc8565b61016086015282600c820154161515610180860152610995600d8201614fc8565b6101a08601520154161515910152511633141580610a6d575b610a5c5783600052601385526040600020921691826000528452600160ff6040600020541603610a4a5751421015610a3857816000526013835260406000208160005283526040600020600360ff19825416179055604051914283527fc6e463a55006ff0f9fd3fc710bbb06b977f23273a66af0979cbaec5abcea0a47843394a460405160018152f35b60405163d54e430760e01b8152600490fd5b604051633ee3282d60e11b8152600490fd5b6040516282b42960e81b8152600490fd5b5080600654163314156109ae565b34610822576020366003190112610822576001600160a01b0380610a9d614de0565b166000526003602052604060002090815416610ad2600183015492600360ff600283015416910154906040519485948561525e565b0390f35b34610822576020366003190112610822576001600160a01b03610af7614de0565b16600052600f602052602060ff600860406000200154166040519015158152f35b34610822576020366003190112610822576004356001600160401b0381116108225760ff610b636020610b50819436906004016150b4565b816040519382858094519384920161506c565b8101600e81520301902054166040519015158152f35b3461082257600036600319011261082257604051600b80548083526000918252602080840193927f0175b7a638427703f0dbe7bb9bbf987a2551717b34e79f33b5b1008d1fa01db992915b828210610be757610ad285610bdb81890382614eeb565b60405191829182615223565b835486529485019460019384019390910190610bc4565b3461082257600036600319011261082257604051600880548083526000918252602080840193927ff3f7a9fe364faab93b216da50a3214154f22a0a2b415b23a84c8169e8b636ee392915b828210610c6c57610ad285610c6081890382614eeb565b60405191829182614d9c565b83546001600160a01b031686529485019460019384019390910190610c49565b34610822576020366003190112610822576004356000526016602052602060ff604060002054166040519015158152f35b3461082257600036600319011261082257604051600780548083526000918252602080840193927fa66cc928b5edb82af9bd49922954155ab7b0942694bea4ce44661d9a8736c68892915b828210610d1f57610ad285610c6081890382614eeb565b83546001600160a01b031686529485019460019384019390910190610d08565b346108225760203660031901126108225760043580158015610ec4575b61081057600052600c602052604060002060405190610d7a82614e99565b80548252610d8a60018201614fc8565b60208301908152610d9d60028301614fc8565b9260408101938452600160a01b600190039182600385015416916060810192835260048501549360808201948552600586015460a08301908152600687015460c0840190815260078801549160e08501928352600889015460ff169361010096878701951515865260098b0154966101209b8c8201988952600a810154610140830152600b8101610e2d90614fc8565b610160830152600c81015460ff161515610180830152610e4f600d8201614fc8565b6101a0830152600e015460ff161515906101c00152519a519751169751905191519251935115159451966040519a8a8c9b8c528b01610e8d9161508f565b8a810360208c0152610e9e9161508f565b9760408a01526060890152608088015260a087015260c086015260e08501528301520390f35b50600a548111610d5c565b34610822576060366003190112610822576001600160401b0360043560243582811161082257610f039036906004016150b4565b9181600052600c906020918083526040600020541561081057600654336001600160a01b0391821614159081611271575b50610a5c578360005280835260ff81604060002001541661125f578451156107df578360005280835260076040600020015442111561124d578360005260199182845260406000205492831561123b576060906000905b85821061113757505060443590858151910120036111255784600052818452600b60406000200190865190811161061957610fc68254614e0c565b601f81116110df575b5084601f82116001146110605761104695938593836000805160206157e5833981519152999a9794600a94600091611055575b508160011b916000199060031b1c19161790555b886000528085526040600020908101600160ff19825416179055015560405193849360608552606085019061508f565b918301524260408301520390a2005b90508801518c611002565b601f1982169083600052866000209160005b8181106110c8575093600184600a946110469a98948a98976000805160206157e58339815191529d9e9b98106110af575b5050811b019055611016565b8a015160001960f88460031b161c191690558c806110a3565b91928860018192868e015181550194019201611072565b8260005285600020601f830160051c81019187841061111b575b601f0160051c01905b81811061110f5750610fcf565b60008155600101611102565b90915081906110f9565b604051631ed5a3c560e21b8152600490fd5b90918760005281875261114e83604060002061520b565b9054896000526018895260406000209160031b1c6000528752604060002060405191611182815180928b808701910161506c565b820190600091815461119381614e0c565b926001918c83821691826000146112125750506001146111d5575b50505050906111c9816111cf9303601f198101835282614eeb565b92615295565b90610f8b565b8b945060005283600020906000915b8483106111fd5750505001016111c9826111cf8d6111ae565b80548484018701528c959092019181016111e4565b60ff19168582015285151590950290930190930193506111c992508491506111cf90508d6111ae565b60405163354ba2d560e01b8152600490fd5b604051635b177c7d60e11b8152600490fd5b604051639ac89bcd60e01b8152600490fd5b9050846000528184526003604060002001541633141586610f34565b34610822576020366003190112610822576112a6614de0565b6006546001600160a01b039190821633036112ea571680156112d857601580546001600160a01b031916919091179055005b60405163d92e233d60e01b8152600490fd5b604051637bfa4b9f60e01b8152600490fd5b34610822576000366003190112610822576009546000805b8281106113b4575061132590615474565b906000805b82811061133f5760405180610ad28682614d9c565b611348816151f0565b60018060a01b03809254600392831b1c16600052601160205260ff6004604060002001541615611383575b505061137e90615295565b61132a565b926113ac91839461139661137e956151f0565b9054911b1c166113a682886154a6565b52615295565b919085611373565b6113bd816151f0565b60018060a01b0391549060031b1c16600052601160205260ff60046040600020015416156113f4575b6113ef90615295565b611314565b906114016113ef91615295565b9190506113e6565b3461082257611417366151a4565b906000526017602052604060002090600052602052602060ff604060002054166040519015158152f35b34610822576020366003190112610822576001600160a01b0380611463614de0565b1660005260036020526040600020604051916080830183811060018060401b0382111761061957610ad29160609160405283541692838552600181015494856020820152600360ff600284015416151592836040840152015492839101526040519485948561525e565b3461082257600036600319011261082257610ad26114e9614f0e565b60405191829160208352602083019061508f565b3461082257602036600319011261082257600435600a54811161081057600052600c6020526020600a60406000200154604051908152f35b3461082257602080600319360112610822576004356001600160401b038111610822576115669036906004016150b4565b60405161158f838281611582818301968781519384920161506c565b8101038084520182614eeb565b519020600052600d815260ff604060002054166040519015158152f35b34610822576000366003190112610822576020600a54604051908152f35b346108225760003660031901126108225760ff60015416156107cd57610ad26114e9614f0e565b34610822576020366003190112610822576001600160a01b0380611613614de0565b16600052600f60205260406000209081541661163160018301614fc8565b9160028101549061164460038201614fc8565b9060ff60048201541692600582015461169960068401549260ff6008600787015496015416956116866040519a8b9a8b526101208060208d01528b019061508f565b9160408a015288820360608a015261508f565b94608087015260a086015260c085015260e084015215156101008301520390f35b34610822576116c836615168565b909233600052602093600f855260ff600860406000200154161561074f5733600052600f855260ff60046040600020015416610a4a576015546001600160a01b031680156107bb5760128435036107975760408401356107a95760608401359485156118525761173742615664565b916080880135036107855760a0870135036107855760c0860135036107855786936117786040519687958694859463c542c93b60e01b8652600486016153c0565b03915afa90811561072957600091611835575b50156106e85780600052601682526040600020805460ff8116156117fa575b8333600052600f8152604060002060048101600160ff198254161790556007429101557f945486efe706b7939911cd647343f3c1118cd63847a1f1b3d5a06b05120a5bcd604051914283523392a2005b60019060ff19161790557f19f3ad95ceff49695c3f339b98cece9dd03d73f9e1783d91ba6a6270ae5a968582604051428152a28180806117aa565b61184c9150833d8511610722576107148183614eeb565b8361178b565b604051636033c4fd60e11b8152600490fd5b34610822576020366003190112610822576001600160a01b0380611886614de0565b169081600052600f60205260ff600860406000200154161561074f5761196c91600052600f6020526040600020604051916118c083614e46565b81541682526118d160018201614fc8565b9160208101928352600282015460408201526119886118f260038401614fc8565b91826060820152600160ff60048601541695866080840152600586015460a084015260068601549260c0810193845261010060ff600860078a01549960e085019a8b5201541615159101525195146000146119975761197a611952615439565b915b5194519360405197889760a0895260a089019061508f565b90878203602089015261508f565b90858203604087015261508f565b91606084015260808301520390f35b61197a6119a2615409565b91611954565b34610822576000366003190112610822576015546040516001600160a01b039091168152602090f35b346108225760c0366003190112610822576004356001600160401b03811161082257611a019036906004016150b4565b6024356001600160401b03811161082257611a209036906004016150b4565b611a29336154ba565b15610a5c578151156107df574260443511156121185760443560643511156121185760643560843511156121185760843560a435111561211857611a6e600a54615295565b9081600a5560405190611a8082614e99565b8282528360208301526040820152336060820152604435608082015260643560a082015260843560c082015260a43560e08201526001610100820152426101208201526000610140820152604051611ad781614ed0565b600081526101608201526000610180820152604051611af581614ed0565b600081526101a082015260006101c082015281600052600c60205260406000209080518255602081015180519060018060401b038211610619578190611b3e6001860154614e0c565b601f81116120c5575b50602090601f831160011461205357600092612048575b50508160011b916000199060031b1c19161760018301555b60408101518051906001600160401b038211610619578190611b9b6002860154614e0c565b601f8111611ff5575b50602090601f8311600114611f8357600092611f78575b50508160011b916000199060031b1c19161760028301555b60608101516003830180546001600160a01b0319166001600160a01b03929092169190911790556080810151600483015560a0810151600583015560c0810151600683015560e08101516007830155610100810151611c3790151560088401615284565b6101208101516009830155610140810151600a8301556101608101518051906001600160401b038211610619578190611c73600b860154614e0c565b601f8111611f25575b50602090601f8311600114611eb357600092611ea8575b50508160011b916000199060031b1c191617600b8301555b611cbf6101808201511515600c8401615284565b6101a08101518051906001600160401b03821161061957611ce3600d850154614e0c565b601f8111611e61575b50602090601f8311600114611de9579282600e936101c093611d349796600092611dde575b50508160011b916000199060031b1c191617600d8501555b015115159101615284565b600b5491600160401b8310156106195781611d71611d5a85600160209701600b556151d5565b819391549060031b91821b91600019901b19161790565b9055817fd3678a1df7c0a194a6f67f13d263cb5409debb4055904f08c5671ad712d08237611daa6040519360c0855260c085019061508f565b92604435868201526064356040820152608435606082015260a43560808201524260a08201528033940390a3604051908152f35b015190508980611d11565b90601f19831691600d860160005260206000209260005b818110611e495750936101c093611d3497969360019383600e9810611e30575b505050811b01600d850155611d29565b015160001960f88460031b161c19169055898080611e20565b92936020600181928786015181550195019301611e00565b600d85016000526020600020601f840160051c810160208510611ea1575b601f830160051c82018110611e95575050611cec565b60008155600101611e7f565b5080611e7f565b015190508680611c93565b9250600b85016000526020600020906000935b601f1984168510611f0a576001945083601f19811610611ef1575b505050811b01600b830155611cab565b015160001960f88460031b161c19169055868080611ee1565b81810151835560209485019460019093019290910190611ec6565b909150600b85016000526020600020601f840160051c810160208510611f71575b90849392915b601f830160051c82018110611f62575050611c7c565b60008155859450600101611f4c565b5080611f46565b015190508680611bbb565b9250600285016000526020600020906000935b601f1984168510611fda576001945083601f19811610611fc1575b505050811b016002830155611bd3565b015160001960f88460031b161c19169055868080611fb1565b81810151835560209485019460019093019290910190611f96565b909150600285016000526020600020601f840160051c810160208510612041575b90849392915b601f830160051c82018110612032575050611ba4565b6000815585945060010161201c565b5080612016565b015190508680611b5e565b9250600185016000526020600020906000935b601f19841685106120aa576001945083601f19811610612091575b505050811b016001830155611b76565b015160001960f88460031b161c19169055868080612081565b81810151835560209485019460019093019290910190612066565b909150600185016000526020600020601f840160051c810160208510612111575b90849392915b601f830160051c82018110612102575050611b47565b600081558594506001016120ec565b50806120e6565b604051630398516760e11b8152600490fd5b3461082257612138366151a4565b906000526018602052604060002090600052602052610ad26114e96040600020614fc8565b3461082257600036600319011261082257604051600280548083526000918252602080840193927f405787fa12a823e0f2b7631cc41b3ba8828b3321ca811111fa75cd3aa3bb5ace92915b8282106121bf57610ad285610c6081890382614eeb565b83546001600160a01b0316865294850194600193840193909101906121a8565b3461082257602080600319360112610822576121f9614de0565b600b546001600160a01b039182169290916000805b84811061229b575061221f90615474565b9360009160005b85811061223b5760405180610ad28982615223565b612244816151d5565b9054600391821b1c600052600c8652838382604060002001541614612273575b5061226e90615295565b612226565b81946122949161228561226e946151d5565b9054911b1c6113a6828b6154a6565b9390612264565b85836122a6836151d5565b9054600391821b1c600052600c87526040600020015416146122d1575b6122cc90615295565b61220e565b906122de6122cc91615295565b9190506122c3565b34610822576020366003190112610822576001600160a01b0380612308614de0565b1660005260106020526040600020908154166001820161232790614fc8565b9160028101546003820161233a90614fc8565b9161234760048201614fc8565b9261235460058301614fc8565b93600683015460ff1694600784015491600885015493600986015495600a015460ff16966040519a8b9a8b526101608060208d01528b016123949161508f565b9060408b015289810360608b01526123ab9161508f565b88810360808a01526123bc9161508f565b87810360a08901526123cd9161508f565b9460c087015260e086015261010085015261012084015215156101408301520390f35b3461082257600036600319011261082257600b80546000805b828110612594575061241a90615474565b916000805b8381106124345760405180610ad28782615223565b61243d816151d5565b9054600391821b1c600052600c6020818152856040600020916040519061246382614e99565b8354825261247360018501614fc8565b9082015261248360028401614fc8565b604082015260018060a01b038584015416606082015260048301546080820152600583015460a08201526101c060068401549460c08301958652600e60078601549560e0850196875260ff8093612502826008850154169861010089019915158a5260098501546101208a0152600a8501546101408a01528401614fc8565b610160880152820154161515610180860152612520600d8201614fc8565b6101a086015201541615159101525115159182612588575b508161257c575b50612554575b5061254f90615295565b61241f565b81926125759161256661254f946151d5565b9054911b1c6113a682896154a6565b9190612545565b9050514211158761253f565b51421015915088612538565b61259d816151d5565b9054600391821b1c600052600c90856020838152604060002092604051916125c483614e99565b845483526125d460018601614fc8565b908301526125e460028501614fc8565b604083015260018060a01b039084015416606082015260048301546080820152600583015460a08201526101c060068401549460c08301958652600e60078601549560e0850196875260ff8093612663826008850154169861010089019915158a5260098501546101208a0152600a8501546101408a01528401614fc8565b610160880152820154161515610180860152612681600d8201614fc8565b6101a0860152015416151591015251151591826126d5575b50816126c9575b506126b4575b6126af90615295565b612409565b906126c16126af91615295565b9190506126a6565b905051421115856126a0565b51421015915086612699565b34610822576020806003193601126108225760043560005260198152604060002060405190818382549182815201908192600052846000209060005b8682821061277357868661273382880383614eeb565b604051928392818401908285525180915260408401929160005b82811061275c57505050500390f35b83518552869550938101939281019260010161274d565b83548552909301926001928301920161271d565b3461082257602036600319011261082257600435600052601c6020526020604060002054604051908152f35b346108225760203660031901126108225760043580600052600c6020526040600020541561081057600052600c60205261281f604060002060ff600e82015416601c60205261280a600d6040600020549301614fc8565b9160405193849360608552606085019061508f565b911515602084015260408301520390f35b34610822576020366003190112610822576001600160a01b03612851614de0565b16600052600f60205260ff60086040600020015416801561287a575b6020906040519015158152f35b5060106020526040600020600a015460ff1661286d565b346108225760003660031901126108225760206128ac6152ba565b6040519015158152f35b3461082257602036600319011261082257610ad2610c606004356154f2565b346108225760203660031901126108225760043580600052600c6020526040600020541561081057600052600c6020526129266040600020600a81015461280a600b60ff600c850154169301614fc8565b916020840152151560408301520390f35b34610822576129453661510a565b33600052601160205260ff60066040600020015416612de9578251156107df578151156107df576040519061297982614e62565b338252602082019284845260408301526060820152600060808201524260a0820152600160c082015233600052601160205260406000209160018060a01b0382511660018060a01b03198454161783555192835160018060401b038111610619576129e76001850154614e0c565b601f8111612da2575b506020601f8211600114612d33578192939495600092612d28575b50508160011b916000199060031b1c19161760018401555b604082015180519093906001600160401b03811161061957612a486002830154614e0c565b601f8111612ce1575b506020601f8211600114612c72578192939495600092612c67575b50508160011b916000199060031b1c19161760028201555b606083015180519093906001600160401b03811161061957612aa96003840154614e0c565b601f8111612c20575b506020601f8211600114612ba857918160c092600694612b179798600092612b9d575b50508160011b916000199060031b1c19161760038501555b6004840160ff60808301511660ff1982541617905560a08101516005850155015115159101615284565b600954600160401b81101561061957806001612b3692016009556151f0565b81549060031b9033821b9160018060a01b03901b19161790557f3d5483a93df0921e07ba2b0050c4d0f5793795035f1db5af3face517df5e333b612b856040519260408452604084019061508f565b914260208201528033930390a2602060405160018152f35b015190508880612ad5565b6003840160005260206000209560005b601f1984168110612c08575082612b1796976006959360019360c096601f19811610612bef575b505050811b016003850155612aed565b015160001960f88460031b161c19169055888080612bdf565b82820151885560019097019660209283019201612bb8565b600384016000526020600020601f830160051c810160208410612c60575b601f830160051c82018110612c54575050612ab2565b60008155600101612c3e565b5080612c3e565b015190508580612a6c565b6002830160005260206000209060005b601f1984168110612cc9575060019394959683601f19811610612cb0575b505050811b016002820155612a84565b015160001960f88460031b161c19169055858080612ca0565b9091602060018192858b015181550193019101612c82565b600283016000526020600020601f830160051c810160208410612d21575b601f830160051c82018110612d15575050612a51565b60008155600101612cff565b5080612cff565b015190508580612a0b565b6001850160005260206000209060005b601f1984168110612d8a575060019394959683601f19811610612d71575b505050811b016001840155612a23565b015160001960f88460031b161c19169055858080612d61565b9091602060018192858b015181550193019101612d43565b600185016000526020600020601f830160051c810160208410612de2575b601f830160051c82018110612dd65750506129f0565b60008155600101612dc0565b5080612dc0565b604051630ea075bf60e21b8152600490fd5b346108225760208060031936011261082257600435600a5481116108105780600052600c82526040600020600e60405191612e3583614e99565b80548352612e4560018201614fc8565b85840152612e5560028201614fc8565b604084015260018060a01b0392836003830154166060820152600482015490608081019182526101c060058401549360a08301948552600681015460c0840152600781015460e084015260ff9581876008819401541615156101008601526009810154610120860152600a810154610140860152612ed5600b8201614fc8565b61016086015282600c820154161515610180860152612ef6600d8201614fc8565b6101a08601520154161515910152514210908115613017575b5061300557336000526010845280600a60406000200154161561074f5733600052601084526001816006604060002001541603612ff3578260005260138452604060002033600052845260406000205416612de95760008281526013845260408082203383528552808220805460ff191660011790558382526012855290208054600160401b81101561061957612fab9160018201815561520b565b819291549060031b9133831b921b1916179055604051904282527f79f07716a1285725869298e53bfdb0d51d88314b25b5ed3b21be3b69534c0eaa833393a360405160018152f35b60405163a95362b560e01b8152600490fd5b60405163775a05ef60e01b8152600490fd5b905051421185612f0f565b34610822576000366003190112610822576020600754604051908152f35b34610822576040366003190112610822576001600160401b03600435602435828111610822576130749036906004016150b4565b9181600052600c6020918183526040600020541561081057600654336001600160a01b0391821614159081613265575b50610a5c578360005281835260ff82604060002001541615613250578360005281835260ff600e604060002001541661125f578451156107df5783600052818352600d604060002001908551908111610619576131018254614e0c565b601f811161320a575b5083601f82116001146131905791816000805160206158058339815191529697949261317a9694600091613185575b508160011b916000199060031b1c19161790555b856000528152600e604060002001600160ff1982541617905560405192839260408452604084019061508f565b9042908301520390a2005b905085015189613139565b601f1982169083600052856000209160005b8181106131f357509261317a969492600192826000805160206158058339815191529a9b9896106131da575b5050811b01905561314d565b87015160001960f88460031b161c1916905589806131ce565b91928760018192868d0151815501940192016131a2565b8260005284600020601f830160051c810191868410613246575b601f0160051c01905b81811061323a575061310a565b6000815560010161322d565b9091508190613224565b60405160016209c87d60e41b03198152600490fd5b90508460005282845260036040600020015416331415866130a4565b346108225761328f366151a4565b90600052601a6020526040600020906000526020526020604060002054604051908152f35b3461082257602036600319011261082257600435600052600c60205260406000208054600182016132e490614fc8565b906132f160028401614fc8565b92600160a01b600190036003820154169160048201549060058301549060068401546007850154600886015460ff16600987015491600a88015493600b890161333990614fc8565b96600c8a015460ff1698600d8b0161335090614fc8565b9a600e015460ff169b6040519e8f9e8f9a8b526101e08060208d01528b016133779161508f565b8a810360408c01526133889161508f565b986060015260808d015260a08c015260c08b015260e08a015215156101008901526101208801526101408701528581036101608701526133c79161508f565b9015156101808501528381036101a08501526133e29161508f565b9015156101c08301520390f35b3461082257604036600319011261082257613408614de0565b6006546001600160a01b0391602435918316331415806134d5575b610a5c5782169182600052600360205260406000205416156134c35781600052600360205260ff600260406000200154166134b15780156107df5760407f60189f38ccc04374e9c9fd4ab45fe61bb77bd1472fd19f6f39aef2686b14697f9183600052600360205260028260002082600182015501600160ff198254161790558151908152426020820152a2005b6040516317fd8aab60e31b8152600490fd5b604051635aa309bb60e01b8152600490fd5b50828116331415613423565b3461082257602080600319360112610822576134fb614de0565b6006546001600160a01b039190821633036112ea5716806000526011825260ff600660406000200154161561074f57806000526011825260ff6004604060002001541661358f5780600052601182526004604060002001600160ff198254161790557f14814d303617b24306266f30fbbd178fc67e915b8147aa4679460f5ce328912982604051428152a260405160018152f35b604051632bf773b360e11b8152600490fd5b346108225760a0366003190112610822576004356001600160401b038111610822576135d19036906004016150b4565b6024356001600160401b038111610822576135f09036906004016150b4565b906044356001600160401b038111610822576136109036906004016150b4565b6064356001600160401b0381116108225761362f9036906004016150b4565b926084356001600160401b0381116108225761364f9036906004016150b4565b9233600052601060205260ff600a6040600020015416612de957604051602081019061368660208286516115828187858b0161506c565b5190209182600052600d60205260ff60406000205416613d4a5760ff60405160208187516136b78183858c0161506c565b8101600e8152030190205416613d38576040516136ef816136e1602082019488429188338961531b565b03601f198101835282614eeb565b519020936040519561370087614e7d565b338752826020880152836040880152846060880152608087015260a0860152600060c08601528360e08601524261010086015260006101208601526001610140860152336000526010602052604060002060018060a01b0386511660018060a01b0319825416178155602086015180519060018060401b03821161061957819061378d6001850154614e0c565b601f8111613ce5575b50602090601f8311600114613c7357600092613c68575b50508160011b916000199060031b1c19161760018201555b6040860151600282015560608601518051906001600160401b0382116106195781906137f46003850154614e0c565b601f8111613c15575b50602090601f8311600114613ba357600092613b98575b50508160011b916000199060031b1c19161760038201555b60808601518051906001600160401b0382116106195781906138516004850154614e0c565b601f8111613b45575b50602090601f8311600114613ad357600092613ac8575b50508160011b916000199060031b1c19161760048201555b60a08601518051906001600160401b038211610619576138ac6005840154614e0c565b601f8111613a81575b50602090601f8311600114613a0d5761393493929160009183613a02575b50508160011b916000199060031b1c19161760058201555b600a610140600683019860ff60c0820151169960ff199a8b82541617905560e0810151600785015561010081015160088501556101208101516009850155015115159101615284565b60085490600160401b8210156106195760018201806008558210156139ec576020957f62a383152c7f5dcaccf813b01cb40efbd792ad8179bb25189b78f48c16e4536e936139e193600860005288600020013360018060a01b0319825416179055600052600d875260406000206001828254161790556001604051888188516139c08183858d0161506c565b8101600e81520301902091825416179055604051918291339542918461537a565b0390a2604051908152f35b634e487b7160e01b600052603260045260246000fd5b0151905089806138d3565b906005840160005260206000209160005b601f1985168110613a6957509183916001936139349695601f19811610613a50575b505050811b0160058201556138eb565b015160001960f88460031b161c19169055898080613a40565b91926020600181928685015181550194019201613a1e565b600584016000526020600020601f840160051c810160208510613ac1575b601f830160051c82018110613ab55750506138b5565b60008155600101613a9f565b5080613a9f565b015190508880613871565b9250600484016000526020600020906000935b601f1984168510613b2a576001945083601f19811610613b11575b505050811b016004820155613889565b015160001960f88460031b161c19169055888080613b01565b81810151835560209485019460019093019290910190613ae6565b909150600484016000526020600020601f840160051c810160208510613b91575b90849392915b601f830160051c82018110613b8257505061385a565b60008155859450600101613b6c565b5080613b66565b015190508880613814565b9250600384016000526020600020906000935b601f1984168510613bfa576001945083601f19811610613be1575b505050811b01600382015561382c565b015160001960f88460031b161c19169055888080613bd1565b81810151835560209485019460019093019290910190613bb6565b909150600384016000526020600020601f840160051c810160208510613c61575b90849392915b601f830160051c82018110613c525750506137fd565b60008155859450600101613c3c565b5080613c36565b0151905088806137ad565b9250600184016000526020600020906000935b601f1984168510613cca576001945083601f19811610613cb1575b505050811b0160018201556137c5565b015160001960f88460031b161c19169055888080613ca1565b81810151835560209485019460019093019290910190613c86565b909150600184016000526020600020601f840160051c810160208510613d31575b90849392915b601f830160051c82018110613d22575050613796565b60008155859450600101613d0c565b5080613d06565b60405163745491ff60e01b8152600490fd5b6040516331a0efdd60e21b8152600490fd5b34610822576000366003190112610822576020600554604051908152f35b34610822576000366003190112610822576020600854604051908152f35b3461082257604036600319011261082257613db1614df6565b600435600052601460205260406000209060018060a01b0316600052602052602060ff604060002054166040519015158152f35b34610822576000366003190112610822576020600454604051908152f35b346108225760203660031901126108225760206128ac613e21614de0565b6154ba565b346108225760203660031901126108225760043560025481101561082257613e4f6020916151ba565b905460405160039290921b1c6001600160a01b03168152f35b3461082257613e7636615168565b919290336000526020936010855260ff600a60406000200154161561074f57336000526010855260ff60066040600020015416610a4a576015546001600160a01b03169081156107bb5760128535036107975760408501356107a95760608501351561185257613ee542615664565b916080880135036107855760a0870135036107855760c086013503610785578593613f266040519687958694859463c542c93b60e01b8652600486016153c0565b03915afa90811561072957600091613f8e575b50156106e8573360005260108152604060002060068101600160ff198254161790556009429101557f2f366f123fabab95492dbb42e8695e5d537354a21c0246601ad90134a9827625604051914283523392a2005b613fa59150823d8411610722576107148183614eeb565b82613f39565b3461082257604036600319011261082257600435613fc7614df6565b90600a5481116108105780600052602091600c83526040600020604051613fed81614e99565b81548152613ffd60018301614fc8565b8582015261400d60028301614fc8565b604082015260018060a01b03809181600385015416906060810191825260048501546080820152600585015460a08201526101c060ff600e60068801549760c08501988952600781015460e08601528260088201541615156101008601526009810154610120860152600a81015461014086015261408d600b8201614fc8565b61016086015282600c8201541615156101808601526140ae600d8201614fc8565b6101a08601520154161515910152511633141580614150575b610a5c5783600052601385526040600020921691826000528452600160ff6040600020541603610a4a5751421015610a3857816000526013835260406000208160005283526040600020600260ff19825416179055604051914283527e8c02da86b3277809b12d5d51b4daa215b8085d605086df36dc4c12f4ea8b74843394a460405160018152f35b5080600654163314156140c7565b3461082257602080600319360112610822576001600160401b0390600435828111610822576141919036906004016150b4565b6006549091906001600160a01b031633036112ea57600160ff81541661430b578251156107df578251938411610619576141cc600054614e0c565b601f81116142c2575b508193601f811160011461424b5790816142359493926000805160206157c583398151915296600091614240575b50600019600383901b1c191690821b176000555b8060ff1981541617905560405192839260408452604084019061508f565b9042908301520390a1005b905084015187614203565b93601f1985169060008052836000209160005b8181106142ad575095839261423596959492826000805160206157c58339815191529910614294575b5050811b01600055614217565b86015160001960f88460031b161c191690558780614287565b8683015184559284019291850191850161425e565b6000805282600020601f860160051c810191848710614301575b601f0160051c019082905b8281106142f55750506141d5565b600081550182906142e7565b90915081906142dc565b604051631e1e262b60e01b8152600490fd5b34610822576020366003190112610822576001600160a01b0361433e614de0565b166000526011602052602060ff600660406000200154166040519015158152f35b34610822576020366003190112610822576001600160a01b0380614381614de0565b169081600052601060205260ff600a60406000200154161561074f5761449b9160005260106020526040600020604051916143bb83614e7d565b81541682526143cc60018201614fc8565b9160208101928352600282015460408201526144d3826144c56143f160038301614fc8565b95606085019687526144b761440860048501614fc8565b9560808101968752600161441e60058701614fc8565b938460a084015260ff600688015416928360c0820152600788015460e082015261014060ff600a600960088c01549b61010086019c8d5201549d61012085019e8f520154161515910152519951975191146000146144e2576144a9614481615439565b955b519851976040519b8c9b60e08d5260e08d019061508f565b908b820360208d015261508f565b9089820360408b015261508f565b90878203606089015261508f565b90858203608087015261508f565b9160a084015260c08301520390f35b6144a96144ed615409565b95614483565b3461082257602080600319360112610822576001600160a01b039081614517614de0565b1691826000526011825260ff600660406000200154161561074f5761460c926000526011825261463560406000206040519261455284614e62565b815416835261462761456660018301614fc8565b9185850192835261461961457c60028301614fc8565b966040870197885261459060038401614fc8565b966060810197885260ff6004850154169081608082015260c060ff600660058801549760a0850198895201541615159101526001811460001461463f57506040516145da81614eb5565b60088152671054141493d5915160c21b82820152945b5197519651925196604051998a9960a08b5260a08b019061508f565b91898303908a015261508f565b90868203604088015261508f565b90848203606086015261508f565b9060808301520390f35b60020361466d5760405161465281614eb5565b60088152671491529150d5115160c21b828201525b946145f0565b60405161467981614eb5565b600781526650454e44494e4760c81b82820152614667565b346108225760203660031901126108225760206146ac614de0565b6006546040516001600160a01b0392831691909216148152f35b3461082257600036600319011261082257602060ff600154166040519015158152f35b3461082257600036600319011261082257604051600980548083526000918252602080840193927f6e1540171b6c0c960b71a7020d9f60077f6af931a8bbf590da0223dacf75c7af92915b82821061474b57610ad285610c6081890382614eeb565b83546001600160a01b031686529485019460019384019390910190614734565b3461082257604036600319011261082257614784614df6565b600435600052601b60205260406000209060018060a01b0316600052602052602060ff604060002054166040519015158152f35b34610822576040366003190112610822576147d1614df6565b600435600052601360205260406000209060018060a01b0316600052602052602060ff60406000205416604051908152f35b34610822576148113661510a565b33600052600f60205260ff60086040600020015416612de957604051602081019061484760208286516115828187858b0161506c565b5190209182600052600d60205260ff60406000205416613d4a5760ff60405160208185516148788183858a0161506c565b8101600e8152030190205416613d38576040516148a2816136e160208201948642918a338961531b565b51902091604051936148b385614e46565b338086526020808701838152604080890186905260608901879052600060808a0181905260a08a018990524260c08b015260e08a0181905260016101008b0152938452600f9092529120865181546001600160a01b0319166001600160a01b039190911617815590518051906001600160401b03821161061957819061493c6001850154614e0c565b601f8111614bf6575b50602090601f8311600114614b8457600092614b79575b50508160011b916000199060031b1c19161760018201555b6040860151600282015560608601518051906001600160401b038211610619576149a16003840154614e0c565b601f8111614b32575b50602090601f8311600114614abe57614a2793929160009183614ab3575b50508160011b916000199060031b1c19161760038201555b6008610100600483019860ff6080820151169960ff199a8b82541617905560a0810151600585015560c0810151600685015560e08101516007850155015115159101615284565b60075490600160401b8210156106195760018201806007558210156139ec576020957f9cf1682c9291d84aae23538285245cbbabc90127784deda74b7d7ea1136ae4e7936139e193600760005288600020013360018060a01b0319825416179055600052600d875260406000206001828254161790556001604051888188516139c08183858d0161506c565b0151905089806149c8565b906003840160005260206000209160005b601f1985168110614b1a5750918391600193614a279695601f19811610614b01575b505050811b0160038201556149e0565b015160001960f88460031b161c19169055898080614af1565b91926020600181928685015181550194019201614acf565b600384016000526020600020601f840160051c810160208510614b72575b601f830160051c82018110614b665750506149aa565b60008155600101614b50565b5080614b50565b01519050888061495c565b9250600184016000526020600020906000935b601f1984168510614bdb576001945083601f19811610614bc2575b505050811b016001820155614974565b015160001960f88460031b161c19169055888080614bb2565b81810151835560209485019460019093019290910190614b97565b909150600184016000526020600020601f840160051c810160208510614c42575b90849392915b601f830160051c82018110614c33575050614945565b60008155859450600101614c1d565b5080614c17565b34610822576020366003190112610822576001600160a01b0380614c6b614de0565b166000526011602052604060002090815416614c8960018301614fc8565b91614c9660028201614fc8565b614ca260038301614fc8565b91614cf860ff60048301541693614cea60ff600660058601549501541694614cdc604051998a998a5260e060208b015260e08a019061508f565b9088820360408a015261508f565b90868203606088015261508f565b92608085015260a0840152151560c08301520390f35b3461082257602090816003193601126108225760043590600a548211614d8d575060005260128152604060002090604051908181845491828152019360005281600020916000905b828210614d6d57610ad285610c6081890382614eeb565b83546001600160a01b031686529485019460019384019390910190614d56565b6305ce45f760e51b8152600490fd5b6020908160408183019282815285518094520193019160005b828110614dc3575050505090565b83516001600160a01b031685529381019392810192600101614db5565b600435906001600160a01b038216820361082257565b602435906001600160a01b038216820361082257565b90600182811c92168015614e3c575b6020831014614e2657565b634e487b7160e01b600052602260045260246000fd5b91607f1691614e1b565b61012081019081106001600160401b0382111761061957604052565b60e081019081106001600160401b0382111761061957604052565b61016081019081106001600160401b0382111761061957604052565b6101e081019081106001600160401b0382111761061957604052565b604081019081106001600160401b0382111761061957604052565b602081019081106001600160401b0382111761061957604052565b601f909101601f19168101906001600160401b0382119082101761061957604052565b60405190600082815491614f2183614e0c565b808352600193808516908115614fa75750600114614f49575b50614f4792500383614eeb565b565b60008080527f290decd9548b62a8d60345a988386fc84ba6bc95484008f6362f93160ef3e56394602093509091905b818310614f8f575050614f47935082010138614f3a565b85548884018501529485019487945091830191614f78565b9050614f4794506020925060ff191682840152151560051b82010138614f3a565b9060405191826000825492614fdc84614e0c565b9081845260019485811690816000146150495750600114615006575b5050614f4792500383614eeb565b9093915060005260209081600020936000915b818310615031575050614f4793508201013880614ff8565b85548884018501529485019487945091830191615019565b915050614f4794506020925060ff191682840152151560051b8201013880614ff8565b60005b83811061507f5750506000910152565b818101518382015260200161506f565b906020916150a88151809281855285808601910161506c565b601f01601f1916010190565b81601f82011215610822578035906001600160401b03821161061957604051926150e8601f8401601f191660200185614eeb565b8284526020838301011161082257816000926020809301838601378301015290565b6060600319820112610822576001600160401b03916004358381116108225782615136916004016150b4565b92602435818111610822578361514e916004016150b4565b9260443591821161082257615165916004016150b4565b90565b906102206003198301126108225781604411610822576004918060c411610822576044916101048281116108225760c492610224116108225790565b6040906003190112610822576004359060243590565b6002548110156139ec57600260005260206000200190600090565b600b548110156139ec57600b60005260206000200190600090565b6009548110156139ec57600960005260206000200190600090565b80548210156139ec5760005260206000200190600090565b6020908160408183019282815285518094520193019160005b82811061524a575050505090565b83518552938101939281019260010161523c565b90949392606092608083019660018060a01b031683526020830152151560408201520152565b9060ff801983541691151516179055565b60001981146152a45760010190565b634e487b7160e01b600052601160045260246000fd5b600060028054915b8281106152d157505050600190565b6152da816151ba565b9054600391821b1c6001600160a01b031660009081526020919091526040902082015460ff16156153135761530e90615295565b6152c2565b505050600090565b6034959493929160018060601b03199060601b16815261534582518093602060148501910161506c565b0161535a82518093602060148501910161506c565b0161536f82518093602060148501910161506c565b019060148201520190565b9392916153a39061539560409360608852606088019061508f565b90868203602088015261508f565b930152565b90816020910312610822575180151581036108225790565b9194939261022083019560408093853760008484015b600282106153f4575050509161010091610120949360c08301370137565b848082818660019537019301910190916153d6565b6040519061541682614eb5565b60148252732822a72224a723afab22a924a324a1a0aa24a7a760611b6020830152565b6040519061544682614eb5565b6008825267159154925192515160c21b6020830152565b6001600160401b0381116106195760051b60200190565b9061547e8261545d565b61548b6040519182614eeb565b828152809261549c601f199161545d565b0190602036910137565b80518210156139ec5760209160051b010190565b6001600160a01b03166000908152601160205260409020600681015460ff1690816154e3575090565b6004015460ff16600114919050565b90600a54821161081057600091808352602092601284526040908181208251808288829454938481520190855288852092855b8a82821061562b5750505061553c92500382614eeb565b8193825b825181101561559d57818452601388528484206001600160a01b0361556583866154a6565b511685528852600260ff868620541614615588575b61558390615295565b615540565b9461559561558391615295565b95905061557a565b509295936155aa90615474565b918093815b835181101561562057818352601387528883206001600160a01b0390816155d684886154a6565b511685528852600260ff8b86205416146155fa575b506155f590615295565b6155af565b81966156199161560d6155f594886154a6565b51166113a682896154a6565b95906155eb565b509296505050505050565b85546001600160a01b0316845260019586019587955093019201615525565b919082018092116152a457565b919082039182116152a457565b62015180900490620afa6c82018092116152a45762023ab180830481810293811592828604148317156152a4576156cd9461569e91615657565b906156bb6156b06105b4840484615657565b618eac84049061564a565b61016d95869162023ab0850490615657565b04926101908083029283041417156152a4576156e9908361564a565b9382810290810483036152a45782606461570d6157159361571b9660021c9061564a565b910490615657565b90615657565b806005026005810482036152a457600281018091116152a457609990049081609902906099820483036152a457600282018092116152a4576005615760920490615657565b600181018091116152a457906000600a82101561579d5750600381018091116152a457915b600283111561579057565b9261579a90615295565b92565b60081982019182116157b0575091615785565b634e487b7160e01b81526011600452602490fdfe4d7ace317cababf305a3b0781e111ea315b0fdfad17a816ed7f3d5dbaf1637840ed878d46369d37bab765405163b91e6cacef96258026b8c7af968904c728b33d669546a44855a85b11d2c8185b647a21c6fd25e902e1f54db1ebc3886b54d13a26469706673582212202347dedc56ec257944dfe987456f6b5050fab61b80d7ef093426ecf794b20c4f64736f6c63430008130033",
  "immutableReferences": {},
  "source": "// SPDX-License-Identifier: MIT\r\npragma solidity ^0.8.0;\r\n\r\n// Interface for Groth16Verifier generated from regCheck circuit (Verifier.sol)\r\n// Public signals order:\r\n//   [0] ageThreshold\r\n//   [1] nullifierHash      Poseidon(voterSecret, electionId)\r\n//   [2] electionId\r\n//   [3] voterCommitment    Poseidon(voterAddress, voterSecret)\r\n//   [4] currentYear\r\n//   [5] currentMonth\r\n//   [6] currentDay\r\n//   [7] numCandidates      approved candidate count\r\n//   [8] choiceCommitment   Poseidon(candidateIndex, voterSecret, electionId)\r\ninterface IVoteVerifier {\r\n    function verifyProof(\r\n        uint[2] calldata _pA,\r\n        uint[2][2] calldata _pB,\r\n        uint[2] calldata _pC,\r\n        uint[9] calldata _pubSignals\r\n    ) external view returns (bool);\r\n}\r\n\r\n// ── Custom errors (much cheaper in deployed bytecode than require string literals) ──\r\nerror Unauthorized();\r\nerror NotAdmin();\r\nerror NotTrustee();\r\nerror ZeroAddress();\r\nerror AlreadyRegistered();\r\nerror ICAlreadyUsed();\r\nerror EmailAlreadyUsed();\r\nerror NotRegistered();\r\nerror NotPending();\r\nerror NotVerified();\r\nerror NoVerifier();\r\nerror InvalidAge();\r\nerror InvalidElectionId();\r\nerror InvalidCommitment();\r\nerror InvalidDate();\r\nerror ProofFailed();\r\nerror AlreadyVoted();\r\nerror NotInNominationWindow();\r\nerror ElectionNotFound();\r\nerror ElectionNotOpen();\r\nerror EmptyInput();\r\nerror KeyNotSet();\r\nerror AlreadyKeySet();\r\nerror AlreadyCommitted();\r\nerror CandidateCountMismatch();\r\nerror TallyHashMismatch();\r\nerror TallyNotStored();\r\nerror AlreadyPublished();\r\nerror ElectionNotEnded();\r\nerror NoVotesCast();\r\nerror AlreadyProcessed();\r\nerror ElectionAlreadyStarted();\r\nerror InvalidThreshold();\r\nerror InsufficientTrustees();\r\nerror ThresholdTooLarge();\r\nerror TimingError();\r\n\r\ncontract Contract {\r\n    // ===== PHASE 1: Paillier & Trustee Management =====\r\n    struct Trustee {\r\n        address walletAddress;\r\n        bytes32 shareCommitment;  // Hash of the secret share\r\n        bool hasSubmittedCommitment;\r\n        uint256 registeredAt;\r\n    }\r\n\r\n    // Paillier Public Key Storage\r\n    string public paillierPublicKeyN;  // Stored as string to handle large numbers\r\n    bool public isPaillierKeySet;\r\n    \r\n    // Trustee Management\r\n    address[] public trusteeAddresses;\r\n    mapping(address => Trustee) public trustees;\r\n    uint256 public threshold;  // Minimum trustees needed for decryption\r\n    uint256 public numTrustees;  // Total number of trustees\r\n    \r\n    event PaillierPublicKeySet(string publicKeyN, uint256 timestamp);\r\n    event TrusteeRegistered(address indexed trusteeAddress, uint256 timestamp);\r\n    event ShareCommitmentSubmitted(address indexed trusteeAddress, bytes32 commitment, uint256 timestamp);\r\n    \r\n    // ===== EXISTING STRUCTS =====\r\n    struct Voter {\r\n        address wallet;\r\n        string name;\r\n        bytes32 icHash;\r\n        string email;\r\n        uint8 status;       // 0=PENDING_VERIFICATION, 1=VERIFIED\r\n        bytes32 verificationCode;\r\n        uint256 registeredAt;\r\n        uint256 verifiedAt;\r\n        bool isRegistered;\r\n    }\r\n\r\n    struct Candidate {\r\n        address wallet;\r\n        string name;\r\n        bytes32 icHash;\r\n        string email;\r\n        string party;\r\n        string manifesto;\r\n        uint8 status;       // 0=PENDING_VERIFICATION, 1=VERIFIED\r\n        bytes32 verificationCode;\r\n        uint256 registeredAt;\r\n        uint256 verifiedAt;\r\n        bool isRegistered;\r\n    }\r\n\r\n    struct Organizer {\r\n        address wallet;\r\n        string organizationName;\r\n        string email;\r\n        string description;\r\n        uint8 status;       // 0=PENDING, 1=APPROVED, 2=REJECTED\r\n        uint256 registeredAt;\r\n        bool isRegistered;\r\n    }\r\n\r\n    struct Election {\r\n        uint256 id;\r\n        string title;\r\n        string description;\r\n        address organizer;\r\n        uint256 nominationStartTime;\r\n        uint256 nominationEndTime;\r\n        uint256 startTime;\r\n        uint256 endTime;\r\n        bool isActive;\r\n        uint256 createdAt;\r\n        uint256 totalVotes;\r\n        string encryptedTally;  // Homomorphically aggregated encrypted total\r\n        bool tallyStored;\r\n        // ===== PHASE 4 =====\r\n        string decryptedResult;  // JSON-encoded decrypted tally per candidate\r\n        bool resultsPublished;\r\n    }\r\n    \r\n    // ===== PHASE 2: Encrypted Voting =====\r\n    event EncryptedTallyStored(\r\n        uint256 indexed electionId,\r\n        string encryptedTally,\r\n        uint256 totalVotesCounted,\r\n        uint256 timestamp\r\n    );\r\n    \r\n    // ===== PHASE 4 Events =====\r\n    event ResultsPublished(\r\n        uint256 indexed electionId,\r\n        string decryptedResult,\r\n        uint256 timestamp\r\n    );\r\n    \r\n    // ===== STATE VARIABLES =====\r\n    address public admin;\r\n    address[] private voterAddresses;\r\n    address[] private candidateAddresses;\r\n    address[] private organizerList;\r\n    \r\n    uint256 private electionCounter;\r\n    uint256[] private electionIds;\r\n    mapping(uint256 => Election) public elections;\r\n\r\n    mapping(bytes32 => bool) private usedICs;\r\n    mapping(string => bool) private usedEmails;\r\n\r\n    mapping(address => Voter) public voters;\r\n    mapping(address => Candidate) public candidates;\r\n    mapping(address => Organizer) public organizers;\r\n    \r\n    // Election-scoped candidacy (Phase 3 & 4)\r\n    mapping(uint256 => address[]) private electionCandidateApplicants;\r\n    mapping(uint256 => mapping(address => uint8)) public candidateApplicationStatus;\r\n    mapping(uint256 => mapping(address => bool)) public hasVoted;\r\n    // candidateVotes removed - using encrypted voting instead\r\n    \r\n    // ===== ZKP VOTING =====\r\n    IVoteVerifier public voteVerifier;\r\n    // Poseidon commitment: H(voterAddress, voterSecret) — stored during voter verification\r\n    mapping(bytes32 => bool) public voterCommitments;\r\n    // Nullifier: H(voterSecret, electionId) — prevents double voting anonymously\r\n    mapping(uint256 => mapping(bytes32 => bool)) public nullifierUsed;\r\n    // Anonymous vote storage: electionId => nullifier => ipfsCID\r\n    mapping(uint256 => mapping(bytes32 => string)) private zkpVotes;\r\n    // Nullifiers list per election (for tally)\r\n    mapping(uint256 => bytes32[]) private zkpVoteNullifiers;\r\n    // Choice commitment: electionId => nullifier => choiceCommitment\r\n    // Binds the encrypted ballot to a proven valid candidateIndex\r\n    mapping(uint256 => mapping(bytes32 => bytes32)) public voteChoiceCommitments;\r\n\r\n    event VoterCommitmentStored(bytes32 indexed commitment, uint256 timestamp);\r\n    event ZKPVoteCast(\r\n        uint256 indexed electionId,\r\n        bytes32 indexed nullifierHash,\r\n        bytes32 indexed choiceCommitment,\r\n        uint256 timestamp\r\n    );\r\n\r\n    // ===== PHASE 4: Threshold Decryption State =====\r\n    mapping(uint256 => mapping(address => bool)) public hasSubmittedDecryptionShare;\r\n    mapping(uint256 => uint256) public decryptionShareCount;\r\n    \r\n    constructor(address[] memory _trusteeAddresses, uint256 _threshold) {\r\n        if (_trusteeAddresses.length < 2) revert InsufficientTrustees();\r\n        if (_threshold < 2) revert InvalidThreshold();\r\n        if (_threshold > _trusteeAddresses.length) revert ThresholdTooLarge();\r\n        \r\n        admin = msg.sender;\r\n        trusteeAddresses = _trusteeAddresses;\r\n        threshold = _threshold;\r\n        numTrustees = _trusteeAddresses.length;\r\n        \r\n        // Register trustees\r\n        for (uint256 i = 0; i < _trusteeAddresses.length; i++) {\r\n            address trusteeAddr = _trusteeAddresses[i];\r\n            if (trusteeAddr == address(0)) revert ZeroAddress();\r\n            \r\n            trustees[trusteeAddr] = Trustee({\r\n                walletAddress: trusteeAddr,\r\n                shareCommitment: bytes32(0),\r\n                hasSubmittedCommitment: false,\r\n                registeredAt: block.timestamp\r\n            });\r\n            \r\n            emit TrusteeRegistered(trusteeAddr, block.timestamp);\r\n        }\r\n    }\r\n\r\n    modifier onlyAdmin() {\r\n        if (msg.sender != admin) revert NotAdmin();\r\n        _;\r\n    }\r\n    \r\n    modifier onlyTrustee() {\r\n        if (trustees[msg.sender].walletAddress == address(0)) revert NotTrustee();\r\n        _;\r\n    }\r\n    \r\n    // Set ZKP Vote Verifier contract (VoteWithICAgeCheck verifier)\r\n    function setVoteVerifier(address _voteVerifier) public onlyAdmin {\r\n        if (_voteVerifier == address(0)) revert ZeroAddress();\r\n        voteVerifier = IVoteVerifier(_voteVerifier);\r\n    }\r\n\r\n    // ===== PHASE 1: Paillier & Trustee Functions =====\r\n    \r\n    /**\r\n     * @dev Set the Paillier public key (can only be set once by admin)\r\n     * @param _publicKeyN The public key modulus N as a string\r\n     */\r\n    function setPaillierPublicKey(string memory _publicKeyN) public onlyAdmin {\r\n        if (isPaillierKeySet) revert AlreadyKeySet();\r\n        if (bytes(_publicKeyN).length == 0) revert EmptyInput();\r\n        \r\n        paillierPublicKeyN = _publicKeyN;\r\n        isPaillierKeySet = true;\r\n        \r\n        emit PaillierPublicKeySet(_publicKeyN, block.timestamp);\r\n    }\r\n    \r\n    /**\r\n     * @dev Submit a commitment (hash) of a trustee's secret share.\r\n     *      Can be called by the trustee themselves, or by admin (e.g. during automated setup).\r\n     * @param _trustee    Address of the trustee whose commitment is being submitted\r\n     * @param _commitment Hash of the secret share (keccak256 of share data)\r\n     */\r\n    function submitShareCommitment(address _trustee, bytes32 _commitment) public {\r\n        if (msg.sender != admin && msg.sender != _trustee) revert Unauthorized();\r\n        if (trustees[_trustee].walletAddress == address(0)) revert NotTrustee();\r\n        if (trustees[_trustee].hasSubmittedCommitment) revert AlreadyCommitted();\r\n        if (_commitment == bytes32(0)) revert EmptyInput();\r\n\r\n        trustees[_trustee].shareCommitment = _commitment;\r\n        trustees[_trustee].hasSubmittedCommitment = true;\r\n\r\n        emit ShareCommitmentSubmitted(_trustee, _commitment, block.timestamp);\r\n    }\r\n    \r\n    /**\r\n     * @dev Get Paillier public key\r\n     */\r\n    function getPaillierPublicKey() public view returns (string memory) {\r\n        if (!isPaillierKeySet) revert KeyNotSet();\r\n        return paillierPublicKeyN;\r\n    }\r\n    \r\n    /**\r\n     * @dev Get list of all trustee addresses\r\n     */\r\n    function getTrusteeAddresses() public view returns (address[] memory) {\r\n        return trusteeAddresses;\r\n    }\r\n    \r\n    /**\r\n     * @dev Check if all trustees have submitted their commitments\r\n     */\r\n    function allTrusteesCommitted() public view returns (bool) {\r\n        for (uint256 i = 0; i < trusteeAddresses.length; i++) {\r\n            if (!trustees[trusteeAddresses[i]].hasSubmittedCommitment) {\r\n                return false;\r\n            }\r\n        }\r\n        return true;\r\n    }\r\n    \r\n    /**\r\n     * @dev Get trustee information\r\n     */\r\n    function getTrusteeInfo(address _trustee) public view returns (\r\n        address walletAddress,\r\n        bytes32 shareCommitment,\r\n        bool hasSubmittedCommitment,\r\n        uint256 registeredAt\r\n    ) {\r\n        Trustee memory t = trustees[_trustee];\r\n        return (\r\n            t.walletAddress,\r\n            t.shareCommitment,\r\n            t.hasSubmittedCommitment,\r\n            t.registeredAt\r\n        );\r\n    }\r\n    \r\n    // ===== PHASE 2: Encrypted Voting Functions =====\r\n    // (votes now stored anonymously by ZKP nullifier — see getZKPVote / getZKPVoteNullifiers)\r\n\r\n    function storeEncryptedTally(\r\n        uint256 _electionId,\r\n        string memory _encryptedTally,\r\n        bytes32 _tallyInputHash   // keccak256(abi.encodePacked(cid_0, cid_1, ...)) in nullifier order\r\n    ) public {\r\n        if (elections[_electionId].id == 0) revert ElectionNotFound();\r\n        if (msg.sender != admin && msg.sender != elections[_electionId].organizer) revert Unauthorized();\r\n        if (elections[_electionId].tallyStored) revert AlreadyPublished();\r\n        if (bytes(_encryptedTally).length == 0) revert EmptyInput();\r\n        if (block.timestamp <= elections[_electionId].endTime) revert ElectionNotEnded();\r\n        \r\n        uint256 voteCount = zkpVoteNullifiers[_electionId].length;\r\n        if (voteCount == 0) revert NoVotesCast();\r\n\r\n        bytes memory packed;\r\n        for (uint256 i = 0; i < voteCount; i++) {\r\n            bytes32 nullifier = zkpVoteNullifiers[_electionId][i];\r\n            packed = abi.encodePacked(packed, zkpVotes[_electionId][nullifier]);\r\n        }\r\n        if (keccak256(packed) != _tallyInputHash) revert TallyHashMismatch();\r\n        \r\n        elections[_electionId].encryptedTally = _encryptedTally;\r\n        elections[_electionId].tallyStored = true;\r\n        elections[_electionId].totalVotes = voteCount;\r\n        \r\n        emit EncryptedTallyStored(_electionId, _encryptedTally, voteCount, block.timestamp);\r\n    }\r\n\r\n    function getEncryptedTally(uint256 _electionId) public view returns (\r\n        string memory encryptedTally, uint256 totalVotes, bool tallyStored\r\n    ) {\r\n        if (elections[_electionId].id == 0) revert ElectionNotFound();\r\n        return (elections[_electionId].encryptedTally, elections[_electionId].totalVotes, elections[_electionId].tallyStored);\r\n    }\r\n    \r\n    event VoterRegistered(\r\n        address indexed wallet,\r\n        string name,\r\n        string email,\r\n        uint256 timestamp\r\n    );\r\n    \r\n    event CandidateRegistered(\r\n        address indexed wallet,\r\n        string name,\r\n        string email,\r\n        uint256 timestamp\r\n    );\r\n\r\n    event OrganizerRegistered(\r\n        address indexed applicant,\r\n        string organizationName,\r\n        uint256 timestamp\r\n    );\r\n\r\n    event VoterVerified(\r\n        address indexed wallet,\r\n        uint256 timestamp\r\n    );\r\n\r\n    event CandidateVerified(\r\n        address indexed wallet,\r\n        uint256 timestamp\r\n    );\r\n\r\n    event OrganizerVerified(\r\n        address indexed applicant,\r\n        uint256 timestamp\r\n    );\r\n\r\n    event OrganizerRejected(\r\n        address indexed applicant,\r\n        uint256 timestamp\r\n    );\r\n\r\n    event ElectionCreated(\r\n        uint256 indexed electionId,\r\n        string title,\r\n        address indexed organizer,\r\n        uint256 nominationStartTime,\r\n        uint256 nominationEndTime,\r\n        uint256 startTime,\r\n        uint256 endTime,\r\n        uint256 timestamp\r\n    );\r\n\r\n    event CandidateApplied(\r\n        uint256 indexed electionId,\r\n        address indexed candidateWallet,\r\n        uint256 timestamp\r\n    );\r\n\r\n    event CandidateApproved(\r\n        uint256 indexed electionId,\r\n        address indexed candidateWallet,\r\n        address indexed approver,\r\n        uint256 timestamp\r\n    );\r\n\r\n    event CandidateRejected(\r\n        uint256 indexed electionId,\r\n        address indexed candidateWallet,\r\n        address indexed rejector,\r\n        uint256 timestamp\r\n    );\r\n\r\n    event VoteCast(\r\n        uint256 indexed electionId,\r\n        address indexed voter,\r\n        address indexed candidate,\r\n        uint256 timestamp\r\n    );\r\n\r\n    // Common functions\r\n    function isICRegistered(string memory _ic) public view returns (bool) {\r\n        bytes32 icHash = keccak256(abi.encodePacked(_ic));\r\n        return usedICs[icHash];\r\n    }\r\n    \r\n    function isEmailRegistered(string memory _email) public view returns (bool) {\r\n        return usedEmails[_email];\r\n    }\r\n    \r\n    //////////////////\r\n    // Voter Logics //\r\n    //////////////////\r\n    function registerVoter(\r\n        string memory _name,\r\n        string memory _ic,\r\n        string memory _email\r\n    ) public returns (bytes32) {\r\n        if (voters[msg.sender].isRegistered) revert AlreadyRegistered();\r\n\r\n        bytes32 icHash = keccak256(abi.encodePacked(_ic));\r\n        if (usedICs[icHash]) revert ICAlreadyUsed();\r\n        if (usedEmails[_email]) revert EmailAlreadyUsed();\r\n        \r\n        bytes32 verificationCode = keccak256(\r\n            abi.encodePacked(\r\n                msg.sender,\r\n                _name,\r\n                _ic,\r\n                _email,\r\n                block.timestamp\r\n            )\r\n        );\r\n        voters[msg.sender] = Voter({\r\n            wallet: msg.sender,\r\n            name: _name,\r\n            icHash: icHash,\r\n            email: _email,\r\n            status: 0,\r\n            verificationCode: verificationCode,\r\n            registeredAt: block.timestamp,\r\n            verifiedAt: 0,\r\n            isRegistered: true\r\n        });\r\n        voterAddresses.push(msg.sender);\r\n        usedICs[icHash] = true;\r\n        usedEmails[_email] = true;\r\n        \r\n        emit VoterRegistered(msg.sender, _name, _email, block.timestamp);\r\n        \r\n        return verificationCode;\r\n    }\r\n    \r\n    // ZKP-based verification for voters (uses regCheck circuit — Verifier.sol)\r\n    // Public signals (9 total): [ageThreshold, nullifierHash, electionId, voterCommitment,\r\n    //                  currentYear, currentMonth, currentDay, numCandidates, choiceCommitment]\r\n    // electionId must be 0 (registration sentinel); numCandidates=1, candidateIndex=0 (dummy).\r\n    function verifyVoterWithZKP(\r\n        uint[2] calldata _pA,\r\n        uint[2][2] calldata _pB,\r\n        uint[2] calldata _pC,\r\n        uint[9] calldata _pubSignals\r\n    ) public {\r\n        if (!voters[msg.sender].isRegistered) revert NotRegistered();\r\n        if (voters[msg.sender].status != 0) revert NotPending();\r\n        if (address(voteVerifier) == address(0)) revert NoVerifier();\r\n\r\n        if (_pubSignals[0] != 18) revert InvalidAge();\r\n        if (_pubSignals[2] != 0) revert InvalidElectionId();\r\n        if (_pubSignals[3] == 0) revert InvalidCommitment();\r\n\r\n        (uint256 blockYear, uint256 blockMonth, uint256 blockDay) = _timestampToDate(block.timestamp);\r\n        if (_pubSignals[4] != blockYear) revert InvalidDate();\r\n        if (_pubSignals[5] != blockMonth) revert InvalidDate();\r\n        if (_pubSignals[6] != blockDay) revert InvalidDate();\r\n\r\n        if (!voteVerifier.verifyProof(_pA, _pB, _pC, _pubSignals)) revert ProofFailed();\r\n\r\n        // Store the voter's Poseidon commitment on-chain\r\n        // This enables anonymous voting without linking address to election participation\r\n        bytes32 commitment = bytes32(_pubSignals[3]);\r\n        if (!voterCommitments[commitment]) {\r\n            voterCommitments[commitment] = true;\r\n            emit VoterCommitmentStored(commitment, block.timestamp);\r\n        }\r\n\r\n        // Mark voter as VERIFIED\r\n        voters[msg.sender].status = 1;\r\n        voters[msg.sender].verifiedAt = block.timestamp;\r\n\r\n        emit VoterVerified(msg.sender, block.timestamp);\r\n    }\r\n\r\n    function isVoterRegistered(address _wallet) public view returns (bool) {\r\n        return voters[_wallet].isRegistered;\r\n    }\r\n\r\n    // Combined function to check if a wallet is registered as voter or candidate\r\n    function isWalletRegistered(address _wallet) public view returns (bool) {\r\n        return voters[_wallet].isRegistered || candidates[_wallet].isRegistered;\r\n    }\r\n\r\n    function getAllVoterAddresses() public view returns (address[] memory) {\r\n        return voterAddresses;\r\n    }\r\n\r\n    function getTotalRegisteredVoters() public view returns (uint256) {\r\n        return voterAddresses.length;\r\n    }\r\n    \r\n    function getVoterInfo(address _wallet) public view returns (\r\n        string memory name,\r\n        string memory email,\r\n        string memory status,\r\n        uint256 registeredAt,\r\n        uint256 verifiedAt\r\n    ) {\r\n        if (!voters[_wallet].isRegistered) revert NotRegistered();\r\n        \r\n        Voter memory voter = voters[_wallet];\r\n        return (\r\n            voter.name,\r\n            voter.email,\r\n            voter.status == 1 ? \"VERIFIED\" : \"PENDING_VERIFICATION\",\r\n            voter.registeredAt,\r\n            voter.verifiedAt\r\n        );\r\n    }\r\n\r\n    // function getVotersBatch(uint256 _start, uint256 _count) public view returns (\r\n    //     address[] memory wallets,\r\n    //     string[] memory names,\r\n    //     string[] memory emails,\r\n    //     string[] memory statuses,\r\n    //     uint256[] memory registeredAts\r\n    // ) {\r\n    //     require(_start < voterAddresses.length, \"!start\");\r\n        \r\n    //     uint256 end = _start + _count;\r\n    //     if (end > voterAddresses.length) {\r\n    //         end = voterAddresses.length;\r\n    //     }\r\n        \r\n    //     uint256 resultCount = end - _start;\r\n        \r\n    //     wallets = new address[](resultCount);\r\n    //     names = new string[](resultCount);\r\n    //     emails = new string[](resultCount);\r\n    //     statuses = new string[](resultCount);\r\n    //     registeredAts = new uint256[](resultCount);\r\n        \r\n    //     for (uint256 i = 0; i < resultCount; i++) {\r\n    //         address voterAddress = voterAddresses[_start + i];\r\n    //         Voter memory voter = voters[voterAddress];\r\n            \r\n    //         wallets[i] = voter.wallet;\r\n    //         names[i] = voter.name;\r\n    //         emails[i] = voter.email;\r\n    //         statuses[i] = voter.status;\r\n    //         registeredAts[i] = voter.registeredAt;\r\n    //     }\r\n        \r\n    //     return (wallets, names, emails, statuses, registeredAts);\r\n    // }\r\n\r\n    \r\n    function registerCandidate(\r\n        string memory _name,\r\n        string memory _ic,\r\n        string memory _email,\r\n        string memory _party,\r\n        string memory _manifesto\r\n    ) public returns (bytes32) {\r\n        if (candidates[msg.sender].isRegistered) revert AlreadyRegistered();\r\n        bytes32 icHash = keccak256(abi.encodePacked(_ic));\r\n        if (usedICs[icHash]) revert ICAlreadyUsed();\r\n        if (usedEmails[_email]) revert EmailAlreadyUsed();\r\n        \r\n        bytes32 verificationCode = keccak256(\r\n            abi.encodePacked(\r\n                msg.sender,\r\n                _name,\r\n                _ic,\r\n                _email,\r\n                block.timestamp\r\n            )\r\n        );\r\n        candidates[msg.sender] = Candidate({\r\n            wallet: msg.sender,\r\n            name: _name,\r\n            icHash: icHash,\r\n            email: _email,\r\n            party: _party,\r\n            manifesto: _manifesto,\r\n            status: 0,\r\n            verificationCode: verificationCode,\r\n            registeredAt: block.timestamp,\r\n            verifiedAt: 0,\r\n            isRegistered: true\r\n        });\r\n        candidateAddresses.push(msg.sender);\r\n        usedICs[icHash] = true;\r\n        usedEmails[_email] = true;\r\n        \r\n        emit CandidateRegistered(msg.sender, _name, _email, block.timestamp);\r\n        \r\n        return verificationCode;\r\n    }\r\n    \r\n    // ZKP-based verification for candidates (same regCheck circuit, electionId=0)\r\n    // numCandidates=1, candidateIndex=0 used as dummy values during registration.\r\n    function verifyCandidateWithZKP(\r\n        uint[2] calldata _pA,\r\n        uint[2][2] calldata _pB,\r\n        uint[2] calldata _pC,\r\n        uint[9] calldata _pubSignals\r\n    ) public {\r\n        if (!candidates[msg.sender].isRegistered) revert NotRegistered();\r\n        if (candidates[msg.sender].status != 0) revert NotPending();\r\n        if (address(voteVerifier) == address(0)) revert NoVerifier();\r\n\r\n        if (_pubSignals[0] != 18) revert InvalidAge();\r\n        if (_pubSignals[2] != 0) revert InvalidElectionId();\r\n        if (_pubSignals[3] == 0) revert InvalidCommitment();\r\n\r\n        (uint256 blockYear, uint256 blockMonth, uint256 blockDay) = _timestampToDate(block.timestamp);\r\n        if (_pubSignals[4] != blockYear) revert InvalidDate();\r\n        if (_pubSignals[5] != blockMonth) revert InvalidDate();\r\n        if (_pubSignals[6] != blockDay) revert InvalidDate();\r\n\r\n        if (!voteVerifier.verifyProof(_pA, _pB, _pC, _pubSignals)) revert ProofFailed();\r\n\r\n        // Mark as verified\r\n        candidates[msg.sender].status = 1;\r\n        candidates[msg.sender].verifiedAt = block.timestamp;\r\n\r\n        emit CandidateVerified(msg.sender, block.timestamp);\r\n    }\r\n\r\n    function isCandidateRegistered(address _wallet) public view returns (bool) {\r\n        return candidates[_wallet].isRegistered;\r\n    }\r\n    \r\n    function getAllCandidateAddresses() public view returns (address[] memory) {\r\n        return candidateAddresses;\r\n    }\r\n    \r\n    function getTotalRegisteredCandidates() public view returns (uint256) {\r\n        return candidateAddresses.length;\r\n    }\r\n    \r\n    function getCandidateInfo(address _wallet) public view returns (\r\n        string memory name,\r\n        string memory email,\r\n        string memory party,\r\n        string memory manifesto,\r\n        string memory status,\r\n        uint256 registeredAt,\r\n        uint256 verifiedAt\r\n    ) {\r\n        if (!candidates[_wallet].isRegistered) revert NotRegistered();\r\n        \r\n        Candidate memory candidate = candidates[_wallet];\r\n        return (\r\n            candidate.name,\r\n            candidate.email,\r\n            candidate.party,\r\n            candidate.manifesto,\r\n            candidate.status == 1 ? \"VERIFIED\" : \"PENDING_VERIFICATION\",\r\n            candidate.registeredAt,\r\n            candidate.verifiedAt\r\n        );\r\n    }\r\n\r\n    // function getCandidatesBatch(uint256 _start, uint256 _count) public view returns (\r\n    //     address[] memory wallets,\r\n    //     string[] memory names,\r\n    //     string[] memory emails,\r\n    //     string[] memory statuses,\r\n    //     uint256[] memory registeredAts\r\n    // ) {\r\n    //     require(_start < candidateAddresses.length, \"!start\");\r\n        \r\n    //     uint256 end = _start + _count;\r\n    //     if (end > candidateAddresses.length) {\r\n    //         end = candidateAddresses.length;\r\n    //     }\r\n        \r\n    //     uint256 resultCount = end - _start;\r\n        \r\n    //     wallets = new address[](resultCount);\r\n    //     names = new string[](resultCount);\r\n    //     emails = new string[](resultCount);\r\n    //     statuses = new string[](resultCount);\r\n    //     registeredAts = new uint256[](resultCount);\r\n        \r\n    //     for (uint256 i = 0; i < resultCount; i++) {\r\n    //         address candidateAddress = candidateAddresses[_start + i];\r\n    //         Candidate memory candidate = candidates[candidateAddress];\r\n            \r\n    //         wallets[i] = candidate.wallet;\r\n    //         names[i] = candidate.name;\r\n    //         emails[i] = candidate.email;\r\n    //         statuses[i] = candidate.status;\r\n    //         registeredAts[i] = candidate.registeredAt;\r\n    //     }\r\n        \r\n    //     return (wallets, names, emails, statuses, registeredAts);\r\n    // }\r\n\r\n\r\n    function registerOrganizer(\r\n        string memory _organizationName,\r\n        string memory _email,\r\n        string memory _description\r\n    ) public returns (bool) {\r\n        if (organizers[msg.sender].isRegistered) revert AlreadyRegistered();\r\n        if (bytes(_organizationName).length == 0) revert EmptyInput();\r\n        if (bytes(_email).length == 0) revert EmptyInput();\r\n        \r\n        organizers[msg.sender] = Organizer({\r\n            wallet: msg.sender,\r\n            organizationName: _organizationName,\r\n            email: _email,\r\n            description: _description,\r\n            status: 0,\r\n            registeredAt: block.timestamp,\r\n            isRegistered: true\r\n        });\r\n        \r\n        organizerList.push(msg.sender);\r\n        \r\n        emit OrganizerRegistered(msg.sender, _organizationName, block.timestamp);\r\n        \r\n        return true;\r\n    }\r\n\r\n    function verifyOrganizer(address _applicant) public onlyAdmin returns (bool) {\r\n        if (!organizers[_applicant].isRegistered) revert NotRegistered();\r\n        if (organizers[_applicant].status != 0) revert AlreadyProcessed();\r\n        \r\n        organizers[_applicant].status = 1;\r\n        \r\n        emit OrganizerVerified(_applicant, block.timestamp);\r\n        \r\n        return true;\r\n    }\r\n\r\n    function getOrganizerInfo(address _applicant) public view returns (\r\n        string memory organizationName,\r\n        string memory email,\r\n        string memory description,\r\n        string memory status,\r\n        uint256 registeredAt\r\n    ) {\r\n        if (!organizers[_applicant].isRegistered) revert NotRegistered();\r\n        \r\n        Organizer memory org = organizers[_applicant];\r\n        string memory statusStr = org.status == 1 ? \"APPROVED\" : (org.status == 2 ? \"REJECTED\" : \"PENDING\");\r\n        return (\r\n            org.organizationName,\r\n            org.email,\r\n            org.description,\r\n            statusStr,\r\n            org.registeredAt\r\n        );\r\n    }\r\n\r\n    function getAllOrganizers() public view returns (address[] memory) {\r\n        return organizerList;\r\n    }\r\n\r\n    function getPendingOrganizers() public view returns (address[] memory) {\r\n        uint256 pendingCount = 0;\r\n        for (uint256 i = 0; i < organizerList.length; i++) {\r\n            if (organizers[organizerList[i]].status == 0) {\r\n                pendingCount++;\r\n            }\r\n        }\r\n        \r\n        address[] memory pending = new address[](pendingCount);\r\n        uint256 currentIndex = 0;\r\n        \r\n        for (uint256 i = 0; i < organizerList.length; i++) {\r\n            if (organizers[organizerList[i]].status == 0) {\r\n                pending[currentIndex] = organizerList[i];\r\n                currentIndex++;\r\n            }\r\n        }\r\n        \r\n        return pending;\r\n    }\r\n\r\n    function isOrganizer(address _address) public view returns (bool) {\r\n        return organizers[_address].isRegistered && organizers[_address].status == 1;\r\n    }\r\n\r\n    function isOrganizerRegistered(address _address) public view returns (bool) {\r\n        return organizers[_address].isRegistered;\r\n    }\r\n\r\n    function isAdmin(address _address) public view returns (bool) {\r\n        return _address == admin;\r\n    }\r\n\r\n    function createElection(\r\n        string memory _title,\r\n        string memory _description,\r\n        uint256 _nominationStartTime,\r\n        uint256 _nominationEndTime,\r\n        uint256 _startTime,\r\n        uint256 _endTime\r\n    ) public returns (uint256) {\r\n        if (!isOrganizer(msg.sender)) revert Unauthorized();\r\n        if (bytes(_title).length == 0) revert EmptyInput();\r\n        if (_nominationStartTime <= block.timestamp) revert TimingError();\r\n        if (_nominationEndTime <= _nominationStartTime) revert TimingError();\r\n        if (_startTime <= _nominationEndTime) revert TimingError();\r\n        if (_endTime <= _startTime) revert TimingError();\r\n        electionCounter++;\r\n        uint256 newElectionId = electionCounter;\r\n        elections[newElectionId] = Election({\r\n            id: newElectionId,\r\n            title: _title,\r\n            description: _description,\r\n            organizer: msg.sender,\r\n            nominationStartTime: _nominationStartTime,\r\n            nominationEndTime: _nominationEndTime,\r\n            startTime: _startTime,\r\n            endTime: _endTime,\r\n            isActive: true,\r\n            createdAt: block.timestamp,\r\n            totalVotes: 0,\r\n            encryptedTally: \"\",\r\n            tallyStored: false,\r\n            decryptedResult: \"\",\r\n            resultsPublished: false\r\n        });\r\n        electionIds.push(newElectionId);\r\n        \r\n        emit ElectionCreated(\r\n            newElectionId,\r\n            _title,\r\n            msg.sender,\r\n            _nominationStartTime,\r\n            _nominationEndTime,\r\n            _startTime,\r\n            _endTime,\r\n            block.timestamp\r\n        );\r\n        \r\n        return newElectionId;\r\n    }\r\n    \r\n    function getElectionInfo(uint256 _electionId) public view returns (\r\n        string memory title,\r\n        string memory description,\r\n        address organizer,\r\n        uint256 nominationStartTime,\r\n        uint256 nominationEndTime,\r\n        uint256 startTime,\r\n        uint256 endTime,\r\n        bool isActive,\r\n        uint256 createdAt\r\n    ) {\r\n        if (_electionId == 0 || _electionId > electionCounter) revert ElectionNotFound();\r\n        \r\n        Election memory election = elections[_electionId];\r\n        return (\r\n            election.title,\r\n            election.description,\r\n            election.organizer,\r\n            election.nominationStartTime,\r\n            election.nominationEndTime,\r\n            election.startTime,\r\n            election.endTime,\r\n            election.isActive,\r\n            election.createdAt\r\n        );\r\n    }\r\n    \r\n    function getAllElectionIds() public view returns (uint256[] memory) {\r\n        return electionIds;\r\n    }\r\n    \r\n    function getTotalElections() public view returns (uint256) {\r\n        return electionCounter;\r\n    }\r\n    \r\n    function getElectionsByOrganizer(address _organizer) public view returns (uint256[] memory) {\r\n        uint256 count = 0;\r\n        for (uint256 i = 0; i < electionIds.length; i++) {\r\n            if (elections[electionIds[i]].organizer == _organizer) {\r\n                count++;\r\n            }\r\n        }\r\n        uint256[] memory organizerElections = new uint256[](count);\r\n        uint256 currentIndex = 0;\r\n        for (uint256 i = 0; i < electionIds.length; i++) {\r\n            if (elections[electionIds[i]].organizer == _organizer) {\r\n                organizerElections[currentIndex] = electionIds[i];\r\n                currentIndex++;\r\n            }\r\n        }\r\n        \r\n        return organizerElections;\r\n    }\r\n    \r\n    function getActiveElections() public view returns (uint256[] memory) {\r\n        uint256 count = 0;\r\n        for (uint256 i = 0; i < electionIds.length; i++) {\r\n            Election memory election = elections[electionIds[i]];\r\n            if (election.isActive && \r\n                block.timestamp >= election.startTime && \r\n                block.timestamp <= election.endTime) {\r\n                count++;\r\n            }\r\n        }\r\n        uint256[] memory activeElections = new uint256[](count);\r\n        uint256 currentIndex = 0;\r\n        for (uint256 i = 0; i < electionIds.length; i++) {\r\n            Election memory election = elections[electionIds[i]];\r\n            if (election.isActive && \r\n                block.timestamp >= election.startTime && \r\n                block.timestamp <= election.endTime) {\r\n                activeElections[currentIndex] = electionIds[i];\r\n                currentIndex++;\r\n            }\r\n        }\r\n        \r\n        return activeElections;\r\n    }\r\n\r\n    function applyToElection(uint256 _electionId) public returns (bool) {\r\n        if (_electionId > electionCounter) revert ElectionNotFound();\r\n        Election memory election = elections[_electionId];\r\n        if (\r\n            block.timestamp < election.nominationStartTime || \r\n            block.timestamp > election.nominationEndTime\r\n        ) revert NotInNominationWindow();\r\n        if (!candidates[msg.sender].isRegistered) revert NotRegistered();\r\n        if (candidates[msg.sender].status != 1) revert NotVerified();\r\n        if (candidateApplicationStatus[_electionId][msg.sender] != 0) revert AlreadyRegistered();\r\n        candidateApplicationStatus[_electionId][msg.sender] = 1;\r\n        electionCandidateApplicants[_electionId].push(msg.sender);\r\n        \r\n        emit CandidateApplied(_electionId, msg.sender, block.timestamp);\r\n        \r\n        return true;\r\n    }\r\n    \r\n    function getElectionCandidateApplicants(uint256 _electionId) public view returns (address[] memory) {\r\n        if (_electionId > electionCounter) revert ElectionNotFound();\r\n        return electionCandidateApplicants[_electionId];\r\n    }\r\n    \r\n    function approveCandidateForElection(uint256 _electionId, address _candidateWallet) public returns (bool) {\r\n        if (_electionId > electionCounter) revert ElectionNotFound();\r\n        Election memory election = elections[_electionId];\r\n        if (msg.sender != election.organizer && msg.sender != admin) revert Unauthorized();\r\n        if (candidateApplicationStatus[_electionId][_candidateWallet] != 1) revert NotPending();\r\n        if (block.timestamp >= election.startTime) revert ElectionAlreadyStarted();\r\n        candidateApplicationStatus[_electionId][_candidateWallet] = 2;\r\n        \r\n        emit CandidateApproved(_electionId, _candidateWallet, msg.sender, block.timestamp);\r\n        \r\n        return true;\r\n    }\r\n    \r\n    function rejectCandidateForElection(uint256 _electionId, address _candidateWallet) public returns (bool) {\r\n        if (_electionId > electionCounter) revert ElectionNotFound();\r\n        Election memory election = elections[_electionId];\r\n        if (msg.sender != election.organizer && msg.sender != admin) revert Unauthorized();\r\n        if (candidateApplicationStatus[_electionId][_candidateWallet] != 1) revert NotPending();\r\n        if (block.timestamp >= election.startTime) revert ElectionAlreadyStarted();\r\n        candidateApplicationStatus[_electionId][_candidateWallet] = 3;\r\n        \r\n        emit CandidateRejected(_electionId, _candidateWallet, msg.sender, block.timestamp);\r\n        \r\n        return true;\r\n    }\r\n    \r\n    function getApprovedCandidates(uint256 _electionId) public view returns (address[] memory) {\r\n        if (_electionId > electionCounter) revert ElectionNotFound();\r\n        address[] memory applicants = electionCandidateApplicants[_electionId];\r\n        uint256 approvedCount = 0;\r\n        for (uint256 i = 0; i < applicants.length; i++) {\r\n            if (candidateApplicationStatus[_electionId][applicants[i]] == 2) {\r\n                approvedCount++;\r\n            }\r\n        }\r\n        address[] memory approved = new address[](approvedCount);\r\n        uint256 currentIndex = 0;\r\n        for (uint256 i = 0; i < applicants.length; i++) {\r\n            if (candidateApplicationStatus[_electionId][applicants[i]] == 2) {\r\n                approved[currentIndex] = applicants[i];\r\n                currentIndex++;\r\n            }\r\n        }\r\n        \r\n        return approved;\r\n    }\r\n    \r\n    /**\r\n     * @dev Cast an encrypted vote using ZKP — proves eligibility without revealing identity.\r\n     *\r\n     * Public signals order (must match VoteWithICAgeCheck circuit):\r\n     *   _pubSignals[0] = ageThreshold\r\n     *   _pubSignals[1] = nullifierHash   (H(voterSecret, electionId) — prevents double voting)\r\n     *   _pubSignals[2] = electionId\r\n     *   _pubSignals[3] = voterCommitment (H(voterAddress, voterSecret) — proves registration)\r\n     *   _pubSignals[4] = currentYear\r\n     *   _pubSignals[5] = currentMonth\r\n     *   _pubSignals[6] = currentDay\r\n     *   _pubSignals[7] = numCandidates    (approved candidate count)\r\n     *   _pubSignals[8] = choiceCommitment (Poseidon(candidateIndex, voterSecret, electionId))\r\n     *\r\n     * @param _electionId  Election to vote in\r\n     * @param _ipfsCID     IPFS CID of the encrypted ballot\r\n     * @param _pA          ZKP proof component A\r\n     * @param _pB          ZKP proof component B\r\n     * @param _pC          ZKP proof component C\r\n     * @param _pubSignals  9 public signals from the circuit\r\n     */\r\n    function vote(\r\n        uint256 _electionId,\r\n        string memory _ipfsCID,\r\n        uint[2] calldata _pA,\r\n        uint[2][2] calldata _pB,\r\n        uint[2] calldata _pC,\r\n        uint[9] calldata _pubSignals\r\n    ) public returns (bool) {\r\n        if (_electionId > electionCounter) revert ElectionNotFound();\r\n        Election storage election = elections[_electionId];\r\n        if (block.timestamp < election.startTime || block.timestamp > election.endTime) revert ElectionNotOpen();\r\n        if (bytes(_ipfsCID).length == 0) revert EmptyInput();\r\n        if (!isPaillierKeySet) revert KeyNotSet();\r\n        if (address(voteVerifier) == address(0)) revert NoVerifier();\r\n\r\n        if (_pubSignals[2] != _electionId) revert InvalidElectionId();\r\n        if (_pubSignals[0] != 18) revert InvalidAge();\r\n\r\n        (uint256 blockYear, uint256 blockMonth, uint256 blockDay) = _timestampToDate(block.timestamp);\r\n        if (_pubSignals[4] != blockYear) revert InvalidDate();\r\n        if (_pubSignals[5] != blockMonth) revert InvalidDate();\r\n        if (_pubSignals[6] != blockDay) revert InvalidDate();\r\n\r\n        if (_pubSignals[7] != getApprovedCandidates(_electionId).length) revert CandidateCountMismatch();\r\n\r\n        bytes32 nullifier = bytes32(_pubSignals[1]);\r\n        if (nullifierUsed[_electionId][nullifier]) revert AlreadyVoted();\r\n\r\n        bytes32 commitment = bytes32(_pubSignals[3]);\r\n        if (!voterCommitments[commitment]) revert NotRegistered();\r\n\r\n        if (!voteVerifier.verifyProof(_pA, _pB, _pC, _pubSignals)) revert ProofFailed();\r\n\r\n        // Record vote anonymously (keyed by nullifier, NOT address)\r\n        bytes32 choiceCommitment = bytes32(_pubSignals[8]);\r\n        nullifierUsed[_electionId][nullifier] = true;\r\n        zkpVotes[_electionId][nullifier] = _ipfsCID;\r\n        voteChoiceCommitments[_electionId][nullifier] = choiceCommitment;\r\n        zkpVoteNullifiers[_electionId].push(nullifier);\r\n        election.totalVotes++;\r\n\r\n        emit ZKPVoteCast(_electionId, nullifier, choiceCommitment, block.timestamp);\r\n\r\n        return true;\r\n    }\r\n\r\n    /**\r\n     * @dev Convert a Unix timestamp to (year, month, day).\r\n     *      Used to validate the date embedded in the ZKP public signals.\r\n     */\r\n    function _timestampToDate(uint256 timestamp)\r\n        internal\r\n        pure\r\n        returns (uint256 year, uint256 month, uint256 day)\r\n    {\r\n        uint256 z = timestamp / 86400 + 719468;\r\n        uint256 era = z / 146097;\r\n        uint256 doe = z - era * 146097;\r\n        uint256 yoe = (doe - doe / 1460 + doe / 36524 - doe / 146096) / 365;\r\n        year = yoe + era * 400;\r\n        uint256 doy = doe - (365 * yoe + yoe / 4 - yoe / 100);\r\n        uint256 mp = (5 * doy + 2) / 153;\r\n        day = doy - (153 * mp + 2) / 5 + 1;\r\n        month = mp < 10 ? mp + 3 : mp - 9;\r\n        if (month <= 2) year++;\r\n    }\r\n\r\n    /**\r\n     * @dev Get the IPFS CID of an anonymous ZKP vote by its nullifier.\r\n     */\r\n    function getZKPVote(uint256 _electionId, bytes32 _nullifier)\r\n        public\r\n        view\r\n        returns (string memory)\r\n    {\r\n        return zkpVotes[_electionId][_nullifier];\r\n    }\r\n\r\n    /**\r\n     * @dev Get all nullifiers (anonymous voter tokens) for an election — used for tally.\r\n     */\r\n    function getZKPVoteNullifiers(uint256 _electionId)\r\n        public\r\n        view\r\n        returns (bytes32[] memory)\r\n    {\r\n        return zkpVoteNullifiers[_electionId];\r\n    }\r\n\r\n    /**\r\n     * @dev Get the choice commitment stored for a given nullifier.\r\n     *      Voter can verify their ballot by recomputing\r\n     *      Poseidon(candidateIndex, voterSecret, electionId) client-side\r\n     *      and comparing against this value — without revealing their choice on-chain.\r\n     */\r\n    function getChoiceCommitment(uint256 _electionId, bytes32 _nullifier)\r\n        public\r\n        view\r\n        returns (bytes32)\r\n    {\r\n        return voteChoiceCommitments[_electionId][_nullifier];\r\n    }\r\n\r\n    /**\r\n     * @dev Check whether a nullifier has already been used in an election.\r\n     *      Caller computes nullifier = Poseidon(voterSecret, electionId) client-side.\r\n     *      Wallet address is never stored — voting is fully anonymous.\r\n     */\r\n    function hasVoterVoted(uint256 _electionId, bytes32 _nullifier) public view returns (bool) {\r\n        return nullifierUsed[_electionId][_nullifier];\r\n    }\r\n\r\n    \r\n    function getElectionTotalVotes(uint256 _electionId) public view returns (uint256) {\r\n        if (_electionId > electionCounter) revert ElectionNotFound();\r\n        return elections[_electionId].totalVotes;\r\n    }\r\n    \r\n    // ===== PHASE 4: Threshold Decryption & Results =====\r\n    \r\n    /**\r\n     * @dev Publish the decrypted election results on-chain.\r\n     *      Requires that enough decryption shares have been registered.\r\n     * @param _electionId The election ID\r\n     * @param _decryptedResult JSON-encoded decrypted tally (e.g. per-candidate totals)\r\n     */\r\n    function publishResults(uint256 _electionId, string memory _decryptedResult) public {\r\n        if (elections[_electionId].id == 0) revert ElectionNotFound();\r\n        if (msg.sender != admin && msg.sender != elections[_electionId].organizer) revert Unauthorized();\r\n        if (!elections[_electionId].tallyStored) revert TallyNotStored();\r\n        if (elections[_electionId].resultsPublished) revert AlreadyPublished();\r\n        if (bytes(_decryptedResult).length == 0) revert EmptyInput();\r\n        \r\n        elections[_electionId].decryptedResult = _decryptedResult;\r\n        elections[_electionId].resultsPublished = true;\r\n        \r\n        emit ResultsPublished(_electionId, _decryptedResult, block.timestamp);\r\n    }\r\n    \r\n    /**\r\n     * @dev Get the published results for an election\r\n     * @param _electionId The election ID\r\n     */\r\n    function getResults(uint256 _electionId) public view returns (\r\n        string memory decryptedResult,\r\n        bool resultsPublished,\r\n        uint256 shareCount\r\n    ) {\r\n        if (elections[_electionId].id == 0) revert ElectionNotFound();\r\n        return (\r\n            elections[_electionId].decryptedResult,\r\n            elections[_electionId].resultsPublished,\r\n            decryptionShareCount[_electionId]\r\n        );\r\n    }\r\n    \r\n}\r\n",
  "sourcePath": "C:\\Users\\ASUS\\Projects\\BlockVote\\smart-contract\\contracts\\contract.sol",
  "compiler": {
    "name": "solc",
    "version": "0.8.19+commit.7dd6d404.Emscripten.clang"
  },
  "schemaVersion": "3.4.16",
  "updatedAt": "2026-03-08T09:40:53.157Z",
  "networkType": "ethereum",
  "devdoc": {
    "kind": "dev",
    "methods": {
      "allTrusteesCommitted()": {
        "details": "Check if all trustees have submitted their commitments"
      },
      "getChoiceCommitment(uint256,bytes32)": {
        "details": "Get the choice commitment stored for a given nullifier.      Voter can verify their ballot by recomputing      Poseidon(candidateIndex, voterSecret, electionId) client-side      and comparing against this value — without revealing their choice on-chain."
      },
      "getPaillierPublicKey()": {
        "details": "Get Paillier public key"
      },
      "getResults(uint256)": {
        "details": "Get the published results for an election",
        "params": {
          "_electionId": "The election ID"
        }
      },
      "getTrusteeAddresses()": {
        "details": "Get list of all trustee addresses"
      },
      "getTrusteeInfo(address)": {
        "details": "Get trustee information"
      },
      "getZKPVote(uint256,bytes32)": {
        "details": "Get the IPFS CID of an anonymous ZKP vote by its nullifier."
      },
      "getZKPVoteNullifiers(uint256)": {
        "details": "Get all nullifiers (anonymous voter tokens) for an election — used for tally."
      },
      "hasVoterVoted(uint256,bytes32)": {
        "details": "Check whether a nullifier has already been used in an election.      Caller computes nullifier = Poseidon(voterSecret, electionId) client-side.      Wallet address is never stored — voting is fully anonymous."
      },
      "publishResults(uint256,string)": {
        "details": "Publish the decrypted election results on-chain.      Requires that enough decryption shares have been registered.",
        "params": {
          "_decryptedResult": "JSON-encoded decrypted tally (e.g. per-candidate totals)",
          "_electionId": "The election ID"
        }
      },
      "setPaillierPublicKey(string)": {
        "details": "Set the Paillier public key (can only be set once by admin)",
        "params": {
          "_publicKeyN": "The public key modulus N as a string"
        }
      },
      "submitShareCommitment(address,bytes32)": {
        "details": "Submit a commitment (hash) of a trustee's secret share.      Can be called by the trustee themselves, or by admin (e.g. during automated setup).",
        "params": {
          "_commitment": "Hash of the secret share (keccak256 of share data)",
          "_trustee": "Address of the trustee whose commitment is being submitted"
        }
      },
      "vote(uint256,string,uint256[2],uint256[2][2],uint256[2],uint256[9])": {
        "details": "Cast an encrypted vote using ZKP — proves eligibility without revealing identity. Public signals order (must match VoteWithICAgeCheck circuit):   _pubSignals[0] = ageThreshold   _pubSignals[1] = nullifierHash   (H(voterSecret, electionId) — prevents double voting)   _pubSignals[2] = electionId   _pubSignals[3] = voterCommitment (H(voterAddress, voterSecret) — proves registration)   _pubSignals[4] = currentYear   _pubSignals[5] = currentMonth   _pubSignals[6] = currentDay   _pubSignals[7] = numCandidates    (approved candidate count)   _pubSignals[8] = choiceCommitment (Poseidon(candidateIndex, voterSecret, electionId))",
        "params": {
          "_electionId": "Election to vote in",
          "_ipfsCID": "IPFS CID of the encrypted ballot",
          "_pA": "ZKP proof component A",
          "_pB": "ZKP proof component B",
          "_pC": "ZKP proof component C",
          "_pubSignals": "9 public signals from the circuit"
        }
      }
    },
    "version": 1
  },
  "userdoc": {
    "kind": "user",
    "methods": {},
    "version": 1
  }
}