{
  "contractName": "Contract",
  "abi": [
    {
      "inputs": [],
      "stateMutability": "nonpayable",
      "type": "constructor"
    },
    {
      "anonymous": false,
      "inputs": [
        {
          "indexed": true,
          "internalType": "uint256",
          "name": "electionId",
          "type": "uint256"
        },
        {
          "indexed": true,
          "internalType": "address",
          "name": "candidateWallet",
          "type": "address"
        },
        {
          "indexed": false,
          "internalType": "uint256",
          "name": "timestamp",
          "type": "uint256"
        }
      ],
      "name": "CandidateApplied",
      "type": "event"
    },
    {
      "anonymous": false,
      "inputs": [
        {
          "indexed": true,
          "internalType": "uint256",
          "name": "electionId",
          "type": "uint256"
        },
        {
          "indexed": true,
          "internalType": "address",
          "name": "candidateWallet",
          "type": "address"
        },
        {
          "indexed": true,
          "internalType": "address",
          "name": "approver",
          "type": "address"
        },
        {
          "indexed": false,
          "internalType": "uint256",
          "name": "timestamp",
          "type": "uint256"
        }
      ],
      "name": "CandidateApproved",
      "type": "event"
    },
    {
      "anonymous": false,
      "inputs": [
        {
          "indexed": true,
          "internalType": "address",
          "name": "wallet",
          "type": "address"
        },
        {
          "indexed": false,
          "internalType": "string",
          "name": "name",
          "type": "string"
        },
        {
          "indexed": false,
          "internalType": "string",
          "name": "email",
          "type": "string"
        },
        {
          "indexed": false,
          "internalType": "uint256",
          "name": "timestamp",
          "type": "uint256"
        }
      ],
      "name": "CandidateRegistered",
      "type": "event"
    },
    {
      "anonymous": false,
      "inputs": [
        {
          "indexed": true,
          "internalType": "uint256",
          "name": "electionId",
          "type": "uint256"
        },
        {
          "indexed": true,
          "internalType": "address",
          "name": "candidateWallet",
          "type": "address"
        },
        {
          "indexed": true,
          "internalType": "address",
          "name": "rejector",
          "type": "address"
        },
        {
          "indexed": false,
          "internalType": "uint256",
          "name": "timestamp",
          "type": "uint256"
        }
      ],
      "name": "CandidateRejected",
      "type": "event"
    },
    {
      "anonymous": false,
      "inputs": [
        {
          "indexed": true,
          "internalType": "address",
          "name": "wallet",
          "type": "address"
        },
        {
          "indexed": false,
          "internalType": "uint256",
          "name": "timestamp",
          "type": "uint256"
        }
      ],
      "name": "CandidateVerified",
      "type": "event"
    },
    {
      "anonymous": false,
      "inputs": [
        {
          "indexed": true,
          "internalType": "uint256",
          "name": "electionId",
          "type": "uint256"
        },
        {
          "indexed": false,
          "internalType": "string",
          "name": "title",
          "type": "string"
        },
        {
          "indexed": true,
          "internalType": "address",
          "name": "organizer",
          "type": "address"
        },
        {
          "indexed": false,
          "internalType": "uint256",
          "name": "nominationStartTime",
          "type": "uint256"
        },
        {
          "indexed": false,
          "internalType": "uint256",
          "name": "nominationEndTime",
          "type": "uint256"
        },
        {
          "indexed": false,
          "internalType": "uint256",
          "name": "startTime",
          "type": "uint256"
        },
        {
          "indexed": false,
          "internalType": "uint256",
          "name": "endTime",
          "type": "uint256"
        },
        {
          "indexed": false,
          "internalType": "uint256",
          "name": "timestamp",
          "type": "uint256"
        }
      ],
      "name": "ElectionCreated",
      "type": "event"
    },
    {
      "anonymous": false,
      "inputs": [
        {
          "indexed": true,
          "internalType": "address",
          "name": "applicant",
          "type": "address"
        },
        {
          "indexed": false,
          "internalType": "string",
          "name": "organizationName",
          "type": "string"
        },
        {
          "indexed": false,
          "internalType": "uint256",
          "name": "timestamp",
          "type": "uint256"
        }
      ],
      "name": "OrganizerRegistered",
      "type": "event"
    },
    {
      "anonymous": false,
      "inputs": [
        {
          "indexed": true,
          "internalType": "address",
          "name": "applicant",
          "type": "address"
        },
        {
          "indexed": false,
          "internalType": "uint256",
          "name": "timestamp",
          "type": "uint256"
        }
      ],
      "name": "OrganizerRejected",
      "type": "event"
    },
    {
      "anonymous": false,
      "inputs": [
        {
          "indexed": true,
          "internalType": "address",
          "name": "applicant",
          "type": "address"
        },
        {
          "indexed": false,
          "internalType": "uint256",
          "name": "timestamp",
          "type": "uint256"
        }
      ],
      "name": "OrganizerVerified",
      "type": "event"
    },
    {
      "anonymous": false,
      "inputs": [
        {
          "indexed": true,
          "internalType": "uint256",
          "name": "electionId",
          "type": "uint256"
        },
        {
          "indexed": true,
          "internalType": "address",
          "name": "voter",
          "type": "address"
        },
        {
          "indexed": true,
          "internalType": "address",
          "name": "candidate",
          "type": "address"
        },
        {
          "indexed": false,
          "internalType": "uint256",
          "name": "timestamp",
          "type": "uint256"
        }
      ],
      "name": "VoteCast",
      "type": "event"
    },
    {
      "anonymous": false,
      "inputs": [
        {
          "indexed": true,
          "internalType": "address",
          "name": "wallet",
          "type": "address"
        },
        {
          "indexed": false,
          "internalType": "string",
          "name": "name",
          "type": "string"
        },
        {
          "indexed": false,
          "internalType": "string",
          "name": "email",
          "type": "string"
        },
        {
          "indexed": false,
          "internalType": "uint256",
          "name": "timestamp",
          "type": "uint256"
        }
      ],
      "name": "VoterRegistered",
      "type": "event"
    },
    {
      "anonymous": false,
      "inputs": [
        {
          "indexed": true,
          "internalType": "address",
          "name": "wallet",
          "type": "address"
        },
        {
          "indexed": false,
          "internalType": "uint256",
          "name": "timestamp",
          "type": "uint256"
        }
      ],
      "name": "VoterVerified",
      "type": "event"
    },
    {
      "inputs": [],
      "name": "admin",
      "outputs": [
        {
          "internalType": "address",
          "name": "",
          "type": "address"
        }
      ],
      "stateMutability": "view",
      "type": "function",
      "constant": true
    },
    {
      "inputs": [
        {
          "internalType": "uint256",
          "name": "",
          "type": "uint256"
        },
        {
          "internalType": "address",
          "name": "",
          "type": "address"
        }
      ],
      "name": "candidateApplicationStatus",
      "outputs": [
        {
          "internalType": "uint8",
          "name": "",
          "type": "uint8"
        }
      ],
      "stateMutability": "view",
      "type": "function",
      "constant": true
    },
    {
      "inputs": [
        {
          "internalType": "uint256",
          "name": "",
          "type": "uint256"
        },
        {
          "internalType": "address",
          "name": "",
          "type": "address"
        }
      ],
      "name": "candidateVotes",
      "outputs": [
        {
          "internalType": "uint256",
          "name": "",
          "type": "uint256"
        }
      ],
      "stateMutability": "view",
      "type": "function",
      "constant": true
    },
    {
      "inputs": [
        {
          "internalType": "address",
          "name": "",
          "type": "address"
        }
      ],
      "name": "candidates",
      "outputs": [
        {
          "internalType": "address",
          "name": "wallet",
          "type": "address"
        },
        {
          "internalType": "string",
          "name": "name",
          "type": "string"
        },
        {
          "internalType": "bytes32",
          "name": "icHash",
          "type": "bytes32"
        },
        {
          "internalType": "string",
          "name": "email",
          "type": "string"
        },
        {
          "internalType": "string",
          "name": "party",
          "type": "string"
        },
        {
          "internalType": "string",
          "name": "manifesto",
          "type": "string"
        },
        {
          "internalType": "string",
          "name": "status",
          "type": "string"
        },
        {
          "internalType": "bytes32",
          "name": "verificationCode",
          "type": "bytes32"
        },
        {
          "internalType": "uint256",
          "name": "registeredAt",
          "type": "uint256"
        },
        {
          "internalType": "uint256",
          "name": "verifiedAt",
          "type": "uint256"
        },
        {
          "internalType": "bool",
          "name": "isRegistered",
          "type": "bool"
        }
      ],
      "stateMutability": "view",
      "type": "function",
      "constant": true
    },
    {
      "inputs": [
        {
          "internalType": "uint256",
          "name": "",
          "type": "uint256"
        }
      ],
      "name": "elections",
      "outputs": [
        {
          "internalType": "uint256",
          "name": "id",
          "type": "uint256"
        },
        {
          "internalType": "string",
          "name": "title",
          "type": "string"
        },
        {
          "internalType": "string",
          "name": "description",
          "type": "string"
        },
        {
          "internalType": "address",
          "name": "organizer",
          "type": "address"
        },
        {
          "internalType": "uint256",
          "name": "nominationStartTime",
          "type": "uint256"
        },
        {
          "internalType": "uint256",
          "name": "nominationEndTime",
          "type": "uint256"
        },
        {
          "internalType": "uint256",
          "name": "startTime",
          "type": "uint256"
        },
        {
          "internalType": "uint256",
          "name": "endTime",
          "type": "uint256"
        },
        {
          "internalType": "bool",
          "name": "isActive",
          "type": "bool"
        },
        {
          "internalType": "uint256",
          "name": "createdAt",
          "type": "uint256"
        },
        {
          "internalType": "uint256",
          "name": "totalVotes",
          "type": "uint256"
        }
      ],
      "stateMutability": "view",
      "type": "function",
      "constant": true
    },
    {
      "inputs": [
        {
          "internalType": "uint256",
          "name": "",
          "type": "uint256"
        },
        {
          "internalType": "address",
          "name": "",
          "type": "address"
        }
      ],
      "name": "hasVoted",
      "outputs": [
        {
          "internalType": "bool",
          "name": "",
          "type": "bool"
        }
      ],
      "stateMutability": "view",
      "type": "function",
      "constant": true
    },
    {
      "inputs": [
        {
          "internalType": "address",
          "name": "",
          "type": "address"
        }
      ],
      "name": "organizers",
      "outputs": [
        {
          "internalType": "address",
          "name": "wallet",
          "type": "address"
        },
        {
          "internalType": "string",
          "name": "organizationName",
          "type": "string"
        },
        {
          "internalType": "string",
          "name": "email",
          "type": "string"
        },
        {
          "internalType": "string",
          "name": "description",
          "type": "string"
        },
        {
          "internalType": "string",
          "name": "status",
          "type": "string"
        },
        {
          "internalType": "uint256",
          "name": "registeredAt",
          "type": "uint256"
        },
        {
          "internalType": "bool",
          "name": "isRegistered",
          "type": "bool"
        }
      ],
      "stateMutability": "view",
      "type": "function",
      "constant": true
    },
    {
      "inputs": [
        {
          "internalType": "address",
          "name": "",
          "type": "address"
        }
      ],
      "name": "voters",
      "outputs": [
        {
          "internalType": "address",
          "name": "wallet",
          "type": "address"
        },
        {
          "internalType": "string",
          "name": "name",
          "type": "string"
        },
        {
          "internalType": "bytes32",
          "name": "icHash",
          "type": "bytes32"
        },
        {
          "internalType": "string",
          "name": "email",
          "type": "string"
        },
        {
          "internalType": "string",
          "name": "status",
          "type": "string"
        },
        {
          "internalType": "bytes32",
          "name": "verificationCode",
          "type": "bytes32"
        },
        {
          "internalType": "uint256",
          "name": "registeredAt",
          "type": "uint256"
        },
        {
          "internalType": "uint256",
          "name": "verifiedAt",
          "type": "uint256"
        },
        {
          "internalType": "bool",
          "name": "isRegistered",
          "type": "bool"
        }
      ],
      "stateMutability": "view",
      "type": "function",
      "constant": true
    },
    {
      "inputs": [
        {
          "internalType": "string",
          "name": "_ic",
          "type": "string"
        }
      ],
      "name": "isICRegistered",
      "outputs": [
        {
          "internalType": "bool",
          "name": "",
          "type": "bool"
        }
      ],
      "stateMutability": "view",
      "type": "function",
      "constant": true
    },
    {
      "inputs": [
        {
          "internalType": "string",
          "name": "_email",
          "type": "string"
        }
      ],
      "name": "isEmailRegistered",
      "outputs": [
        {
          "internalType": "bool",
          "name": "",
          "type": "bool"
        }
      ],
      "stateMutability": "view",
      "type": "function",
      "constant": true
    },
    {
      "inputs": [
        {
          "internalType": "string",
          "name": "_name",
          "type": "string"
        },
        {
          "internalType": "string",
          "name": "_ic",
          "type": "string"
        },
        {
          "internalType": "string",
          "name": "_email",
          "type": "string"
        }
      ],
      "name": "registerVoter",
      "outputs": [
        {
          "internalType": "bytes32",
          "name": "",
          "type": "bytes32"
        }
      ],
      "stateMutability": "nonpayable",
      "type": "function"
    },
    {
      "inputs": [
        {
          "internalType": "bytes32",
          "name": "_verificationCode",
          "type": "bytes32"
        }
      ],
      "name": "verifyVoter",
      "outputs": [],
      "stateMutability": "nonpayable",
      "type": "function"
    },
    {
      "inputs": [
        {
          "internalType": "address",
          "name": "_wallet",
          "type": "address"
        }
      ],
      "name": "isVoterRegistered",
      "outputs": [
        {
          "internalType": "bool",
          "name": "",
          "type": "bool"
        }
      ],
      "stateMutability": "view",
      "type": "function",
      "constant": true
    },
    {
      "inputs": [
        {
          "internalType": "address",
          "name": "_wallet",
          "type": "address"
        }
      ],
      "name": "isWalletRegistered",
      "outputs": [
        {
          "internalType": "bool",
          "name": "",
          "type": "bool"
        }
      ],
      "stateMutability": "view",
      "type": "function",
      "constant": true
    },
    {
      "inputs": [],
      "name": "getAllVoterAddresses",
      "outputs": [
        {
          "internalType": "address[]",
          "name": "",
          "type": "address[]"
        }
      ],
      "stateMutability": "view",
      "type": "function",
      "constant": true
    },
    {
      "inputs": [],
      "name": "getTotalRegisteredVoters",
      "outputs": [
        {
          "internalType": "uint256",
          "name": "",
          "type": "uint256"
        }
      ],
      "stateMutability": "view",
      "type": "function",
      "constant": true
    },
    {
      "inputs": [
        {
          "internalType": "address",
          "name": "_wallet",
          "type": "address"
        }
      ],
      "name": "getVoterInfo",
      "outputs": [
        {
          "internalType": "string",
          "name": "name",
          "type": "string"
        },
        {
          "internalType": "string",
          "name": "email",
          "type": "string"
        },
        {
          "internalType": "string",
          "name": "status",
          "type": "string"
        },
        {
          "internalType": "uint256",
          "name": "registeredAt",
          "type": "uint256"
        },
        {
          "internalType": "uint256",
          "name": "verifiedAt",
          "type": "uint256"
        }
      ],
      "stateMutability": "view",
      "type": "function",
      "constant": true
    },
    {
      "inputs": [
        {
          "internalType": "uint256",
          "name": "_start",
          "type": "uint256"
        },
        {
          "internalType": "uint256",
          "name": "_count",
          "type": "uint256"
        }
      ],
      "name": "getVotersBatch",
      "outputs": [
        {
          "internalType": "address[]",
          "name": "wallets",
          "type": "address[]"
        },
        {
          "internalType": "string[]",
          "name": "names",
          "type": "string[]"
        },
        {
          "internalType": "string[]",
          "name": "emails",
          "type": "string[]"
        },
        {
          "internalType": "string[]",
          "name": "statuses",
          "type": "string[]"
        },
        {
          "internalType": "uint256[]",
          "name": "registeredAts",
          "type": "uint256[]"
        }
      ],
      "stateMutability": "view",
      "type": "function",
      "constant": true
    },
    {
      "inputs": [
        {
          "internalType": "string",
          "name": "_name",
          "type": "string"
        },
        {
          "internalType": "string",
          "name": "_ic",
          "type": "string"
        },
        {
          "internalType": "string",
          "name": "_email",
          "type": "string"
        },
        {
          "internalType": "string",
          "name": "_party",
          "type": "string"
        },
        {
          "internalType": "string",
          "name": "_manifesto",
          "type": "string"
        }
      ],
      "name": "registerCandidate",
      "outputs": [
        {
          "internalType": "bytes32",
          "name": "",
          "type": "bytes32"
        }
      ],
      "stateMutability": "nonpayable",
      "type": "function"
    },
    {
      "inputs": [
        {
          "internalType": "bytes32",
          "name": "_verificationCode",
          "type": "bytes32"
        }
      ],
      "name": "verifyCandidate",
      "outputs": [],
      "stateMutability": "nonpayable",
      "type": "function"
    },
    {
      "inputs": [
        {
          "internalType": "address",
          "name": "_wallet",
          "type": "address"
        }
      ],
      "name": "isCandidateRegistered",
      "outputs": [
        {
          "internalType": "bool",
          "name": "",
          "type": "bool"
        }
      ],
      "stateMutability": "view",
      "type": "function",
      "constant": true
    },
    {
      "inputs": [],
      "name": "getAllCandidateAddresses",
      "outputs": [
        {
          "internalType": "address[]",
          "name": "",
          "type": "address[]"
        }
      ],
      "stateMutability": "view",
      "type": "function",
      "constant": true
    },
    {
      "inputs": [],
      "name": "getTotalRegisteredCandidates",
      "outputs": [
        {
          "internalType": "uint256",
          "name": "",
          "type": "uint256"
        }
      ],
      "stateMutability": "view",
      "type": "function",
      "constant": true
    },
    {
      "inputs": [
        {
          "internalType": "address",
          "name": "_wallet",
          "type": "address"
        }
      ],
      "name": "getCandidateInfo",
      "outputs": [
        {
          "internalType": "string",
          "name": "name",
          "type": "string"
        },
        {
          "internalType": "string",
          "name": "email",
          "type": "string"
        },
        {
          "internalType": "string",
          "name": "party",
          "type": "string"
        },
        {
          "internalType": "string",
          "name": "manifesto",
          "type": "string"
        },
        {
          "internalType": "string",
          "name": "status",
          "type": "string"
        },
        {
          "internalType": "uint256",
          "name": "registeredAt",
          "type": "uint256"
        },
        {
          "internalType": "uint256",
          "name": "verifiedAt",
          "type": "uint256"
        }
      ],
      "stateMutability": "view",
      "type": "function",
      "constant": true
    },
    {
      "inputs": [
        {
          "internalType": "uint256",
          "name": "_start",
          "type": "uint256"
        },
        {
          "internalType": "uint256",
          "name": "_count",
          "type": "uint256"
        }
      ],
      "name": "getCandidatesBatch",
      "outputs": [
        {
          "internalType": "address[]",
          "name": "wallets",
          "type": "address[]"
        },
        {
          "internalType": "string[]",
          "name": "names",
          "type": "string[]"
        },
        {
          "internalType": "string[]",
          "name": "emails",
          "type": "string[]"
        },
        {
          "internalType": "string[]",
          "name": "statuses",
          "type": "string[]"
        },
        {
          "internalType": "uint256[]",
          "name": "registeredAts",
          "type": "uint256[]"
        }
      ],
      "stateMutability": "view",
      "type": "function",
      "constant": true
    },
    {
      "inputs": [
        {
          "internalType": "string",
          "name": "_organizationName",
          "type": "string"
        },
        {
          "internalType": "string",
          "name": "_email",
          "type": "string"
        },
        {
          "internalType": "string",
          "name": "_description",
          "type": "string"
        }
      ],
      "name": "registerOrganizer",
      "outputs": [
        {
          "internalType": "bool",
          "name": "",
          "type": "bool"
        }
      ],
      "stateMutability": "nonpayable",
      "type": "function"
    },
    {
      "inputs": [
        {
          "internalType": "address",
          "name": "_applicant",
          "type": "address"
        }
      ],
      "name": "verifyOrganizer",
      "outputs": [
        {
          "internalType": "bool",
          "name": "",
          "type": "bool"
        }
      ],
      "stateMutability": "nonpayable",
      "type": "function"
    },
    {
      "inputs": [
        {
          "internalType": "address",
          "name": "_applicant",
          "type": "address"
        }
      ],
      "name": "getOrganizerInfo",
      "outputs": [
        {
          "internalType": "string",
          "name": "organizationName",
          "type": "string"
        },
        {
          "internalType": "string",
          "name": "email",
          "type": "string"
        },
        {
          "internalType": "string",
          "name": "description",
          "type": "string"
        },
        {
          "internalType": "string",
          "name": "status",
          "type": "string"
        },
        {
          "internalType": "uint256",
          "name": "registeredAt",
          "type": "uint256"
        }
      ],
      "stateMutability": "view",
      "type": "function",
      "constant": true
    },
    {
      "inputs": [],
      "name": "getAllOrganizers",
      "outputs": [
        {
          "internalType": "address[]",
          "name": "",
          "type": "address[]"
        }
      ],
      "stateMutability": "view",
      "type": "function",
      "constant": true
    },
    {
      "inputs": [],
      "name": "getPendingOrganizers",
      "outputs": [
        {
          "internalType": "address[]",
          "name": "",
          "type": "address[]"
        }
      ],
      "stateMutability": "view",
      "type": "function",
      "constant": true
    },
    {
      "inputs": [
        {
          "internalType": "address",
          "name": "_address",
          "type": "address"
        }
      ],
      "name": "isOrganizer",
      "outputs": [
        {
          "internalType": "bool",
          "name": "",
          "type": "bool"
        }
      ],
      "stateMutability": "view",
      "type": "function",
      "constant": true
    },
    {
      "inputs": [
        {
          "internalType": "address",
          "name": "_address",
          "type": "address"
        }
      ],
      "name": "isOrganizerRegistered",
      "outputs": [
        {
          "internalType": "bool",
          "name": "",
          "type": "bool"
        }
      ],
      "stateMutability": "view",
      "type": "function",
      "constant": true
    },
    {
      "inputs": [
        {
          "internalType": "address",
          "name": "_address",
          "type": "address"
        }
      ],
      "name": "isAdmin",
      "outputs": [
        {
          "internalType": "bool",
          "name": "",
          "type": "bool"
        }
      ],
      "stateMutability": "view",
      "type": "function",
      "constant": true
    },
    {
      "inputs": [
        {
          "internalType": "string",
          "name": "_title",
          "type": "string"
        },
        {
          "internalType": "string",
          "name": "_description",
          "type": "string"
        },
        {
          "internalType": "uint256",
          "name": "_nominationStartTime",
          "type": "uint256"
        },
        {
          "internalType": "uint256",
          "name": "_nominationEndTime",
          "type": "uint256"
        },
        {
          "internalType": "uint256",
          "name": "_startTime",
          "type": "uint256"
        },
        {
          "internalType": "uint256",
          "name": "_endTime",
          "type": "uint256"
        }
      ],
      "name": "createElection",
      "outputs": [
        {
          "internalType": "uint256",
          "name": "",
          "type": "uint256"
        }
      ],
      "stateMutability": "nonpayable",
      "type": "function"
    },
    {
      "inputs": [
        {
          "internalType": "uint256",
          "name": "_electionId",
          "type": "uint256"
        }
      ],
      "name": "getElectionInfo",
      "outputs": [
        {
          "internalType": "string",
          "name": "title",
          "type": "string"
        },
        {
          "internalType": "string",
          "name": "description",
          "type": "string"
        },
        {
          "internalType": "address",
          "name": "organizer",
          "type": "address"
        },
        {
          "internalType": "uint256",
          "name": "nominationStartTime",
          "type": "uint256"
        },
        {
          "internalType": "uint256",
          "name": "nominationEndTime",
          "type": "uint256"
        },
        {
          "internalType": "uint256",
          "name": "startTime",
          "type": "uint256"
        },
        {
          "internalType": "uint256",
          "name": "endTime",
          "type": "uint256"
        },
        {
          "internalType": "bool",
          "name": "isActive",
          "type": "bool"
        },
        {
          "internalType": "uint256",
          "name": "createdAt",
          "type": "uint256"
        }
      ],
      "stateMutability": "view",
      "type": "function",
      "constant": true
    },
    {
      "inputs": [],
      "name": "getAllElectionIds",
      "outputs": [
        {
          "internalType": "uint256[]",
          "name": "",
          "type": "uint256[]"
        }
      ],
      "stateMutability": "view",
      "type": "function",
      "constant": true
    },
    {
      "inputs": [],
      "name": "getTotalElections",
      "outputs": [
        {
          "internalType": "uint256",
          "name": "",
          "type": "uint256"
        }
      ],
      "stateMutability": "view",
      "type": "function",
      "constant": true
    },
    {
      "inputs": [
        {
          "internalType": "address",
          "name": "_organizer",
          "type": "address"
        }
      ],
      "name": "getElectionsByOrganizer",
      "outputs": [
        {
          "internalType": "uint256[]",
          "name": "",
          "type": "uint256[]"
        }
      ],
      "stateMutability": "view",
      "type": "function",
      "constant": true
    },
    {
      "inputs": [],
      "name": "getActiveElections",
      "outputs": [
        {
          "internalType": "uint256[]",
          "name": "",
          "type": "uint256[]"
        }
      ],
      "stateMutability": "view",
      "type": "function",
      "constant": true
    },
    {
      "inputs": [
        {
          "internalType": "uint256",
          "name": "_electionId",
          "type": "uint256"
        }
      ],
      "name": "applyToElection",
      "outputs": [
        {
          "internalType": "bool",
          "name": "",
          "type": "bool"
        }
      ],
      "stateMutability": "nonpayable",
      "type": "function"
    },
    {
      "inputs": [
        {
          "internalType": "uint256",
          "name": "_electionId",
          "type": "uint256"
        }
      ],
      "name": "getElectionCandidateApplicants",
      "outputs": [
        {
          "internalType": "address[]",
          "name": "",
          "type": "address[]"
        }
      ],
      "stateMutability": "view",
      "type": "function",
      "constant": true
    },
    {
      "inputs": [
        {
          "internalType": "uint256",
          "name": "_electionId",
          "type": "uint256"
        },
        {
          "internalType": "address",
          "name": "_candidateWallet",
          "type": "address"
        }
      ],
      "name": "approveCandidateForElection",
      "outputs": [
        {
          "internalType": "bool",
          "name": "",
          "type": "bool"
        }
      ],
      "stateMutability": "nonpayable",
      "type": "function"
    },
    {
      "inputs": [
        {
          "internalType": "uint256",
          "name": "_electionId",
          "type": "uint256"
        },
        {
          "internalType": "address",
          "name": "_candidateWallet",
          "type": "address"
        }
      ],
      "name": "rejectCandidateForElection",
      "outputs": [
        {
          "internalType": "bool",
          "name": "",
          "type": "bool"
        }
      ],
      "stateMutability": "nonpayable",
      "type": "function"
    },
    {
      "inputs": [
        {
          "internalType": "uint256",
          "name": "_electionId",
          "type": "uint256"
        }
      ],
      "name": "getApprovedCandidates",
      "outputs": [
        {
          "internalType": "address[]",
          "name": "",
          "type": "address[]"
        }
      ],
      "stateMutability": "view",
      "type": "function",
      "constant": true
    },
    {
      "inputs": [
        {
          "internalType": "uint256",
          "name": "_electionId",
          "type": "uint256"
        },
        {
          "internalType": "address",
          "name": "_candidateWallet",
          "type": "address"
        }
      ],
      "name": "vote",
      "outputs": [
        {
          "internalType": "bool",
          "name": "",
          "type": "bool"
        }
      ],
      "stateMutability": "nonpayable",
      "type": "function"
    },
    {
      "inputs": [
        {
          "internalType": "uint256",
          "name": "_electionId",
          "type": "uint256"
        },
        {
          "internalType": "address",
          "name": "_voterWallet",
          "type": "address"
        }
      ],
      "name": "hasVoterVoted",
      "outputs": [
        {
          "internalType": "bool",
          "name": "",
          "type": "bool"
        }
      ],
      "stateMutability": "view",
      "type": "function",
      "constant": true
    },
    {
      "inputs": [
        {
          "internalType": "uint256",
          "name": "_electionId",
          "type": "uint256"
        },
        {
          "internalType": "address",
          "name": "_candidateWallet",
          "type": "address"
        }
      ],
      "name": "getCandidateVotes",
      "outputs": [
        {
          "internalType": "uint256",
          "name": "",
          "type": "uint256"
        }
      ],
      "stateMutability": "view",
      "type": "function",
      "constant": true
    },
    {
      "inputs": [
        {
          "internalType": "uint256",
          "name": "_electionId",
          "type": "uint256"
        }
      ],
      "name": "getElectionTotalVotes",
      "outputs": [
        {
          "internalType": "uint256",
          "name": "",
          "type": "uint256"
        }
      ],
      "stateMutability": "view",
      "type": "function",
      "constant": true
    }
  ],
  "bytecode": "0x608060405234801561001057600080fd5b50600080546001600160a01b03191633179055615fe380620000336000396000f3fe608060405234801561001057600080fd5b50600436106102405760003560e01c80637f247e49116101375780637f247e49146105135780638a3b63b0146105265780638ab66a901461053b5780638d6d4b251461056557806395af6074146105785780639ebe175d1461058b5780639ed1f2551461059e578063a0d96f0c146105c2578063a3ec138d146105fb578063a9392e0c14610623578063afa9c5b01461062b578063b1717fa814610656578063b46f49a414610669578063c8255ac81461067c578063cb2b6ad21461068f578063ce99b5df14610697578063cea04b00146106bf578063d567c41e146106c7578063dee40f74146106cf578063df3cdad7146106d7578063eb2119db146106ea578063f13a3ab614610719578063f1ecdc581461072c578063f851a4401461075c57600080fd5b806302d947ef14610245578063042ae68e1461026d5780630544c5b91461028d57806305ea879c146102b357806307439509146102f75780630e5495a11461030a5780631e67f7211461034a57806324d7806c1461035257806326789d561461037457806328bde1e11461039857806329e7dbd9146103be5780632e337e68146103ed57806341676f1514610400578063438596321461041357806344a2d45d146104415780634bf80a271461044957806354733f431461045c5780635e6fef011461046f57806367a93a311461049957806369a37b3e146104bd5780636d28b653146104c55780636d993ba1146104d85780636e3ccbf6146104eb5780637818777014610500575b600080fd5b61025861025336600461518d565b610787565b60405190151581526020015b60405180910390f35b61028061027b3660046151b9565b610a2e565b6040516102649190615216565b6102a061029b366004615230565b610abc565b604051610264979695949392919061529b565b6102e96102c136600461518d565b6000918252600f602090815260408084206001600160a01b0393909316845291905290205490565b604051908152602001610264565b6102e96103053660046153b7565b610d25565b61033861031836600461518d565b600d60209081526000928352604080842090915290825290205460ff1681565b60405160ff9091168152602001610264565b610280611004565b610258610360366004615230565b6000546001600160a01b0391821691161490565b610387610382366004615230565b611066565b60405161026495949392919061543e565b6103ab6103a6366004615230565b61136e565b604051610264979695949392919061549e565b6102586103cc366004615230565b6001600160a01b03166000908152600b602052604090206006015460ff1690565b6102586103fb36600461518d565b61175c565b61025861040e366004615230565b611a3b565b61025861042136600461518d565b600e60209081526000928352604080842090915290825290205460ff1681565b6002546102e9565b6102e9610457366004615516565b611ad4565b61025861046a366004615230565b611dfa565b61048261047d3660046151b9565b611fab565b6040516102649b9a999897969594939291906155e7565b6104ac6104a7366004615664565b612120565b60405161026495949392919061570b565b6001546102e9565b6102586104d33660046151b9565b612623565b6102586104e63660046153b7565b6129be565b6104fe6104f93660046151b9565b612be0565b005b61028061050e3660046151b9565b612d4c565b610258610521366004615230565b612f71565b61052e612fb9565b6040516102649190615778565b61054e610549366004615230565b613492565b6040516102649b9a9998979695949392919061578b565b61052e610573366004615230565b61379b565b6102e9610586366004615836565b613921565b6104fe6105993660046151b9565b613c36565b6105b16105ac366004615230565b613d9a565b6040516102649594939291906158bc565b6102586105d036600461518d565b6000918252600e602090815260408084206001600160a01b0393909316845291905290205460ff1690565b61060e610609366004615230565b614032565b6040516102649998979695949392919061590a565b6004546102e9565b6102e961063936600461518d565b600f60209081526000928352604080842090915290825290205481565b610258610664366004615989565b61421f565b6102e96106773660046151b9565b614262565b6104ac61068a366004615664565b61429c565b6102806148b7565b6106aa6106a53660046151b9565b614ad7565b604051610264999897969594939291906159c5565b610280614d54565b610280614db4565b61052e614e14565b6102586106e5366004615989565b614e6b565b6102586106f8366004615230565b6001600160a01b031660009081526009602052604090206008015460ff1690565b61025861072736600461518d565b614e96565b61025861073a366004615230565b6001600160a01b03166000908152600a60208190526040909120015460ff1690565b60005461076f906001600160a01b031681565b6040516001600160a01b039091168152602001610264565b60006004548311156107b45760405162461bcd60e51b81526004016107ab90615a31565b60405180910390fd5b60008381526006602081905260409091209081015442108015906107dc575080600701544211155b6108105760405162461bcd60e51b815260206004820152600560248201526410b7b832b760d91b60448201526064016107ab565b3360009081526009602052604090206008015460ff166108425760405162461bcd60e51b81526004016107ab90615a4e565b60405160200161085190615a6e565b60408051601f19818403018152828252805160209182012033600090815260098352929092209192610887926004019101615abc565b60405160208183030381529060405280519060200120146108ba5760405162461bcd60e51b81526004016107ab90615b32565b6000848152600e6020908152604080832033845290915290205460ff161561090c5760405162461bcd60e51b81526020600482015260056024820152641d9bdd195960da1b60448201526064016107ab565b6000848152600d602090815260408083206001600160a01b038716845290915290205460ff1660021461096d5760405162461bcd60e51b815260206004820152600960248201526808585c1c1c9bdd995960ba1b60448201526064016107ab565b6000848152600e602090815260408083203384528252808320805460ff19166001179055868352600f82528083206001600160a01b038716845290915281208054916109b883615b6b565b9091555050600a810180549060006109cf83615b6b565b9190505550826001600160a01b0316336001600160a01b0316857f044652d717a831bada29c3f4822836fca71492a56031a029c131e915bd00ce8e42604051610a1a91815260200190565b60405180910390a460019150505b92915050565b6060600454821115610a525760405162461bcd60e51b81526004016107ab90615b84565b6000828152600c602090815260409182902080548351818402810184019094528084529091830182828015610ab057602002820191906000526020600020905b81546001600160a01b03168152600190910190602001808311610a92575b50505050509050919050565b600b60205260009081526040902080546001820180546001600160a01b039092169291610ae890615a82565b80601f0160208091040260200160405190810160405280929190818152602001828054610b1490615a82565b8015610b615780601f10610b3657610100808354040283529160200191610b61565b820191906000526020600020905b815481529060010190602001808311610b4457829003601f168201915b505050505090806002018054610b7690615a82565b80601f0160208091040260200160405190810160405280929190818152602001828054610ba290615a82565b8015610bef5780601f10610bc457610100808354040283529160200191610bef565b820191906000526020600020905b815481529060010190602001808311610bd257829003601f168201915b505050505090806003018054610c0490615a82565b80601f0160208091040260200160405190810160405280929190818152602001828054610c3090615a82565b8015610c7d5780601f10610c5257610100808354040283529160200191610c7d565b820191906000526020600020905b815481529060010190602001808311610c6057829003601f168201915b505050505090806004018054610c9290615a82565b80601f0160208091040260200160405190810160405280929190818152602001828054610cbe90615a82565b8015610d0b5780601f10610ce057610100808354040283529160200191610d0b565b820191906000526020600020905b815481529060010190602001808311610cee57829003601f168201915b50505050600583015460069093015491929160ff16905087565b3360009081526009602052604081206008015460ff1615610d585760405162461bcd60e51b81526004016107ab90615ba4565b600083604051602001610d6b9190615bc8565b60408051601f1981840301815291815281516020928301206000818152600790935291205490915060ff1615610db35760405162461bcd60e51b81526004016107ab90615be4565b600883604051610dc39190615bc8565b9081526040519081900360200190205460ff1615610df35760405162461bcd60e51b81526004016107ab90615c05565b60003386868642604051602001610e0e959493929190615c29565b60408051808303601f19018152828252805160209182012061012084018352338085528285018b8152858501889052606086018a90528451808601865260148152732822a72224a723afab22a924a324a1a0aa24a7a760611b81860152608087015260a086018390524260c0870152600060e0870181905260016101008801819052928152600990945293909220845181546001600160a01b0319166001600160a01b03909116178155925190945090820190610ecb9082615ce2565b506040820151600282015560608201516003820190610eea9082615ce2565b5060808201516004820190610eff9082615ce2565b5060a0820151600582015560c0820151600682015560e0820151600780830191909155610100909201516008918201805491151560ff199283161790556001805480820182557fb10e2d527612073b26eecdfd717e6a320cf44b4afac2b0732d9fcbe2b7fa0cf60180546001600160a01b031916331790556000868152602094909452604093849020805490921681179091559151610f9f908790615bc8565b908152604051908190036020018120805492151560ff199093169290921790915533907f9cf1682c9291d84aae23538285245cbbabc90127784deda74b7d7ea1136ae4e790610ff390899088904290615da1565b60405180910390a295945050505050565b6060600380548060200260200160405190810160405280929190818152602001828054801561105c57602002820191906000526020600020905b81546001600160a01b0316815260019091019060200180831161103e575b5050505050905090565b6001600160a01b0381166000908152600b602052604081206006015460609182918291829160ff166110aa5760405162461bcd60e51b81526004016107ab90615b84565b6001600160a01b038087166000908152600b60209081526040808320815160e08101909252805490941681526001840180549394919391928401916110ee90615a82565b80601f016020809104026020016040519081016040528092919081815260200182805461111a90615a82565b80156111675780601f1061113c57610100808354040283529160200191611167565b820191906000526020600020905b81548152906001019060200180831161114a57829003601f168201915b5050505050815260200160028201805461118090615a82565b80601f01602080910402602001604051908101604052809291908181526020018280546111ac90615a82565b80156111f95780601f106111ce576101008083540402835291602001916111f9565b820191906000526020600020905b8154815290600101906020018083116111dc57829003601f168201915b5050505050815260200160038201805461121290615a82565b80601f016020809104026020016040519081016040528092919081815260200182805461123e90615a82565b801561128b5780601f106112605761010080835404028352916020019161128b565b820191906000526020600020905b81548152906001019060200180831161126e57829003601f168201915b505050505081526020016004820180546112a490615a82565b80601f01602080910402602001604051908101604052809291908181526020018280546112d090615a82565b801561131d5780601f106112f25761010080835404028352916020019161131d565b820191906000526020600020905b81548152906001019060200180831161130057829003601f168201915b5050509183525050600582015460208083019190915260069092015460ff16151560409182015290820151908201516060830151608084015160a090940151929b919a509850919650945092505050565b6001600160a01b0381166000908152600a6020819052604082200154606091829182918291829190819060ff166113d45760405162461bcd60e51b815260206004820152600a6024820152692163616e64696461746560b01b60448201526064016107ab565b6001600160a01b038089166000908152600a60209081526040808320815161016081019092528054909416815260018401805493949193919284019161141990615a82565b80601f016020809104026020016040519081016040528092919081815260200182805461144590615a82565b80156114925780601f1061146757610100808354040283529160200191611492565b820191906000526020600020905b81548152906001019060200180831161147557829003601f168201915b50505050508152602001600282015481526020016003820180546114b590615a82565b80601f01602080910402602001604051908101604052809291908181526020018280546114e190615a82565b801561152e5780601f106115035761010080835404028352916020019161152e565b820191906000526020600020905b81548152906001019060200180831161151157829003601f168201915b5050505050815260200160048201805461154790615a82565b80601f016020809104026020016040519081016040528092919081815260200182805461157390615a82565b80156115c05780601f10611595576101008083540402835291602001916115c0565b820191906000526020600020905b8154815290600101906020018083116115a357829003601f168201915b505050505081526020016005820180546115d990615a82565b80601f016020809104026020016040519081016040528092919081815260200182805461160590615a82565b80156116525780601f1061162757610100808354040283529160200191611652565b820191906000526020600020905b81548152906001019060200180831161163557829003601f168201915b5050505050815260200160068201805461166b90615a82565b80601f016020809104026020016040519081016040528092919081815260200182805461169790615a82565b80156116e45780601f106116b9576101008083540402835291602001916116e4565b820191906000526020600020905b8154815290600101906020018083116116c757829003601f168201915b50505091835250506007820154602080830191909152600883015460408301526009830154606080840191909152600a9093015460ff161515608092830152830151918301519083015160a084015160c085015161010086015161012090960151949f939e50919c509a509850919650945092505050565b60006004548311156117805760405162461bcd60e51b81526004016107ab90615b84565b60006006600085815260200190815260200160002060405180610160016040529081600082015481526020016001820180546117bb90615a82565b80601f01602080910402602001604051908101604052809291908181526020018280546117e790615a82565b80156118345780601f1061180957610100808354040283529160200191611834565b820191906000526020600020905b81548152906001019060200180831161181757829003601f168201915b5050505050815260200160028201805461184d90615a82565b80601f016020809104026020016040519081016040528092919081815260200182805461187990615a82565b80156118c65780601f1061189b576101008083540402835291602001916118c6565b820191906000526020600020905b8154815290600101906020018083116118a957829003601f168201915b505050918352505060038201546001600160a01b03908116602083015260048301546040830152600583015460608084019190915260068401546080840152600784015460a0840152600884015460ff16151560c0840152600984015460e0840152600a9093015461010090920191909152908201519192501633148061195757506000546001600160a01b031633145b6119735760405162461bcd60e51b81526004016107ab90615dd7565b6000848152600d602090815260408083206001600160a01b038716845290915290205460ff166001146119b85760405162461bcd60e51b81526004016107ab90615df6565b8060c0015142106119db5760405162461bcd60e51b81526004016107ab90615e18565b6000848152600d602090815260408083206001600160a01b03871680855290835292819020805460ff191660021790555142815233929187917e8c02da86b3277809b12d5d51b4daa215b8085d605086df36dc4c12f4ea8b749101610a1a565b6001600160a01b0381166000908152600b602052604081206006015460ff168015610a285750604051671054141493d5915160c21b602082015260280160408051601f1981840301815282825280516020918201206001600160a01b0386166000908152600b8352929092209192611ab7926004019101615abc565b604051602081830303815290604052805190602001201492915050565b336000908152600a602081905260408220015460ff1615611b075760405162461bcd60e51b81526004016107ab90615ba4565b600085604051602001611b1a9190615bc8565b60408051601f1981840301815291815281516020928301206000818152600790935291205490915060ff1615611b625760405162461bcd60e51b81526004016107ab90615be4565b600885604051611b729190615bc8565b9081526040519081900360200190205460ff1615611ba25760405162461bcd60e51b81526004016107ab90615c05565b60003388888842604051602001611bbd959493929190615c29565b60408051808303601f19018152828252805160209182012061016084018352338085528285018d8152858501889052606086018c9052608086018b905260a086018a90528451808601865260148152732822a72224a723afab22a924a324a1a0aa24a7a760611b8186015260c087015260e08601839052426101008701526000610120870181905260016101408801819052928152600a90945293909220845181546001600160a01b0319166001600160a01b03909116178155925190945090820190611c8a9082615ce2565b506040820151600282015560608201516003820190611ca99082615ce2565b5060808201516004820190611cbe9082615ce2565b5060a08201516005820190611cd39082615ce2565b5060c08201516006820190611ce89082615ce2565b5060e0820151600780830191909155610100830151600880840191909155610120840151600984015561014090930151600a909201805492151560ff199384161790556002805460018181019092557f405787fa12a823e0f2b7631cc41b3ba8828b3321ca811111fa75cd3aa3bb5ace0180546001600160a01b0319163317905560008681526020929092526040918290208054909316811790925551909190611d93908990615bc8565b908152604051908190036020018120805492151560ff199093169290921790915533907f62a383152c7f5dcaccf813b01cb40efbd792ad8179bb25189b78f48c16e4536e90611de7908b908a904290615da1565b60405180910390a2979650505050505050565b600080546001600160a01b03163314611e3e5760405162461bcd60e51b815260206004820152600660248201526510b0b236b4b760d11b60448201526064016107ab565b6001600160a01b0382166000908152600b602052604090206006015460ff16611e795760405162461bcd60e51b81526004016107ab90615b84565b604051602001611e8890615e39565b60408051601f1981840301815282825280516020918201206001600160a01b0386166000908152600b8352929092209192611ec7926004019101615abc565b6040516020818303038152906040528051906020012014611f165760405162461bcd60e51b81526020600482015260096024820152681c1c9bd8d95cdcd95960ba1b60448201526064016107ab565b60408051808201825260088152671054141493d5915160c21b6020808301919091526001600160a01b0385166000908152600b9091529190912060040190611f5e9082615ce2565b50816001600160a01b03167f14814d303617b24306266f30fbbd178fc67e915b8147aa4679460f5ce328912942604051611f9a91815260200190565b60405180910390a25060015b919050565b60066020526000908152604090208054600182018054919291611fcd90615a82565b80601f0160208091040260200160405190810160405280929190818152602001828054611ff990615a82565b80156120465780601f1061201b57610100808354040283529160200191612046565b820191906000526020600020905b81548152906001019060200180831161202957829003601f168201915b50505050509080600201805461205b90615a82565b80601f016020809104026020016040519081016040528092919081815260200182805461208790615a82565b80156120d45780601f106120a9576101008083540402835291602001916120d4565b820191906000526020600020905b8154815290600101906020018083116120b757829003601f168201915b505050506003830154600484015460058501546006860154600787015460088801546009890154600a9099015497986001600160a01b039096169794965092949193909260ff1691908b565b6060806060806060600180549050871061214c5760405162461bcd60e51b81526004016107ab90615e4c565b60006121588789615e6c565b60015490915081111561216a57506001545b60006121768983615e7f565b9050806001600160401b0381111561219057612190615315565b6040519080825280602002602001820160405280156121b9578160200160208202803683370190505b509650806001600160401b038111156121d4576121d4615315565b60405190808252806020026020018201604052801561220757816020015b60608152602001906001900390816121f25790505b509550806001600160401b0381111561222257612222615315565b60405190808252806020026020018201604052801561225557816020015b60608152602001906001900390816122405790505b509450806001600160401b0381111561227057612270615315565b6040519080825280602002602001820160405280156122a357816020015b606081526020019060019003908161228e5790505b509350806001600160401b038111156122be576122be615315565b6040519080825280602002602001820160405280156122e7578160200160208202803683370190505b50925060005b818110156126165760006001612303838d615e6c565b8154811061231357612313615e92565b60009182526020808320909101546001600160a01b039081168084526009835260408085208151610120810190925280549093168152600183018054929650909384019161236090615a82565b80601f016020809104026020016040519081016040528092919081815260200182805461238c90615a82565b80156123d95780601f106123ae576101008083540402835291602001916123d9565b820191906000526020600020905b8154815290600101906020018083116123bc57829003601f168201915b50505050508152602001600282015481526020016003820180546123fc90615a82565b80601f016020809104026020016040519081016040528092919081815260200182805461242890615a82565b80156124755780601f1061244a57610100808354040283529160200191612475565b820191906000526020600020905b81548152906001019060200180831161245857829003601f168201915b5050505050815260200160048201805461248e90615a82565b80601f01602080910402602001604051908101604052809291908181526020018280546124ba90615a82565b80156125075780601f106124dc57610100808354040283529160200191612507565b820191906000526020600020905b8154815290600101906020018083116124ea57829003601f168201915b505050918352505060058201546020820152600682015460408201526007820154606082015260089091015460ff16151560809091015280518b51919250908b908590811061255857612558615e92565b60200260200101906001600160a01b031690816001600160a01b031681525050806020015189848151811061258f5761258f615e92565b602002602001018190525080606001518884815181106125b1576125b1615e92565b602002602001018190525080608001518784815181106125d3576125d3615e92565b60200260200101819052508060c001518684815181106125f5576125f5615e92565b6020026020010181815250505050808061260e90615b6b565b9150506122ed565b5050509295509295909350565b60006004548211156126475760405162461bcd60e51b81526004016107ab90615b84565b600060066000848152602001908152602001600020604051806101600160405290816000820154815260200160018201805461268290615a82565b80601f01602080910402602001604051908101604052809291908181526020018280546126ae90615a82565b80156126fb5780601f106126d0576101008083540402835291602001916126fb565b820191906000526020600020905b8154815290600101906020018083116126de57829003601f168201915b5050505050815260200160028201805461271490615a82565b80601f016020809104026020016040519081016040528092919081815260200182805461274090615a82565b801561278d5780601f106127625761010080835404028352916020019161278d565b820191906000526020600020905b81548152906001019060200180831161277057829003601f168201915b505050918352505060038201546001600160a01b0316602082015260048201546040820152600582015460608201526006820154608080830191909152600783015460a0830152600883015460ff16151560c0830152600983015460e0830152600a9092015461010090910152810151909150421080159061281357508060a001514211155b61284c5760405162461bcd60e51b815260206004820152600a602482015269216e6f6d57696e646f7760b01b60448201526064016107ab565b336000908152600a60208190526040909120015460ff1661287f5760405162461bcd60e51b81526004016107ab90615ea8565b60405160200161288e90615a6e565b60408051601f198184030181528282528051602091820120336000908152600a83529290922091926128c4926006019101615abc565b60405160208183030381529060405280519060200120146128f75760405162461bcd60e51b81526004016107ab90615b32565b6000838152600d6020908152604080832033845290915290205460ff16156129315760405162461bcd60e51b81526004016107ab90615ecd565b6000838152600d6020908152604080832033808552908352818420805460ff19166001908117909155878552600c84528285208054918201815585529383902090930180546001600160a01b031916841790555142815285917f79f07716a1285725869298e53bfdb0d51d88314b25b5ed3b21be3b69534c0eaa910160405180910390a350600192915050565b336000908152600b602052604081206006015460ff16156129f15760405162461bcd60e51b81526004016107ab90615ecd565b6000845111612a2a5760405162461bcd60e51b8152602060048201526005602482015264216e616d6560d81b60448201526064016107ab565b6000835111612a645760405162461bcd60e51b815260206004820152600660248201526508595b585a5b60d21b60448201526064016107ab565b6040805160e0810182523380825260208083018881528385018890526060840187905284518086018652600781526650454e44494e4760c81b8184015260808501524260a0850152600160c085018190526000938452600b90925293909120825181546001600160a01b0319166001600160a01b03909116178155925191929190820190612af29082615ce2565b5060408201516002820190612b079082615ce2565b5060608201516003820190612b1c9082615ce2565b5060808201516004820190612b319082615ce2565b5060a0820151600582015560c0909101516006909101805460ff1916911515919091179055600380546001810182556000919091527fc2575a0e9e593c00f959f8c92f12db2869c3395a3b0502d05e2516446f71f85b018054336001600160a01b031990911681179091556040517f3d5483a93df0921e07ba2b0050c4d0f5793795035f1db5af3face517df5e333b90612bce9087904290615eee565b60405180910390a25060019392505050565b336000908152600a60208190526040909120015460ff16612c135760405162461bcd60e51b81526004016107ab90615ea8565b336000908152600a60205260409020600701548114612c445760405162461bcd60e51b81526004016107ab90615f10565b604051602001612c5390615f2f565b60408051601f198184030181528282528051602091820120336000908152600a8352929092209192612c89926006019101615abc565b6040516020818303038152906040528051906020012014612cbc5760405162461bcd60e51b81526004016107ab90615f4f565b6040805180820182526008815267159154925192515160c21b602080830191909152336000908152600a9091529190912060060190612cfb9082615ce2565b50336000818152600a602090815260409182902042600990910181905591519182527f2f366f123fabab95492dbb42e8695e5d537354a21c0246601ad90134a982762591015b60405180910390a250565b6060600454821115612d705760405162461bcd60e51b81526004016107ab90615b84565b6000828152600c6020908152604080832080548251818502810185019093528083529192909190830182828015612dd057602002820191906000526020600020905b81546001600160a01b03168152600190910190602001808311612db2575b505050505090506000805b8251811015612e5957600d60008681526020019081526020016000206000848381518110612e0b57612e0b615e92565b6020908102919091018101516001600160a01b031682528101919091526040016000205460ff16600203612e475781612e4381615b6b565b9250505b80612e5181615b6b565b915050612ddb565b506000816001600160401b03811115612e7457612e74615315565b604051908082528060200260200182016040528015612e9d578160200160208202803683370190505b5090506000805b8451811015612f6657600d60008881526020019081526020016000206000868381518110612ed457612ed4615e92565b6020908102919091018101516001600160a01b031682528101919091526040016000205460ff16600203612f5457848181518110612f1457612f14615e92565b6020026020010151838381518110612f2e57612f2e615e92565b6001600160a01b039092166020928302919091019091015281612f5081615b6b565b9250505b80612f5e81615b6b565b915050612ea4565b509095945050505050565b6001600160a01b03811660009081526009602052604081206008015460ff1680610a285750506001600160a01b03166000908152600a60208190526040909120015460ff1690565b60606000805b6005548110156131e15760006006600060058481548110612fe257612fe2615e92565b90600052602060002001548152602001908152602001600020604051806101600160405290816000820154815260200160018201805461302190615a82565b80601f016020809104026020016040519081016040528092919081815260200182805461304d90615a82565b801561309a5780601f1061306f5761010080835404028352916020019161309a565b820191906000526020600020905b81548152906001019060200180831161307d57829003601f168201915b505050505081526020016002820180546130b390615a82565b80601f01602080910402602001604051908101604052809291908181526020018280546130df90615a82565b801561312c5780601f106131015761010080835404028352916020019161312c565b820191906000526020600020905b81548152906001019060200180831161310f57829003601f168201915b505050918352505060038201546001600160a01b03166020820152600482015460408201526005820154606082015260068201546080820152600782015460a0820152600882015460ff16151560c0820152600982015460e0820152600a909101546101009182015281015190915080156131ab57508060c001514210155b80156131bb57508060e001514211155b156131ce57826131ca81615b6b565b9350505b50806131d981615b6b565b915050612fbf565b506000816001600160401b038111156131fc576131fc615315565b604051908082528060200260200182016040528015613225578160200160208202803683370190505b5090506000805b600554811015613489576000600660006005848154811061324f5761324f615e92565b90600052602060002001548152602001908152602001600020604051806101600160405290816000820154815260200160018201805461328e90615a82565b80601f01602080910402602001604051908101604052809291908181526020018280546132ba90615a82565b80156133075780601f106132dc57610100808354040283529160200191613307565b820191906000526020600020905b8154815290600101906020018083116132ea57829003601f168201915b5050505050815260200160028201805461332090615a82565b80601f016020809104026020016040519081016040528092919081815260200182805461334c90615a82565b80156133995780601f1061336e57610100808354040283529160200191613399565b820191906000526020600020905b81548152906001019060200180831161337c57829003601f168201915b505050918352505060038201546001600160a01b03166020820152600482015460408201526005820154606082015260068201546080820152600782015460a0820152600882015460ff16151560c0820152600982015460e0820152600a9091015461010091820152810151909150801561341857508060c001514210155b801561342857508060e001514211155b15613476576005828154811061344057613440615e92565b906000526020600020015484848151811061345d5761345d615e92565b60209081029190910101528261347281615b6b565b9350505b508061348181615b6b565b91505061322c565b50909392505050565b600a60205260009081526040902080546001820180546001600160a01b0390921692916134be90615a82565b80601f01602080910402602001604051908101604052809291908181526020018280546134ea90615a82565b80156135375780601f1061350c57610100808354040283529160200191613537565b820191906000526020600020905b81548152906001019060200180831161351a57829003601f168201915b50505050509080600201549080600301805461355290615a82565b80601f016020809104026020016040519081016040528092919081815260200182805461357e90615a82565b80156135cb5780601f106135a0576101008083540402835291602001916135cb565b820191906000526020600020905b8154815290600101906020018083116135ae57829003601f168201915b5050505050908060040180546135e090615a82565b80601f016020809104026020016040519081016040528092919081815260200182805461360c90615a82565b80156136595780601f1061362e57610100808354040283529160200191613659565b820191906000526020600020905b81548152906001019060200180831161363c57829003601f168201915b50505050509080600501805461366e90615a82565b80601f016020809104026020016040519081016040528092919081815260200182805461369a90615a82565b80156136e75780601f106136bc576101008083540402835291602001916136e7565b820191906000526020600020905b8154815290600101906020018083116136ca57829003601f168201915b5050505050908060060180546136fc90615a82565b80601f016020809104026020016040519081016040528092919081815260200182805461372890615a82565b80156137755780601f1061374a57610100808354040283529160200191613775565b820191906000526020600020905b81548152906001019060200180831161375857829003601f168201915b50505050600783015460088401546009850154600a909501549394919390925060ff168b565b60606000805b60055481101561381957836001600160a01b031660066000600584815481106137cc576137cc615e92565b600091825260208083209091015483528201929092526040019020600301546001600160a01b031603613807578161380381615b6b565b9250505b8061381181615b6b565b9150506137a1565b506000816001600160401b0381111561383457613834615315565b60405190808252806020026020018201604052801561385d578160200160208202803683370190505b5090506000805b60055481101561391757856001600160a01b0316600660006005848154811061388f5761388f615e92565b600091825260208083209091015483528201929092526040019020600301546001600160a01b03160361390557600581815481106138cf576138cf615e92565b90600052602060002001548383815181106138ec576138ec615e92565b60209081029190910101528161390181615b6b565b9250505b8061390f81615b6b565b915050613864565b5090949350505050565b600061392c33611a3b565b6139655760405162461bcd60e51b815260206004820152600a60248201526910b7b933b0b734bd32b960b11b60448201526064016107ab565b600087511161399f5760405162461bcd60e51b8152602060048201526006602482015265217469746c6560d01b60448201526064016107ab565b4285116139da5760405162461bcd60e51b8152602060048201526009602482015268085b9bdb54dd185c9d60ba1b60448201526064016107ab565b848411613a135760405162461bcd60e51b8152602060048201526007602482015266085b9bdb515b9960ca1b60448201526064016107ab565b838311613a4f5760405162461bcd60e51b815260206004820152600a602482015269085d9bdd1954dd185c9d60b21b60448201526064016107ab565b828211613a875760405162461bcd60e51b81526004016107ab9060208082526004908201526308595b9960e21b604082015260600190565b60048054906000613a9783615b6b565b9091555050600454604080516101608101825282815260208082018b81528284018b9052336060840152608083018a905260a0830189905260c0830188905260e083018790526000610100840181905242610120850152610140840181905285815260069092529290208151815591519091906001820190613b199082615ce2565b5060408201516002820190613b2e9082615ce2565b5060608201516003820180546001600160a01b0319166001600160a01b039092169190911790556080820151600482015560a082015160058083019190915560c0830151600683015560e0830151600783015561010083015160088301805460ff1916911515919091179055610120830151600983015561014090920151600a9091015580546001810182556000919091527f036b6384b5eca791c62761152d0c79bb0604c104a5fb6f4eb0703f3154bb3db001819055604051339082907fd3678a1df7c0a194a6f67f13d263cb5409debb4055904f08c5671ad712d0823790613c23908c908b908b908b908b904290615f71565b60405180910390a3979650505050505050565b3360009081526009602052604090206008015460ff16613c685760405162461bcd60e51b81526004016107ab90615ea8565b336000908152600960205260409020600501548114613c995760405162461bcd60e51b81526004016107ab90615f10565b604051602001613ca890615f2f565b60408051601f19818403018152828252805160209182012033600090815260098352929092209192613cde926004019101615abc565b6040516020818303038152906040528051906020012014613d115760405162461bcd60e51b81526004016107ab90615f4f565b6040805180820182526008815267159154925192515160c21b60208083019190915233600090815260099091529190912060040190613d509082615ce2565b503360008181526009602090815260409182902042600790910181905591519182527f945486efe706b7939911cd647343f3c1118cd63847a1f1b3d5a06b05120a5bcd9101612d41565b6001600160a01b0381166000908152600960205260408120600801546060918291829190819060ff16613ddf5760405162461bcd60e51b81526004016107ab90615a4e565b6001600160a01b0380871660009081526009602090815260408083208151610120810190925280549094168152600184018054939491939192840191613e2490615a82565b80601f0160208091040260200160405190810160405280929190818152602001828054613e5090615a82565b8015613e9d5780601f10613e7257610100808354040283529160200191613e9d565b820191906000526020600020905b815481529060010190602001808311613e8057829003601f168201915b5050505050815260200160028201548152602001600382018054613ec090615a82565b80601f0160208091040260200160405190810160405280929190818152602001828054613eec90615a82565b8015613f395780601f10613f0e57610100808354040283529160200191613f39565b820191906000526020600020905b815481529060010190602001808311613f1c57829003601f168201915b50505050508152602001600482018054613f5290615a82565b80601f0160208091040260200160405190810160405280929190818152602001828054613f7e90615a82565b8015613fcb5780601f10613fa057610100808354040283529160200191613fcb565b820191906000526020600020905b815481529060010190602001808311613fae57829003601f168201915b5050509183525050600582015460208083019190915260068301546040830152600783015460608084019190915260089093015460ff161515608092830152830151918301519083015160c084015160e090940151929b919a509850919650945092505050565b600960205260009081526040902080546001820180546001600160a01b03909216929161405e90615a82565b80601f016020809104026020016040519081016040528092919081815260200182805461408a90615a82565b80156140d75780601f106140ac576101008083540402835291602001916140d7565b820191906000526020600020905b8154815290600101906020018083116140ba57829003601f168201915b5050505050908060020154908060030180546140f290615a82565b80601f016020809104026020016040519081016040528092919081815260200182805461411e90615a82565b801561416b5780601f106141405761010080835404028352916020019161416b565b820191906000526020600020905b81548152906001019060200180831161414e57829003601f168201915b50505050509080600401805461418090615a82565b80601f01602080910402602001604051908101604052809291908181526020018280546141ac90615a82565b80156141f95780601f106141ce576101008083540402835291602001916141f9565b820191906000526020600020905b8154815290600101906020018083116141dc57829003601f168201915b505050506005830154600684015460078501546008909501549394919390925060ff1689565b600080826040516020016142339190615bc8565b60408051601f1981840301815291815281516020928301206000908152600790925290205460ff169392505050565b60006004548211156142865760405162461bcd60e51b81526004016107ab90615a31565b506000908152600660205260409020600a015490565b606080606080606060028054905087106142c85760405162461bcd60e51b81526004016107ab90615e4c565b60006142d48789615e6c565b6002549091508111156142e657506002545b60006142f28983615e7f565b9050806001600160401b0381111561430c5761430c615315565b604051908082528060200260200182016040528015614335578160200160208202803683370190505b509650806001600160401b0381111561435057614350615315565b60405190808252806020026020018201604052801561438357816020015b606081526020019060019003908161436e5790505b509550806001600160401b0381111561439e5761439e615315565b6040519080825280602002602001820160405280156143d157816020015b60608152602001906001900390816143bc5790505b509450806001600160401b038111156143ec576143ec615315565b60405190808252806020026020018201604052801561441f57816020015b606081526020019060019003908161440a5790505b509350806001600160401b0381111561443a5761443a615315565b604051908082528060200260200182016040528015614463578160200160208202803683370190505b50925060005b81811015612616576000600261447f838d615e6c565b8154811061448f5761448f615e92565b60009182526020808320909101546001600160a01b03908116808452600a83526040808520815161016081019092528054909316815260018301805492965090938401916144dc90615a82565b80601f016020809104026020016040519081016040528092919081815260200182805461450890615a82565b80156145555780601f1061452a57610100808354040283529160200191614555565b820191906000526020600020905b81548152906001019060200180831161453857829003601f168201915b505050505081526020016002820154815260200160038201805461457890615a82565b80601f01602080910402602001604051908101604052809291908181526020018280546145a490615a82565b80156145f15780601f106145c6576101008083540402835291602001916145f1565b820191906000526020600020905b8154815290600101906020018083116145d457829003601f168201915b5050505050815260200160048201805461460a90615a82565b80601f016020809104026020016040519081016040528092919081815260200182805461463690615a82565b80156146835780601f1061465857610100808354040283529160200191614683565b820191906000526020600020905b81548152906001019060200180831161466657829003601f168201915b5050505050815260200160058201805461469c90615a82565b80601f01602080910402602001604051908101604052809291908181526020018280546146c890615a82565b80156147155780601f106146ea57610100808354040283529160200191614715565b820191906000526020600020905b8154815290600101906020018083116146f857829003601f168201915b5050505050815260200160068201805461472e90615a82565b80601f016020809104026020016040519081016040528092919081815260200182805461475a90615a82565b80156147a75780601f1061477c576101008083540402835291602001916147a7565b820191906000526020600020905b81548152906001019060200180831161478a57829003601f168201915b5050509183525050600782015460208201526008820154604082015260098201546060820152600a9091015460ff16151560809091015280518b51919250908b90859081106147f8576147f8615e92565b60200260200101906001600160a01b031690816001600160a01b031681525050806020015189848151811061482f5761482f615e92565b6020026020010181905250806060015188848151811061485157614851615e92565b60200260200101819052508060c0015187848151811061487357614873615e92565b602002602001018190525080610100015186848151811061489657614896615e92565b602002602001018181525050505080806148af90615b6b565b915050614469565b60606000805b600354811015614977576040516020016148d690615e39565b60405160208183030381529060405280519060200120600b60006003848154811061490357614903615e92565b60009182526020808320909101546001600160a01b031683528281019390935260409182019020905161493c9260049092019101615abc565b6040516020818303038152906040528051906020012003614965578161496181615b6b565b9250505b8061496f81615b6b565b9150506148bd565b506000816001600160401b0381111561499257614992615315565b6040519080825280602002602001820160405280156149bb578160200160208202803683370190505b5090506000805b600354811015613489576040516020016149db90615e39565b60405160208183030381529060405280519060200120600b600060038481548110614a0857614a08615e92565b60009182526020808320909101546001600160a01b0316835282810193909352604091820190209051614a419260049092019101615abc565b6040516020818303038152906040528051906020012003614ac55760038181548110614a6f57614a6f615e92565b9060005260206000200160009054906101000a90046001600160a01b0316838381518110614a9f57614a9f615e92565b6001600160a01b039092166020928302919091019091015281614ac181615b6b565b9250505b80614acf81615b6b565b9150506149c2565b6060806000806000806000806000808a118015614af657506004548a11155b614b2e5760405162461bcd60e51b815260206004820152600960248201526810b2b632b1ba34b7b760b91b60448201526064016107ab565b6000600660008c81526020019081526020016000206040518061016001604052908160008201548152602001600182018054614b6990615a82565b80601f0160208091040260200160405190810160405280929190818152602001828054614b9590615a82565b8015614be25780601f10614bb757610100808354040283529160200191614be2565b820191906000526020600020905b815481529060010190602001808311614bc557829003601f168201915b50505050508152602001600282018054614bfb90615a82565b80601f0160208091040260200160405190810160405280929190818152602001828054614c2790615a82565b8015614c745780601f10614c4957610100808354040283529160200191614c74565b820191906000526020600020905b815481529060010190602001808311614c5757829003601f168201915b505050505081526020016003820160009054906101000a90046001600160a01b03166001600160a01b03166001600160a01b03168152602001600482015481526020016005820154815260200160068201548152602001600782015481526020016008820160009054906101000a900460ff1615151515815260200160098201548152602001600a82015481525050905080602001518160400151826060015183608001518460a001518560c001518660e00151876101000151886101200151995099509950995099509950995099509950509193959799909294969850565b6060600180548060200260200160405190810160405280929190818152602001828054801561105c576020028201919060005260206000209081546001600160a01b0316815260019091019060200180831161103e575050505050905090565b6060600280548060200260200160405190810160405280929190818152602001828054801561105c576020028201919060005260206000209081546001600160a01b0316815260019091019060200180831161103e575050505050905090565b6060600580548060200260200160405190810160405280929190818152602001828054801561105c57602002820191906000526020600020905b815481526020019060010190808311614e4e575050505050905090565b6000600882604051614e7d9190615bc8565b9081526040519081900360200190205460ff1692915050565b6000600454831115614eba5760405162461bcd60e51b81526004016107ab90615b84565b6000600660008581526020019081526020016000206040518061016001604052908160008201548152602001600182018054614ef590615a82565b80601f0160208091040260200160405190810160405280929190818152602001828054614f2190615a82565b8015614f6e5780601f10614f4357610100808354040283529160200191614f6e565b820191906000526020600020905b815481529060010190602001808311614f5157829003601f168201915b50505050508152602001600282018054614f8790615a82565b80601f0160208091040260200160405190810160405280929190818152602001828054614fb390615a82565b80156150005780601f10614fd557610100808354040283529160200191615000565b820191906000526020600020905b815481529060010190602001808311614fe357829003601f168201915b505050918352505060038201546001600160a01b03908116602083015260048301546040830152600583015460608084019190915260068401546080840152600784015460a0840152600884015460ff16151560c0840152600984015460e0840152600a9093015461010090920191909152908201519192501633148061509157506000546001600160a01b031633145b6150ad5760405162461bcd60e51b81526004016107ab90615dd7565b6000848152600d602090815260408083206001600160a01b038716845290915290205460ff166001146150f25760405162461bcd60e51b81526004016107ab90615df6565b8060c0015142106151155760405162461bcd60e51b81526004016107ab90615e18565b6000848152600d602090815260408083206001600160a01b03871680855290835292819020805460ff191660031790555142815233929187917fc6e463a55006ff0f9fd3fc710bbb06b977f23273a66af0979cbaec5abcea0a479101610a1a565b80356001600160a01b0381168114611fa657600080fd5b600080604083850312156151a057600080fd5b823591506151b060208401615176565b90509250929050565b6000602082840312156151cb57600080fd5b5035919050565b600081518084526020808501945080840160005b8381101561520b5781516001600160a01b0316875295820195908201906001016151e6565b509495945050505050565b60208152600061522960208301846151d2565b9392505050565b60006020828403121561524257600080fd5b61522982615176565b60005b8381101561526657818101518382015260200161524e565b50506000910152565b6000815180845261528781602086016020860161524b565b601f01601f19169290920160200192915050565b6001600160a01b038816815260e0602082018190526000906152bf9083018961526f565b82810360408401526152d1818961526f565b905082810360608401526152e5818861526f565b905082810360808401526152f9818761526f565b60a0840195909552505090151560c09091015295945050505050565b634e487b7160e01b600052604160045260246000fd5b600082601f83011261533c57600080fd5b81356001600160401b038082111561535657615356615315565b604051601f8301601f19908116603f0116810190828211818310171561537e5761537e615315565b8160405283815286602085880101111561539757600080fd5b836020870160208301376000602085830101528094505050505092915050565b6000806000606084860312156153cc57600080fd5b83356001600160401b03808211156153e357600080fd5b6153ef8783880161532b565b9450602086013591508082111561540557600080fd5b6154118783880161532b565b9350604086013591508082111561542757600080fd5b506154348682870161532b565b9150509250925092565b60a08152600061545160a083018861526f565b8281036020840152615463818861526f565b90508281036040840152615477818761526f565b9050828103606084015261548b818661526f565b9150508260808301529695505050505050565b60e0815260006154b160e083018a61526f565b82810360208401526154c3818a61526f565b905082810360408401526154d7818961526f565b905082810360608401526154eb818861526f565b905082810360808401526154ff818761526f565b60a0840195909552505060c0015295945050505050565b600080600080600060a0868803121561552e57600080fd5b85356001600160401b038082111561554557600080fd5b61555189838a0161532b565b9650602088013591508082111561556757600080fd5b61557389838a0161532b565b9550604088013591508082111561558957600080fd5b61559589838a0161532b565b945060608801359150808211156155ab57600080fd5b6155b789838a0161532b565b935060808801359150808211156155cd57600080fd5b506155da8882890161532b565b9150509295509295909350565b60006101608d83528060208401526156018184018e61526f565b90508281036040840152615615818d61526f565b6001600160a01b039b909b1660608401525050608081019790975260a087019590955260c086019390935260e08501919091521515610100840152610120830152610140909101529392505050565b6000806040838503121561567757600080fd5b50508035926020909101359150565b600081518084526020808501808196508360051b8101915082860160005b858110156156ce5782840389526156bc84835161526f565b988501989350908401906001016156a4565b5091979650505050505050565b600081518084526020808501945080840160005b8381101561520b578151875295820195908201906001016156ef565b60a08152600061571e60a08301886151d2565b82810360208401526157308188615686565b905082810360408401526157448187615686565b905082810360608401526157588186615686565b9050828103608084015261576c81856156db565b98975050505050505050565b60208152600061522960208301846156db565b6001600160a01b038c168152610160602082018190526000906157b08382018e61526f565b90508b604084015282810360608401526157ca818c61526f565b905082810360808401526157de818b61526f565b905082810360a08401526157f2818a61526f565b905082810360c0840152615806818961526f565b9150508560e083015284610100830152836101208301528215156101408301529c9b505050505050505050505050565b60008060008060008060c0878903121561584f57600080fd5b86356001600160401b038082111561586657600080fd5b6158728a838b0161532b565b9750602089013591508082111561588857600080fd5b5061589589828a0161532b565b96999698505050506040850135946060810135946080820135945060a09091013592509050565b60a0815260006158cf60a083018861526f565b82810360208401526158e1818861526f565b905082810360408401526158f5818761526f565b60608401959095525050608001529392505050565b6001600160a01b038a1681526101206020820181905260009061592f8382018c61526f565b90508960408401528281036060840152615949818a61526f565b9050828103608084015261595d818961526f565b9150508560a08301528460c08301528360e08301528215156101008301529a9950505050505050505050565b60006020828403121561599b57600080fd5b81356001600160401b038111156159b157600080fd5b6159bd8482850161532b565b949350505050565b60006101208083526159d98184018d61526f565b905082810360208401526159ed818c61526f565b6001600160a01b039a909a16604084015250506060810196909652608086019490945260a085019290925260c0840152151560e08301526101009091015292915050565b60208082526003908201526208525160ea1b604082015260600190565b60208082526006908201526510bb37ba32b960d11b604082015260600190565b67159154925192515160c21b815260080190565b600181811c90821680615a9657607f821691505b602082108103615ab657634e487b7160e01b600052602260045260246000fd5b50919050565b6000808354615aca81615a82565b60018281168015615ae25760018114615af757615b26565b60ff1984168752821515830287019450615b26565b8760005260208060002060005b85811015615b1d5781548a820152908401908201615b04565b50505082870194505b50929695505050505050565b602080825260099082015268085d995c9a599a595960ba1b604082015260600190565b634e487b7160e01b600052601160045260246000fd5b600060018201615b7d57615b7d615b55565b5060010190565b60208082526006908201526508599bdd5b9960d21b604082015260600190565b6020808252600a90820152691c9959da5cdd195c995960b21b604082015260600190565b60008251615bda81846020870161524b565b9190910192915050565b6020808252600790820152661250c81d5cd95960ca1b604082015260600190565b6020808252600a9082015269195b585a5b081d5cd95960b21b604082015260600190565b606086901b6001600160601b03191681528451600090615c50816014850160208a0161524b565b855190830190615c67816014840160208a0161524b565b8551910190615c7d81601484016020890161524b565b0160148101939093525050603401949350505050565b601f821115615cdd57600081815260208120601f850160051c81016020861015615cba5750805b601f850160051c820191505b81811015615cd957828155600101615cc6565b5050505b505050565b81516001600160401b03811115615cfb57615cfb615315565b615d0f81615d098454615a82565b84615c93565b602080601f831160018114615d445760008415615d2c5750858301515b600019600386901b1c1916600185901b178555615cd9565b600085815260208120601f198616915b82811015615d7357888601518255948401946001909101908401615d54565b5085821015615d915787850151600019600388901b60f8161c191681555b5050505050600190811b01905550565b606081526000615db4606083018661526f565b8281036020840152615dc6818661526f565b915050826040830152949350505050565b602080825260059082015264042c2eae8d60db1b604082015260600190565b6020808252600890820152672170656e64696e6760c01b604082015260600190565b6020808252600790820152661cdd185c9d195960ca1b604082015260600190565b6650454e44494e4760c81b815260070190565b602080825260069082015265085cdd185c9d60d21b604082015260600190565b80820180821115610a2857610a28615b55565b81810381811115610a2857610a28615b55565b634e487b7160e01b600052603260045260246000fd5b6020808252600b908201526a085c9959da5cdd195c995960aa1b604082015260600190565b602080825260079082015266185c1c1b1a595960ca1b604082015260600190565b604081526000615f01604083018561526f565b90508260208301529392505050565b60208082526005908201526421636f646560d81b604082015260600190565b732822a72224a723afab22a924a324a1a0aa24a7a760611b815260140190565b6020808252600890820152671d995c9a599a595960c21b604082015260600190565b60c081526000615f8460c083018961526f565b60208301979097525060408101949094526060840192909252608083015260a09091015291905056fea2646970667358221220e453c9ac791bb526c354cb4a50bc349c6704aeb13c0da5c447671f2e9b0c5e5c64736f6c63430008130033",
  "immutableReferences": {},
  "source": "// SPDX-License-Identifier: MIT\r\npragma solidity ^0.8.0;\r\n\r\ncontract Contract {\r\n    struct Voter {\r\n        address wallet;\r\n        string name;\r\n        bytes32 icHash;\r\n        string email;\r\n        string status;\r\n        bytes32 verificationCode;\r\n        uint256 registeredAt;\r\n        uint256 verifiedAt;\r\n        bool isRegistered;\r\n    }\r\n\r\n    struct Candidate {\r\n        address wallet;\r\n        string name;\r\n        bytes32 icHash;\r\n        string email;\r\n        string party;\r\n        string manifesto;\r\n        string status;\r\n        bytes32 verificationCode;\r\n        uint256 registeredAt;\r\n        uint256 verifiedAt;\r\n        bool isRegistered;\r\n    }\r\n\r\n    struct Organizer {\r\n        address wallet;\r\n        string organizationName;\r\n        string email;\r\n        string description;\r\n        string status;\r\n        uint256 registeredAt;\r\n        bool isRegistered;\r\n    }\r\n\r\n    struct Election {\r\n        uint256 id;\r\n        string title;\r\n        string description;\r\n        address organizer;\r\n        uint256 nominationStartTime;\r\n        uint256 nominationEndTime;\r\n        uint256 startTime;\r\n        uint256 endTime;\r\n        bool isActive;\r\n        uint256 createdAt;\r\n        uint256 totalVotes;\r\n    }\r\n    \r\n    address public admin;\r\n    address[] private voterAddresses;\r\n    address[] private candidateAddresses;\r\n    address[] private organizerList;\r\n    \r\n    uint256 private electionCounter;\r\n    uint256[] private electionIds;\r\n    mapping(uint256 => Election) public elections;\r\n\r\n    mapping(bytes32 => bool) private usedICs;\r\n    mapping(string => bool) private usedEmails;\r\n\r\n    mapping(address => Voter) public voters;\r\n    mapping(address => Candidate) public candidates;\r\n    mapping(address => Organizer) public organizers;\r\n    \r\n    // Election-scoped candidacy (Phase 3 & 4)\r\n    mapping(uint256 => address[]) private electionCandidateApplicants;\r\n    mapping(uint256 => mapping(address => uint8)) public candidateApplicationStatus;\r\n    mapping(uint256 => mapping(address => bool)) public hasVoted;\r\n    mapping(uint256 => mapping(address => uint256)) public candidateVotes;\r\n    \r\n    constructor() {\r\n        admin = msg.sender;\r\n    }\r\n\r\n    modifier onlyAdmin() {\r\n        require(msg.sender == admin, \"!admin\");\r\n        _;\r\n    }\r\n\r\n    event VoterRegistered(\r\n        address indexed wallet,\r\n        string name,\r\n        string email,\r\n        uint256 timestamp\r\n    );\r\n    \r\n    event CandidateRegistered(\r\n        address indexed wallet,\r\n        string name,\r\n        string email,\r\n        uint256 timestamp\r\n    );\r\n\r\n    event OrganizerRegistered(\r\n        address indexed applicant,\r\n        string organizationName,\r\n        uint256 timestamp\r\n    );\r\n\r\n    event VoterVerified(\r\n        address indexed wallet,\r\n        uint256 timestamp\r\n    );\r\n\r\n    event CandidateVerified(\r\n        address indexed wallet,\r\n        uint256 timestamp\r\n    );\r\n\r\n    event OrganizerVerified(\r\n        address indexed applicant,\r\n        uint256 timestamp\r\n    );\r\n\r\n    event OrganizerRejected(\r\n        address indexed applicant,\r\n        uint256 timestamp\r\n    );\r\n\r\n    event ElectionCreated(\r\n        uint256 indexed electionId,\r\n        string title,\r\n        address indexed organizer,\r\n        uint256 nominationStartTime,\r\n        uint256 nominationEndTime,\r\n        uint256 startTime,\r\n        uint256 endTime,\r\n        uint256 timestamp\r\n    );\r\n\r\n    event CandidateApplied(\r\n        uint256 indexed electionId,\r\n        address indexed candidateWallet,\r\n        uint256 timestamp\r\n    );\r\n\r\n    event CandidateApproved(\r\n        uint256 indexed electionId,\r\n        address indexed candidateWallet,\r\n        address indexed approver,\r\n        uint256 timestamp\r\n    );\r\n\r\n    event CandidateRejected(\r\n        uint256 indexed electionId,\r\n        address indexed candidateWallet,\r\n        address indexed rejector,\r\n        uint256 timestamp\r\n    );\r\n\r\n    event VoteCast(\r\n        uint256 indexed electionId,\r\n        address indexed voter,\r\n        address indexed candidate,\r\n        uint256 timestamp\r\n    );\r\n\r\n    // Common functions\r\n    function isICRegistered(string memory _ic) public view returns (bool) {\r\n        bytes32 icHash = keccak256(abi.encodePacked(_ic));\r\n        return usedICs[icHash];\r\n    }\r\n    \r\n    function isEmailRegistered(string memory _email) public view returns (bool) {\r\n        return usedEmails[_email];\r\n    }\r\n    \r\n    //////////////////\r\n    // Voter Logics //\r\n    //////////////////\r\n    function registerVoter(\r\n        string memory _name,\r\n        string memory _ic,\r\n        string memory _email\r\n    ) public returns (bytes32) {\r\n        require(!voters[msg.sender].isRegistered, \"registered\");\r\n\r\n        bytes32 icHash = keccak256(abi.encodePacked(_ic));\r\n        require(!usedICs[icHash], \"IC used\");\r\n        require(!usedEmails[_email], \"email used\");\r\n        \r\n        bytes32 verificationCode = keccak256(\r\n            abi.encodePacked(\r\n                msg.sender,\r\n                _name,\r\n                _ic,\r\n                _email,\r\n                block.timestamp\r\n            )\r\n        );\r\n        voters[msg.sender] = Voter({\r\n            wallet: msg.sender,\r\n            name: _name,\r\n            icHash: icHash,\r\n            email: _email,\r\n            status: \"PENDING_VERIFICATION\",\r\n            verificationCode: verificationCode,\r\n            registeredAt: block.timestamp,\r\n            verifiedAt: 0,\r\n            isRegistered: true\r\n        });\r\n        voterAddresses.push(msg.sender);\r\n        usedICs[icHash] = true;\r\n        usedEmails[_email] = true;\r\n        \r\n        emit VoterRegistered(msg.sender, _name, _email, block.timestamp);\r\n        \r\n        return verificationCode;\r\n    }\r\n    \r\n    function verifyVoter(bytes32 _verificationCode) public {\r\n        require(voters[msg.sender].isRegistered, \"!registered\");\r\n        require(\r\n            voters[msg.sender].verificationCode == _verificationCode,\r\n            \"!code\"\r\n        );\r\n        require(\r\n            keccak256(abi.encodePacked(voters[msg.sender].status)) == \r\n            keccak256(abi.encodePacked(\"PENDING_VERIFICATION\")),\r\n            \"verified\"\r\n        );\r\n        \r\n        voters[msg.sender].status = \"VERIFIED\";\r\n        voters[msg.sender].verifiedAt = block.timestamp;\r\n        \r\n        emit VoterVerified(msg.sender, block.timestamp);\r\n    }\r\n\r\n    function isVoterRegistered(address _wallet) public view returns (bool) {\r\n        return voters[_wallet].isRegistered;\r\n    }\r\n\r\n    // Combined function to check if a wallet is registered as voter or candidate\r\n    function isWalletRegistered(address _wallet) public view returns (bool) {\r\n        return voters[_wallet].isRegistered || candidates[_wallet].isRegistered;\r\n    }\r\n\r\n    function getAllVoterAddresses() public view returns (address[] memory) {\r\n        return voterAddresses;\r\n    }\r\n\r\n    function getTotalRegisteredVoters() public view returns (uint256) {\r\n        return voterAddresses.length;\r\n    }\r\n    \r\n    function getVoterInfo(address _wallet) public view returns (\r\n        string memory name,\r\n        string memory email,\r\n        string memory status,\r\n        uint256 registeredAt,\r\n        uint256 verifiedAt\r\n    ) {\r\n        require(voters[_wallet].isRegistered, \"!voter\");\r\n        \r\n        Voter memory voter = voters[_wallet];\r\n        return (\r\n            voter.name,\r\n            voter.email,\r\n            voter.status,\r\n            voter.registeredAt,\r\n            voter.verifiedAt\r\n        );\r\n    }\r\n\r\n    function getVotersBatch(uint256 _start, uint256 _count) public view returns (\r\n        address[] memory wallets,\r\n        string[] memory names,\r\n        string[] memory emails,\r\n        string[] memory statuses,\r\n        uint256[] memory registeredAts\r\n    ) {\r\n        require(_start < voterAddresses.length, \"!start\");\r\n        \r\n        uint256 end = _start + _count;\r\n        if (end > voterAddresses.length) {\r\n            end = voterAddresses.length;\r\n        }\r\n        \r\n        uint256 resultCount = end - _start;\r\n        \r\n        wallets = new address[](resultCount);\r\n        names = new string[](resultCount);\r\n        emails = new string[](resultCount);\r\n        statuses = new string[](resultCount);\r\n        registeredAts = new uint256[](resultCount);\r\n        \r\n        for (uint256 i = 0; i < resultCount; i++) {\r\n            address voterAddress = voterAddresses[_start + i];\r\n            Voter memory voter = voters[voterAddress];\r\n            \r\n            wallets[i] = voter.wallet;\r\n            names[i] = voter.name;\r\n            emails[i] = voter.email;\r\n            statuses[i] = voter.status;\r\n            registeredAts[i] = voter.registeredAt;\r\n        }\r\n        \r\n        return (wallets, names, emails, statuses, registeredAts);\r\n    }\r\n\r\n    \r\n    function registerCandidate(\r\n        string memory _name,\r\n        string memory _ic,\r\n        string memory _email,\r\n        string memory _party,\r\n        string memory _manifesto\r\n    ) public returns (bytes32) {\r\n        require(!candidates[msg.sender].isRegistered, \"registered\");\r\n        bytes32 icHash = keccak256(abi.encodePacked(_ic));\r\n        require(!usedICs[icHash], \"IC used\");\r\n        require(!usedEmails[_email], \"email used\");\r\n        \r\n        bytes32 verificationCode = keccak256(\r\n            abi.encodePacked(\r\n                msg.sender,\r\n                _name,\r\n                _ic,\r\n                _email,\r\n                block.timestamp\r\n            )\r\n        );\r\n        candidates[msg.sender] = Candidate({\r\n            wallet: msg.sender,\r\n            name: _name,\r\n            icHash: icHash,\r\n            email: _email,\r\n            party: _party,\r\n            manifesto: _manifesto,\r\n            status: \"PENDING_VERIFICATION\",\r\n            verificationCode: verificationCode,\r\n            registeredAt: block.timestamp,\r\n            verifiedAt: 0,\r\n            isRegistered: true\r\n        });\r\n        candidateAddresses.push(msg.sender);\r\n        usedICs[icHash] = true;\r\n        usedEmails[_email] = true;\r\n        \r\n        emit CandidateRegistered(msg.sender, _name, _email, block.timestamp);\r\n        \r\n        return verificationCode;\r\n    }\r\n    \r\n    function verifyCandidate(bytes32 _verificationCode) public {\r\n        require(candidates[msg.sender].isRegistered, \"!registered\");\r\n        require(\r\n            candidates[msg.sender].verificationCode == _verificationCode,\r\n            \"!code\"\r\n        );\r\n        require(\r\n            keccak256(abi.encodePacked(candidates[msg.sender].status)) == \r\n            keccak256(abi.encodePacked(\"PENDING_VERIFICATION\")),\r\n            \"verified\"\r\n        );\r\n        \r\n        candidates[msg.sender].status = \"VERIFIED\";\r\n        candidates[msg.sender].verifiedAt = block.timestamp;\r\n        \r\n        emit CandidateVerified(msg.sender, block.timestamp);\r\n    }\r\n\r\n    function isCandidateRegistered(address _wallet) public view returns (bool) {\r\n        return candidates[_wallet].isRegistered;\r\n    }\r\n    \r\n    function getAllCandidateAddresses() public view returns (address[] memory) {\r\n        return candidateAddresses;\r\n    }\r\n    \r\n    function getTotalRegisteredCandidates() public view returns (uint256) {\r\n        return candidateAddresses.length;\r\n    }\r\n    \r\n    function getCandidateInfo(address _wallet) public view returns (\r\n        string memory name,\r\n        string memory email,\r\n        string memory party,\r\n        string memory manifesto,\r\n        string memory status,\r\n        uint256 registeredAt,\r\n        uint256 verifiedAt\r\n    ) {\r\n        require(candidates[_wallet].isRegistered, \"!candidate\");\r\n        \r\n        Candidate memory candidate = candidates[_wallet];\r\n        return (\r\n            candidate.name,\r\n            candidate.email,\r\n            candidate.party,\r\n            candidate.manifesto,\r\n            candidate.status,\r\n            candidate.registeredAt,\r\n            candidate.verifiedAt\r\n        );\r\n    }\r\n\r\n    function getCandidatesBatch(uint256 _start, uint256 _count) public view returns (\r\n        address[] memory wallets,\r\n        string[] memory names,\r\n        string[] memory emails,\r\n        string[] memory statuses,\r\n        uint256[] memory registeredAts\r\n    ) {\r\n        require(_start < candidateAddresses.length, \"!start\");\r\n        \r\n        uint256 end = _start + _count;\r\n        if (end > candidateAddresses.length) {\r\n            end = candidateAddresses.length;\r\n        }\r\n        \r\n        uint256 resultCount = end - _start;\r\n        \r\n        wallets = new address[](resultCount);\r\n        names = new string[](resultCount);\r\n        emails = new string[](resultCount);\r\n        statuses = new string[](resultCount);\r\n        registeredAts = new uint256[](resultCount);\r\n        \r\n        for (uint256 i = 0; i < resultCount; i++) {\r\n            address candidateAddress = candidateAddresses[_start + i];\r\n            Candidate memory candidate = candidates[candidateAddress];\r\n            \r\n            wallets[i] = candidate.wallet;\r\n            names[i] = candidate.name;\r\n            emails[i] = candidate.email;\r\n            statuses[i] = candidate.status;\r\n            registeredAts[i] = candidate.registeredAt;\r\n        }\r\n        \r\n        return (wallets, names, emails, statuses, registeredAts);\r\n    }\r\n\r\n\r\n    function registerOrganizer(\r\n        string memory _organizationName,\r\n        string memory _email,\r\n        string memory _description\r\n    ) public returns (bool) {\r\n        require(!organizers[msg.sender].isRegistered, \"applied\");\r\n        require(bytes(_organizationName).length > 0, \"!name\");\r\n        require(bytes(_email).length > 0, \"!email\");\r\n        \r\n        organizers[msg.sender] = Organizer({\r\n            wallet: msg.sender,\r\n            organizationName: _organizationName,\r\n            email: _email,\r\n            description: _description,\r\n            status: \"PENDING\",\r\n            registeredAt: block.timestamp,\r\n            isRegistered: true\r\n        });\r\n        \r\n        organizerList.push(msg.sender);\r\n        \r\n        emit OrganizerRegistered(msg.sender, _organizationName, block.timestamp);\r\n        \r\n        return true;\r\n    }\r\n\r\n    function verifyOrganizer(address _applicant) public onlyAdmin returns (bool) {\r\n        require(organizers[_applicant].isRegistered, \"!found\");\r\n        require(\r\n            keccak256(abi.encodePacked(organizers[_applicant].status)) == \r\n            keccak256(abi.encodePacked(\"PENDING\")),\r\n            \"processed\"\r\n        );\r\n        \r\n        organizers[_applicant].status = \"APPROVED\";\r\n        \r\n        emit OrganizerVerified(_applicant, block.timestamp);\r\n        \r\n        return true;\r\n    }\r\n\r\n    function getOrganizerInfo(address _applicant) public view returns (\r\n        string memory organizationName,\r\n        string memory email,\r\n        string memory description,\r\n        string memory status,\r\n        uint256 registeredAt\r\n    ) {\r\n        require(organizers[_applicant].isRegistered, \"!found\");\r\n        \r\n        Organizer memory org = organizers[_applicant];\r\n        return (\r\n            org.organizationName,\r\n            org.email,\r\n            org.description,\r\n            org.status,\r\n            org.registeredAt\r\n        );\r\n    }\r\n\r\n    function getAllOrganizers() public view returns (address[] memory) {\r\n        return organizerList;\r\n    }\r\n\r\n    function getPendingOrganizers() public view returns (address[] memory) {\r\n        uint256 pendingCount = 0;\r\n        for (uint256 i = 0; i < organizerList.length; i++) {\r\n            if (keccak256(abi.encodePacked(organizers[organizerList[i]].status)) == \r\n                keccak256(abi.encodePacked(\"PENDING\"))) {\r\n                pendingCount++;\r\n            }\r\n        }\r\n        \r\n        address[] memory pending = new address[](pendingCount);\r\n        uint256 currentIndex = 0;\r\n        \r\n        for (uint256 i = 0; i < organizerList.length; i++) {\r\n            if (keccak256(abi.encodePacked(organizers[organizerList[i]].status)) == \r\n                keccak256(abi.encodePacked(\"PENDING\"))) {\r\n                pending[currentIndex] = organizerList[i];\r\n                currentIndex++;\r\n            }\r\n        }\r\n        \r\n        return pending;\r\n    }\r\n\r\n    function isOrganizer(address _address) public view returns (bool) {\r\n        return organizers[_address].isRegistered &&\r\n               keccak256(abi.encodePacked(organizers[_address].status)) == \r\n               keccak256(abi.encodePacked(\"APPROVED\"));\r\n    }\r\n\r\n    function isOrganizerRegistered(address _address) public view returns (bool) {\r\n        return organizers[_address].isRegistered;\r\n    }\r\n\r\n    function isAdmin(address _address) public view returns (bool) {\r\n        return _address == admin;\r\n    }\r\n\r\n    function createElection(\r\n        string memory _title,\r\n        string memory _description,\r\n        uint256 _nominationStartTime,\r\n        uint256 _nominationEndTime,\r\n        uint256 _startTime,\r\n        uint256 _endTime\r\n    ) public returns (uint256) {\r\n        require(isOrganizer(msg.sender), \"!organizer\");\r\n        require(bytes(_title).length > 0, \"!title\");\r\n        require(_nominationStartTime > block.timestamp, \"!nomStart\");\r\n        require(_nominationEndTime > _nominationStartTime, \"!nomEnd\");\r\n        require(_startTime > _nominationEndTime, \"!voteStart\");\r\n        require(_endTime > _startTime, \"!end\");\r\n        electionCounter++;\r\n        uint256 newElectionId = electionCounter;\r\n        elections[newElectionId] = Election({\r\n            id: newElectionId,\r\n            title: _title,\r\n            description: _description,\r\n            organizer: msg.sender,\r\n            nominationStartTime: _nominationStartTime,\r\n            nominationEndTime: _nominationEndTime,\r\n            startTime: _startTime,\r\n            endTime: _endTime,\r\n            isActive: false,\r\n            createdAt: block.timestamp,\r\n            totalVotes: 0\r\n        });\r\n        electionIds.push(newElectionId);\r\n        \r\n        emit ElectionCreated(\r\n            newElectionId,\r\n            _title,\r\n            msg.sender,\r\n            _nominationStartTime,\r\n            _nominationEndTime,\r\n            _startTime,\r\n            _endTime,\r\n            block.timestamp\r\n        );\r\n        \r\n        return newElectionId;\r\n    }\r\n    \r\n    function getElectionInfo(uint256 _electionId) public view returns (\r\n        string memory title,\r\n        string memory description,\r\n        address organizer,\r\n        uint256 nominationStartTime,\r\n        uint256 nominationEndTime,\r\n        uint256 startTime,\r\n        uint256 endTime,\r\n        bool isActive,\r\n        uint256 createdAt\r\n    ) {\r\n        require(_electionId > 0 && _electionId <= electionCounter, \"!election\");\r\n        \r\n        Election memory election = elections[_electionId];\r\n        return (\r\n            election.title,\r\n            election.description,\r\n            election.organizer,\r\n            election.nominationStartTime,\r\n            election.nominationEndTime,\r\n            election.startTime,\r\n            election.endTime,\r\n            election.isActive,\r\n            election.createdAt\r\n        );\r\n    }\r\n    \r\n    function getAllElectionIds() public view returns (uint256[] memory) {\r\n        return electionIds;\r\n    }\r\n    \r\n    function getTotalElections() public view returns (uint256) {\r\n        return electionCounter;\r\n    }\r\n    \r\n    function getElectionsByOrganizer(address _organizer) public view returns (uint256[] memory) {\r\n        uint256 count = 0;\r\n        for (uint256 i = 0; i < electionIds.length; i++) {\r\n            if (elections[electionIds[i]].organizer == _organizer) {\r\n                count++;\r\n            }\r\n        }\r\n        uint256[] memory organizerElections = new uint256[](count);\r\n        uint256 currentIndex = 0;\r\n        for (uint256 i = 0; i < electionIds.length; i++) {\r\n            if (elections[electionIds[i]].organizer == _organizer) {\r\n                organizerElections[currentIndex] = electionIds[i];\r\n                currentIndex++;\r\n            }\r\n        }\r\n        \r\n        return organizerElections;\r\n    }\r\n    \r\n    function getActiveElections() public view returns (uint256[] memory) {\r\n        uint256 count = 0;\r\n        for (uint256 i = 0; i < electionIds.length; i++) {\r\n            Election memory election = elections[electionIds[i]];\r\n            if (election.isActive && \r\n                block.timestamp >= election.startTime && \r\n                block.timestamp <= election.endTime) {\r\n                count++;\r\n            }\r\n        }\r\n        uint256[] memory activeElections = new uint256[](count);\r\n        uint256 currentIndex = 0;\r\n        for (uint256 i = 0; i < electionIds.length; i++) {\r\n            Election memory election = elections[electionIds[i]];\r\n            if (election.isActive && \r\n                block.timestamp >= election.startTime && \r\n                block.timestamp <= election.endTime) {\r\n                activeElections[currentIndex] = electionIds[i];\r\n                currentIndex++;\r\n            }\r\n        }\r\n        \r\n        return activeElections;\r\n    }\r\n\r\n    function applyToElection(uint256 _electionId) public returns (bool) {\r\n        require(_electionId <= electionCounter, \"!found\");\r\n        Election memory election = elections[_electionId];\r\n        require(\r\n            block.timestamp >= election.nominationStartTime && \r\n            block.timestamp <= election.nominationEndTime,\r\n            \"!nomWindow\"\r\n        );\r\n        require(candidates[msg.sender].isRegistered, \"!registered\");\r\n        require(\r\n            keccak256(abi.encodePacked(candidates[msg.sender].status)) == \r\n            keccak256(abi.encodePacked(\"VERIFIED\")),\r\n            \"!verified\"\r\n        );\r\n        require(\r\n            candidateApplicationStatus[_electionId][msg.sender] == 0,\r\n            \"applied\"\r\n        );\r\n        candidateApplicationStatus[_electionId][msg.sender] = 1;\r\n        electionCandidateApplicants[_electionId].push(msg.sender);\r\n        \r\n        emit CandidateApplied(_electionId, msg.sender, block.timestamp);\r\n        \r\n        return true;\r\n    }\r\n    \r\n    function getElectionCandidateApplicants(uint256 _electionId) public view returns (address[] memory) {\r\n        require(_electionId <= electionCounter, \"!found\");\r\n        return electionCandidateApplicants[_electionId];\r\n    }\r\n    \r\n    // function getCandidateStatusInElection(uint256 _electionId, address _candidate) public view returns (uint8) {\r\n    //     require(_electionId <= electionCounter, \"!found\");\r\n    //     return candidateApplicationStatus[_electionId][_candidate];\r\n    // }\r\n    \r\n    function approveCandidateForElection(uint256 _electionId, address _candidateWallet) public returns (bool) {\r\n        require(_electionId <= electionCounter, \"!found\");\r\n        Election memory election = elections[_electionId];\r\n        require(\r\n            msg.sender == election.organizer || msg.sender == admin,\r\n            \"!auth\"\r\n        );\r\n        require(\r\n            candidateApplicationStatus[_electionId][_candidateWallet] == 1,\r\n            \"!pending\"\r\n        );\r\n        require(\r\n            block.timestamp < election.startTime,\r\n            \"started\"\r\n        );\r\n        candidateApplicationStatus[_electionId][_candidateWallet] = 2;\r\n        \r\n        emit CandidateApproved(_electionId, _candidateWallet, msg.sender, block.timestamp);\r\n        \r\n        return true;\r\n    }\r\n    \r\n    function rejectCandidateForElection(uint256 _electionId, address _candidateWallet) public returns (bool) {\r\n        require(_electionId <= electionCounter, \"!found\");\r\n        Election memory election = elections[_electionId];\r\n        require(\r\n            msg.sender == election.organizer || msg.sender == admin,\r\n            \"!auth\"\r\n        );\r\n        require(\r\n            candidateApplicationStatus[_electionId][_candidateWallet] == 1,\r\n            \"!pending\"\r\n        );\r\n        require(\r\n            block.timestamp < election.startTime,\r\n            \"started\"\r\n        );\r\n        candidateApplicationStatus[_electionId][_candidateWallet] = 3;\r\n        \r\n        emit CandidateRejected(_electionId, _candidateWallet, msg.sender, block.timestamp);\r\n        \r\n        return true;\r\n    }\r\n    \r\n    function getApprovedCandidates(uint256 _electionId) public view returns (address[] memory) {\r\n        require(_electionId <= electionCounter, \"!found\");\r\n        address[] memory applicants = electionCandidateApplicants[_electionId];\r\n        uint256 approvedCount = 0;\r\n        for (uint256 i = 0; i < applicants.length; i++) {\r\n            if (candidateApplicationStatus[_electionId][applicants[i]] == 2) {\r\n                approvedCount++;\r\n            }\r\n        }\r\n        address[] memory approved = new address[](approvedCount);\r\n        uint256 currentIndex = 0;\r\n        for (uint256 i = 0; i < applicants.length; i++) {\r\n            if (candidateApplicationStatus[_electionId][applicants[i]] == 2) {\r\n                approved[currentIndex] = applicants[i];\r\n                currentIndex++;\r\n            }\r\n        }\r\n        \r\n        return approved;\r\n    }\r\n    \r\n    function vote(uint256 _electionId, address _candidateWallet) public returns (bool) {\r\n        require(_electionId <= electionCounter, \"!ID\");\r\n        Election storage election = elections[_electionId];\r\n        require(\r\n            block.timestamp >= election.startTime && block.timestamp <= election.endTime,\r\n            \"!open\"\r\n        );\r\n        require(voters[msg.sender].isRegistered, \"!voter\");\r\n        require(\r\n            keccak256(abi.encodePacked(voters[msg.sender].status)) == keccak256(abi.encodePacked(\"VERIFIED\")),\r\n            \"!verified\"\r\n        );\r\n        require(!hasVoted[_electionId][msg.sender], \"voted\");\r\n        require(\r\n            candidateApplicationStatus[_electionId][_candidateWallet] == 2,\r\n            \"!approved\"\r\n        );\r\n        hasVoted[_electionId][msg.sender] = true;\r\n        candidateVotes[_electionId][_candidateWallet]++;\r\n        election.totalVotes++;\r\n        \r\n        emit VoteCast(_electionId, msg.sender, _candidateWallet, block.timestamp);\r\n        \r\n        return true;\r\n    }\r\n    \r\n    function hasVoterVoted(uint256 _electionId, address _voterWallet) public view returns (bool) {\r\n        return hasVoted[_electionId][_voterWallet];\r\n    }\r\n    \r\n    function getCandidateVotes(uint256 _electionId, address _candidateWallet) public view returns (uint256) {\r\n        return candidateVotes[_electionId][_candidateWallet];\r\n    }\r\n    \r\n    function getElectionTotalVotes(uint256 _electionId) public view returns (uint256) {\r\n        require(_electionId <= electionCounter, \"!ID\");\r\n        return elections[_electionId].totalVotes;\r\n    }\r\n}\r\n",
  "sourcePath": "C:\\Users\\ASUS\\Projects\\BlockVote\\smart-contract\\contracts\\contract.sol",
  "compiler": {
    "name": "solc",
    "version": "0.8.19+commit.7dd6d404.Emscripten.clang"
  },
  "schemaVersion": "3.4.16",
  "updatedAt": "2026-01-27T13:53:15.980Z",
  "networkType": "ethereum",
  "devdoc": {
    "kind": "dev",
    "methods": {},
    "version": 1
  },
  "userdoc": {
    "kind": "user",
    "methods": {},
    "version": 1
  }
}