{
  "contractName": "Register",
  "abi": [
    {
      "anonymous": false,
      "inputs": [
        {
          "indexed": false,
          "internalType": "string",
          "name": "name",
          "type": "string"
        },
        {
          "indexed": false,
          "internalType": "uint256",
          "name": "ic",
          "type": "uint256"
        },
        {
          "indexed": false,
          "internalType": "address",
          "name": "wallet",
          "type": "address"
        }
      ],
      "name": "UserRegistered",
      "type": "event"
    },
    {
      "inputs": [],
      "name": "userCount",
      "outputs": [
        {
          "internalType": "uint256",
          "name": "",
          "type": "uint256"
        }
      ],
      "stateMutability": "view",
      "type": "function",
      "constant": true
    },
    {
      "inputs": [
        {
          "internalType": "uint256",
          "name": "",
          "type": "uint256"
        }
      ],
      "name": "users",
      "outputs": [
        {
          "internalType": "string",
          "name": "name",
          "type": "string"
        },
        {
          "internalType": "uint256",
          "name": "ic",
          "type": "uint256"
        },
        {
          "internalType": "address",
          "name": "wallet",
          "type": "address"
        }
      ],
      "stateMutability": "view",
      "type": "function",
      "constant": true
    },
    {
      "inputs": [
        {
          "internalType": "string",
          "name": "_name",
          "type": "string"
        },
        {
          "internalType": "uint256",
          "name": "_ic",
          "type": "uint256"
        }
      ],
      "name": "registerUser",
      "outputs": [],
      "stateMutability": "nonpayable",
      "type": "function"
    },
    {
      "inputs": [
        {
          "internalType": "uint256",
          "name": "_id",
          "type": "uint256"
        }
      ],
      "name": "getUser",
      "outputs": [
        {
          "internalType": "string",
          "name": "",
          "type": "string"
        },
        {
          "internalType": "uint256",
          "name": "",
          "type": "uint256"
        },
        {
          "internalType": "address",
          "name": "",
          "type": "address"
        }
      ],
      "stateMutability": "view",
      "type": "function",
      "constant": true
    }
  ],
  "bytecode": "0x608060405234801561001057600080fd5b50610ace806100206000396000f3fe608060405234801561001057600080fd5b506004361061004c5760003560e01c806307973ccf14610051578063365b98b21461006f578063b0467deb146100a1578063d3951002146100d3575b600080fd5b6100596100ef565b604051610066919061041b565b60405180910390f35b61008960048036038101906100849190610476565b6100f5565b60405161009893929190610574565b60405180910390f35b6100bb60048036038101906100b69190610476565b6101c7565b6040516100ca93929190610574565b60405180910390f35b6100ed60048036038101906100e891906106e7565b6102fc565b005b60015481565b600060205280600052604060002060009150905080600001805461011890610772565b80601f016020809104026020016040519081016040528092919081815260200182805461014490610772565b80156101915780601f1061016657610100808354040283529160200191610191565b820191906000526020600020905b81548152906001019060200180831161017457829003601f168201915b5050505050908060010154908060020160009054906101000a900473ffffffffffffffffffffffffffffffffffffffff16905083565b606060008060008060008681526020019081526020016000206040518060600160405290816000820180546101fb90610772565b80601f016020809104026020016040519081016040528092919081815260200182805461022790610772565b80156102745780601f1061024957610100808354040283529160200191610274565b820191906000526020600020905b81548152906001019060200180831161025757829003601f168201915b50505050508152602001600182015481526020016002820160009054906101000a900473ffffffffffffffffffffffffffffffffffffffff1673ffffffffffffffffffffffffffffffffffffffff1673ffffffffffffffffffffffffffffffffffffffff16815250509050806000015181602001518260400151935093509350509193909250565b6001600081548092919061030f906107d2565b919050555060405180606001604052808381526020018281526020013373ffffffffffffffffffffffffffffffffffffffff168152506000806001548152602001908152602001600020600082015181600001908161036e91906109c6565b506020820151816001015560408201518160020160006101000a81548173ffffffffffffffffffffffffffffffffffffffff021916908373ffffffffffffffffffffffffffffffffffffffff1602179055509050507f86cb00c6232c2d109e0dead6cf0f7f6c0b7e50420d7c12f8ec80a240de9f0ae48282336040516103f693929190610574565b60405180910390a15050565b6000819050919050565b61041581610402565b82525050565b6000602082019050610430600083018461040c565b92915050565b6000604051905090565b600080fd5b600080fd5b61045381610402565b811461045e57600080fd5b50565b6000813590506104708161044a565b92915050565b60006020828403121561048c5761048b610440565b5b600061049a84828501610461565b91505092915050565b600081519050919050565b600082825260208201905092915050565b60005b838110156104dd5780820151818401526020810190506104c2565b60008484015250505050565b6000601f19601f8301169050919050565b6000610505826104a3565b61050f81856104ae565b935061051f8185602086016104bf565b610528816104e9565b840191505092915050565b600073ffffffffffffffffffffffffffffffffffffffff82169050919050565b600061055e82610533565b9050919050565b61056e81610553565b82525050565b6000606082019050818103600083015261058e81866104fa565b905061059d602083018561040c565b6105aa6040830184610565565b949350505050565b600080fd5b600080fd5b7f4e487b7100000000000000000000000000000000000000000000000000000000600052604160045260246000fd5b6105f4826104e9565b810181811067ffffffffffffffff82111715610613576106126105bc565b5b80604052505050565b6000610626610436565b905061063282826105eb565b919050565b600067ffffffffffffffff821115610652576106516105bc565b5b61065b826104e9565b9050602081019050919050565b82818337600083830152505050565b600061068a61068584610637565b61061c565b9050828152602081018484840111156106a6576106a56105b7565b5b6106b1848285610668565b509392505050565b600082601f8301126106ce576106cd6105b2565b5b81356106de848260208601610677565b91505092915050565b600080604083850312156106fe576106fd610440565b5b600083013567ffffffffffffffff81111561071c5761071b610445565b5b610728858286016106b9565b925050602061073985828601610461565b9150509250929050565b7f4e487b7100000000000000000000000000000000000000000000000000000000600052602260045260246000fd5b6000600282049050600182168061078a57607f821691505b60208210810361079d5761079c610743565b5b50919050565b7f4e487b7100000000000000000000000000000000000000000000000000000000600052601160045260246000fd5b60006107dd82610402565b91507fffffffffffffffffffffffffffffffffffffffffffffffffffffffffffffffff820361080f5761080e6107a3565b5b600182019050919050565b60008190508160005260206000209050919050565b60006020601f8301049050919050565b600082821b905092915050565b60006008830261087c7fffffffffffffffffffffffffffffffffffffffffffffffffffffffffffffffff8261083f565b610886868361083f565b95508019841693508086168417925050509392505050565b6000819050919050565b60006108c36108be6108b984610402565b61089e565b610402565b9050919050565b6000819050919050565b6108dd836108a8565b6108f16108e9826108ca565b84845461084c565b825550505050565b600090565b6109066108f9565b6109118184846108d4565b505050565b5b818110156109355761092a6000826108fe565b600181019050610917565b5050565b601f82111561097a5761094b8161081a565b6109548461082f565b81016020851015610963578190505b61097761096f8561082f565b830182610916565b50505b505050565b600082821c905092915050565b600061099d6000198460080261097f565b1980831691505092915050565b60006109b6838361098c565b9150826002028217905092915050565b6109cf826104a3565b67ffffffffffffffff8111156109e8576109e76105bc565b5b6109f28254610772565b6109fd828285610939565b600060209050601f831160018114610a305760008415610a1e578287015190505b610a2885826109aa565b865550610a90565b601f198416610a3e8661081a565b60005b82811015610a6657848901518255600182019150602085019450602081019050610a41565b86831015610a835784890151610a7f601f89168261098c565b8355505b6001600288020188555050505b50505050505056fea2646970667358221220e5ae32b26e0f5c6465d93d93e8bffa1223a77d2e5db8543bdfa1dc73fab5485064736f6c63430008130033",
  "immutableReferences": {},
  "source": "\r\n// pragma solidity ^0.8.0;\r\n\r\n// contract RegisterContract {\r\n//     struct User {\r\n//         string identityNumber;\r\n//         string name;\r\n//         string publicKeyHash;\r\n//         uint256 timestamp;     // block.timestamp when registered\r\n//         uint256 blockNumber;   // block.number when registered\r\n//         bytes32 txHash;        // synthetic tx-hash (keccak256 of registration data)\r\n//     }\r\n\r\n//     User[] private users;\r\n\r\n//     mapping(string => uint256) private identityToIndex;\r\n\r\n//     event UserEnrolled(\r\n//         string indexed identityNumber,\r\n//         string name,\r\n//         string publicKeyHash,\r\n//         uint256 indexed blockNumber,\r\n//         uint256 timestamp,\r\n//         bytes32 txHash,\r\n//         uint256 userIndex\r\n//     );\r\n\r\n//     function addUser(\r\n//         string calldata name,\r\n//         string calldata identityNumber,\r\n//         string calldata publicKeyHash\r\n//     ) external returns (uint256) {\r\n//         require(identityToIndex[identityNumber] == 0, \"User already registered\");\r\n\r\n//         bytes32 syntheticTxHash = keccak256(\r\n//             abi.encodePacked(msg.sender, block.number, block.timestamp, identityNumber)\r\n//         );\r\n\r\n//         User memory u = User({\r\n//             name: name,\r\n//             identityNumber: identityNumber,\r\n//             publicKeyHash: publicKeyHash,\r\n//             timestamp: block.timestamp,\r\n//             blockNumber: block.number,\r\n//             txHash: syntheticTxHash\r\n//         });\r\n\r\n//         users.push(u);\r\n//         uint256 index = users.length - 1;\r\n//         // store 1-based index to distinguish \"not present\" (0)\r\n//         identityToIndex[identityNumber] = index + 1;\r\n\r\n//         emit UserEnrolled(identityNumber, name, publicKeyHash, block.number, block.timestamp, syntheticTxHash, index);\r\n\r\n//         return index;\r\n//     }\r\n\r\n//     function getUser(string calldata identityNumber)\r\n//         external\r\n//         view\r\n//         returns (\r\n//             string memory name,\r\n//             string memory publicKeyHash,\r\n//             uint256 timestamp,\r\n//             uint256 blockNumber_,\r\n//             bytes32 txHash,\r\n//             uint256 index\r\n//         )\r\n//     {\r\n//         uint256 stored = identityToIndex[identityNumber];\r\n//         require(stored != 0, \"User not found\");\r\n//         uint256 idx = stored - 1;\r\n//         User storage u = users[idx];\r\n//         return (u.name, u.publicKeyHash, u.timestamp, u.blockNumber, u.txHash, idx);\r\n//     }\r\n\r\n\r\n//     function userCount() external view returns (uint256) {\r\n//         return users.length;\r\n//     }\r\n// }\r\n\r\n// SPDX-License-Identifier: MIT\r\npragma solidity ^0.8.0;\r\n\r\ncontract Register {\r\n    struct User {\r\n        string name;\r\n        uint256 ic;\r\n        address wallet;\r\n    }\r\n\r\n    mapping(uint256 => User) public users;\r\n    uint256 public userCount;\r\n\r\n    event UserRegistered(string name, uint256 ic, address wallet);\r\n\r\n    function registerUser(string memory _name, uint256 _ic) public {\r\n        userCount++;\r\n        users[userCount] = User(_name, _ic, msg.sender);\r\n        emit UserRegistered(_name, _ic, msg.sender);\r\n    }\r\n\r\n    function getUser(uint256 _id) public view returns (string memory, uint256, address) {\r\n        User memory u = users[_id];\r\n        return (u.name, u.ic, u.wallet);\r\n    }\r\n}\r\n",
  "sourcePath": "C:\\Users\\ASUS\\OneDrive - Heriot-Watt University\\Degree Y3\\FYP\\BlockVote\\smart-contract\\contracts\\register.sol",
  "compiler": {
    "name": "solc",
    "version": "0.8.19+commit.7dd6d404.Emscripten.clang"
  },
  "schemaVersion": "3.4.16",
  "updatedAt": "2025-11-02T09:08:24.174Z",
  "networkType": "ethereum",
  "devdoc": {
    "kind": "dev",
    "methods": {},
    "version": 1
  },
  "userdoc": {
    "kind": "user",
    "methods": {},
    "version": 1
  }
}