{
  "contractName": "Groth16Verifier",
  "abi": [
    {
      "inputs": [
        {
          "internalType": "uint256[2]",
          "name": "_pA",
          "type": "uint256[2]"
        },
        {
          "internalType": "uint256[2][2]",
          "name": "_pB",
          "type": "uint256[2][2]"
        },
        {
          "internalType": "uint256[2]",
          "name": "_pC",
          "type": "uint256[2]"
        },
        {
          "internalType": "uint256[10]",
          "name": "_pubSignals",
          "type": "uint256[10]"
        }
      ],
      "name": "verifyProof",
      "outputs": [
        {
          "internalType": "bool",
          "name": "",
          "type": "bool"
        }
      ],
      "stateMutability": "view",
      "type": "function",
      "constant": true
    }
  ],
  "bytecode": "0x6080806040523461001657610a17908161001c8239f35b600080fdfe6080604052600436101561001257600080fd5b6000803560e01c63f3bb70f61461002857600080fd5b346104275761024080600319360112610423576100443661042a565b903660c41161041f576100563661043c565b91366102441161041b57610400604052610104356100738161044a565b610124356100808161044a565b6101443561008d8161044a565b6101643561009a8161044a565b610184356100a78161044a565b6101a435906100b58261044a565b6101c435926100c38461044a565b6101e435946100d18661044a565b61020435966100df8861044a565b61022435986100ed8a61044a565b7f15b4137ddcd2fdb14b5ee249174fdabeef810fe1d36c44f6eb4a594adcca12da6080527f11effc84acbc6d2d5f3730a91434ab50365f1e95e92e20a67b1d9521fd696cbc60a05261013e9061047d565b61014790610507565b61015090610591565b6101599061061b565b610162906106a5565b61016b9061072f565b610174906107b9565b61017d90610843565b610186906108cd565b61018f90610957565b6101009283928284933584527f30644e72e131a029b85045b68181585d97816a916871ca8d3c208c16d87cfd4790602001358103066101205260443561014052606435610160526084356101805260a4356101a0527f0352d1fe0c0453427d5bf0eecd054a1411324bbc9c33445cb1576dbea91a7e456101c0527ec8e2978440d85542a613378f2ad4a5e189999125f83d45df80f18bee96d8be6101e0527f1c49f990c9a9b353acf69a64db50fa71a9f816c0ba58de2c8fc8f3a94e02b955610200527f18eed5b568e3084cb88c5c6766bccfef2f300741b08c707751258960816c990e610220527e2d586c0f7f8584e11f7d1021f453c1e27cbdf5cc6b13e78d470aa8814b8c6c90527f1000459676d52e75f9093c4697351b53a9049af7d76f77bc9159f94de91f13c1610260526080516102805260a0516102a0527f198e9393920d483a7260bfb731fb5d25f1aa493335a9e71297e485b7aef312c26102c0527f1800deef121f1e76426a00665e5c4479674322d4f75edadd46debd5cd992f6ed6102e052610300907f090689d0585ff075ec9e99ad690c3395bc4b313370b38ef355acdadcd122975b82527f12c85ea5db8c6deb4aab71808dcb408fe3d1e7690c43d37b4ce6cc0166fa7daa6103205280356103405260200135610360527f1cacc1470c7ceebb55d47fa629f1e0bdc8941fd2c8c49ba31d89ac2d8a110a0e610380527f1747c0e533ca6d030ccdebf051c5762ed7022a40dec53052defc6ed7793344fb6103a0527f1092346c1d299ac15ed9e4cf03af7aa1ff13f26fdf68a601992b11e1cea8f6936103c0527f0d2fa657908f9d2a6f26759d514e445dacd5a5a71c1073ad269e92cbe799bd956103e0526107cf195a01926008602094fa9051168152602090f35b8380fd5b8280fd5b5080fd5b80fd5b9060049160441161043757565b600080fd5b9060c4916101041161043757565b7f30644e72e131a029b85045b68181585d2833e84879b9709143e1f593f0000001111561047357565b6000805260206000f35b604051907f02eb5632ca3840b19ee9a4bfb78af617af8ac0e8cf2dabb3c04864f29e52b94b82527f1e07903dee295b641c6391a9f57e078ab9bc5302785d7d7cbfaa3ac64064eafd6020830152604082019081526107cf196040836060816007855a01fa156104735760409260066080939284938451905260a05160608401525a01fa1561047357565b604051907f0a56fb47c2fe3c9e9038518163cecf984e4c1f369202e419aeb92a015178a6fa82527f11c2b4a44a60dca0cd606e60c26e923058078beb91f94179e943239885ccb18c6020830152604082019081526107cf196040836060816007855a01fa156104735760409260066080939284938451905260a05160608401525a01fa1561047357565b604051907f19829eb22846d3f562a3edc62b3eb85dc25d5b7b82f03850d6627783fdf01f7c82527f2a6f84c29f1c067a37947cc2318caea0eb71706af0596d57b9a632b5117e0be96020830152604082019081526107cf196040836060816007855a01fa156104735760409260066080939284938451905260a05160608401525a01fa1561047357565b604051907f11597f6a9ca2d85508f1bee1ca259537df5e185d204c767773cf5c3b712d422f82527f20366329b29ae06a38572f79e155300d92a67682547cd95c9b79ab14657ac1b06020830152604082019081526107cf196040836060816007855a01fa156104735760409260066080939284938451905260a05160608401525a01fa1561047357565b604051907f3004d411557403a1efe5a187e18008f3573cd585160bfe9d55efcfcf6be5cd8382527f0a81212fe398dc0fefb709ebec41db2ad4124cbde8bbf3dd427d1b99263483886020830152604082019081526107cf196040836060816007855a01fa156104735760409260066080939284938451905260a05160608401525a01fa1561047357565b604051907f278f926955cc34ceb18b785477f6b864aa4a36f08ac113ed77a1d3952046469082527f2311f49940d1e45fbd5957eee0ad4148d2e1c94e04d6046a5eb51d886cca02f16020830152604082019081526107cf196040836060816007855a01fa156104735760409260066080939284938451905260a05160608401525a01fa1561047357565b604051907f09087516534afb4d3ea24696c0914329580cd7b0022422d5543a6d464a9ab36482527f14d5269de921a892b75e9b75582c66836edac31ce64996a1e685563a63a9bc286020830152604082019081526107cf196040836060816007855a01fa156104735760409260066080939284938451905260a05160608401525a01fa1561047357565b604051907f19f61377658b696e15aab3c59996fc138ee574ee53c5d3178968003c7d28d50082527f101e662127ec8a702b70415c8448ba5a127b71b89b1323f3cb70f8d554a34b936020830152604082019081526107cf196040836060816007855a01fa156104735760409260066080939284938451905260a05160608401525a01fa1561047357565b604051907f0626083a2372d1d78f0f7ab7989315b98a74dd56e21cda0130458a9c7ace9ce982527f2bd1edad91c1beb98c92860495c3160d9fc724e2b12fb1ea01c07d4ecc4fbd746020830152604082019081526107cf196040836060816007855a01fa156104735760409260066080939284938451905260a05160608401525a01fa1561047357565b604051907f0b8b3cb09e46bc30840b7e36d4fd880edd5d80b1a32a6637c8cb3c20132c6a8d82527f287452bd35f752751dc16988fbdefcf9fda623ba39b47942433e00ad806cf0d26020830152604082019081526107cf196040836060816007855a01fa156104735760409260066080939284938451905260a05160608401525a01fa156104735756fea2646970667358221220a3e5facda02c916f293680bc581fd6933667eeec23d4cb19fa4fe09b7fc6b2b764736f6c63430008130033",
  "immutableReferences": {},
  "source": "// SPDX-License-Identifier: GPL-3.0\r\n/*\r\n    Copyright 2021 0KIMS association.\r\n\r\n    This file is generated with [snarkJS](https://github.com/iden3/snarkjs).\r\n\r\n    snarkJS is a free software: you can redistribute it and/or modify it\r\n    under the terms of the GNU General Public License as published by\r\n    the Free Software Foundation, either version 3 of the License, or\r\n    (at your option) any later version.\r\n\r\n    snarkJS is distributed in the hope that it will be useful, but WITHOUT\r\n    ANY WARRANTY; without even the implied warranty of MERCHANTABILITY\r\n    or FITNESS FOR A PARTICULAR PURPOSE. See the GNU General Public\r\n    License for more details.\r\n\r\n    You should have received a copy of the GNU General Public License\r\n    along with snarkJS. If not, see <https://www.gnu.org/licenses/>.\r\n*/\r\n\r\npragma solidity >=0.7.0 <0.9.0;\r\n\r\ncontract Groth16Verifier {\r\n    // Scalar field size\r\n    uint256 constant r    = 21888242871839275222246405745257275088548364400416034343698204186575808495617;\r\n    // Base field size\r\n    uint256 constant q   = 21888242871839275222246405745257275088696311157297823662689037894645226208583;\r\n\r\n    // Verification Key data\r\n    uint256 constant alphax  = 1503269319140086162040077356948401257072823675534257832731870190081746304581;\r\n    uint256 constant alphay  = 354933292509896480051346262594534699721926913856560665757705485884006521022;\r\n    uint256 constant betax1  = 12795462034370533210665088380102276806419135453311385023275149419847493007701;\r\n    uint256 constant betax2  = 11277492930183735990000253688954925593795007082713709950607060699496795904270;\r\n    uint256 constant betay1  = 80118384899928618294262028000533413157761184290355368919311450264291740780;\r\n    uint256 constant betay2  = 7237485854336739029714876782528102299622345306468941789797955178166084375489;\r\n    uint256 constant gammax1 = 11559732032986387107991004021392285783925812861821192530917403151452391805634;\r\n    uint256 constant gammax2 = 10857046999023057135944570762232829481370756359578518086990519993285655852781;\r\n    uint256 constant gammay1 = 4082367875863433681332203403145435568316851327593401208105741076214120093531;\r\n    uint256 constant gammay2 = 8495653923123431417604973247489272438418190587263600148770280649306958101930;\r\n    uint256 constant deltax1 = 12969991407989626694124553030053264004528570267967357980886009412821812578830;\r\n    uint256 constant deltax2 = 10529972973594962816363799639751106715928187196466878412614997171826588861691;\r\n    uint256 constant deltay1 = 7495327054345351050044287391512197670797550126713540277403025968807413347987;\r\n    uint256 constant deltay2 = 5964256894260023731871090681036236012440000511111050557718553211025973951893;\r\n\r\n    \r\n    uint256 constant IC0x = 9816736818338126574268968310406323973708768569354804269729332008366016959194;\r\n    uint256 constant IC0y = 8113337691381142065312819780377005129194846864137759029134823886369275342012;\r\n    \r\n    uint256 constant IC1x = 1320429676868834380045848025301836574500091739498668874870381557256081815883;\r\n    uint256 constant IC1y = 13582748908063463577478674688365726173625871219604327201144615279171475925757;\r\n    \r\n    uint256 constant IC2x = 4676811606428034269974461220979799796010504595185645688430752780613618018042;\r\n    uint256 constant IC2y = 8033333500089167105063112064795771700026583871628460731803377462632132686220;\r\n    \r\n    uint256 constant IC3x = 11538606612037777934802557480597377344304686020198493049736806581181483065212;\r\n    uint256 constant IC3y = 19194175942191202069906759039562991518389008203697134889136974797920928664553;\r\n    \r\n    uint256 constant IC4x = 7847447210716901994505198129593968756895166171006147655131684358313154003503;\r\n    uint256 constant IC4y = 14570105293218003264071269155001463525167374200553649851442959832513917927856;\r\n    \r\n    uint256 constant IC5x = 21719547757799783381621150802027355165473377865948543188597687340636045692291;\r\n    uint256 constant IC5y = 4751280805904785915279287472602244167009202988163883832296198434769171940232;\r\n    \r\n    uint256 constant IC6x = 17893870719807279961285584986564291651609439504774519311036445941185674364560;\r\n    uint256 constant IC6y = 15862674258322344361030557126248778849835852844616636924778550005613235667697;\r\n    \r\n    uint256 constant IC7x = 4085758519980791612396199114192670138707702256682851368455351238420390916964;\r\n    uint256 constant IC7y = 9422861920087538671658317701032433032723528926491252981785397859627018337320;\r\n    \r\n    uint256 constant IC8x = 11742599944625276827446986396138369967789067970547501550135110362580357010688;\r\n    uint256 constant IC8y = 7290715861285713002844409454349345772524232804833786088111408989338786286483;\r\n    \r\n    uint256 constant IC9x = 2781074061342022245430629404651326020905507879684871878350818080020308597993;\r\n    uint256 constant IC9y = 19820363918924084175384749273189828279519760371035620517533836527929658424692;\r\n    \r\n    uint256 constant IC10x = 5221451942819987368534586049509919752153499344660190567734781905111719111309;\r\n    uint256 constant IC10y = 18298039247158598903784370549066821769222943128643116063470110708901199278290;\r\n    \r\n \r\n    // Memory data\r\n    uint16 constant pVk = 0;\r\n    uint16 constant pPairing = 128;\r\n\r\n    uint16 constant pLastMem = 896;\r\n\r\n    function verifyProof(uint[2] calldata _pA, uint[2][2] calldata _pB, uint[2] calldata _pC, uint[10] calldata _pubSignals) public view returns (bool) {\r\n        assembly {\r\n            function checkField(v) {\r\n                if iszero(lt(v, r)) {\r\n                    mstore(0, 0)\r\n                    return(0, 0x20)\r\n                }\r\n            }\r\n            \r\n            // G1 function to multiply a G1 value(x,y) to value in an address\r\n            function g1_mulAccC(pR, x, y, s) {\r\n                let success\r\n                let mIn := mload(0x40)\r\n                mstore(mIn, x)\r\n                mstore(add(mIn, 32), y)\r\n                mstore(add(mIn, 64), s)\r\n\r\n                success := staticcall(sub(gas(), 2000), 7, mIn, 96, mIn, 64)\r\n\r\n                if iszero(success) {\r\n                    mstore(0, 0)\r\n                    return(0, 0x20)\r\n                }\r\n\r\n                mstore(add(mIn, 64), mload(pR))\r\n                mstore(add(mIn, 96), mload(add(pR, 32)))\r\n\r\n                success := staticcall(sub(gas(), 2000), 6, mIn, 128, pR, 64)\r\n\r\n                if iszero(success) {\r\n                    mstore(0, 0)\r\n                    return(0, 0x20)\r\n                }\r\n            }\r\n\r\n            function checkPairing(pA, pB, pC, pubSignals, pMem) -> isOk {\r\n                let _pPairing := add(pMem, pPairing)\r\n                let _pVk := add(pMem, pVk)\r\n\r\n                mstore(_pVk, IC0x)\r\n                mstore(add(_pVk, 32), IC0y)\r\n\r\n                // Compute the linear combination vk_x\r\n                \r\n                g1_mulAccC(_pVk, IC1x, IC1y, calldataload(add(pubSignals, 0)))\r\n                \r\n                g1_mulAccC(_pVk, IC2x, IC2y, calldataload(add(pubSignals, 32)))\r\n                \r\n                g1_mulAccC(_pVk, IC3x, IC3y, calldataload(add(pubSignals, 64)))\r\n                \r\n                g1_mulAccC(_pVk, IC4x, IC4y, calldataload(add(pubSignals, 96)))\r\n                \r\n                g1_mulAccC(_pVk, IC5x, IC5y, calldataload(add(pubSignals, 128)))\r\n                \r\n                g1_mulAccC(_pVk, IC6x, IC6y, calldataload(add(pubSignals, 160)))\r\n                \r\n                g1_mulAccC(_pVk, IC7x, IC7y, calldataload(add(pubSignals, 192)))\r\n                \r\n                g1_mulAccC(_pVk, IC8x, IC8y, calldataload(add(pubSignals, 224)))\r\n                \r\n                g1_mulAccC(_pVk, IC9x, IC9y, calldataload(add(pubSignals, 256)))\r\n                \r\n                g1_mulAccC(_pVk, IC10x, IC10y, calldataload(add(pubSignals, 288)))\r\n                \r\n\r\n                // -A\r\n                mstore(_pPairing, calldataload(pA))\r\n                mstore(add(_pPairing, 32), mod(sub(q, calldataload(add(pA, 32))), q))\r\n\r\n                // B\r\n                mstore(add(_pPairing, 64), calldataload(pB))\r\n                mstore(add(_pPairing, 96), calldataload(add(pB, 32)))\r\n                mstore(add(_pPairing, 128), calldataload(add(pB, 64)))\r\n                mstore(add(_pPairing, 160), calldataload(add(pB, 96)))\r\n\r\n                // alpha1\r\n                mstore(add(_pPairing, 192), alphax)\r\n                mstore(add(_pPairing, 224), alphay)\r\n\r\n                // beta2\r\n                mstore(add(_pPairing, 256), betax1)\r\n                mstore(add(_pPairing, 288), betax2)\r\n                mstore(add(_pPairing, 320), betay1)\r\n                mstore(add(_pPairing, 352), betay2)\r\n\r\n                // vk_x\r\n                mstore(add(_pPairing, 384), mload(add(pMem, pVk)))\r\n                mstore(add(_pPairing, 416), mload(add(pMem, add(pVk, 32))))\r\n\r\n\r\n                // gamma2\r\n                mstore(add(_pPairing, 448), gammax1)\r\n                mstore(add(_pPairing, 480), gammax2)\r\n                mstore(add(_pPairing, 512), gammay1)\r\n                mstore(add(_pPairing, 544), gammay2)\r\n\r\n                // C\r\n                mstore(add(_pPairing, 576), calldataload(pC))\r\n                mstore(add(_pPairing, 608), calldataload(add(pC, 32)))\r\n\r\n                // delta2\r\n                mstore(add(_pPairing, 640), deltax1)\r\n                mstore(add(_pPairing, 672), deltax2)\r\n                mstore(add(_pPairing, 704), deltay1)\r\n                mstore(add(_pPairing, 736), deltay2)\r\n\r\n\r\n                let success := staticcall(sub(gas(), 2000), 8, _pPairing, 768, _pPairing, 0x20)\r\n\r\n                isOk := and(success, mload(_pPairing))\r\n            }\r\n\r\n            let pMem := mload(0x40)\r\n            mstore(0x40, add(pMem, pLastMem))\r\n\r\n            // Validate that all evaluations ∈ F\r\n            \r\n            checkField(calldataload(add(_pubSignals, 0)))\r\n            \r\n            checkField(calldataload(add(_pubSignals, 32)))\r\n            \r\n            checkField(calldataload(add(_pubSignals, 64)))\r\n            \r\n            checkField(calldataload(add(_pubSignals, 96)))\r\n            \r\n            checkField(calldataload(add(_pubSignals, 128)))\r\n            \r\n            checkField(calldataload(add(_pubSignals, 160)))\r\n            \r\n            checkField(calldataload(add(_pubSignals, 192)))\r\n            \r\n            checkField(calldataload(add(_pubSignals, 224)))\r\n            \r\n            checkField(calldataload(add(_pubSignals, 256)))\r\n            \r\n            checkField(calldataload(add(_pubSignals, 288)))\r\n            \r\n\r\n            // Validate all evaluations\r\n            let isValid := checkPairing(_pA, _pB, _pC, _pubSignals, pMem)\r\n\r\n            mstore(0, isValid)\r\n             return(0, 0x20)\r\n         }\r\n     }\r\n }\r\n",
  "sourcePath": "C:\\Users\\ASUS\\Projects\\BlockVote\\smart-contract\\contracts\\Verifier.sol",
  "compiler": {
    "name": "solc",
    "version": "0.8.19+commit.7dd6d404.Emscripten.clang"
  },
  "schemaVersion": "3.4.16",
  "updatedAt": "2026-03-17T07:49:13.450Z",
  "networkType": "ethereum",
  "devdoc": {
    "kind": "dev",
    "methods": {},
    "version": 1
  },
  "userdoc": {
    "kind": "user",
    "methods": {},
    "version": 1
  }
}