{
  "contractName": "Contract",
  "abi": [
    {
      "inputs": [
        {
          "internalType": "address[]",
          "name": "_trusteeAddresses",
          "type": "address[]"
        },
        {
          "internalType": "uint256",
          "name": "_threshold",
          "type": "uint256"
        }
      ],
      "stateMutability": "nonpayable",
      "type": "constructor"
    },
    {
      "inputs": [],
      "name": "AlreadyCommitted",
      "type": "error"
    },
    {
      "inputs": [],
      "name": "AlreadyKeySet",
      "type": "error"
    },
    {
      "inputs": [],
      "name": "AlreadyProcessed",
      "type": "error"
    },
    {
      "inputs": [],
      "name": "AlreadyPublished",
      "type": "error"
    },
    {
      "inputs": [],
      "name": "AlreadyRegistered",
      "type": "error"
    },
    {
      "inputs": [],
      "name": "AlreadyVoted",
      "type": "error"
    },
    {
      "inputs": [],
      "name": "CandidateCountMismatch",
      "type": "error"
    },
    {
      "inputs": [],
      "name": "ElectionAlreadyStarted",
      "type": "error"
    },
    {
      "inputs": [],
      "name": "ElectionNotEnded",
      "type": "error"
    },
    {
      "inputs": [],
      "name": "ElectionNotFound",
      "type": "error"
    },
    {
      "inputs": [],
      "name": "ElectionNotOpen",
      "type": "error"
    },
    {
      "inputs": [],
      "name": "EmailAlreadyUsed",
      "type": "error"
    },
    {
      "inputs": [],
      "name": "EmptyInput",
      "type": "error"
    },
    {
      "inputs": [],
      "name": "ICAlreadyUsed",
      "type": "error"
    },
    {
      "inputs": [],
      "name": "InsufficientTrustees",
      "type": "error"
    },
    {
      "inputs": [],
      "name": "InvalidAge",
      "type": "error"
    },
    {
      "inputs": [],
      "name": "InvalidCommitment",
      "type": "error"
    },
    {
      "inputs": [],
      "name": "InvalidDate",
      "type": "error"
    },
    {
      "inputs": [],
      "name": "InvalidElectionId",
      "type": "error"
    },
    {
      "inputs": [],
      "name": "InvalidThreshold",
      "type": "error"
    },
    {
      "inputs": [],
      "name": "KeyNotSet",
      "type": "error"
    },
    {
      "inputs": [],
      "name": "NoVerifier",
      "type": "error"
    },
    {
      "inputs": [],
      "name": "NoVotesCast",
      "type": "error"
    },
    {
      "inputs": [],
      "name": "NotAdmin",
      "type": "error"
    },
    {
      "inputs": [],
      "name": "NotInNominationWindow",
      "type": "error"
    },
    {
      "inputs": [],
      "name": "NotPending",
      "type": "error"
    },
    {
      "inputs": [],
      "name": "NotRegistered",
      "type": "error"
    },
    {
      "inputs": [],
      "name": "NotTrustee",
      "type": "error"
    },
    {
      "inputs": [],
      "name": "NotVerified",
      "type": "error"
    },
    {
      "inputs": [],
      "name": "PDHashMismatch",
      "type": "error"
    },
    {
      "inputs": [],
      "name": "ProofFailed",
      "type": "error"
    },
    {
      "inputs": [],
      "name": "ShareNotCommitted",
      "type": "error"
    },
    {
      "inputs": [],
      "name": "TallyHashMismatch",
      "type": "error"
    },
    {
      "inputs": [],
      "name": "TallyNotStored",
      "type": "error"
    },
    {
      "inputs": [],
      "name": "ThresholdNotMet",
      "type": "error"
    },
    {
      "inputs": [],
      "name": "ThresholdTooLarge",
      "type": "error"
    },
    {
      "inputs": [],
      "name": "TimingError",
      "type": "error"
    },
    {
      "inputs": [],
      "name": "Unauthorized",
      "type": "error"
    },
    {
      "inputs": [],
      "name": "ZeroAddress",
      "type": "error"
    },
    {
      "anonymous": false,
      "inputs": [
        {
          "indexed": true,
          "internalType": "uint256",
          "name": "electionId",
          "type": "uint256"
        },
        {
          "indexed": true,
          "internalType": "address",
          "name": "candidateWallet",
          "type": "address"
        },
        {
          "indexed": false,
          "internalType": "uint256",
          "name": "timestamp",
          "type": "uint256"
        }
      ],
      "name": "CandidateApplied",
      "type": "event"
    },
    {
      "anonymous": false,
      "inputs": [
        {
          "indexed": true,
          "internalType": "uint256",
          "name": "electionId",
          "type": "uint256"
        },
        {
          "indexed": true,
          "internalType": "address",
          "name": "candidateWallet",
          "type": "address"
        },
        {
          "indexed": true,
          "internalType": "address",
          "name": "approver",
          "type": "address"
        },
        {
          "indexed": false,
          "internalType": "uint256",
          "name": "timestamp",
          "type": "uint256"
        }
      ],
      "name": "CandidateApproved",
      "type": "event"
    },
    {
      "anonymous": false,
      "inputs": [
        {
          "indexed": true,
          "internalType": "address",
          "name": "wallet",
          "type": "address"
        },
        {
          "indexed": false,
          "internalType": "string",
          "name": "name",
          "type": "string"
        },
        {
          "indexed": false,
          "internalType": "string",
          "name": "email",
          "type": "string"
        },
        {
          "indexed": false,
          "internalType": "uint256",
          "name": "timestamp",
          "type": "uint256"
        }
      ],
      "name": "CandidateRegistered",
      "type": "event"
    },
    {
      "anonymous": false,
      "inputs": [
        {
          "indexed": true,
          "internalType": "uint256",
          "name": "electionId",
          "type": "uint256"
        },
        {
          "indexed": true,
          "internalType": "address",
          "name": "candidateWallet",
          "type": "address"
        },
        {
          "indexed": true,
          "internalType": "address",
          "name": "rejector",
          "type": "address"
        },
        {
          "indexed": false,
          "internalType": "uint256",
          "name": "timestamp",
          "type": "uint256"
        }
      ],
      "name": "CandidateRejected",
      "type": "event"
    },
    {
      "anonymous": false,
      "inputs": [
        {
          "indexed": true,
          "internalType": "address",
          "name": "wallet",
          "type": "address"
        },
        {
          "indexed": false,
          "internalType": "uint256",
          "name": "timestamp",
          "type": "uint256"
        }
      ],
      "name": "CandidateVerified",
      "type": "event"
    },
    {
      "anonymous": false,
      "inputs": [
        {
          "indexed": true,
          "internalType": "uint256",
          "name": "electionId",
          "type": "uint256"
        },
        {
          "indexed": false,
          "internalType": "string",
          "name": "title",
          "type": "string"
        },
        {
          "indexed": true,
          "internalType": "address",
          "name": "organizer",
          "type": "address"
        },
        {
          "indexed": false,
          "internalType": "uint256",
          "name": "nominationStartTime",
          "type": "uint256"
        },
        {
          "indexed": false,
          "internalType": "uint256",
          "name": "nominationEndTime",
          "type": "uint256"
        },
        {
          "indexed": false,
          "internalType": "uint256",
          "name": "startTime",
          "type": "uint256"
        },
        {
          "indexed": false,
          "internalType": "uint256",
          "name": "endTime",
          "type": "uint256"
        },
        {
          "indexed": false,
          "internalType": "uint256",
          "name": "timestamp",
          "type": "uint256"
        }
      ],
      "name": "ElectionCreated",
      "type": "event"
    },
    {
      "anonymous": false,
      "inputs": [
        {
          "indexed": true,
          "internalType": "uint256",
          "name": "electionId",
          "type": "uint256"
        },
        {
          "indexed": false,
          "internalType": "string",
          "name": "encryptedTally",
          "type": "string"
        },
        {
          "indexed": false,
          "internalType": "uint256",
          "name": "totalVotesCounted",
          "type": "uint256"
        },
        {
          "indexed": false,
          "internalType": "uint256",
          "name": "timestamp",
          "type": "uint256"
        }
      ],
      "name": "EncryptedTallyStored",
      "type": "event"
    },
    {
      "anonymous": false,
      "inputs": [
        {
          "indexed": true,
          "internalType": "address",
          "name": "applicant",
          "type": "address"
        },
        {
          "indexed": false,
          "internalType": "string",
          "name": "organizationName",
          "type": "string"
        },
        {
          "indexed": false,
          "internalType": "bytes32",
          "name": "emailHash",
          "type": "bytes32"
        },
        {
          "indexed": false,
          "internalType": "uint256",
          "name": "timestamp",
          "type": "uint256"
        }
      ],
      "name": "OrganizerRegistered",
      "type": "event"
    },
    {
      "anonymous": false,
      "inputs": [
        {
          "indexed": true,
          "internalType": "address",
          "name": "applicant",
          "type": "address"
        },
        {
          "indexed": false,
          "internalType": "uint256",
          "name": "timestamp",
          "type": "uint256"
        }
      ],
      "name": "OrganizerRejected",
      "type": "event"
    },
    {
      "anonymous": false,
      "inputs": [
        {
          "indexed": true,
          "internalType": "address",
          "name": "applicant",
          "type": "address"
        },
        {
          "indexed": false,
          "internalType": "uint256",
          "name": "timestamp",
          "type": "uint256"
        }
      ],
      "name": "OrganizerVerified",
      "type": "event"
    },
    {
      "anonymous": false,
      "inputs": [
        {
          "indexed": false,
          "internalType": "string",
          "name": "publicKeyN",
          "type": "string"
        },
        {
          "indexed": false,
          "internalType": "uint256",
          "name": "timestamp",
          "type": "uint256"
        }
      ],
      "name": "PaillierPublicKeySet",
      "type": "event"
    },
    {
      "anonymous": false,
      "inputs": [
        {
          "indexed": true,
          "internalType": "uint256",
          "name": "electionId",
          "type": "uint256"
        },
        {
          "indexed": true,
          "internalType": "address",
          "name": "trustee",
          "type": "address"
        }
      ],
      "name": "PartialDecryptionSubmitted",
      "type": "event"
    },
    {
      "anonymous": false,
      "inputs": [
        {
          "indexed": true,
          "internalType": "uint256",
          "name": "electionId",
          "type": "uint256"
        },
        {
          "indexed": false,
          "internalType": "string",
          "name": "decryptedResult",
          "type": "string"
        },
        {
          "indexed": false,
          "internalType": "uint256",
          "name": "timestamp",
          "type": "uint256"
        }
      ],
      "name": "ResultsPublished",
      "type": "event"
    },
    {
      "anonymous": false,
      "inputs": [
        {
          "indexed": true,
          "internalType": "address",
          "name": "trusteeAddress",
          "type": "address"
        },
        {
          "indexed": false,
          "internalType": "bytes32",
          "name": "commitment",
          "type": "bytes32"
        },
        {
          "indexed": false,
          "internalType": "uint256",
          "name": "timestamp",
          "type": "uint256"
        }
      ],
      "name": "ShareCommitmentSubmitted",
      "type": "event"
    },
    {
      "anonymous": false,
      "inputs": [
        {
          "indexed": true,
          "internalType": "address",
          "name": "trusteeAddress",
          "type": "address"
        },
        {
          "indexed": false,
          "internalType": "uint256",
          "name": "timestamp",
          "type": "uint256"
        }
      ],
      "name": "TrusteeRegistered",
      "type": "event"
    },
    {
      "anonymous": false,
      "inputs": [
        {
          "indexed": true,
          "internalType": "bytes32",
          "name": "commitment",
          "type": "bytes32"
        },
        {
          "indexed": false,
          "internalType": "uint256",
          "name": "timestamp",
          "type": "uint256"
        }
      ],
      "name": "VoterCommitmentStored",
      "type": "event"
    },
    {
      "anonymous": false,
      "inputs": [
        {
          "indexed": true,
          "internalType": "address",
          "name": "wallet",
          "type": "address"
        },
        {
          "indexed": false,
          "internalType": "bytes32",
          "name": "nameHash",
          "type": "bytes32"
        },
        {
          "indexed": false,
          "internalType": "bytes32",
          "name": "emailHash",
          "type": "bytes32"
        },
        {
          "indexed": false,
          "internalType": "uint256",
          "name": "timestamp",
          "type": "uint256"
        }
      ],
      "name": "VoterRegistered",
      "type": "event"
    },
    {
      "anonymous": false,
      "inputs": [
        {
          "indexed": true,
          "internalType": "address",
          "name": "wallet",
          "type": "address"
        },
        {
          "indexed": false,
          "internalType": "uint256",
          "name": "timestamp",
          "type": "uint256"
        }
      ],
      "name": "VoterVerified",
      "type": "event"
    },
    {
      "anonymous": false,
      "inputs": [
        {
          "indexed": true,
          "internalType": "uint256",
          "name": "electionId",
          "type": "uint256"
        },
        {
          "indexed": true,
          "internalType": "bytes32",
          "name": "nullifierHash",
          "type": "bytes32"
        },
        {
          "indexed": true,
          "internalType": "bytes32",
          "name": "choiceCommitment",
          "type": "bytes32"
        },
        {
          "indexed": false,
          "internalType": "uint256",
          "name": "timestamp",
          "type": "uint256"
        }
      ],
      "name": "ZKPVoteCast",
      "type": "event"
    },
    {
      "inputs": [],
      "name": "admin",
      "outputs": [
        {
          "internalType": "address",
          "name": "",
          "type": "address"
        }
      ],
      "stateMutability": "view",
      "type": "function",
      "constant": true
    },
    {
      "inputs": [
        {
          "internalType": "uint256",
          "name": "",
          "type": "uint256"
        },
        {
          "internalType": "address",
          "name": "",
          "type": "address"
        }
      ],
      "name": "candidateApplicationStatus",
      "outputs": [
        {
          "internalType": "uint8",
          "name": "",
          "type": "uint8"
        }
      ],
      "stateMutability": "view",
      "type": "function",
      "constant": true
    },
    {
      "inputs": [
        {
          "internalType": "address",
          "name": "",
          "type": "address"
        }
      ],
      "name": "candidates",
      "outputs": [
        {
          "internalType": "address",
          "name": "wallet",
          "type": "address"
        },
        {
          "internalType": "string",
          "name": "name",
          "type": "string"
        },
        {
          "internalType": "bytes32",
          "name": "icHash",
          "type": "bytes32"
        },
        {
          "internalType": "string",
          "name": "email",
          "type": "string"
        },
        {
          "internalType": "string",
          "name": "party",
          "type": "string"
        },
        {
          "internalType": "string",
          "name": "manifesto",
          "type": "string"
        },
        {
          "internalType": "uint8",
          "name": "status",
          "type": "uint8"
        },
        {
          "internalType": "bytes32",
          "name": "verificationCode",
          "type": "bytes32"
        },
        {
          "internalType": "uint256",
          "name": "registeredAt",
          "type": "uint256"
        },
        {
          "internalType": "uint256",
          "name": "verifiedAt",
          "type": "uint256"
        },
        {
          "internalType": "bool",
          "name": "isRegistered",
          "type": "bool"
        }
      ],
      "stateMutability": "view",
      "type": "function",
      "constant": true
    },
    {
      "inputs": [
        {
          "internalType": "uint256",
          "name": "",
          "type": "uint256"
        }
      ],
      "name": "elections",
      "outputs": [
        {
          "internalType": "uint256",
          "name": "id",
          "type": "uint256"
        },
        {
          "internalType": "string",
          "name": "title",
          "type": "string"
        },
        {
          "internalType": "string",
          "name": "description",
          "type": "string"
        },
        {
          "internalType": "address",
          "name": "organizer",
          "type": "address"
        },
        {
          "internalType": "uint256",
          "name": "nominationStartTime",
          "type": "uint256"
        },
        {
          "internalType": "uint256",
          "name": "nominationEndTime",
          "type": "uint256"
        },
        {
          "internalType": "uint256",
          "name": "startTime",
          "type": "uint256"
        },
        {
          "internalType": "uint256",
          "name": "endTime",
          "type": "uint256"
        },
        {
          "internalType": "bool",
          "name": "isActive",
          "type": "bool"
        },
        {
          "internalType": "uint256",
          "name": "createdAt",
          "type": "uint256"
        },
        {
          "internalType": "uint256",
          "name": "totalVotes",
          "type": "uint256"
        },
        {
          "internalType": "string",
          "name": "encryptedTally",
          "type": "string"
        },
        {
          "internalType": "bool",
          "name": "tallyStored",
          "type": "bool"
        },
        {
          "internalType": "string",
          "name": "decryptedResult",
          "type": "string"
        },
        {
          "internalType": "bool",
          "name": "resultsPublished",
          "type": "bool"
        }
      ],
      "stateMutability": "view",
      "type": "function",
      "constant": true
    },
    {
      "inputs": [],
      "name": "isPaillierKeySet",
      "outputs": [
        {
          "internalType": "bool",
          "name": "",
          "type": "bool"
        }
      ],
      "stateMutability": "view",
      "type": "function",
      "constant": true
    },
    {
      "inputs": [
        {
          "internalType": "uint256",
          "name": "",
          "type": "uint256"
        },
        {
          "internalType": "bytes32",
          "name": "",
          "type": "bytes32"
        }
      ],
      "name": "nullifierUsed",
      "outputs": [
        {
          "internalType": "bool",
          "name": "",
          "type": "bool"
        }
      ],
      "stateMutability": "view",
      "type": "function",
      "constant": true
    },
    {
      "inputs": [],
      "name": "numTrustees",
      "outputs": [
        {
          "internalType": "uint256",
          "name": "",
          "type": "uint256"
        }
      ],
      "stateMutability": "view",
      "type": "function",
      "constant": true
    },
    {
      "inputs": [
        {
          "internalType": "address",
          "name": "",
          "type": "address"
        }
      ],
      "name": "organizers",
      "outputs": [
        {
          "internalType": "address",
          "name": "wallet",
          "type": "address"
        },
        {
          "internalType": "string",
          "name": "organizationName",
          "type": "string"
        },
        {
          "internalType": "bytes32",
          "name": "emailHash",
          "type": "bytes32"
        },
        {
          "internalType": "string",
          "name": "description",
          "type": "string"
        },
        {
          "internalType": "uint8",
          "name": "status",
          "type": "uint8"
        },
        {
          "internalType": "uint256",
          "name": "registeredAt",
          "type": "uint256"
        },
        {
          "internalType": "bool",
          "name": "isRegistered",
          "type": "bool"
        }
      ],
      "stateMutability": "view",
      "type": "function",
      "constant": true
    },
    {
      "inputs": [],
      "name": "paillierPublicKeyN",
      "outputs": [
        {
          "internalType": "string",
          "name": "",
          "type": "string"
        }
      ],
      "stateMutability": "view",
      "type": "function",
      "constant": true
    },
    {
      "inputs": [
        {
          "internalType": "uint256",
          "name": "",
          "type": "uint256"
        },
        {
          "internalType": "uint256",
          "name": "",
          "type": "uint256"
        }
      ],
      "name": "partialDecryptionSubmitters",
      "outputs": [
        {
          "internalType": "address",
          "name": "",
          "type": "address"
        }
      ],
      "stateMutability": "view",
      "type": "function",
      "constant": true
    },
    {
      "inputs": [
        {
          "internalType": "uint256",
          "name": "",
          "type": "uint256"
        },
        {
          "internalType": "address",
          "name": "",
          "type": "address"
        }
      ],
      "name": "partialDecryptions",
      "outputs": [
        {
          "internalType": "string",
          "name": "",
          "type": "string"
        }
      ],
      "stateMutability": "view",
      "type": "function",
      "constant": true
    },
    {
      "inputs": [],
      "name": "threshold",
      "outputs": [
        {
          "internalType": "uint256",
          "name": "",
          "type": "uint256"
        }
      ],
      "stateMutability": "view",
      "type": "function",
      "constant": true
    },
    {
      "inputs": [
        {
          "internalType": "uint256",
          "name": "",
          "type": "uint256"
        }
      ],
      "name": "trusteeAddresses",
      "outputs": [
        {
          "internalType": "address",
          "name": "",
          "type": "address"
        }
      ],
      "stateMutability": "view",
      "type": "function",
      "constant": true
    },
    {
      "inputs": [
        {
          "internalType": "address",
          "name": "",
          "type": "address"
        }
      ],
      "name": "trustees",
      "outputs": [
        {
          "internalType": "address",
          "name": "walletAddress",
          "type": "address"
        },
        {
          "internalType": "bytes32",
          "name": "shareCommitment",
          "type": "bytes32"
        },
        {
          "internalType": "bool",
          "name": "hasSubmittedCommitment",
          "type": "bool"
        },
        {
          "internalType": "uint256",
          "name": "registeredAt",
          "type": "uint256"
        }
      ],
      "stateMutability": "view",
      "type": "function",
      "constant": true
    },
    {
      "inputs": [
        {
          "internalType": "uint256",
          "name": "",
          "type": "uint256"
        },
        {
          "internalType": "bytes32",
          "name": "",
          "type": "bytes32"
        }
      ],
      "name": "voteChoiceCommitments",
      "outputs": [
        {
          "internalType": "bytes32",
          "name": "",
          "type": "bytes32"
        }
      ],
      "stateMutability": "view",
      "type": "function",
      "constant": true
    },
    {
      "inputs": [],
      "name": "voteVerifier",
      "outputs": [
        {
          "internalType": "contract IVoteVerifier",
          "name": "",
          "type": "address"
        }
      ],
      "stateMutability": "view",
      "type": "function",
      "constant": true
    },
    {
      "inputs": [
        {
          "internalType": "bytes32",
          "name": "",
          "type": "bytes32"
        }
      ],
      "name": "voterCommitments",
      "outputs": [
        {
          "internalType": "bool",
          "name": "",
          "type": "bool"
        }
      ],
      "stateMutability": "view",
      "type": "function",
      "constant": true
    },
    {
      "inputs": [
        {
          "internalType": "address",
          "name": "",
          "type": "address"
        }
      ],
      "name": "voters",
      "outputs": [
        {
          "internalType": "address",
          "name": "wallet",
          "type": "address"
        },
        {
          "internalType": "bytes32",
          "name": "nameHash",
          "type": "bytes32"
        },
        {
          "internalType": "bytes32",
          "name": "icHash",
          "type": "bytes32"
        },
        {
          "internalType": "bytes32",
          "name": "emailHash",
          "type": "bytes32"
        },
        {
          "internalType": "uint8",
          "name": "status",
          "type": "uint8"
        },
        {
          "internalType": "bytes32",
          "name": "verificationCode",
          "type": "bytes32"
        },
        {
          "internalType": "uint256",
          "name": "registeredAt",
          "type": "uint256"
        },
        {
          "internalType": "uint256",
          "name": "verifiedAt",
          "type": "uint256"
        },
        {
          "internalType": "bool",
          "name": "isRegistered",
          "type": "bool"
        }
      ],
      "stateMutability": "view",
      "type": "function",
      "constant": true
    },
    {
      "inputs": [
        {
          "internalType": "address",
          "name": "_voteVerifier",
          "type": "address"
        }
      ],
      "name": "setVoteVerifier",
      "outputs": [],
      "stateMutability": "nonpayable",
      "type": "function"
    },
    {
      "inputs": [
        {
          "internalType": "string",
          "name": "_publicKeyN",
          "type": "string"
        }
      ],
      "name": "setPaillierPublicKey",
      "outputs": [],
      "stateMutability": "nonpayable",
      "type": "function"
    },
    {
      "inputs": [
        {
          "internalType": "address",
          "name": "_trustee",
          "type": "address"
        },
        {
          "internalType": "bytes32",
          "name": "_commitment",
          "type": "bytes32"
        }
      ],
      "name": "submitShareCommitment",
      "outputs": [],
      "stateMutability": "nonpayable",
      "type": "function"
    },
    {
      "inputs": [],
      "name": "getPaillierPublicKey",
      "outputs": [
        {
          "internalType": "string",
          "name": "",
          "type": "string"
        }
      ],
      "stateMutability": "view",
      "type": "function",
      "constant": true
    },
    {
      "inputs": [],
      "name": "getTrusteeAddresses",
      "outputs": [
        {
          "internalType": "address[]",
          "name": "",
          "type": "address[]"
        }
      ],
      "stateMutability": "view",
      "type": "function",
      "constant": true
    },
    {
      "inputs": [],
      "name": "allTrusteesCommitted",
      "outputs": [
        {
          "internalType": "bool",
          "name": "",
          "type": "bool"
        }
      ],
      "stateMutability": "view",
      "type": "function",
      "constant": true
    },
    {
      "inputs": [
        {
          "internalType": "address",
          "name": "_trustee",
          "type": "address"
        }
      ],
      "name": "getTrusteeInfo",
      "outputs": [
        {
          "internalType": "address",
          "name": "walletAddress",
          "type": "address"
        },
        {
          "internalType": "bytes32",
          "name": "shareCommitment",
          "type": "bytes32"
        },
        {
          "internalType": "bool",
          "name": "hasSubmittedCommitment",
          "type": "bool"
        },
        {
          "internalType": "uint256",
          "name": "registeredAt",
          "type": "uint256"
        }
      ],
      "stateMutability": "view",
      "type": "function",
      "constant": true
    },
    {
      "inputs": [
        {
          "internalType": "uint256",
          "name": "_electionId",
          "type": "uint256"
        },
        {
          "internalType": "string",
          "name": "_encryptedTally",
          "type": "string"
        },
        {
          "internalType": "bytes32",
          "name": "_tallyInputHash",
          "type": "bytes32"
        }
      ],
      "name": "storeEncryptedTally",
      "outputs": [],
      "stateMutability": "nonpayable",
      "type": "function"
    },
    {
      "inputs": [
        {
          "internalType": "uint256",
          "name": "_electionId",
          "type": "uint256"
        }
      ],
      "name": "getEncryptedTally",
      "outputs": [
        {
          "internalType": "string",
          "name": "encryptedTally",
          "type": "string"
        },
        {
          "internalType": "uint256",
          "name": "totalVotes",
          "type": "uint256"
        },
        {
          "internalType": "bool",
          "name": "tallyStored",
          "type": "bool"
        }
      ],
      "stateMutability": "view",
      "type": "function",
      "constant": true
    },
    {
      "inputs": [
        {
          "internalType": "bytes32",
          "name": "_icHash",
          "type": "bytes32"
        }
      ],
      "name": "isICRegistered",
      "outputs": [
        {
          "internalType": "bool",
          "name": "",
          "type": "bool"
        }
      ],
      "stateMutability": "view",
      "type": "function",
      "constant": true
    },
    {
      "inputs": [
        {
          "internalType": "bytes32",
          "name": "_emailHash",
          "type": "bytes32"
        }
      ],
      "name": "isEmailRegistered",
      "outputs": [
        {
          "internalType": "bool",
          "name": "",
          "type": "bool"
        }
      ],
      "stateMutability": "view",
      "type": "function",
      "constant": true
    },
    {
      "inputs": [
        {
          "internalType": "bytes32",
          "name": "_nameHash",
          "type": "bytes32"
        },
        {
          "internalType": "bytes32",
          "name": "_icHash",
          "type": "bytes32"
        },
        {
          "internalType": "bytes32",
          "name": "_emailHash",
          "type": "bytes32"
        }
      ],
      "name": "registerVoter",
      "outputs": [
        {
          "internalType": "bytes32",
          "name": "",
          "type": "bytes32"
        }
      ],
      "stateMutability": "nonpayable",
      "type": "function"
    },
    {
      "inputs": [
        {
          "internalType": "uint256[2]",
          "name": "_pA",
          "type": "uint256[2]"
        },
        {
          "internalType": "uint256[2][2]",
          "name": "_pB",
          "type": "uint256[2][2]"
        },
        {
          "internalType": "uint256[2]",
          "name": "_pC",
          "type": "uint256[2]"
        },
        {
          "internalType": "uint256[10]",
          "name": "_pubSignals",
          "type": "uint256[10]"
        }
      ],
      "name": "verifyVoterWithZKP",
      "outputs": [],
      "stateMutability": "nonpayable",
      "type": "function"
    },
    {
      "inputs": [
        {
          "internalType": "address",
          "name": "_wallet",
          "type": "address"
        }
      ],
      "name": "isVoterRegistered",
      "outputs": [
        {
          "internalType": "bool",
          "name": "",
          "type": "bool"
        }
      ],
      "stateMutability": "view",
      "type": "function",
      "constant": true
    },
    {
      "inputs": [
        {
          "internalType": "address",
          "name": "_wallet",
          "type": "address"
        }
      ],
      "name": "isWalletRegistered",
      "outputs": [
        {
          "internalType": "bool",
          "name": "",
          "type": "bool"
        }
      ],
      "stateMutability": "view",
      "type": "function",
      "constant": true
    },
    {
      "inputs": [],
      "name": "getAllVoterAddresses",
      "outputs": [
        {
          "internalType": "address[]",
          "name": "",
          "type": "address[]"
        }
      ],
      "stateMutability": "view",
      "type": "function",
      "constant": true
    },
    {
      "inputs": [],
      "name": "getTotalRegisteredVoters",
      "outputs": [
        {
          "internalType": "uint256",
          "name": "",
          "type": "uint256"
        }
      ],
      "stateMutability": "view",
      "type": "function",
      "constant": true
    },
    {
      "inputs": [
        {
          "internalType": "address",
          "name": "_wallet",
          "type": "address"
        }
      ],
      "name": "getVoterInfo",
      "outputs": [
        {
          "internalType": "bytes32",
          "name": "nameHash",
          "type": "bytes32"
        },
        {
          "internalType": "bytes32",
          "name": "emailHash",
          "type": "bytes32"
        },
        {
          "internalType": "string",
          "name": "status",
          "type": "string"
        },
        {
          "internalType": "uint256",
          "name": "registeredAt",
          "type": "uint256"
        },
        {
          "internalType": "uint256",
          "name": "verifiedAt",
          "type": "uint256"
        }
      ],
      "stateMutability": "view",
      "type": "function",
      "constant": true
    },
    {
      "inputs": [
        {
          "internalType": "string",
          "name": "_name",
          "type": "string"
        },
        {
          "internalType": "bytes32",
          "name": "_icHash",
          "type": "bytes32"
        },
        {
          "internalType": "string",
          "name": "_email",
          "type": "string"
        },
        {
          "internalType": "string",
          "name": "_party",
          "type": "string"
        },
        {
          "internalType": "string",
          "name": "_manifesto",
          "type": "string"
        }
      ],
      "name": "registerCandidate",
      "outputs": [
        {
          "internalType": "bytes32",
          "name": "",
          "type": "bytes32"
        }
      ],
      "stateMutability": "nonpayable",
      "type": "function"
    },
    {
      "inputs": [
        {
          "internalType": "uint256[2]",
          "name": "_pA",
          "type": "uint256[2]"
        },
        {
          "internalType": "uint256[2][2]",
          "name": "_pB",
          "type": "uint256[2][2]"
        },
        {
          "internalType": "uint256[2]",
          "name": "_pC",
          "type": "uint256[2]"
        },
        {
          "internalType": "uint256[10]",
          "name": "_pubSignals",
          "type": "uint256[10]"
        }
      ],
      "name": "verifyCandidateWithZKP",
      "outputs": [],
      "stateMutability": "nonpayable",
      "type": "function"
    },
    {
      "inputs": [
        {
          "internalType": "address",
          "name": "_wallet",
          "type": "address"
        }
      ],
      "name": "isCandidateRegistered",
      "outputs": [
        {
          "internalType": "bool",
          "name": "",
          "type": "bool"
        }
      ],
      "stateMutability": "view",
      "type": "function",
      "constant": true
    },
    {
      "inputs": [],
      "name": "getAllCandidateAddresses",
      "outputs": [
        {
          "internalType": "address[]",
          "name": "",
          "type": "address[]"
        }
      ],
      "stateMutability": "view",
      "type": "function",
      "constant": true
    },
    {
      "inputs": [
        {
          "internalType": "address",
          "name": "_wallet",
          "type": "address"
        }
      ],
      "name": "getCandidateInfo",
      "outputs": [
        {
          "internalType": "string",
          "name": "name",
          "type": "string"
        },
        {
          "internalType": "string",
          "name": "email",
          "type": "string"
        },
        {
          "internalType": "string",
          "name": "party",
          "type": "string"
        },
        {
          "internalType": "string",
          "name": "manifesto",
          "type": "string"
        },
        {
          "internalType": "string",
          "name": "status",
          "type": "string"
        },
        {
          "internalType": "uint256",
          "name": "registeredAt",
          "type": "uint256"
        },
        {
          "internalType": "uint256",
          "name": "verifiedAt",
          "type": "uint256"
        }
      ],
      "stateMutability": "view",
      "type": "function",
      "constant": true
    },
    {
      "inputs": [
        {
          "internalType": "string",
          "name": "_organizationName",
          "type": "string"
        },
        {
          "internalType": "bytes32",
          "name": "_emailHash",
          "type": "bytes32"
        },
        {
          "internalType": "string",
          "name": "_description",
          "type": "string"
        }
      ],
      "name": "registerOrganizer",
      "outputs": [
        {
          "internalType": "bool",
          "name": "",
          "type": "bool"
        }
      ],
      "stateMutability": "nonpayable",
      "type": "function"
    },
    {
      "inputs": [
        {
          "internalType": "address",
          "name": "_applicant",
          "type": "address"
        }
      ],
      "name": "verifyOrganizer",
      "outputs": [
        {
          "internalType": "bool",
          "name": "",
          "type": "bool"
        }
      ],
      "stateMutability": "nonpayable",
      "type": "function"
    },
    {
      "inputs": [
        {
          "internalType": "address",
          "name": "_applicant",
          "type": "address"
        }
      ],
      "name": "getOrganizerInfo",
      "outputs": [
        {
          "internalType": "string",
          "name": "organizationName",
          "type": "string"
        },
        {
          "internalType": "bytes32",
          "name": "emailHash",
          "type": "bytes32"
        },
        {
          "internalType": "string",
          "name": "description",
          "type": "string"
        },
        {
          "internalType": "string",
          "name": "status",
          "type": "string"
        },
        {
          "internalType": "uint256",
          "name": "registeredAt",
          "type": "uint256"
        }
      ],
      "stateMutability": "view",
      "type": "function",
      "constant": true
    },
    {
      "inputs": [],
      "name": "getAllOrganizers",
      "outputs": [
        {
          "internalType": "address[]",
          "name": "",
          "type": "address[]"
        }
      ],
      "stateMutability": "view",
      "type": "function",
      "constant": true
    },
    {
      "inputs": [],
      "name": "getPendingOrganizers",
      "outputs": [
        {
          "internalType": "address[]",
          "name": "",
          "type": "address[]"
        }
      ],
      "stateMutability": "view",
      "type": "function",
      "constant": true
    },
    {
      "inputs": [
        {
          "internalType": "address",
          "name": "_address",
          "type": "address"
        }
      ],
      "name": "isOrganizer",
      "outputs": [
        {
          "internalType": "bool",
          "name": "",
          "type": "bool"
        }
      ],
      "stateMutability": "view",
      "type": "function",
      "constant": true
    },
    {
      "inputs": [
        {
          "internalType": "address",
          "name": "_address",
          "type": "address"
        }
      ],
      "name": "isOrganizerRegistered",
      "outputs": [
        {
          "internalType": "bool",
          "name": "",
          "type": "bool"
        }
      ],
      "stateMutability": "view",
      "type": "function",
      "constant": true
    },
    {
      "inputs": [
        {
          "internalType": "address",
          "name": "_address",
          "type": "address"
        }
      ],
      "name": "isAdmin",
      "outputs": [
        {
          "internalType": "bool",
          "name": "",
          "type": "bool"
        }
      ],
      "stateMutability": "view",
      "type": "function",
      "constant": true
    },
    {
      "inputs": [
        {
          "internalType": "string",
          "name": "_title",
          "type": "string"
        },
        {
          "internalType": "string",
          "name": "_description",
          "type": "string"
        },
        {
          "internalType": "uint256",
          "name": "_nominationStartTime",
          "type": "uint256"
        },
        {
          "internalType": "uint256",
          "name": "_nominationEndTime",
          "type": "uint256"
        },
        {
          "internalType": "uint256",
          "name": "_startTime",
          "type": "uint256"
        },
        {
          "internalType": "uint256",
          "name": "_endTime",
          "type": "uint256"
        }
      ],
      "name": "createElection",
      "outputs": [
        {
          "internalType": "uint256",
          "name": "",
          "type": "uint256"
        }
      ],
      "stateMutability": "nonpayable",
      "type": "function"
    },
    {
      "inputs": [
        {
          "internalType": "uint256",
          "name": "_electionId",
          "type": "uint256"
        }
      ],
      "name": "getElectionInfo",
      "outputs": [
        {
          "internalType": "string",
          "name": "title",
          "type": "string"
        },
        {
          "internalType": "string",
          "name": "description",
          "type": "string"
        },
        {
          "internalType": "address",
          "name": "organizer",
          "type": "address"
        },
        {
          "internalType": "uint256",
          "name": "nominationStartTime",
          "type": "uint256"
        },
        {
          "internalType": "uint256",
          "name": "nominationEndTime",
          "type": "uint256"
        },
        {
          "internalType": "uint256",
          "name": "startTime",
          "type": "uint256"
        },
        {
          "internalType": "uint256",
          "name": "endTime",
          "type": "uint256"
        },
        {
          "internalType": "bool",
          "name": "isActive",
          "type": "bool"
        },
        {
          "internalType": "uint256",
          "name": "createdAt",
          "type": "uint256"
        }
      ],
      "stateMutability": "view",
      "type": "function",
      "constant": true
    },
    {
      "inputs": [],
      "name": "getAllElectionIds",
      "outputs": [
        {
          "internalType": "uint256[]",
          "name": "",
          "type": "uint256[]"
        }
      ],
      "stateMutability": "view",
      "type": "function",
      "constant": true
    },
    {
      "inputs": [],
      "name": "getTotalElections",
      "outputs": [
        {
          "internalType": "uint256",
          "name": "",
          "type": "uint256"
        }
      ],
      "stateMutability": "view",
      "type": "function",
      "constant": true
    },
    {
      "inputs": [
        {
          "internalType": "address",
          "name": "_organizer",
          "type": "address"
        }
      ],
      "name": "getElectionsByOrganizer",
      "outputs": [
        {
          "internalType": "uint256[]",
          "name": "",
          "type": "uint256[]"
        }
      ],
      "stateMutability": "view",
      "type": "function",
      "constant": true
    },
    {
      "inputs": [],
      "name": "getActiveElections",
      "outputs": [
        {
          "internalType": "uint256[]",
          "name": "",
          "type": "uint256[]"
        }
      ],
      "stateMutability": "view",
      "type": "function",
      "constant": true
    },
    {
      "inputs": [
        {
          "internalType": "uint256",
          "name": "_electionId",
          "type": "uint256"
        }
      ],
      "name": "applyToElection",
      "outputs": [
        {
          "internalType": "bool",
          "name": "",
          "type": "bool"
        }
      ],
      "stateMutability": "nonpayable",
      "type": "function"
    },
    {
      "inputs": [
        {
          "internalType": "uint256",
          "name": "_electionId",
          "type": "uint256"
        }
      ],
      "name": "getElectionCandidateApplicants",
      "outputs": [
        {
          "internalType": "address[]",
          "name": "",
          "type": "address[]"
        }
      ],
      "stateMutability": "view",
      "type": "function",
      "constant": true
    },
    {
      "inputs": [
        {
          "internalType": "uint256",
          "name": "_electionId",
          "type": "uint256"
        },
        {
          "internalType": "address",
          "name": "_candidateWallet",
          "type": "address"
        }
      ],
      "name": "approveCandidateForElection",
      "outputs": [
        {
          "internalType": "bool",
          "name": "",
          "type": "bool"
        }
      ],
      "stateMutability": "nonpayable",
      "type": "function"
    },
    {
      "inputs": [
        {
          "internalType": "uint256",
          "name": "_electionId",
          "type": "uint256"
        },
        {
          "internalType": "address",
          "name": "_candidateWallet",
          "type": "address"
        }
      ],
      "name": "rejectCandidateForElection",
      "outputs": [
        {
          "internalType": "bool",
          "name": "",
          "type": "bool"
        }
      ],
      "stateMutability": "nonpayable",
      "type": "function"
    },
    {
      "inputs": [
        {
          "internalType": "uint256",
          "name": "_electionId",
          "type": "uint256"
        }
      ],
      "name": "getApprovedCandidates",
      "outputs": [
        {
          "internalType": "address[]",
          "name": "",
          "type": "address[]"
        }
      ],
      "stateMutability": "view",
      "type": "function",
      "constant": true
    },
    {
      "inputs": [
        {
          "internalType": "uint256",
          "name": "_electionId",
          "type": "uint256"
        },
        {
          "internalType": "string",
          "name": "_ipfsCID",
          "type": "string"
        },
        {
          "internalType": "uint256[2]",
          "name": "_pA",
          "type": "uint256[2]"
        },
        {
          "internalType": "uint256[2][2]",
          "name": "_pB",
          "type": "uint256[2][2]"
        },
        {
          "internalType": "uint256[2]",
          "name": "_pC",
          "type": "uint256[2]"
        },
        {
          "internalType": "uint256[10]",
          "name": "_pubSignals",
          "type": "uint256[10]"
        }
      ],
      "name": "vote",
      "outputs": [
        {
          "internalType": "bool",
          "name": "",
          "type": "bool"
        }
      ],
      "stateMutability": "nonpayable",
      "type": "function"
    },
    {
      "inputs": [
        {
          "internalType": "uint256",
          "name": "_electionId",
          "type": "uint256"
        },
        {
          "internalType": "bytes32",
          "name": "_nullifier",
          "type": "bytes32"
        }
      ],
      "name": "getZKPVote",
      "outputs": [
        {
          "internalType": "string",
          "name": "",
          "type": "string"
        }
      ],
      "stateMutability": "view",
      "type": "function",
      "constant": true
    },
    {
      "inputs": [
        {
          "internalType": "uint256",
          "name": "_electionId",
          "type": "uint256"
        }
      ],
      "name": "getZKPVoteNullifiers",
      "outputs": [
        {
          "internalType": "bytes32[]",
          "name": "",
          "type": "bytes32[]"
        }
      ],
      "stateMutability": "view",
      "type": "function",
      "constant": true
    },
    {
      "inputs": [
        {
          "internalType": "uint256",
          "name": "_electionId",
          "type": "uint256"
        },
        {
          "internalType": "bytes32",
          "name": "_nullifier",
          "type": "bytes32"
        }
      ],
      "name": "getChoiceCommitment",
      "outputs": [
        {
          "internalType": "bytes32",
          "name": "",
          "type": "bytes32"
        }
      ],
      "stateMutability": "view",
      "type": "function",
      "constant": true
    },
    {
      "inputs": [
        {
          "internalType": "uint256",
          "name": "_electionId",
          "type": "uint256"
        }
      ],
      "name": "getElectionTotalVotes",
      "outputs": [
        {
          "internalType": "uint256",
          "name": "",
          "type": "uint256"
        }
      ],
      "stateMutability": "view",
      "type": "function",
      "constant": true
    },
    {
      "inputs": [
        {
          "internalType": "uint256",
          "name": "_electionId",
          "type": "uint256"
        },
        {
          "internalType": "string",
          "name": "_pd",
          "type": "string"
        }
      ],
      "name": "submitPartialDecryption",
      "outputs": [],
      "stateMutability": "nonpayable",
      "type": "function"
    },
    {
      "inputs": [
        {
          "internalType": "uint256",
          "name": "_electionId",
          "type": "uint256"
        }
      ],
      "name": "getPartialDecryptionSubmitters",
      "outputs": [
        {
          "internalType": "address[]",
          "name": "",
          "type": "address[]"
        }
      ],
      "stateMutability": "view",
      "type": "function",
      "constant": true
    },
    {
      "inputs": [
        {
          "internalType": "uint256",
          "name": "_electionId",
          "type": "uint256"
        },
        {
          "internalType": "address",
          "name": "_trustee",
          "type": "address"
        }
      ],
      "name": "getPartialDecryption",
      "outputs": [
        {
          "internalType": "string",
          "name": "",
          "type": "string"
        }
      ],
      "stateMutability": "view",
      "type": "function",
      "constant": true
    },
    {
      "inputs": [
        {
          "internalType": "uint256",
          "name": "_electionId",
          "type": "uint256"
        },
        {
          "internalType": "string",
          "name": "_decryptedResult",
          "type": "string"
        },
        {
          "internalType": "bytes32",
          "name": "_pdInputHash",
          "type": "bytes32"
        }
      ],
      "name": "publishResults",
      "outputs": [],
      "stateMutability": "nonpayable",
      "type": "function"
    },
    {
      "inputs": [
        {
          "internalType": "uint256",
          "name": "_electionId",
          "type": "uint256"
        }
      ],
      "name": "getResults",
      "outputs": [
        {
          "internalType": "string",
          "name": "decryptedResult",
          "type": "string"
        },
        {
          "internalType": "bool",
          "name": "resultsPublished",
          "type": "bool"
        },
        {
          "internalType": "uint256",
          "name": "shareCount",
          "type": "uint256"
        }
      ],
      "stateMutability": "view",
      "type": "function",
      "constant": true
    }
  ],
  "bytecode": "0x604060e081523462000339576200566d90813803806200001f816200033e565b93843982018183820312620003395782516001600160401b0393908481116200033957810182601f820112156200033957805193858511620002c45760059285841b9460209384620000738189016200033e565b809981520190858298820101928311620003395790858094939201905b8282106200030d57505050015160029384875110620002fc57848210620002eb5786518211620002da573360c052865195888711620002c457680100000000000000008711620002c457855487875580881062000299575b5095600096868852858820885b8381106200027d57505050506080918252865160a052855b87518110156200020e5780821b88018501516001600160a01b03908116908115620001fd578551908582018281108d821117620001e95788918b918952848452828401828152898501918383528a606087019442865288815260038097522095511660018060a01b03198654161785555160018501558a84019051151560ff80198354169116179055519101557f7f13f422b26c2e8231c2ecd513ed654d95c661911a55fc299b5838be808b5777868651428152a26000198114620001d5576001016200010d565b634e487b7160e01b87526011600452602487fd5b634e487b7160e01b8b52604160045260248bfd5b855163d92e233d60e01b8152600490fd5b8284516153089182620003658339518181816137d101526143f6015260a05181613796015260c05181818161039c015281816105ec01528181610e81015281816111be01528181612f2c0152818161302601528181613a8501528181613ae40152818161406201526143810152f35b82516001600160a01b03168282015591870191600101620000f5565b60008781528887822092830192015b828110620002b8575050620000e8565b818155600101620002a8565b634e487b7160e01b600052604160045260246000fd5b825163f342327960e01b8152600490fd5b825163aabd5a0960e01b8152600490fd5b8251633846957b60e21b8152600490fd5b815193945091929091906001600160a01b03811681036200033957815285939291840190840162000090565b600080fd5b6040519190601f01601f191682016001600160401b03811183821017620002c45760405256fe608080604052600436101561001357600080fd5b60003560e01c90816301bc73821461434e57508063042ae68e146142d25780630544c5b91461421f5780630ccba4c3146103215780630e5495a1146141d457806315a804ae146141615780631e67f721146140dd5780631f28762d146140ba5780631f307f8c1461408957806324d7806c1461403957806326789d5614613eae57806328bde1e114613d1a57806329e7dbd914613cd85780632b12941614613aad5780632e337e68146138dc57806335e176f2146138405780633b0c9d2a14612d955780633b1951d61461381757806341676f15146137f457806342cde4e8146137b95780634baa69011461377e57806353ba6098146130de57806354733f431461300157806354ea3e8714612f035780635e6fef0114612dc85780636640423014612d9557806366ea235e146128e657806369a37b3e146128c85780636d28b653146126c55780637445917e1461266357806378187770146126445780637cf434f71461261f5780637f247e49146125be57806381a60c0d146125415780638644fd711461249b5780638a3b63b014610b745780638ab66a90146123915780638d6d4b25146122685780638eff7ae8146121e457806392d72595146121b157806394cd15db146120b957806395af607414611a8957806399d74c7114611a605780639d18a4f014611a0e5780639ed1f255146118e4578063a3ec138d14611847578063a79a93f81461180e578063a9392e0c146117f0578063b46f49a4146117b8578063b8a76edf14611437578063b9919e7e1461141b578063c214e6d51461136d578063c556bff814611335578063cb2b6ad214611228578063cc24179f1461119a578063cd06ea6314611169578063cd3b869814610e4e578063ce99b5df14610cbe578063cea04b0014610c3a578063d0c2a60914610c09578063d567c41e14610b79578063dee40f7414610b74578063e1907e6c146108f8578063eb2119db146108b6578063eee608a41461083e578063f10c068214610626578063f13a3ab61461040d578063f1ecdc58146103cb578063f851a440146103865763fd4872bd1461032157600080fd5b346103815760403660031901126103815761033a61470a565b600435600052601760205260406000209060018060a01b031660005260205261037d61036960406000206148db565b6040519182916020835260208301906149a2565b0390f35b600080fd5b34610381576000366003190112610381576040517f00000000000000000000000000000000000000000000000000000000000000006001600160a01b03168152602090f35b34610381576020366003190112610381576001600160a01b036103ec6146f4565b16600052600d602052602060ff600a60406000200154166040519015158152f35b346103815760403660031901126103815760043561042961470a565b906007548111610614578060005260209160098352604060002060405161044f81614791565b8154815261045f600183016148db565b8582015261046f600283016148db565b604082015260018060a01b03809181600385015416906060810191825260048501546080820152600585015460a08201526101c060ff600e60068801549760c08501988952600781015460e08601528260088201541615156101008601526009810154610120860152600a8101546101408601526104ef600b82016148db565b61016086015282600c820154161515610180860152610510600d82016148db565b6101a086015201541615159101525116331415806105e8575b6105d75783600052601085526040600020921691826000528452600160ff60406000205416036105c557514210156105b357816000526010835260406000208160005283526040600020600360ff19825416179055604051914283527fc6e463a55006ff0f9fd3fc710bbb06b977f23273a66af0979cbaec5abcea0a47843394a460405160018152f35b60405163d54e430760e01b8152600490fd5b604051633ee3282d60e11b8152600490fd5b6040516282b42960e81b8152600490fd5b50807f000000000000000000000000000000000000000000000000000000000000000016331415610529565b6040516305ce45f760e51b8152600490fd5b34610381576040366003190112610381576001600160401b036004356024358281116103815761065a90369060040161464c565b929092336000526020936003855260018060a01b03604060002054161561082c57836000526009855260ff600c60406000200154161561081757336000526003855260ff600260406000200154161561080557836000526017855260406000203360005285526106ce604060002054614720565b156107ea575b8360005260178552604060002033600052855260406000209282116107d457610707826107018554614720565b85614b98565b600094601f831160011461076c57509381929394600092610761575b50508160011b916000199060031b1c19161790555b33907f209a7f309632f82e36f4ccb21f2d41d561939dbfe1030b045cc17b7563125543600080a3005b013590508480610723565b90601f198316958460005282600020926000905b8882106107bc575050836001959697106107a2575b505050811b019055610738565b0135600019600384901b60f8161c19169055848080610795565b80600184968294958701358155019501920190610780565b634e487b7160e01b600052604160045260246000fd5b8360005260188552610800336040600020614d16565b6106d4565b6040516399c0063d60e01b8152600490fd5b60405160016209c87d60e41b03198152600490fd5b604051635aa309bb60e01b8152600490fd5b34610381576020366003190112610381576001600160a01b03806108606146f4565b16600052600360205260406000209081541661037d600183015492600360ff600283015416910154906040519485948590949392606092608083019660018060a01b031683526020830152151560408201520152565b34610381576020366003190112610381576001600160a01b036108d76146f4565b16600052600c602052602060ff600860406000200154166040519015158152f35b34610381576060366003190112610381576004356024356044359133600052602092600c845260ff60086040600020015416610b625782600052600a845260ff60406000205416610b505780600052600b845260ff60406000205416610b3e57604051848101933360601b85528360348301528060548301528260748301524260948301526094825260c08201948286106001600160401b038711176107d4578560405282519020946109aa816147ad565b338152610a7660e084019186835260088961010087019686885261012081019789895261014082019860008a526101608301908d8252610180840192428452600c6101c06101a087019660008852019660018852336000525260406000209760018060a01b03905116996001600160601b0360a01b9a8b8a541617895551600189015551600288015551600387015560ff600487019a51169960ff199a8b82541617905551600586015551600685015551600784015551151591019060ff801983541691151516179055565b600454600160401b8110156107d4576001810180600455811015610b28577f8a35acfbc15ff81a39ae7d344fd709f28e8600b4aa8c65c6b64bfe7fe36bd19b01903390825416179055600052600a8552604060002060018282541617905581600052600b85526001604060002091825416179055604051918252838201524260408201527f4a0760bd7a43ef7997b737233d55b1b1902178a1448890976c9a3c4cecbda51660603392a2604051908152f35b634e487b7160e01b600052603260045260246000fd5b60405163745491ff60e01b8152600490fd5b6040516331a0efdd60e21b8152600490fd5b604051630ea075bf60e21b8152600490fd5b614b11565b3461038157600036600319011261038157604051806005549182815260208091019260056000527f036b6384b5eca791c62761152d0c79bb0604c104a5fb6f4eb0703f3154bb3db0916000905b828210610be95761037d85610bdd818903826147ff565b604051918291826146b0565b83546001600160a01b031686529485019460019384019390910190610bc6565b34610381576020366003190112610381576004356000526012602052602060ff604060002054166040519015158152f35b3461038157600036600319011261038157604051806004549182815260208091019260046000527f8a35acfbc15ff81a39ae7d344fd709f28e8600b4aa8c65c6b64bfe7fe36bd19b916000905b828210610c9e5761037d85610bdd818903826147ff565b83546001600160a01b031686529485019460019384019390910190610c87565b346103815760203660031901126103815760043580158015610e43575b610614576000526009602052604060002060405190610cf982614791565b80548252610d09600182016148db565b60208301908152610d1c600283016148db565b9260408101938452600160a01b600190039182600385015416916060810192835260048501549360808201948552600586015460a08301908152600687015460c0840190815260078801549160e08501928352600889015460ff169361010096878701951515865260098b0154966101209b8c8201988952600a810154610140830152600b8101610dac906148db565b610160830152600c81015460ff161515610180830152610dce600d82016148db565b6101a0830152600e015460ff161515906101c00152519a519751169751905191519251935115159451966040519a8a8c9b8c528b01610e0c916149a2565b8a810360208c0152610e1d916149a2565b9760408a01526060890152608088015260a087015260c086015260e08501528301520390f35b506007548111610cdb565b3461038157610e5c36614679565b92919082600052600993602090858252604060002054156106145760018060a01b03807f000000000000000000000000000000000000000000000000000000000000000016331415908161114d575b506105d7578460005285825260ff600c604060002001541661113b5782156111295784600052858252600760406000200154421115611117578460005260159081835260406000205491821561110557604051610f07816147c9565b60008152906000905b8585831061108b579150508151910120036110795784600052858252600b604060002001956001600160401b0384116107d457610f5784610f518954614720565b89614b98565b600096601f8511600114610ff557847f0ed878d46369d37bab765405163b91e6cacef96258026b8c7af968904c728b339798600091610fea575b508560011b906000198760031b1c19161790555b86600052825280600a6040600020600c8101600160ff198254161790550155610fdb604051948594606086526060860191614bec565b918301524260408301520390a2005b905086013589610f91565b601f1985169781600052846000209060005b8a81106110625750867f0ed878d46369d37bab765405163b91e6cacef96258026b8c7af968904c728b33999a10611048575b5050600185811b019055610fa5565b870135600019600388901b60f8161c191690558880611039565b90918660018192858c013581550193019101611007565b604051631ed5a3c560e21b8152600490fd5b6110f96110ff9293948b6000528483526110a9866040600020614abe565b90548d6000526014855260406000209160031b1c60005283526110eb604060002060405194836110e2879551809284808901910161497f565b84010190614c93565b03601f1981018352826147ff565b92614c0d565b90610f10565b60405163354ba2d560e01b8152600490fd5b604051635b177c7d60e11b8152600490fd5b60405163a447fc5360e01b8152600490fd5b604051639ac89bcd60e01b8152600490fd5b9050856000528683526003604060002001541633141587610eab565b3461038157602036600319011261038157600435600052600a602052602060ff604060002054166040519015158152f35b34610381576020366003190112610381576111b36146f4565b6001600160a01b03907f00000000000000000000000000000000000000000000000000000000000000008216330361121657168015611204576001600160601b0360a01b6011541617601155600080f35b60405163d92e233d60e01b8152600490fd5b604051637bfa4b9f60e01b8152600490fd5b34610381576000366003190112610381576006546000805b8281106112e0575061125190614f82565b906000805b82811061126b576040518061037d86826146b0565b61127481614a87565b60018060a01b03809254600392831b1c16600052600e60205260ff60046040600020015416156112af575b50506112aa90614c0d565b611256565b926112d89183946112c26112aa95614a87565b9054911b1c166112d28288614fb4565b52614c0d565b91908561129f565b6112e981614a87565b60018060a01b0391549060031b1c16600052600e60205260ff6004604060002001541615611320575b61131b90614c0d565b611240565b9061132d61131b91614c0d565b919050611312565b346103815761134336614a03565b906000526013602052604060002090600052602052602060ff604060002054166040519015158152f35b34610381576020366003190112610381576001600160a01b038061138f6146f4565b166000526003602052604060002060405191608083018381106001600160401b038211176107d45761037d9160609160405283541692838552600181015494856020820152600360ff600284015416151592836040840152015492839101526040519485948590949392606092608083019660018060a01b031683526020830152151560408201520152565b346103815760003660031901126103815761037d610369614820565b34610381576060366003190112610381576004356001600160401b0381116103815761146790369060040161464c565b906044356001600160401b0381116103815761148790369060040161464c565b9033600052600e60205260ff60066040600020015416610b62578315611129576114dc604051916114b78361475a565b3383526114c5368787614f25565b936020840194855260243560408501523691614f25565b60608201526000608082018190524260a0830152600160c0830152338152600e60205260409020815181546001600160a01b0319166001600160a01b039190911617815591518051906001600160401b0382116107d457819061154f826115466001880154614720565b60018801614b98565b602090601f83116001146117465760009261173b575b50508160011b916000199060031b1c19161760018301555b6040810151600283015560608101518051906001600160401b0382116107d4576115b7826115ae6003870154614720565b60038701614b98565b602090601f83116001146116c257928260069360c09361162897966000926116b7575b50508160011b916000199060031b1c19161760038501555b6004840160ff60808301511660ff1982541617905560a081015160058501550151151591019060ff801983541691151516179055565b600654600160401b8110156107d4577fc66b05bf38d91d14a06ea483a62df85883a2efdf48f80e9432ece10c3fe7f9859161166c8260016116979401600655614a87565b81549060031b9033821b9160018060a01b03901b191617905560405193606085526060850191614bec565b9160243560208201524260408201528033930390a2602060405160018152f35b0151905089806115da565b906003850160005260206000209160005b601f198516811061172357508360c093611628979693600193600697601f1981161061170a575b505050811b0160038501556115f2565b015160001960f88460031b161c191690558980806116fa565b919260206001819286850151815501940192016116d3565b015190508680611565565b9250600185016000526020600020906000935b601f198416851061179d576001945083601f19811610611784575b505050811b01600183015561157d565b015160001960f88460031b161c19169055868080611774565b81810151835560209485019460019093019290910190611759565b346103815760203660031901126103815760043560075481116106145760005260096020526020600a60406000200154604051908152f35b34610381576000366003190112610381576020600754604051908152f35b346103815760003660031901126103815760ff60015416156118355761037d610369614820565b604051639096cccb60e01b8152600490fd5b34610381576020366003190112610381576101206001600160a01b038061186c6146f4565b16600052600c602052604060002090815416906001810154906002810154600382015460ff60048401541660058401549160068501549360ff600860078801549701541696604051988952602089015260408801526060870152608086015260a085015260c084015260e08301521515610100820152f35b34610381576020366003190112610381576001600160a01b03806119066146f4565b1680600052600c60205260ff60086040600020015416156119fc57600052600c60205260406000206040519161193b836147ad565b815416825260018101549081602084015260028101546040840152600381015492836060820152600160ff600484015416806080840152600584015460a084015260068401549260c0810193845261010060ff600860078801549760e085019889520154161515910152146000146119eb576119dc6119b8614f01565b915b519251916040519586958652602086015260a0604086015260a08501906149a2565b91606084015260808301520390f35b6119dc6119f6614ed1565b916119ba565b60405163aba4733960e01b8152600490fd5b346103815760403660031901126103815760243560043560005260186020526040600020805482101561038157602091611a4791614abe565b905460405160039290921b1c6001600160a01b03168152f35b34610381576000366003190112610381576011546040516001600160a01b039091168152602090f35b346103815760c0366003190112610381576004356001600160401b03811161038157611ab990369060040161464c565b6024356001600160401b03811161038157611ad890369060040161464c565b611ae492919233614fc8565b156105d7578115611129574260443511156120a75760443560643511156120a75760643560843511156120a75760843560a43511156120a757611b57611b2b600754614c0d565b938460075560405192611b3d84614791565b858452611b4b368689614f25565b60208501523691614f25565b6040820152336060820152604435608082015260643560a082015260843560c082015260a43560e08201526001610100820152426101208201526000610140820152604051611ba5816147c9565b600081526101608201526000610180820152604051611bc3816147c9565b600081526101a082015260006101c08201528260005260096020526040600020908051825560208101518051906001600160401b0382116107d4578190611c11826115466001880154614720565b602090601f83116001146120355760009261202a575b50508160011b916000199060031b1c19161760018301555b60408101518051906001600160401b0382116107d4578190611c7182611c686002880154614720565b60028801614b98565b602090601f8311600114611fb857600092611fad575b50508160011b916000199060031b1c19161760028301555b6003820160018060a01b036060830151166001600160601b0360a01b8254161790556080810151600483015560a0810151600583015560c0810151600683015560e08101516007830155611d096101008201511515600884019060ff801983541691151516179055565b6101208101516009830155610140810151600a83015561016081015180516001600160401b0381116107d45780600b850192611d4f82611d498654614720565b86614b98565b602090601f8311600114611f4757600092611f3c575b50508160011b916000199060031b1c19161790555b611d9a6101808201511515600c84019060ff801983541691151516179055565b6101a081015180516001600160401b0381116107d457600d840191611dc3826107018554614720565b602090601f8311600114611ec95792826101c093611e14979693600e96600092611ebe575b50508160011b916000199060031b1c19161790555b0151151591019060ff801983541691151516179055565b600854600160401b8110156107d4577fd3678a1df7c0a194a6f67f13d263cb5409debb4055904f08c5671ad712d08237611e8a60209585611e76611e5f866001849801600855614a50565b819391549060031b91821b91600019901b19161790565b90556040519460c0865260c0860191614bec565b92604435868201526064356040820152608435606082015260a43560808201524260a08201528033940390a3604051908152f35b015190508b80611de8565b90601f198316918460005260206000209260005b818110611f24575093611e14979693600e9693600193836101c09810611f0b575b505050811b019055611dfd565b015160001960f88460031b161c191690558b8080611efe565b92936020600181928786015181550195019301611edd565b015190508880611d65565b6000858152602081209350601f198516905b818110611f955750908460019594939210611f7c575b505050811b019055611d7a565b015160001960f88460031b161c19169055888080611f6f565b92936020600181928786015181550195019301611f59565b015190508780611c87565b9250600285016000526020600020906000935b601f198416851061200f576001945083601f19811610611ff6575b505050811b016002830155611c9f565b015160001960f88460031b161c19169055878080611fe6565b81810151835560209485019460019093019290910190611fcb565b015190508780611c27565b9250600185016000526020600020906000935b601f198416851061208c576001945083601f19811610612073575b505050811b016001830155611c3f565b015160001960f88460031b161c19169055878080612063565b81810151835560209485019460019093019290910190612048565b604051630398516760e11b8152600490fd5b34610381576120c7366149c7565b909133600052602093600c855260ff60086040600020015416156119fc5733600052600c855260ff600460406000200154166105c55760609361210b928492614d69565b013580600052601282526040600020805460ff811615612176575b8333600052600c8152604060002060048101600160ff198254161790556007429101557f945486efe706b7939911cd647343f3c1118cd63847a1f1b3d5a06b05120a5bcd604051914283523392a2005b60019060ff19161790557f19f3ad95ceff49695c3f339b98cece9dd03d73f9e1783d91ba6a6270ae5a968582604051428152a2818080612126565b34610381576121bf36614a03565b90600052601460205260406000209060005260205261037d61036960406000206148db565b3461038157600036600319011261038157604051806002549182815260208091019260026000527f405787fa12a823e0f2b7631cc41b3ba8828b3321ca811111fa75cd3aa3bb5ace916000905b8282106122485761037d85610bdd818903826147ff565b83546001600160a01b031686529485019460019384019390910190612231565b3461038157602080600319360112610381576122826146f4565b60085460009290916001600160a01b03908116845b84811061234657506122a885614f6b565b946122b660405196876147ff565b8086526122c5601f1991614f6b565b01368487013760009160005b8581106122e6576040518061037d8982614ad6565b6122ef81614a50565b9054600391821b1c6000526009865283838260406000200154161461231e575b5061231990614c0d565b6122d1565b819461233f9161233061231994614a50565b9054911b1c6112d2828b614fb4565b939061230f565b818361235183614a50565b9054600391821b1c6000526009875260406000200154161461237c575b61237790614c0d565b612297565b9461238961237791614c0d565b95905061236e565b34610381576020366003190112610381576001600160a01b03806123b36146f4565b16600052600d602052604060002090815416600182016123d2906148db565b916002810154600382016123e5906148db565b916123f2600482016148db565b926123ff600583016148db565b93600683015460ff1694600784015491600885015493600986015495600a015460ff16966040519a8b9a8b526101608060208d01528b0161243f916149a2565b9060408b015289810360608b0152612456916149a2565b88810360808a0152612467916149a2565b87810360a0890152612478916149a2565b9460c087015260e086015261010085015261012084015215156101408301520390f35b34610381576020806003193601126103815760043560005260158152604060002060405190818382549182815201908192600052846000209060005b8682821061252d5786866124ed828803836147ff565b604051928392818401908285525180915260408401929160005b82811061251657505050500390f35b835185528695509381019392810192600101612507565b8354855290930192600192830192016124d7565b3461038157602036600319011261038157600435806000526009602052604060002054156106145760005260096020526125ad604060002060ff600e820154166018602052612598600d60406000205493016148db565b916040519384936060855260608501906149a2565b911515602084015260408301520390f35b34610381576020366003190112610381576001600160a01b036125df6146f4565b16600052600c60205260ff600860406000200154168015612608575b6020906040519015158152f35b50600d6020526040600020600a015460ff166125fb565b3461038157600036600319011261038157602061263a614c32565b6040519015158152f35b346103815760203660031901126103815761037d610bdd600435615000565b3461038157602036600319011261038157600435806000526009602052604060002054156106145760005260096020526126b46040600020600a810154612598600b60ff600c8501541693016148db565b916020840152151560408301520390f35b3461038157602080600319360112610381576004356007548111610614578060005260098252600e60406000206040516126fe81614791565b8154815261270e600183016148db565b8582015261271e600283016148db565b604082015260018060a01b036003830154166060820152600482015490608081019182526101c060058401549360a08301948552600681015460c0840152600781015460e084015260ff9581876008819401541615156101008601526009810154610120860152600a81015461014086015261279c600b82016148db565b61016086015282600c8201541615156101808601526127bd600d82016148db565b6101a086015201541615159101525142109081156128bd575b506128ab5733600052600d835280600a6040600020015416156119fc5733600052600d83526001816006604060002001541603612899578160005260108352604060002033600052835260406000205416610b6257806000526010825260406000203360005282526040600020600160ff1982541617905580600052600f8252612864336040600020614d16565b604051904282527f79f07716a1285725869298e53bfdb0d51d88314b25b5ed3b21be3b69534c0eaa833393a360405160018152f35b60405163a95362b560e01b8152600490fd5b60405163775a05ef60e01b8152600490fd5b9050514211846127d6565b34610381576000366003190112610381576020600454604051908152f35b3461038157610280366003190112610381576024356001600160401b0381116103815761291790369060040161464c565b3660841161038157366101041161038157366101441161038157366102841161038157600754600435116106145760043560005260096020526040600020600681015442108015612d88575b612d765781156111295760ff6001541615611835576011546001600160a01b03168015612d64577f30644e72e131a029b85045b68181585d2833e84879b9709143e1f593f00000016040516020810190858783376129d16020828881016000838201520380845201826147ff565b519020066102643503612ca1576004356101843503612d525760126101443503612d40576129fe42615172565b916101c43503612d2e576101e43503612d2e576102043503612d2e57612a25600435615000565b516102243503612d1c57600435600052601360205260406000206101643560005260205260ff60406000205416612d0a576101a435600052601260205260ff60406000205416156119fc57604080516379ddb87b60e11b81529182916044600484013760846000604484015b60028210612cee5750505081602091604061010460c48401376101406101446101048401376102449485915afa908115612ce257600091612cb3575b5015612ca157359160043560005260136020526040600020610164356000526020526040600020600160ff1982541617905560043560005260146020526040600020610164356000526020526040600020906001600160401b0381116107d457612b4181612b3b8454614720565b84614b98565b6000601f8211600114612c3a578192939495600092612c2f575b50508160011b916000199060031b1c19161790555b60043560005260166020526040600020610164356000526020528160406000205560043560005260156020526040600020908154600160401b8110156107d457612bc581600a946001612be294018155614abe565b610164929192359083549060031b91821b91600019901b19161790565b905501612bef8154614c0d565b905560405142815261016435907f391cb40dccdc4624de65b9b4f3b144896d68978477f9dc45e908c63d3fedc465602060043592a4602060405160018152f35b013590508580612b5b565b601f198216958360005260206000209160005b888110612c8957508360019596979810612c6f575b505050811b019055612b70565b0135600019600384901b60f8161c19169055858080612c62565b90926020600181928686013581550194019101612c4d565b604051638dce817560e01b8152600490fd5b612cd5915060203d602011612cdb575b612ccd81836147ff565b810190614d51565b85612acd565b503d612cc3565b6040513d6000823e3d90fd5b8293945060408181600194958194370193019101849392612a91565b604051637c9a1cf960e01b8152600490fd5b60405163167dfbb760e11b8152600490fd5b6040516381bf7f6760e01b8152600490fd5b6040516304530cb760e41b8152600490fd5b604051631ec4422d60e11b8152600490fd5b6040516379e2e00360e01b8152600490fd5b60405163b5e0f85160e01b8152600490fd5b5060078101544211612963565b3461038157612da336614a03565b9060005260166020526040600020906000526020526020604060002054604051908152f35b346103815760203660031901126103815760043560005260096020526040600020805460018201612df8906148db565b90612e05600284016148db565b92600160a01b600190036003820154169160048201549060058301549060068401546007850154600886015460ff16600987015491600a88015493600b8901612e4d906148db565b96600c8a015460ff1698600d8b01612e64906148db565b9a600e015460ff169b6040519e8f9e8f9a8b526101e08060208d01528b01612e8b916149a2565b8a810360408c0152612e9c916149a2565b986060015260808d015260a08c015260c08b015260e08a01521515610100890152610120880152610140870152858103610160870152612edb916149a2565b9015156101808501528381036101a0850152612ef6916149a2565b9015156101c08301520390f35b3461038157604036600319011261038157612f1c6146f4565b6001600160a01b039060243590337f00000000000000000000000000000000000000000000000000000000000000008416141580612ff5575b6105d757821691826000526003602052604060002054161561082c5781600052600360205260ff60026040600020015416612fe35780156111295760407f60189f38ccc04374e9c9fd4ab45fe61bb77bd1472fd19f6f39aef2686b14697f9183600052600360205260028260002082600182015501600160ff198254161790558151908152426020820152a2005b6040516317fd8aab60e31b8152600490fd5b50828116331415612f55565b34610381576020806003193601126103815761301b6146f4565b6001600160a01b03907f000000000000000000000000000000000000000000000000000000000000000082163303611216571680600052600e825260ff60066040600020015416156119fc5780600052600e825260ff600460406000200154166130cc5780600052600e82526004604060002001600160ff198254161790557f14814d303617b24306266f30fbbd178fc67e915b8147aa4679460f5ce328912982604051428152a260405160018152f35b604051632bf773b360e11b8152600490fd5b346103815760a0366003190112610381576004356001600160401b0381116103815761310e90369060040161464c565b6044356001600160401b0381116103815761312d90369060040161464c565b6064929192356001600160401b0381116103815761314f90369060040161464c565b9190936084356001600160401b0381116103815761317190369060040161464c565b92909233600052600d60205260ff600a6040600020015416610b62576040516020810190838583376131b36020828681016000838201520380845201826147ff565b51902093602435600052600a60205260ff60406000205416610b505784600052600b60205260ff60406000205416610b3e5761327b9161326f60405160208101903360601b82528a8d603483013761322c6094828d810160243560348201528c60548201524260748201520360748101845201826147ff565b519020996040519861323d8a614775565b338a5261324b368c8f614f25565b60208b015260243560408b015261326336888a614f25565b60608b01523691614f25565b60808801523691614f25565b60a0850152600060c08501528560e0850152426101008501526000610120850152600161014085015233600052600d602052604060002060018060a01b038551166001600160601b0360a01b82541617815560208501518051906001600160401b0382116107d45781906132ff826132f66001870154614720565b60018701614b98565b602090601f831160011461370c57600092613701575b50508160011b916000199060031b1c19161760018201555b6040850151600282015560608501518051906001600160401b0382116107d4578190613360826115ae6003870154614720565b602090601f831160011461368f57600092613684575b50508160011b916000199060031b1c19161760038201555b60808501518051906001600160401b0382116107d45781906133c0826133b76004870154614720565b60048701614b98565b602090601f831160011461361257600092613607575b50508160011b916000199060031b1c19161760048201555b60a08501518051906001600160401b0382116107d45761341e826134156005860154614720565b60058601614b98565b602090601f8311600114613593576134a893929160009183613588575b50508160011b916000199060031b1c19161760058201555b600a610140600683019760ff60c0820151169860ff19998a82541617905560e08101516007850155610100810151600885015561012081015160098501550151151591019060ff801983541691151516179055565b600554600160401b8110156107d4576001810180600555811015610b28576020977f62a383152c7f5dcaccf813b01cb40efbd792ad8179bb25189b78f48c16e4536e9561357395613566937f036b6384b5eca791c62761152d0c79bb0604c104a5fb6f4eb0703f3154bb3db001336001600160601b0360a01b825416179055602435600052600a8b526040600020600183825416179055600052600b8a52600160406000209182541617905560405196606088526060880191614bec565b9185830388870152614bec565b914260408201528033930390a2604051908152f35b015190508b8061343b565b906005840160005260206000209160005b601f19851681106135ef57509183916001936134a89695601f198116106135d6575b505050811b016005820155613453565b015160001960f88460031b161c191690558b80806135c6565b919260206001819286850151815501940192016135a4565b015190508a806133d6565b9250600484016000526020600020906000935b601f1984168510613669576001945083601f19811610613650575b505050811b0160048201556133ee565b015160001960f88460031b161c191690558a8080613640565b81810151835560209485019460019093019290910190613625565b015190508a80613376565b9250600384016000526020600020906000935b601f19841685106136e6576001945083601f198116106136cd575b505050811b01600382015561338e565b015160001960f88460031b161c191690558a80806136bd565b818101518355602094850194600190930192909101906136a2565b015190508a80613315565b9250600184016000526020600020906000935b601f1984168510613763576001945083601f1981161061374a575b505050811b01600182015561332d565b015160001960f88460031b161c191690558a808061373a565b8181015183556020948501946001909301929091019061371f565b346103815760003660031901126103815760206040517f00000000000000000000000000000000000000000000000000000000000000008152f35b346103815760003660031901126103815760206040517f00000000000000000000000000000000000000000000000000000000000000008152f35b3461038157602036600319011261038157602061263a6138126146f4565b614fc8565b346103815760203660031901126103815760043560025481101561038157611a47602091614a19565b346103815761384e366149c7565b9133600052600d60205260ff600a6040600020015416156119fc5733600052600d60205260ff600660406000200154166105c55761388b93614d69565b33600052600d602052604060002060068101600160ff198254161790556009429101556040514281527f2f366f123fabab95492dbb42e8695e5d537354a21c0246601ad90134a982762560203392a2005b34610381576040366003190112610381576004356138f861470a565b906007548111610614578060005260209160098352604060002060405161391e81614791565b8154815261392e600183016148db565b8582015261393e600283016148db565b604082015260018060a01b03809181600385015416906060810191825260048501546080820152600585015460a08201526101c060ff600e60068801549760c08501988952600781015460e08601528260088201541615156101008601526009810154610120860152600a8101546101408601526139be600b82016148db565b61016086015282600c8201541615156101808601526139df600d82016148db565b6101a08601520154161515910152511633141580613a81575b6105d75783600052601085526040600020921691826000528452600160ff60406000205416036105c557514210156105b357816000526010835260406000208160005283526040600020600260ff19825416179055604051914283527e8c02da86b3277809b12d5d51b4daa215b8085d605086df36dc4c12f4ea8b74843394a460405160018152f35b50807f0000000000000000000000000000000000000000000000000000000000000000163314156139f8565b3461038157602080600319360112610381576001600160401b039060043582811161038157613ae090369060040161464c565b90917f00000000000000000000000000000000000000000000000000000000000000006001600160a01b031633036112165760019360ff855416613cc65782156111295782116107d457613b35600054614720565b601f8111613c60575b50600093601f8311600114613bc357827f4d7ace317cababf305a3b0781e111ea315b0fdfad17a816ed7f3d5dbaf16378495600091613bb8575b50600019600385901b1c191683821b176000555b8060ff19815416179055613bad604051938493604085526040850191614bec565b9042908301520390a1005b905084013586613b78565b6000808052601f198416957f290decd9548b62a8d60345a988386fc84ba6bc95484008f6362f93160ef3e563915b878110613c4b5750847f4d7ace317cababf305a3b0781e111ea315b0fdfad17a816ed7f3d5dbaf1637849710613c31575b50508083811b01600055613b8c565b850135600019600386901b60f8161c191690558580613c22565b86820135835591830191908401908401613bf1565b600080527f290decd9548b62a8d60345a988386fc84ba6bc95484008f6362f93160ef3e563601f840160051c810191838510613cbc575b601f0160051c019085905b828110613cb0575050613b3e565b60008155018590613ca2565b9091508190613c97565b604051631e1e262b60e01b8152600490fd5b34610381576020366003190112610381576001600160a01b03613cf96146f4565b16600052600e602052602060ff600660406000200154166040519015158152f35b34610381576020366003190112610381576001600160a01b0380613d3c6146f4565b169081600052600d60205260ff600a6040600020015416156119fc57613e5691600052600d602052604060002060405191613d7683614775565b8154168252613d87600182016148db565b916020810192835260028201546040820152613e8e82613e80613dac600383016148db565b9560608501968752613e72613dc3600485016148db565b95608081019687526001613dd9600587016148db565b938460a084015260ff600688015416928360c0820152600788015460e082015261014060ff600a600960088c01549b61010086019c8d5201549d61012085019e8f52015416151591015251995197519114600014613e9d57613e64613e3c614f01565b955b519851976040519b8c9b60e08d5260e08d01906149a2565b908b820360208d01526149a2565b9089820360408b01526149a2565b9087820360608901526149a2565b9085820360808701526149a2565b9160a084015260c08301520390f35b613e64613ea8614ed1565b95613e3e565b3461038157602080600319360112610381576001600160a01b039081613ed26146f4565b169182600052600e825260ff60066040600020015416156119fc57613fbe92600052600e8252613fdd60406000209260405192613f0e8461475a565b8454168352613fcf613f22600186016148db565b9180850192835260028601549560408601968752613f42600382016148db565b956060810196875260ff6004830154169081608082015260c060ff600660058601549560a08501968752015416151591015260018114600014613fe75750604051613f8c816147e4565b60088152671054141493d5915160c21b83820152935b519651955190519560405198899860a08a5260a08a01906149a2565b9288015286820360408801526149a2565b9084820360608601526149a2565b9060808301520390f35b60020361401557604051613ffa816147e4565b60088152671491529150d5115160c21b838201525b93613fa2565b604051614021816147e4565b600781526650454e44494e4760c81b8382015261400f565b346103815760203660031901126103815760206140546146f4565b6040519060018060a01b03807f0000000000000000000000000000000000000000000000000000000000000000169116148152f35b3461038157602036600319011261038157600435600052600b602052602060ff604060002054166040519015158152f35b3461038157600036600319011261038157602060ff600154166040519015158152f35b3461038157600036600319011261038157604051806006549182815260208091019260066000527ff652222313e28459528d920b65115c16c04f3efc82aaedc97be59f3f377c0d3f916000905b8282106141415761037d85610bdd818903826147ff565b83546001600160a01b03168652948501946001938401939091019061412a565b34610381576020806003193601126103815760043560005260188152604060002090604051908181845491828152019360005281600020916000905b8282106141b45761037d85610bdd818903826147ff565b83546001600160a01b03168652948501946001938401939091019061419d565b34610381576040366003190112610381576141ed61470a565b600435600052601060205260406000209060018060a01b0316600052602052602060ff60406000205416604051908152f35b34610381576020366003190112610381576001600160a01b03806142416146f4565b16600052600e60205260406000209081541661425f600183016148db565b91600281015490614272600382016148db565b906142bc60ff6004830154169360ff6006600585015494015416936142a9604051988998895260e060208a015260e08901906149a2565b91604088015286820360608801526149a2565b92608085015260a0840152151560c08301520390f35b346103815760208060031936011261038157600435600754811161061457600052600f8152604060002090604051908181845491828152019360005281600020916000905b82821061432e5761037d85610bdd818903826147ff565b83546001600160a01b031686529485019460019384019390910190614317565b346103815761435c36614679565b93836000526009946020918683526040600020541561463d57506001600160a01b03337f00000000000000000000000000000000000000000000000000000000000000008216141580614622575b6105d7578560005286835260ff600c604060002001541615610817578560005286835260ff600e604060002001541661113b5783156111295785600052601890818452604060002054907f00000000000000000000000000000000000000000000000000000000000000008210614610579190604051614429816147c9565b60008152926000925b868385106145a55793505050508151910120036145935783600052848152600d604060002001946001600160401b0383116107d45761447b836144758854614720565b88614b98565b600095601f841160011461450f57837fd669546a44855a85b11d2c8185b647a21c6fd25e902e1f54db1ebc3886b54d139697600091614504575b508460011b906000198660031b1c19161790555b856000528152600e604060002001600160ff198254161790556144f9604051938493604085526040850191614bec565b9042908301520390a2005b9050850135886144b5565b601f1984169681600052836000209060005b89811061457c5750857fd669546a44855a85b11d2c8185b647a21c6fd25e902e1f54db1ebc3886b54d13989910614562575b5050600184811b0190556144c9565b860135600019600387901b60f8161c191690558780614553565b90918560018192858b013581550193019101614521565b60405163763b576f60e11b8152600490fd5b61460261460892939495968c6000528483528c866145c78a6040600020614abe565b929054906000526017865260406000209260031b1c1660005283526110eb604060002060405194836110e2879551809284808901910161497f565b94614c0d565b929190614432565b6040516359fa4a9360e01b8152600490fd5b508560005286835280600360406000200154163314156143aa565b6305ce45f760e51b8152600490fd5b9181601f84011215610381578235916001600160401b038311610381576020838186019501011161038157565b9060606003198301126103815760043591602435906001600160401b038211610381576146a89160040161464c565b909160443590565b6020908160408183019282815285518094520193019160005b8281106146d7575050505090565b83516001600160a01b0316855293810193928101926001016146c9565b600435906001600160a01b038216820361038157565b602435906001600160a01b038216820361038157565b90600182811c92168015614750575b602083101461473a57565b634e487b7160e01b600052602260045260246000fd5b91607f169161472f565b60e081019081106001600160401b038211176107d457604052565b61016081019081106001600160401b038211176107d457604052565b6101e081019081106001600160401b038211176107d457604052565b61012081019081106001600160401b038211176107d457604052565b602081019081106001600160401b038211176107d457604052565b604081019081106001600160401b038211176107d457604052565b90601f801991011681019081106001600160401b038211176107d457604052565b6040519060008281549161483383614720565b808352926001908181169081156148b9575060011461485c575b5061485a925003836147ff565b565b600080805291507f290decd9548b62a8d60345a988386fc84ba6bc95484008f6362f93160ef3e5635b84831061489e575061485a93505081016020013861484d565b81935090816020925483858a01015201910190918592614885565b90506020925061485a94915060ff191682840152151560051b8201013861484d565b90604051918260008254926148ef84614720565b90818452600194858116908160001461495c5750600114614919575b505061485a925003836147ff565b9093915060005260209081600020936000915b81831061494457505061485a9350820101388061490b565b8554888401850152948501948794509183019161492c565b91505061485a94506020925060ff191682840152151560051b820101388061490b565b60005b8381106149925750506000910152565b8181015183820152602001614982565b906020916149bb8151809281855285808601910161497f565b601f01601f1916010190565b906102406003198301126103815781604411610381576004918060c411610381576044916101048281116103815760c492610244116103815790565b6040906003190112610381576004359060243590565b600254811015610b285760026000527f405787fa12a823e0f2b7631cc41b3ba8828b3321ca811111fa75cd3aa3bb5ace0190600090565b600854811015610b285760086000527ff3f7a9fe364faab93b216da50a3214154f22a0a2b415b23a84c8169e8b636ee30190600090565b600654811015610b285760066000527ff652222313e28459528d920b65115c16c04f3efc82aaedc97be59f3f377c0d3f0190600090565b8054821015610b285760005260206000200190600090565b6020908160408183019282815285518094520193019160005b828110614afd575050505090565b835185529381019392810192600101614aef565b3461038157600036600319011261038157604051806008549182815260208091019260086000527ff3f7a9fe364faab93b216da50a3214154f22a0a2b415b23a84c8169e8b636ee3916000905b828210614b815761037d85614b75818903826147ff565b60405191829182614ad6565b835486529485019460019384019390910190614b5e565b90601f8111614ba657505050565b600091825260208220906020601f850160051c83019410614be2575b601f0160051c01915b828110614bd757505050565b818155600101614bcb565b9092508290614bc2565b908060209392818452848401376000828201840152601f01601f1916010190565b6000198114614c1c5760010190565b634e487b7160e01b600052601160045260246000fd5b600060028054915b828110614c4957505050600190565b614c5281614a19565b9054600391821b1c6001600160a01b031660009081526020919091526040902082015460ff1615614c8b57614c8690614c0d565b614c3a565b505050600090565b600092918154614ca281614720565b92600191808316908115614cfb5750600114614cbf575b50505050565b90919293945060005260209081600020906000915b858310614cea5750505050019038808080614cb9565b805485840152918301918101614cd4565b60ff1916845250505081151590910201915038808080614cb9565b8054600160401b8110156107d457614d3391600182018155614abe565b819291549060031b9160018060a01b03809116831b921b1916179055565b90816020910312610381575180151581036103815790565b91909260018060a01b0360115416918215612d64576012823503612d405760409485830135614ec057606083013515614eaf57614da542615172565b91608086013503614e9e5760a085013503614e8d5760c084013503614e7c5785516379ddb87b60e11b81529485939287929091839060048701376000604486015b60028210614e5c575050509361014061024493859360209760c48601376101048401375afa908115614e5157600091614e33575b5015614e235750565b51638dce817560e01b8152600490fd5b614e4b915060203d8111612cdb57612ccd81836147ff565b38614e1a565b82513d6000823e3d90fd5b849193959650938481846001959737019301910190869493918893614de6565b85516381bf7f6760e01b8152600490fd5b86516381bf7f6760e01b8152600490fd5b87516381bf7f6760e01b8152600490fd5b8551636033c4fd60e11b8152600490fd5b8551631ec4422d60e11b8152600490fd5b60405190614ede826147e4565b60148252732822a72224a723afab22a924a324a1a0aa24a7a760611b6020830152565b60405190614f0e826147e4565b6008825267159154925192515160c21b6020830152565b9291926001600160401b0382116107d45760405191614f4e601f8201601f1916602001846147ff565b829481845281830111610381578281602093846000960137010152565b6001600160401b0381116107d45760051b60200190565b90614f8c82614f6b565b614f9960405191826147ff565b8281528092614faa601f1991614f6b565b0190602036910137565b8051821015610b285760209160051b010190565b6001600160a01b03166000908152600e60205260409020600681015460ff169081614ff1575090565b6004015460ff16600114919050565b90600754821161061457600091808352602092600f84526040908181208251808288829454938481520190855288852092855b8a8282106151395750505061504a925003826147ff565b8193825b82518110156150ab57818452601088528484206001600160a01b036150738386614fb4565b511685528852600260ff868620541614615096575b61509190614c0d565b61504e565b946150a361509191614c0d565b959050615088565b509295936150b890614f82565b918093815b835181101561512e57818352601087528883206001600160a01b0390816150e48488614fb4565b511685528852600260ff8b8620541614615108575b5061510390614c0d565b6150bd565b81966151279161511b6151039488614fb4565b51166112d28289614fb4565b95906150f9565b509296505050505050565b85546001600160a01b0316845260019586019587955093019201615033565b91908201809211614c1c57565b91908203918211614c1c57565b62015180900490620afa6c8201809211614c1c5762023ab18083048181029381159282860414831715614c1c576151db946151ac91615165565b906151c96151be6105b4840484615165565b618eac840490615158565b61016d95869162023ab0850490615165565b0492610190808302928304141715614c1c576151f79083615158565b938281029081048303614c1c5782606461521b615223936152299660021c90615158565b910490615165565b90615165565b80600502600581048203614c1c5760028101809111614c1c5760999004908160990290609982048303614c1c5760028201809211614c1c57600561526e920490615165565b60018101809111614c1c57906000600a8210156152ab575060038101809111614c1c57915b600283111561529e57565b926152a890614c0d565b92565b60081982019182116152be575091615293565b634e487b7160e01b81526011600452602490fdfea2646970667358221220cb44f294f63133ff4921c6181395278dc1f0e987761a759c2513c7a478bba24164736f6c63430008130033",
  "immutableReferences": {
    "277": [
      {
        "length": 32,
        "start": 14289
      },
      {
        "length": 32,
        "start": 17398
      }
    ],
    "279": [
      {
        "length": 32,
        "start": 14230
      }
    ],
    "407": [
      {
        "length": 32,
        "start": 924
      },
      {
        "length": 32,
        "start": 1516
      },
      {
        "length": 32,
        "start": 3713
      },
      {
        "length": 32,
        "start": 4542
      },
      {
        "length": 32,
        "start": 12076
      },
      {
        "length": 32,
        "start": 12326
      },
      {
        "length": 32,
        "start": 14981
      },
      {
        "length": 32,
        "start": 15076
      },
      {
        "length": 32,
        "start": 16482
      },
      {
        "length": 32,
        "start": 17281
      }
    ]
  },
  "source": "// SPDX-License-Identifier: MIT\r\npragma solidity ^0.8.0;\r\n\r\n// Interface for Groth16Verifier generated from regCheck circuit (Verifier.sol)\r\n// Public signals order:\r\n//   [0] ageThreshold\r\n//   [1] nullifierHash      Poseidon(voterSecret, electionId)\r\n//   [2] electionId\r\n//   [3] voterCommitment    Poseidon(voterAddress, voterSecret)\r\n//   [4] currentYear\r\n//   [5] currentMonth\r\n//   [6] currentDay\r\n//   [7] numCandidates      approved candidate count\r\n//   [8] choiceCommitment   Poseidon(candidateIndex, voterSecret, electionId)\r\n//   [9] payloadHash        Hash of the IPFS CID (Mempool binding)\r\ninterface IVoteVerifier {\r\n    function verifyProof(\r\n        uint[2] calldata _pA,\r\n        uint[2][2] calldata _pB,\r\n        uint[2] calldata _pC,\r\n        uint[10] calldata _pubSignals\r\n    ) external view returns (bool);\r\n}\r\n\r\n// ── Custom errors (much cheaper in deployed bytecode than require string literals) ──\r\nerror Unauthorized();\r\nerror NotAdmin();\r\nerror NotTrustee();\r\nerror ZeroAddress();\r\nerror AlreadyRegistered();\r\nerror ICAlreadyUsed();\r\nerror EmailAlreadyUsed();\r\nerror NotRegistered();\r\nerror NotPending();\r\nerror NotVerified();\r\nerror NoVerifier();\r\nerror InvalidAge();\r\nerror InvalidElectionId();\r\nerror InvalidCommitment();\r\nerror InvalidDate();\r\nerror ProofFailed();\r\nerror AlreadyVoted();\r\nerror NotInNominationWindow();\r\nerror ElectionNotFound();\r\nerror ElectionNotOpen();\r\nerror EmptyInput();\r\nerror KeyNotSet();\r\nerror AlreadyKeySet();\r\nerror AlreadyCommitted();\r\nerror CandidateCountMismatch();\r\nerror TallyHashMismatch();\r\nerror TallyNotStored();\r\nerror AlreadyPublished();\r\nerror ElectionNotEnded();\r\nerror NoVotesCast();\r\nerror AlreadyProcessed();\r\nerror ElectionAlreadyStarted();\r\nerror InvalidThreshold();\r\nerror InsufficientTrustees();\r\nerror ThresholdTooLarge();\r\nerror TimingError();\r\nerror ShareNotCommitted();\r\nerror ThresholdNotMet();\r\nerror PDHashMismatch();\r\n\r\ncontract Contract {\r\n    // ===== PHASE 1: Paillier & Trustee Management =====\r\n    struct Trustee {\r\n        address walletAddress;\r\n        bytes32 shareCommitment;  // Hash of the secret share\r\n        bool hasSubmittedCommitment;\r\n        uint256 registeredAt;\r\n    }\r\n\r\n    // Paillier Public Key Storage\r\n    string public paillierPublicKeyN;  // Stored as string to handle large numbers\r\n    bool public isPaillierKeySet;\r\n    \r\n    // Trustee Management\r\n    address[] public trusteeAddresses;\r\n    mapping(address => Trustee) public trustees;\r\n    uint256 public immutable threshold;  // Minimum trustees needed for decryption\r\n    uint256 public immutable numTrustees;  // Total number of trustees\r\n    \r\n    event PaillierPublicKeySet(string publicKeyN, uint256 timestamp);\r\n    event TrusteeRegistered(address indexed trusteeAddress, uint256 timestamp);\r\n    event ShareCommitmentSubmitted(address indexed trusteeAddress, bytes32 commitment, uint256 timestamp);\r\n    \r\n    // ===== EXISTING STRUCTS =====\r\n    struct Voter {\r\n        address wallet;\r\n        bytes32 nameHash;\r\n        bytes32 icHash;\r\n        bytes32 emailHash;\r\n        uint8 status;       // 0=PENDING_VERIFICATION, 1=VERIFIED\r\n        bytes32 verificationCode;\r\n        uint256 registeredAt;\r\n        uint256 verifiedAt;\r\n        bool isRegistered;\r\n    }\r\n\r\n    struct Candidate {\r\n        address wallet;\r\n        string name;\r\n        bytes32 icHash;\r\n        string email;\r\n        string party;\r\n        string manifesto;\r\n        uint8 status;       // 0=PENDING_VERIFICATION, 1=VERIFIED\r\n        bytes32 verificationCode;\r\n        uint256 registeredAt;\r\n        uint256 verifiedAt;\r\n        bool isRegistered;\r\n    }\r\n\r\n    struct Organizer {\r\n        address wallet;\r\n        string organizationName;\r\n        bytes32 emailHash;\r\n        string description;\r\n        uint8 status;       // 0=PENDING, 1=APPROVED, 2=REJECTED\r\n        uint256 registeredAt;\r\n        bool isRegistered;\r\n    }\r\n\r\n    struct Election {\r\n        uint256 id;\r\n        string title;\r\n        string description;\r\n        address organizer;\r\n        uint256 nominationStartTime;\r\n        uint256 nominationEndTime;\r\n        uint256 startTime;\r\n        uint256 endTime;\r\n        bool isActive;\r\n        uint256 createdAt;\r\n        uint256 totalVotes;\r\n        string encryptedTally;  // Homomorphically aggregated encrypted total\r\n        bool tallyStored;\r\n        // ===== PHASE 4 =====\r\n        string decryptedResult;  // JSON-encoded decrypted tally per candidate\r\n        bool resultsPublished;\r\n    }\r\n    \r\n    // ===== PHASE 2: Encrypted Voting =====\r\n    event EncryptedTallyStored(\r\n        uint256 indexed electionId,\r\n        string encryptedTally,\r\n        uint256 totalVotesCounted,\r\n        uint256 timestamp\r\n    );\r\n    \r\n    // ===== PHASE 4 Events =====\r\n    event ResultsPublished(\r\n        uint256 indexed electionId,\r\n        string decryptedResult,\r\n        uint256 timestamp\r\n    );\r\n\r\n    // ===== STATE VARIABLES =====\r\n    address public immutable admin;\r\n    address[] private voterAddresses;\r\n    address[] private candidateAddresses;\r\n    address[] private organizerList;\r\n    \r\n    uint256 private electionCounter;\r\n    uint256[] private electionIds;\r\n    mapping(uint256 => Election) public elections;\r\n\r\n    mapping(bytes32 => bool) private usedICs;\r\n    mapping(bytes32 => bool) private usedEmails;\r\n\r\n    mapping(address => Voter) public voters;\r\n    mapping(address => Candidate) public candidates;\r\n    mapping(address => Organizer) public organizers;\r\n    \r\n    // Election-scoped candidacy (Phase 3 & 4)\r\n    mapping(uint256 => address[]) private electionCandidateApplicants;\r\n    mapping(uint256 => mapping(address => uint8)) public candidateApplicationStatus;\r\n    \r\n    // ===== ZKP VOTING =====\r\n    IVoteVerifier public voteVerifier;\r\n    // Poseidon commitment: H(voterAddress, voterSecret) — stored during voter verification\r\n    mapping(bytes32 => bool) public voterCommitments;\r\n    // Nullifier: H(voterSecret, electionId) — prevents double voting anonymously\r\n    mapping(uint256 => mapping(bytes32 => bool)) public nullifierUsed;\r\n    // Anonymous vote storage: electionId => nullifier => ipfsCID\r\n    mapping(uint256 => mapping(bytes32 => string)) private zkpVotes;\r\n    // Nullifiers list per election (for tally)\r\n    mapping(uint256 => bytes32[]) private zkpVoteNullifiers;\r\n    // Choice commitment: electionId => nullifier => choiceCommitment\r\n    // Binds the encrypted ballot to a proven valid candidateIndex\r\n    mapping(uint256 => mapping(bytes32 => bytes32)) public voteChoiceCommitments;\r\n\r\n    event VoterCommitmentStored(bytes32 indexed commitment, uint256 timestamp);\r\n    event ZKPVoteCast(\r\n        uint256 indexed electionId,\r\n        bytes32 indexed nullifierHash,\r\n        bytes32 indexed choiceCommitment,\r\n        uint256 timestamp\r\n    );\r\n\r\n    constructor(address[] memory _trusteeAddresses, uint256 _threshold) {\r\n        if (_trusteeAddresses.length < 2) revert InsufficientTrustees();\r\n        if (_threshold < 2) revert InvalidThreshold();\r\n        if (_threshold > _trusteeAddresses.length) revert ThresholdTooLarge();\r\n        \r\n        admin = msg.sender;\r\n        trusteeAddresses = _trusteeAddresses;\r\n        threshold = _threshold;\r\n        numTrustees = _trusteeAddresses.length;\r\n        \r\n        // Register trustees\r\n        for (uint256 i = 0; i < _trusteeAddresses.length; i++) {\r\n            address trusteeAddr = _trusteeAddresses[i];\r\n            if (trusteeAddr == address(0)) revert ZeroAddress();\r\n            \r\n            trustees[trusteeAddr] = Trustee({\r\n                walletAddress: trusteeAddr,\r\n                shareCommitment: bytes32(0),\r\n                hasSubmittedCommitment: false,\r\n                registeredAt: block.timestamp\r\n            });\r\n            \r\n            emit TrusteeRegistered(trusteeAddr, block.timestamp);\r\n        }\r\n    }\r\n\r\n    modifier onlyAdmin() {\r\n        if (msg.sender != admin) revert NotAdmin();\r\n        _;\r\n    }\r\n    \r\n    modifier onlyTrustee() {\r\n        if (trustees[msg.sender].walletAddress == address(0)) revert NotTrustee();\r\n        _;\r\n    }\r\n\r\n    // Set ZKP Vote Verifier contract (VoteWithICAgeCheck verifier)\r\n    function setVoteVerifier(address _voteVerifier) external onlyAdmin {\r\n        if (_voteVerifier == address(0)) revert ZeroAddress();\r\n        voteVerifier = IVoteVerifier(_voteVerifier);\r\n    }\r\n\r\n    // ===== PHASE 1: Paillier & Trustee Functions =====\r\n    \r\n    /**\r\n     * @dev Set the Paillier public key (can only be set once by admin)\r\n     * @param _publicKeyN The public key modulus N as a string\r\n     */\r\n    function setPaillierPublicKey(string calldata _publicKeyN) external onlyAdmin {\r\n        if (isPaillierKeySet) revert AlreadyKeySet();\r\n        if (bytes(_publicKeyN).length == 0) revert EmptyInput();\r\n        \r\n        paillierPublicKeyN = _publicKeyN;\r\n        isPaillierKeySet = true;\r\n        \r\n        emit PaillierPublicKeySet(_publicKeyN, block.timestamp);\r\n    }\r\n    \r\n    /**\r\n     * @dev Submit a commitment (hash) of a trustee's secret share.\r\n     *      Can be called by the trustee themselves, or by admin (e.g. during automated setup).\r\n     * @param _trustee    Address of the trustee whose commitment is being submitted\r\n     * @param _commitment Hash of the secret share (keccak256 of share data)\r\n     */\r\n    function submitShareCommitment(address _trustee, bytes32 _commitment) external {\r\n        if (msg.sender != admin && msg.sender != _trustee) revert Unauthorized();\r\n        if (trustees[_trustee].walletAddress == address(0)) revert NotTrustee();\r\n        if (trustees[_trustee].hasSubmittedCommitment) revert AlreadyCommitted();\r\n        if (_commitment == bytes32(0)) revert EmptyInput();\r\n\r\n        trustees[_trustee].shareCommitment = _commitment;\r\n        trustees[_trustee].hasSubmittedCommitment = true;\r\n\r\n        emit ShareCommitmentSubmitted(_trustee, _commitment, block.timestamp);\r\n    }\r\n    \r\n    /**\r\n     * @dev Get Paillier public key\r\n     */\r\n    function getPaillierPublicKey() external view returns (string memory) {\r\n        if (!isPaillierKeySet) revert KeyNotSet();\r\n        return paillierPublicKeyN;\r\n    }\r\n    \r\n    /**\r\n     * @dev Get list of all trustee addresses\r\n     */\r\n    function getTrusteeAddresses() external view returns (address[] memory) {\r\n        return trusteeAddresses;\r\n    }\r\n    \r\n    /**\r\n     * @dev Check if all trustees have submitted their commitments\r\n     */\r\n    function allTrusteesCommitted() external view returns (bool) {\r\n        for (uint256 i = 0; i < trusteeAddresses.length; i++) {\r\n            if (!trustees[trusteeAddresses[i]].hasSubmittedCommitment) {\r\n                return false;\r\n            }\r\n        }\r\n        return true;\r\n    }\r\n    \r\n    /**\r\n     * @dev Get trustee information\r\n     */\r\n    function getTrusteeInfo(address _trustee) external view returns (\r\n        address walletAddress,\r\n        bytes32 shareCommitment,\r\n        bool hasSubmittedCommitment,\r\n        uint256 registeredAt\r\n    ) {\r\n        Trustee memory t = trustees[_trustee];\r\n        return (\r\n            t.walletAddress,\r\n            t.shareCommitment,\r\n            t.hasSubmittedCommitment,\r\n            t.registeredAt\r\n        );\r\n    }\r\n\r\n    // ===== PHASE 2: Encrypted Voting Functions =====\r\n    // (votes now stored anonymously by ZKP nullifier — see getZKPVote / getZKPVoteNullifiers)\r\n\r\n    function storeEncryptedTally(\r\n        uint256 _electionId,\r\n        string calldata _encryptedTally,\r\n        bytes32 _tallyInputHash   // keccak256(abi.encodePacked(cid_0, cid_1, ...)) in nullifier order\r\n    ) external {\r\n        if (elections[_electionId].id == 0) revert ElectionNotFound();\r\n        if (msg.sender != admin && msg.sender != elections[_electionId].organizer) revert Unauthorized();\r\n        if (elections[_electionId].tallyStored) revert AlreadyPublished();\r\n        if (bytes(_encryptedTally).length == 0) revert EmptyInput();\r\n        if (block.timestamp <= elections[_electionId].endTime) revert ElectionNotEnded();\r\n        \r\n        uint256 voteCount = zkpVoteNullifiers[_electionId].length;\r\n        if (voteCount == 0) revert NoVotesCast();\r\n\r\n        bytes memory packed = \"\";\r\n        for (uint256 i = 0; i < voteCount; i++) {\r\n            bytes32 nullifier = zkpVoteNullifiers[_electionId][i];\r\n            packed = abi.encodePacked(packed, zkpVotes[_electionId][nullifier]);\r\n        }\r\n        if (keccak256(packed) != _tallyInputHash) revert TallyHashMismatch();\r\n        \r\n        elections[_electionId].encryptedTally = _encryptedTally;\r\n        elections[_electionId].tallyStored = true;\r\n        elections[_electionId].totalVotes = voteCount;\r\n        \r\n        emit EncryptedTallyStored(_electionId, _encryptedTally, voteCount, block.timestamp);\r\n    }\r\n\r\n    function getEncryptedTally(uint256 _electionId) external view returns (\r\n        string memory encryptedTally, uint256 totalVotes, bool tallyStored\r\n    ) {\r\n        if (elections[_electionId].id == 0) revert ElectionNotFound();\r\n        return (elections[_electionId].encryptedTally, elections[_electionId].totalVotes, elections[_electionId].tallyStored);\r\n    }\r\n    \r\n    event VoterRegistered(\r\n        address indexed wallet,\r\n        bytes32 nameHash,\r\n        bytes32 emailHash,\r\n        uint256 timestamp\r\n    );\r\n    \r\n    event CandidateRegistered(\r\n        address indexed wallet,\r\n        string name,\r\n        string email,\r\n        uint256 timestamp\r\n    );\r\n\r\n    event OrganizerRegistered(\r\n        address indexed applicant,\r\n        string organizationName,\r\n        bytes32 emailHash,\r\n        uint256 timestamp\r\n    );\r\n\r\n    event VoterVerified(\r\n        address indexed wallet,\r\n        uint256 timestamp\r\n    );\r\n\r\n    event CandidateVerified(\r\n        address indexed wallet,\r\n        uint256 timestamp\r\n    );\r\n\r\n    event OrganizerVerified(\r\n        address indexed applicant,\r\n        uint256 timestamp\r\n    );\r\n\r\n    event OrganizerRejected(\r\n        address indexed applicant,\r\n        uint256 timestamp\r\n    );\r\n\r\n    event ElectionCreated(\r\n        uint256 indexed electionId,\r\n        string title,\r\n        address indexed organizer,\r\n        uint256 nominationStartTime,\r\n        uint256 nominationEndTime,\r\n        uint256 startTime,\r\n        uint256 endTime,\r\n        uint256 timestamp\r\n    );\r\n\r\n    event CandidateApplied(\r\n        uint256 indexed electionId,\r\n        address indexed candidateWallet,\r\n        uint256 timestamp\r\n    );\r\n\r\n    event CandidateApproved(\r\n        uint256 indexed electionId,\r\n        address indexed candidateWallet,\r\n        address indexed approver,\r\n        uint256 timestamp\r\n    );\r\n\r\n    event CandidateRejected(\r\n        uint256 indexed electionId,\r\n        address indexed candidateWallet,\r\n        address indexed rejector,\r\n        uint256 timestamp\r\n    );\r\n\r\n    // Common functions\r\n    function isICRegistered(bytes32 _icHash) external view returns (bool) {\r\n        return usedICs[_icHash];\r\n    }\r\n    \r\n    function isEmailRegistered(bytes32 _emailHash) external view returns (bool) {\r\n        return usedEmails[_emailHash];\r\n    }\r\n    \r\n    //////////////////\r\n    // Voter Logics //\r\n    //////////////////\r\n    function registerVoter(\r\n        bytes32 _nameHash,\r\n        bytes32 _icHash,\r\n        bytes32 _emailHash\r\n    ) external returns (bytes32) {\r\n        if (voters[msg.sender].isRegistered) revert AlreadyRegistered();\r\n\r\n        if (usedICs[_icHash]) revert ICAlreadyUsed();\r\n        if (usedEmails[_emailHash]) revert EmailAlreadyUsed();\r\n        \r\n        bytes32 verificationCode = keccak256(\r\n            abi.encodePacked(\r\n                msg.sender,\r\n                _nameHash,\r\n                _icHash,\r\n                _emailHash,\r\n                block.timestamp\r\n            )\r\n        );\r\n        voters[msg.sender] = Voter({\r\n            wallet: msg.sender,\r\n            nameHash: _nameHash,\r\n            icHash: _icHash,\r\n            emailHash: _emailHash,\r\n            status: 0,\r\n            verificationCode: verificationCode,\r\n            registeredAt: block.timestamp,\r\n            verifiedAt: 0,\r\n            isRegistered: true\r\n        });\r\n        voterAddresses.push(msg.sender);\r\n        usedICs[_icHash] = true;\r\n        usedEmails[_emailHash] = true;\r\n        \r\n        emit VoterRegistered(msg.sender, _nameHash, _emailHash, block.timestamp);\r\n        \r\n        return verificationCode;\r\n    }\r\n    \r\n    // Shared internal validation for registration-time ZKP proofs (regCheck circuit, electionId=0).\r\n    function _validateRegZKPSignals(\r\n        uint[2] calldata _pA,\r\n        uint[2][2] calldata _pB,\r\n        uint[2] calldata _pC,\r\n        uint[10] calldata _pubSignals\r\n    ) internal view {\r\n        if (address(voteVerifier) == address(0)) revert NoVerifier();\r\n        if (_pubSignals[0] != 18) revert InvalidAge();\r\n        if (_pubSignals[2] != 0) revert InvalidElectionId();\r\n        if (_pubSignals[3] == 0) revert InvalidCommitment();\r\n        (uint256 y, uint256 m, uint256 d) = _timestampToDate(block.timestamp);\r\n        if (_pubSignals[4] != y) revert InvalidDate();\r\n        if (_pubSignals[5] != m) revert InvalidDate();\r\n        if (_pubSignals[6] != d) revert InvalidDate();\r\n        if (!voteVerifier.verifyProof(_pA, _pB, _pC, _pubSignals)) revert ProofFailed();\r\n    }\r\n\r\n    // ZKP-based verification for voters (uses regCheck circuit — Verifier.sol)\r\n    // electionId must be 0 (registration sentinel); numCandidates=1, candidateIndex=0 (dummy).\r\n    function verifyVoterWithZKP(\r\n        uint[2] calldata _pA,\r\n        uint[2][2] calldata _pB,\r\n        uint[2] calldata _pC,\r\n        uint[10] calldata _pubSignals\r\n    ) external {\r\n        if (!voters[msg.sender].isRegistered) revert NotRegistered();\r\n        if (voters[msg.sender].status != 0) revert NotPending();\r\n        _validateRegZKPSignals(_pA, _pB, _pC, _pubSignals);\r\n        bytes32 commitment = bytes32(_pubSignals[3]);\r\n        if (!voterCommitments[commitment]) {\r\n            voterCommitments[commitment] = true;\r\n            emit VoterCommitmentStored(commitment, block.timestamp);\r\n        }\r\n        voters[msg.sender].status = 1;\r\n        voters[msg.sender].verifiedAt = block.timestamp;\r\n        emit VoterVerified(msg.sender, block.timestamp);\r\n    }\r\n\r\n    function isVoterRegistered(address _wallet) external view returns (bool) {\r\n        return voters[_wallet].isRegistered;\r\n    }\r\n\r\n    // Combined function to check if a wallet is registered as voter or candidate\r\n    function isWalletRegistered(address _wallet) external view returns (bool) {\r\n        return voters[_wallet].isRegistered || candidates[_wallet].isRegistered;\r\n    }\r\n\r\n    function getAllVoterAddresses() external view returns (address[] memory) {\r\n        return voterAddresses;\r\n    }\r\n\r\n    function getTotalRegisteredVoters() external view returns (uint256) {\r\n        return voterAddresses.length;\r\n    }\r\n    \r\n    function getVoterInfo(address _wallet) external view returns (\r\n        bytes32 nameHash,\r\n        bytes32 emailHash,\r\n        string memory status,\r\n        uint256 registeredAt,\r\n        uint256 verifiedAt\r\n    ) {\r\n        if (!voters[_wallet].isRegistered) revert NotRegistered();\r\n        \r\n        Voter memory voter = voters[_wallet];\r\n        return (\r\n            voter.nameHash,\r\n            voter.emailHash,\r\n            voter.status == 1 ? \"VERIFIED\" : \"PENDING_VERIFICATION\",\r\n            voter.registeredAt,\r\n            voter.verifiedAt\r\n        );\r\n    }\r\n    \r\n    function registerCandidate(\r\n        string calldata _name,\r\n        bytes32 _icHash,\r\n        string calldata _email,\r\n        string calldata _party,\r\n        string calldata _manifesto\r\n    ) external returns (bytes32) {\r\n        if (candidates[msg.sender].isRegistered) revert AlreadyRegistered();\r\n\r\n        bytes32 _emailHash = keccak256(abi.encodePacked(_email));\r\n        if (usedICs[_icHash]) revert ICAlreadyUsed();\r\n        if (usedEmails[_emailHash]) revert EmailAlreadyUsed();\r\n\r\n        bytes32 verificationCode = keccak256(\r\n            abi.encodePacked(\r\n                msg.sender,\r\n                _name,\r\n                _icHash,\r\n                _emailHash,\r\n                block.timestamp\r\n            )\r\n        );\r\n        candidates[msg.sender] = Candidate({\r\n            wallet: msg.sender,\r\n            name: _name,\r\n            icHash: _icHash,\r\n            email: _email,\r\n            party: _party,\r\n            manifesto: _manifesto,\r\n            status: 0,\r\n            verificationCode: verificationCode,\r\n            registeredAt: block.timestamp,\r\n            verifiedAt: 0,\r\n            isRegistered: true\r\n        });\r\n        candidateAddresses.push(msg.sender);\r\n        usedICs[_icHash] = true;\r\n        usedEmails[_emailHash] = true;\r\n        \r\n        emit CandidateRegistered(msg.sender, _name, _email, block.timestamp);\r\n        \r\n        return verificationCode;\r\n    }\r\n    \r\n    // ZKP-based verification for candidates (same regCheck circuit, electionId=0)\r\n    // numCandidates=1, candidateIndex=0 used as dummy values during registration.\r\n    function verifyCandidateWithZKP(\r\n        uint[2] calldata _pA,\r\n        uint[2][2] calldata _pB,\r\n        uint[2] calldata _pC,\r\n        uint[10] calldata _pubSignals\r\n    ) external {\r\n        if (!candidates[msg.sender].isRegistered) revert NotRegistered();\r\n        if (candidates[msg.sender].status != 0) revert NotPending();\r\n        _validateRegZKPSignals(_pA, _pB, _pC, _pubSignals);\r\n        candidates[msg.sender].status = 1;\r\n        candidates[msg.sender].verifiedAt = block.timestamp;\r\n        emit CandidateVerified(msg.sender, block.timestamp);\r\n    }\r\n\r\n    function isCandidateRegistered(address _wallet) external view returns (bool) {\r\n        return candidates[_wallet].isRegistered;\r\n    }\r\n    \r\n    function getAllCandidateAddresses() external view returns (address[] memory) {\r\n        return candidateAddresses;\r\n    }\r\n    \r\n    function getCandidateInfo(address _wallet) external view returns (\r\n        string memory name,\r\n        string memory email,\r\n        string memory party,\r\n        string memory manifesto,\r\n        string memory status,\r\n        uint256 registeredAt,\r\n        uint256 verifiedAt\r\n    ) {\r\n        if (!candidates[_wallet].isRegistered) revert NotRegistered();\r\n\r\n        Candidate memory candidate = candidates[_wallet];\r\n        return (\r\n            candidate.name,\r\n            candidate.email,\r\n            candidate.party,\r\n            candidate.manifesto,\r\n            candidate.status == 1 ? \"VERIFIED\" : \"PENDING_VERIFICATION\",\r\n            candidate.registeredAt,\r\n            candidate.verifiedAt\r\n        );\r\n    }\r\n\r\n    function registerOrganizer(\r\n        string calldata _organizationName,\r\n        bytes32 _emailHash,\r\n        string calldata _description\r\n    ) external returns (bool) {\r\n        if (organizers[msg.sender].isRegistered) revert AlreadyRegistered();\r\n        if (bytes(_organizationName).length == 0) revert EmptyInput();\r\n        \r\n        organizers[msg.sender] = Organizer({\r\n            wallet: msg.sender,\r\n            organizationName: _organizationName,\r\n            emailHash: _emailHash,\r\n            description: _description,\r\n            status: 0,\r\n            registeredAt: block.timestamp,\r\n            isRegistered: true\r\n        });\r\n        \r\n        organizerList.push(msg.sender);\r\n        \r\n        emit OrganizerRegistered(msg.sender, _organizationName, _emailHash, block.timestamp);\r\n        \r\n        return true;\r\n    }\r\n\r\n    function verifyOrganizer(address _applicant) external onlyAdmin returns (bool) {\r\n        if (!organizers[_applicant].isRegistered) revert NotRegistered();\r\n        if (organizers[_applicant].status != 0) revert AlreadyProcessed();\r\n        \r\n        organizers[_applicant].status = 1;\r\n        \r\n        emit OrganizerVerified(_applicant, block.timestamp);\r\n        \r\n        return true;\r\n    }\r\n\r\n    function getOrganizerInfo(address _applicant) external view returns (\r\n        string memory organizationName,\r\n        bytes32 emailHash,\r\n        string memory description,\r\n        string memory status,\r\n        uint256 registeredAt\r\n    ) {\r\n        if (!organizers[_applicant].isRegistered) revert NotRegistered();\r\n        \r\n        Organizer memory org = organizers[_applicant];\r\n        string memory statusStr = org.status == 1 ? \"APPROVED\" : (org.status == 2 ? \"REJECTED\" : \"PENDING\");\r\n        return (\r\n            org.organizationName,\r\n            org.emailHash,\r\n            org.description,\r\n            statusStr,\r\n            org.registeredAt\r\n        );\r\n    }\r\n\r\n    function getAllOrganizers() external view returns (address[] memory) {\r\n        return organizerList;\r\n    }\r\n\r\n    function getPendingOrganizers() external view returns (address[] memory) {\r\n        uint256 pendingCount = 0;\r\n        for (uint256 i = 0; i < organizerList.length; i++) {\r\n            if (organizers[organizerList[i]].status == 0) {\r\n                pendingCount++;\r\n            }\r\n        }\r\n        \r\n        address[] memory pending = new address[](pendingCount);\r\n        uint256 currentIndex = 0;\r\n        \r\n        for (uint256 i = 0; i < organizerList.length; i++) {\r\n            if (organizers[organizerList[i]].status == 0) {\r\n                pending[currentIndex] = organizerList[i];\r\n                currentIndex++;\r\n            }\r\n        }\r\n        \r\n        return pending;\r\n    }\r\n\r\n    function isOrganizer(address _address) public view returns (bool) {\r\n        return organizers[_address].isRegistered && organizers[_address].status == 1;\r\n    }\r\n\r\n    function isOrganizerRegistered(address _address) external view returns (bool) {\r\n        return organizers[_address].isRegistered;\r\n    }\r\n\r\n    function isAdmin(address _address) external view returns (bool) {\r\n        return _address == admin;\r\n    }\r\n\r\n    function createElection(\r\n        string calldata _title,\r\n        string calldata _description,\r\n        uint256 _nominationStartTime,\r\n        uint256 _nominationEndTime,\r\n        uint256 _startTime,\r\n        uint256 _endTime\r\n    ) external returns (uint256) {\r\n        if (!isOrganizer(msg.sender)) revert Unauthorized();\r\n        if (bytes(_title).length == 0) revert EmptyInput();\r\n        if (_nominationStartTime <= block.timestamp) revert TimingError();\r\n        if (_nominationEndTime <= _nominationStartTime) revert TimingError();\r\n        if (_startTime <= _nominationEndTime) revert TimingError();\r\n        if (_endTime <= _startTime) revert TimingError();\r\n        electionCounter++;\r\n        uint256 newElectionId = electionCounter;\r\n        elections[newElectionId] = Election({\r\n            id: newElectionId,\r\n            title: _title,\r\n            description: _description,\r\n            organizer: msg.sender,\r\n            nominationStartTime: _nominationStartTime,\r\n            nominationEndTime: _nominationEndTime,\r\n            startTime: _startTime,\r\n            endTime: _endTime,\r\n            isActive: true,\r\n            createdAt: block.timestamp,\r\n            totalVotes: 0,\r\n            encryptedTally: \"\",\r\n            tallyStored: false,\r\n            decryptedResult: \"\",\r\n            resultsPublished: false\r\n        });\r\n        electionIds.push(newElectionId);\r\n        \r\n        emit ElectionCreated(\r\n            newElectionId,\r\n            _title,\r\n            msg.sender,\r\n            _nominationStartTime,\r\n            _nominationEndTime,\r\n            _startTime,\r\n            _endTime,\r\n            block.timestamp\r\n        );\r\n        \r\n        return newElectionId;\r\n    }\r\n    \r\n    function getElectionInfo(uint256 _electionId) external view returns (\r\n        string memory title,\r\n        string memory description,\r\n        address organizer,\r\n        uint256 nominationStartTime,\r\n        uint256 nominationEndTime,\r\n        uint256 startTime,\r\n        uint256 endTime,\r\n        bool isActive,\r\n        uint256 createdAt\r\n    ) {\r\n        if (_electionId == 0 || _electionId > electionCounter) revert ElectionNotFound();\r\n        \r\n        Election memory election = elections[_electionId];\r\n        return (\r\n            election.title,\r\n            election.description,\r\n            election.organizer,\r\n            election.nominationStartTime,\r\n            election.nominationEndTime,\r\n            election.startTime,\r\n            election.endTime,\r\n            election.isActive,\r\n            election.createdAt\r\n        );\r\n    }\r\n    \r\n    function getAllElectionIds() external view returns (uint256[] memory) {\r\n        return electionIds;\r\n    }\r\n    \r\n    function getTotalElections() external view returns (uint256) {\r\n        return electionCounter;\r\n    }\r\n    \r\n    function getElectionsByOrganizer(address _organizer) external view returns (uint256[] memory) {\r\n        uint256 count = 0;\r\n        uint256 len = electionIds.length;\r\n        for (uint256 i = 0; i < len; i++) {\r\n            if (elections[electionIds[i]].organizer == _organizer) {\r\n                count++;\r\n            }\r\n        }\r\n        uint256[] memory organizerElections = new uint256[](count);\r\n        uint256 currentIndex = 0;\r\n        for (uint256 i = 0; i < len; i++) {\r\n            if (elections[electionIds[i]].organizer == _organizer) {\r\n                organizerElections[currentIndex] = electionIds[i];\r\n                currentIndex++;\r\n            }\r\n        }\r\n        \r\n        return organizerElections;\r\n    }\r\n    \r\n    function getActiveElections() external view returns (uint256[] memory) {\r\n        return electionIds;\r\n    }\r\n\r\n    function applyToElection(uint256 _electionId) external returns (bool) {\r\n        if (_electionId > electionCounter) revert ElectionNotFound();\r\n        Election memory election = elections[_electionId];\r\n        if (\r\n            block.timestamp < election.nominationStartTime || \r\n            block.timestamp > election.nominationEndTime\r\n        ) revert NotInNominationWindow();\r\n        if (!candidates[msg.sender].isRegistered) revert NotRegistered();\r\n        if (candidates[msg.sender].status != 1) revert NotVerified();\r\n        if (candidateApplicationStatus[_electionId][msg.sender] != 0) revert AlreadyRegistered();\r\n        candidateApplicationStatus[_electionId][msg.sender] = 1;\r\n        electionCandidateApplicants[_electionId].push(msg.sender);\r\n        \r\n        emit CandidateApplied(_electionId, msg.sender, block.timestamp);\r\n        \r\n        return true;\r\n    }\r\n    \r\n    function getElectionCandidateApplicants(uint256 _electionId) external view returns (address[] memory) {\r\n        if (_electionId > electionCounter) revert ElectionNotFound();\r\n        return electionCandidateApplicants[_electionId];\r\n    }\r\n    \r\n    function approveCandidateForElection(uint256 _electionId, address _candidateWallet) external returns (bool) {\r\n        if (_electionId > electionCounter) revert ElectionNotFound();\r\n        Election memory election = elections[_electionId];\r\n        if (msg.sender != election.organizer && msg.sender != admin) revert Unauthorized();\r\n        if (candidateApplicationStatus[_electionId][_candidateWallet] != 1) revert NotPending();\r\n        if (block.timestamp >= election.startTime) revert ElectionAlreadyStarted();\r\n        candidateApplicationStatus[_electionId][_candidateWallet] = 2;\r\n        \r\n        emit CandidateApproved(_electionId, _candidateWallet, msg.sender, block.timestamp);\r\n        \r\n        return true;\r\n    }\r\n    \r\n    function rejectCandidateForElection(uint256 _electionId, address _candidateWallet) external returns (bool) {\r\n        if (_electionId > electionCounter) revert ElectionNotFound();\r\n        Election memory election = elections[_electionId];\r\n        if (msg.sender != election.organizer && msg.sender != admin) revert Unauthorized();\r\n        if (candidateApplicationStatus[_electionId][_candidateWallet] != 1) revert NotPending();\r\n        if (block.timestamp >= election.startTime) revert ElectionAlreadyStarted();\r\n        candidateApplicationStatus[_electionId][_candidateWallet] = 3;\r\n        \r\n        emit CandidateRejected(_electionId, _candidateWallet, msg.sender, block.timestamp);\r\n        \r\n        return true;\r\n    }\r\n    \r\n    function getApprovedCandidates(uint256 _electionId) public view returns (address[] memory) {\r\n        if (_electionId > electionCounter) revert ElectionNotFound();\r\n        address[] memory applicants = electionCandidateApplicants[_electionId];\r\n        uint256 approvedCount = 0;\r\n        for (uint256 i = 0; i < applicants.length; i++) {\r\n            if (candidateApplicationStatus[_electionId][applicants[i]] == 2) {\r\n                approvedCount++;\r\n            }\r\n        }\r\n        address[] memory approved = new address[](approvedCount);\r\n        uint256 currentIndex = 0;\r\n        for (uint256 i = 0; i < applicants.length; i++) {\r\n            if (candidateApplicationStatus[_electionId][applicants[i]] == 2) {\r\n                approved[currentIndex] = applicants[i];\r\n                currentIndex++;\r\n            }\r\n        }\r\n        \r\n        return approved;\r\n    }\r\n    \r\n    /**\r\n     * @dev Cast an encrypted vote using ZKP — proves eligibility without revealing identity.\r\n     *\r\n     * Public signals order (must match VoteWithICAgeCheck circuit):\r\n     *   _pubSignals[0] = ageThreshold\r\n     *   _pubSignals[1] = nullifierHash   (H(voterSecret, electionId) — prevents double voting)\r\n     *   _pubSignals[2] = electionId\r\n     *   _pubSignals[3] = voterCommitment (H(voterAddress, voterSecret) — proves registration)\r\n     *   _pubSignals[4] = currentYear\r\n     *   _pubSignals[5] = currentMonth\r\n     *   _pubSignals[6] = currentDay\r\n     *   _pubSignals[7] = numCandidates    (approved candidate count)\r\n     *   _pubSignals[8] = choiceCommitment (Poseidon(candidateIndex, voterSecret, electionId))\r\n     *   _pubSignals[9] = payloadHash      (Hash of the IPFS CID for mempool protection)\r\n     *\r\n     * @param _electionId  Election to vote in\r\n     * @param _ipfsCID     IPFS CID of the encrypted ballot\r\n     * @param _pA          ZKP proof component A\r\n     * @param _pB          ZKP proof component B\r\n     * @param _pC          ZKP proof component C\r\n     * @param _pubSignals  10 public signals from the circuit\r\n     */\r\n    function vote(\r\n        uint256 _electionId,\r\n        string calldata _ipfsCID,\r\n        uint[2] calldata _pA,\r\n        uint[2][2] calldata _pB,\r\n        uint[2] calldata _pC,\r\n        uint[10] calldata _pubSignals\r\n    ) external returns (bool) {\r\n        if (_electionId > electionCounter) revert ElectionNotFound();\r\n        Election storage election = elections[_electionId];\r\n        if (block.timestamp < election.startTime || block.timestamp > election.endTime) revert ElectionNotOpen();\r\n        if (bytes(_ipfsCID).length == 0) revert EmptyInput();\r\n        if (!isPaillierKeySet) revert KeyNotSet();\r\n        if (address(voteVerifier) == address(0)) revert NoVerifier();\r\n\r\n        // ── 1. Mempool Front-Running Protection ──\r\n        // Ensure the ZKP is definitively bound to THIS specific ipfsCID payload.\r\n        // Convert Keccak256 hash to BN254 scalar field to match the SNARK circuit expectation.\r\n        uint256 expectedPayloadHash = uint256(keccak256(abi.encodePacked(_ipfsCID))) % 21888242871839275222246405745257275088548364400416034343698204186575808495617;\r\n        if (_pubSignals[9] != expectedPayloadHash) revert ProofFailed();\r\n\r\n        if (_pubSignals[2] != _electionId) revert InvalidElectionId();\r\n        if (_pubSignals[0] != 18) revert InvalidAge();\r\n\r\n        (uint256 blockYear, uint256 blockMonth, uint256 blockDay) = _timestampToDate(block.timestamp);\r\n        if (_pubSignals[4] != blockYear) revert InvalidDate();\r\n        if (_pubSignals[5] != blockMonth) revert InvalidDate();\r\n        if (_pubSignals[6] != blockDay) revert InvalidDate();\r\n\r\n        if (_pubSignals[7] != getApprovedCandidates(_electionId).length) revert CandidateCountMismatch();\r\n\r\n        bytes32 nullifier = bytes32(_pubSignals[1]);\r\n        if (nullifierUsed[_electionId][nullifier]) revert AlreadyVoted();\r\n\r\n        bytes32 commitment = bytes32(_pubSignals[3]);\r\n        if (!voterCommitments[commitment]) revert NotRegistered();\r\n\r\n        if (!voteVerifier.verifyProof(_pA, _pB, _pC, _pubSignals)) revert ProofFailed();\r\n\r\n        // Record vote anonymously (keyed by nullifier, NOT address)\r\n        bytes32 choiceCommitment = bytes32(_pubSignals[8]);\r\n        nullifierUsed[_electionId][nullifier] = true;\r\n        zkpVotes[_electionId][nullifier] = _ipfsCID;\r\n        voteChoiceCommitments[_electionId][nullifier] = choiceCommitment;\r\n        zkpVoteNullifiers[_electionId].push(nullifier);\r\n        election.totalVotes++;\r\n\r\n        emit ZKPVoteCast(_electionId, nullifier, choiceCommitment, block.timestamp);\r\n\r\n        return true;\r\n    }\r\n\r\n    /**\r\n     * @dev Convert a Unix timestamp to (year, month, day).\r\n     *      Used to validate the date embedded in the ZKP public signals.\r\n     */\r\n    function _timestampToDate(uint256 timestamp)\r\n        internal\r\n        pure\r\n        returns (uint256 year, uint256 month, uint256 day)\r\n    {\r\n        uint256 z = timestamp / 86400 + 719468;\r\n        uint256 era = z / 146097;\r\n        uint256 doe = z - era * 146097;\r\n        uint256 yoe = (doe - doe / 1460 + doe / 36524 - doe / 146096) / 365;\r\n        year = yoe + era * 400;\r\n        uint256 doy = doe - (365 * yoe + yoe / 4 - yoe / 100);\r\n        uint256 mp = (5 * doy + 2) / 153;\r\n        day = doy - (153 * mp + 2) / 5 + 1;\r\n        month = mp < 10 ? mp + 3 : mp - 9;\r\n        if (month <= 2) year++;\r\n    }\r\n\r\n    /**\r\n     * @dev Get the IPFS CID of an anonymous ZKP vote by its nullifier.\r\n     */\r\n    function getZKPVote(uint256 _electionId, bytes32 _nullifier)\r\n        external\r\n        view\r\n        returns (string memory)\r\n    {\r\n        return zkpVotes[_electionId][_nullifier];\r\n    }\r\n\r\n    /**\r\n     * @dev Get all nullifiers (anonymous voter tokens) for an election — used for tally.\r\n     */\r\n    function getZKPVoteNullifiers(uint256 _electionId)\r\n        external\r\n        view\r\n        returns (bytes32[] memory)\r\n    {\r\n        return zkpVoteNullifiers[_electionId];\r\n    }\r\n\r\n    /**\r\n     * @dev Get the choice commitment stored for a given nullifier.\r\n     *      Voter can verify their ballot by recomputing\r\n     *      Poseidon(candidateIndex, voterSecret, electionId) client-side\r\n     *      and comparing against this value — without revealing their choice on-chain.\r\n     */\r\n    function getChoiceCommitment(uint256 _electionId, bytes32 _nullifier)\r\n        external\r\n        view\r\n        returns (bytes32)\r\n    {\r\n        return voteChoiceCommitments[_electionId][_nullifier];\r\n    }\r\n\r\n    /**\r\n     * @dev Check whether a nullifier has already been used in an election.\r\n     *      Caller computes nullifier = Poseidon(voterSecret, electionId) client-side.\r\n     *      Wallet address is never stored — voting is fully anonymous.\r\n     */\r\n    \r\n    function getElectionTotalVotes(uint256 _electionId) external view returns (uint256) {\r\n        if (_electionId > electionCounter) revert ElectionNotFound();\r\n        return elections[_electionId].totalVotes;\r\n    }\r\n    \r\n    // ===== PHASE 4: Threshold Decryption & Results =====\r\n    \r\n    mapping(uint256 => mapping(address => string)) public partialDecryptions;\r\n    mapping(uint256 => address[]) public partialDecryptionSubmitters;\r\n\r\n    event PartialDecryptionSubmitted(uint256 indexed electionId, address indexed trustee);\r\n\r\n    /**\r\n     * @dev Trustees submit their partial decryptions after local computation\r\n     */\r\n    function submitPartialDecryption(uint256 _electionId, string calldata _pd) external onlyTrustee {\r\n        if (!elections[_electionId].tallyStored) revert TallyNotStored();\r\n        if (!trustees[msg.sender].hasSubmittedCommitment) revert ShareNotCommitted();\r\n        if (bytes(partialDecryptions[_electionId][msg.sender]).length == 0) {\r\n            partialDecryptionSubmitters[_electionId].push(msg.sender);\r\n        }\r\n        partialDecryptions[_electionId][msg.sender] = _pd;\r\n        emit PartialDecryptionSubmitted(_electionId, msg.sender);\r\n    }\r\n\r\n    function getPartialDecryptionSubmitters(uint256 _electionId) external view returns (address[] memory) {\r\n        return partialDecryptionSubmitters[_electionId];\r\n    }\r\n\r\n    function getPartialDecryption(uint256 _electionId, address _trustee) external view returns (string memory) {\r\n        return partialDecryptions[_electionId][_trustee];\r\n    }\r\n\r\n    /**\r\n     * @dev Publish the decrypted election results on-chain.\r\n     *      Requires that enough decryption shares have been registered.\r\n     * @param _electionId The election ID\r\n     * @param _decryptedResult JSON-encoded decrypted tally (e.g. per-candidate totals)\r\n     * @param _pdInputHash Hash of concatenated Partial Decryptions to prove integrity\r\n     */\r\n    function publishResults(uint256 _electionId, string calldata _decryptedResult, bytes32 _pdInputHash) external {\r\n        if (elections[_electionId].id == 0) revert ElectionNotFound();\r\n        if (msg.sender != admin && msg.sender != elections[_electionId].organizer) revert Unauthorized();\r\n        if (!elections[_electionId].tallyStored) revert TallyNotStored();\r\n        if (elections[_electionId].resultsPublished) revert AlreadyPublished();\r\n        if (bytes(_decryptedResult).length == 0) revert EmptyInput();\r\n        \r\n        uint256 submittedCount = partialDecryptionSubmitters[_electionId].length;\r\n        if (submittedCount < threshold) revert ThresholdNotMet();\r\n\r\n        bytes memory packed =\"\";\r\n        for (uint256 i = 0; i < submittedCount; i++) {\r\n            address trusteeAddr = partialDecryptionSubmitters[_electionId][i];\r\n            packed = abi.encodePacked(packed, partialDecryptions[_electionId][trusteeAddr]);\r\n        }\r\n        if (keccak256(packed) != _pdInputHash) revert PDHashMismatch();\r\n        \r\n        elections[_electionId].decryptedResult = _decryptedResult;\r\n        elections[_electionId].resultsPublished = true;\r\n        \r\n        emit ResultsPublished(_electionId, _decryptedResult, block.timestamp);\r\n    }\r\n    \r\n    /**\r\n     * @dev Get the published results for an election\r\n     * @param _electionId The election ID\r\n     */\r\n    function getResults(uint256 _electionId) external view returns (\r\n        string memory decryptedResult,\r\n        bool resultsPublished,\r\n        uint256 shareCount\r\n    ) {\r\n        if (elections[_electionId].id == 0) revert ElectionNotFound();\r\n        return (\r\n            elections[_electionId].decryptedResult,\r\n            elections[_electionId].resultsPublished,\r\n            partialDecryptionSubmitters[_electionId].length\r\n        );\r\n    }\r\n    \r\n}\r\n",
  "sourcePath": "C:\\Users\\ASUS\\Projects\\BlockVote\\smart-contract\\contracts\\contract.sol",
  "compiler": {
    "name": "solc",
    "version": "0.8.19+commit.7dd6d404.Emscripten.clang"
  },
  "schemaVersion": "3.4.16",
  "updatedAt": "2026-03-22T07:45:16.570Z",
  "networkType": "ethereum",
  "devdoc": {
    "kind": "dev",
    "methods": {
      "allTrusteesCommitted()": {
        "details": "Check if all trustees have submitted their commitments"
      },
      "getChoiceCommitment(uint256,bytes32)": {
        "details": "Get the choice commitment stored for a given nullifier.      Voter can verify their ballot by recomputing      Poseidon(candidateIndex, voterSecret, electionId) client-side      and comparing against this value — without revealing their choice on-chain."
      },
      "getElectionTotalVotes(uint256)": {
        "details": "Check whether a nullifier has already been used in an election.      Caller computes nullifier = Poseidon(voterSecret, electionId) client-side.      Wallet address is never stored — voting is fully anonymous."
      },
      "getPaillierPublicKey()": {
        "details": "Get Paillier public key"
      },
      "getResults(uint256)": {
        "details": "Get the published results for an election",
        "params": {
          "_electionId": "The election ID"
        }
      },
      "getTrusteeAddresses()": {
        "details": "Get list of all trustee addresses"
      },
      "getTrusteeInfo(address)": {
        "details": "Get trustee information"
      },
      "getZKPVote(uint256,bytes32)": {
        "details": "Get the IPFS CID of an anonymous ZKP vote by its nullifier."
      },
      "getZKPVoteNullifiers(uint256)": {
        "details": "Get all nullifiers (anonymous voter tokens) for an election — used for tally."
      },
      "publishResults(uint256,string,bytes32)": {
        "details": "Publish the decrypted election results on-chain.      Requires that enough decryption shares have been registered.",
        "params": {
          "_decryptedResult": "JSON-encoded decrypted tally (e.g. per-candidate totals)",
          "_electionId": "The election ID",
          "_pdInputHash": "Hash of concatenated Partial Decryptions to prove integrity"
        }
      },
      "setPaillierPublicKey(string)": {
        "details": "Set the Paillier public key (can only be set once by admin)",
        "params": {
          "_publicKeyN": "The public key modulus N as a string"
        }
      },
      "submitPartialDecryption(uint256,string)": {
        "details": "Trustees submit their partial decryptions after local computation"
      },
      "submitShareCommitment(address,bytes32)": {
        "details": "Submit a commitment (hash) of a trustee's secret share.      Can be called by the trustee themselves, or by admin (e.g. during automated setup).",
        "params": {
          "_commitment": "Hash of the secret share (keccak256 of share data)",
          "_trustee": "Address of the trustee whose commitment is being submitted"
        }
      },
      "vote(uint256,string,uint256[2],uint256[2][2],uint256[2],uint256[10])": {
        "details": "Cast an encrypted vote using ZKP — proves eligibility without revealing identity. Public signals order (must match VoteWithICAgeCheck circuit):   _pubSignals[0] = ageThreshold   _pubSignals[1] = nullifierHash   (H(voterSecret, electionId) — prevents double voting)   _pubSignals[2] = electionId   _pubSignals[3] = voterCommitment (H(voterAddress, voterSecret) — proves registration)   _pubSignals[4] = currentYear   _pubSignals[5] = currentMonth   _pubSignals[6] = currentDay   _pubSignals[7] = numCandidates    (approved candidate count)   _pubSignals[8] = choiceCommitment (Poseidon(candidateIndex, voterSecret, electionId))   _pubSignals[9] = payloadHash      (Hash of the IPFS CID for mempool protection)",
        "params": {
          "_electionId": "Election to vote in",
          "_ipfsCID": "IPFS CID of the encrypted ballot",
          "_pA": "ZKP proof component A",
          "_pB": "ZKP proof component B",
          "_pC": "ZKP proof component C",
          "_pubSignals": "10 public signals from the circuit"
        }
      }
    },
    "version": 1
  },
  "userdoc": {
    "kind": "user",
    "methods": {},
    "version": 1
  }
}