{
  "contractName": "Groth16Verifier",
  "abi": [
    {
      "inputs": [
        {
          "internalType": "uint256[2]",
          "name": "_pA",
          "type": "uint256[2]"
        },
        {
          "internalType": "uint256[2][2]",
          "name": "_pB",
          "type": "uint256[2][2]"
        },
        {
          "internalType": "uint256[2]",
          "name": "_pC",
          "type": "uint256[2]"
        },
        {
          "internalType": "uint256[9]",
          "name": "_pubSignals",
          "type": "uint256[9]"
        }
      ],
      "name": "verifyProof",
      "outputs": [
        {
          "internalType": "bool",
          "name": "",
          "type": "bool"
        }
      ],
      "stateMutability": "view",
      "type": "function",
      "constant": true
    }
  ],
  "bytecode": "0x6080806040523461001657610975908161001c8239f35b600080fdfe6080604052600436101561001257600080fd5b6000803560e01c63c542c93b1461002857600080fd5b3461040f576102208060031936011261040b5761004436610412565b903660c4116104075761005636610424565b913661022411610403576104006040526101043561007381610432565b6101243561008081610432565b6101443561008d81610432565b6101643561009a81610432565b610184356100a781610432565b6101a435916100b583610432565b6101c435936100c385610432565b6101e435956100d187610432565b61020435976100df89610432565b7f015dba63d09c67165f6ab7f2fd7b37d8a719cb93d7b26f8579840935dee92dec6080527f03edbd6f9e5ac44b5d87c87db63d22c586b201f38ce0a96ba14cfdc96e8a562960a05261013090610465565b610139906104ef565b61014290610579565b61014b90610603565b6101549061068d565b61015d90610717565b610166906107a1565b61016f9061082b565b610178906108b5565b6101009283928284933584527f30644e72e131a029b85045b68181585d97816a916871ca8d3c208c16d87cfd4790602001358103066101205260443561014052606435610160526084356101805260a4356101a0527f0352d1fe0c0453427d5bf0eecd054a1411324bbc9c33445cb1576dbea91a7e456101c0527ec8e2978440d85542a613378f2ad4a5e189999125f83d45df80f18bee96d8be6101e0527f1c49f990c9a9b353acf69a64db50fa71a9f816c0ba58de2c8fc8f3a94e02b955610200527f18eed5b568e3084cb88c5c6766bccfef2f300741b08c707751258960816c990e90527e2d586c0f7f8584e11f7d1021f453c1e27cbdf5cc6b13e78d470aa8814b8c6c610240527f1000459676d52e75f9093c4697351b53a9049af7d76f77bc9159f94de91f13c1610260526080516102805260a0516102a0527f198e9393920d483a7260bfb731fb5d25f1aa493335a9e71297e485b7aef312c26102c0527f1800deef121f1e76426a00665e5c4479674322d4f75edadd46debd5cd992f6ed6102e052610300907f090689d0585ff075ec9e99ad690c3395bc4b313370b38ef355acdadcd122975b82527f12c85ea5db8c6deb4aab71808dcb408fe3d1e7690c43d37b4ce6cc0166fa7daa6103205280356103405260200135610360527f2def4f036bd4e3128ae72f6c48b99d5ac15ead5717fa0b44723885e3ccd9a450610380527f163d721bd3a769a01f6c088662ba93c2c0756c852ddb0c717479ba17eca0e8dc6103a0527e49f29028ac52af1a02e029df8da19cb6ceb4fe8bc440229e1ce6fb575e123a6103c0527f1baf76e098ca76203fc17c36c085f28e7106b8b8dc53a12a975104504dabee256103e0526107cf195a01926008602094fa9051168152602090f35b8380fd5b8280fd5b5080fd5b80fd5b9060049160441161041f57565b600080fd5b9060c4916101041161041f57565b7f30644e72e131a029b85045b68181585d2833e84879b9709143e1f593f0000001111561045b57565b6000805260206000f35b604051907f29b5d8742a48113571726b2085bdecbf754e801d6db66355cdaf63ea27b556a482527f0dbc7355f4447844d7bb855e6c893685f1289d42b76c48bd7a1cdc4a9b893d826020830152604082019081526107cf196040836060816007855a01fa1561045b5760409260066080939284938451905260a05160608401525a01fa1561045b57565b604051907f20e376277614a078366a14c7a906c15e4a2379fb1c591203740d0f65ecda41e482527f1d716662959aa9ea4a62f155f95fdedc10532a8cdbabdab0be0b2af6691d720e6020830152604082019081526107cf196040836060816007855a01fa1561045b5760409260066080939284938451905260a05160608401525a01fa1561045b57565b604051907f0bb6adf065a20043ec9085950cae5733aa21f668ce8aa728b876be2c0b799f9782527f0cb0b174f06196f8df73ed71098a4ca697d34e757af7eeda0a55565ca04d52756020830152604082019081526107cf196040836060816007855a01fa1561045b5760409260066080939284938451905260a05160608401525a01fa1561045b57565b604051907f153a816ed60189715191d1af489c70075b6e8d3b6c52f59dbf7e9f3b2a6e799382527f0a9d14976d3d3d90a30aecb5bb64094024c3c7000448bc77a9c7aed30fc331b66020830152604082019081526107cf196040836060816007855a01fa1561045b5760409260066080939284938451905260a05160608401525a01fa1561045b57565b604051907f0ebb86465b97074d20e5bd7ff7bf0b4bbe0b0019118b69e2986a73c90c44bfca82527f1c97fe5ee45aacf3b6ee482e186764bc05f191668e35cc0d32a4fd5d9fa28df86020830152604082019081526107cf196040836060816007855a01fa1561045b5760409260066080939284938451905260a05160608401525a01fa1561045b57565b604051907f1f1b3e857f818e667f2cb13c328cb885b649fd920ee78c14dd700c8101771dc082527f0e47d0e500c84bf1ab348860ebec29537b3b3a3f0c7f75f85ebff784227b15576020830152604082019081526107cf196040836060816007855a01fa1561045b5760409260066080939284938451905260a05160608401525a01fa1561045b57565b604051907f0f6def7137b2f06fdb874e7ff37d21d2d9135436a76acf0a84db63cefca0e5e982527f268caa53ea08f2ccab3a4779130849aa7e3b694fc598ce23c0eb35ab0c31df0d6020830152604082019081526107cf196040836060816007855a01fa1561045b5760409260066080939284938451905260a05160608401525a01fa1561045b57565b604051907f271f3ec04d508a638e769742c297226565b7f1265d97479fa9e51faea409368882527f0fdbc7725ff037ff6389408a0a73dfef71da799817319f0a8c947f956f9f27a26020830152604082019081526107cf196040836060816007855a01fa1561045b5760409260066080939284938451905260a05160608401525a01fa1561045b57565b604051907f288d3c32f4476232d5053acaaf4473bb7c8791cfefd079292a5294eb9533dd5f82527f0bc30e3fe6dd3a90caf41c8bc143fbf069b4c92988c25c591222ace6f23956d76020830152604082019081526107cf196040836060816007855a01fa1561045b5760409260066080939284938451905260a05160608401525a01fa1561045b5756fea2646970667358221220bb900e82a07d10fa672beb5f68db85dad557c576ae873c61b4406e730730cf8664736f6c63430008130033",
  "immutableReferences": {},
  "source": "// SPDX-License-Identifier: GPL-3.0\n/*\n    Copyright 2021 0KIMS association.\n\n    This file is generated with [snarkJS](https://github.com/iden3/snarkjs).\n\n    snarkJS is a free software: you can redistribute it and/or modify it\n    under the terms of the GNU General Public License as published by\n    the Free Software Foundation, either version 3 of the License, or\n    (at your option) any later version.\n\n    snarkJS is distributed in the hope that it will be useful, but WITHOUT\n    ANY WARRANTY; without even the implied warranty of MERCHANTABILITY\n    or FITNESS FOR A PARTICULAR PURPOSE. See the GNU General Public\n    License for more details.\n\n    You should have received a copy of the GNU General Public License\n    along with snarkJS. If not, see <https://www.gnu.org/licenses/>.\n*/\n\npragma solidity >=0.7.0 <0.9.0;\n\ncontract Groth16Verifier {\n    // Scalar field size\n    uint256 constant r    = 21888242871839275222246405745257275088548364400416034343698204186575808495617;\n    // Base field size\n    uint256 constant q   = 21888242871839275222246405745257275088696311157297823662689037894645226208583;\n\n    // Verification Key data\n    uint256 constant alphax  = 1503269319140086162040077356948401257072823675534257832731870190081746304581;\n    uint256 constant alphay  = 354933292509896480051346262594534699721926913856560665757705485884006521022;\n    uint256 constant betax1  = 12795462034370533210665088380102276806419135453311385023275149419847493007701;\n    uint256 constant betax2  = 11277492930183735990000253688954925593795007082713709950607060699496795904270;\n    uint256 constant betay1  = 80118384899928618294262028000533413157761184290355368919311450264291740780;\n    uint256 constant betay2  = 7237485854336739029714876782528102299622345306468941789797955178166084375489;\n    uint256 constant gammax1 = 11559732032986387107991004021392285783925812861821192530917403151452391805634;\n    uint256 constant gammax2 = 10857046999023057135944570762232829481370756359578518086990519993285655852781;\n    uint256 constant gammay1 = 4082367875863433681332203403145435568316851327593401208105741076214120093531;\n    uint256 constant gammay2 = 8495653923123431417604973247489272438418190587263600148770280649306958101930;\n    uint256 constant deltax1 = 20776899964926249628964536267262585824634053077418979483690157519329337910352;\n    uint256 constant deltax2 = 10059447889075199216591871614006210150903829661720953829236378409182779467996;\n    uint256 constant deltay1 = 130653944860446672945596194614729177413335237083829688807284833278347842106;\n    uint256 constant deltay2 = 12522465609272140606912239777389544207362513634893428533295358767650321460773;\n\n    \n    uint256 constant IC0x = 617916041432176223652206916334118898693862440312710101981582482585583955436;\n    uint256 constant IC0y = 1776988739392581090612482724004311080129247328986439983689170949376737695273;\n    \n    uint256 constant IC1x = 18866120019656292623739208482070884143638288505106643710532925322594052560548;\n    uint256 constant IC1y = 6213030297910512934755200299789596418903828252625265716039151122875553496450;\n    \n    uint256 constant IC2x = 14875900908311394780513531402329392094213527833281261645234611115593400205796;\n    uint256 constant IC2y = 13317432963191985137605456136046774010482596050584403160853337564914508460558;\n    \n    uint256 constant IC3x = 5298207983413975923241649413400949694544899743030877613755650438462162182039;\n    uint256 constant IC3y = 5739944028172483710626823432976073118260599242236178438101214167798469448309;\n    \n    uint256 constant IC4x = 9601940263416072471289803865304800126880113640444208444064775693788330752403;\n    uint256 constant IC4y = 4800665592385985441993203179635608455932543026436902437477762712035892867510;\n    \n    uint256 constant IC5x = 6663707012131572014538282174258672986847732091102819638522638684355758964682;\n    uint256 constant IC5y = 12933309268968570699717853374928897692909180934605606427254920750975672290808;\n    \n    uint256 constant IC6x = 14069834684204639554927056648865724081855746438703013792381115845405666909632;\n    uint256 constant IC6y = 6459267758915311204590089163358581873611232005546361543426408389998789989719;\n    \n    uint256 constant IC7x = 6978931628526483412135113433892264727542072384657746893211525749265433421289;\n    uint256 constant IC7y = 17436422394434381756965925234465469279743847101159936441529916785403735695117;\n    \n    uint256 constant IC8x = 17695406446480959100656081658231395507294665588703366938892318225944149571208;\n    uint256 constant IC8y = 7173008766995881337791441607662037778082190127940186862464510688678916335522;\n    \n    uint256 constant IC9x = 18342054857968113188790521990563730414115577705619891647149485537862018653535;\n    uint256 constant IC9y = 5320074859286045636604413242181742740386259390299771705065422879271627085527;\n    \n \n    // Memory data\n    uint16 constant pVk = 0;\n    uint16 constant pPairing = 128;\n\n    uint16 constant pLastMem = 896;\n\n    function verifyProof(uint[2] calldata _pA, uint[2][2] calldata _pB, uint[2] calldata _pC, uint[9] calldata _pubSignals) public view returns (bool) {\n        assembly {\n            function checkField(v) {\n                if iszero(lt(v, r)) {\n                    mstore(0, 0)\n                    return(0, 0x20)\n                }\n            }\n            \n            // G1 function to multiply a G1 value(x,y) to value in an address\n            function g1_mulAccC(pR, x, y, s) {\n                let success\n                let mIn := mload(0x40)\n                mstore(mIn, x)\n                mstore(add(mIn, 32), y)\n                mstore(add(mIn, 64), s)\n\n                success := staticcall(sub(gas(), 2000), 7, mIn, 96, mIn, 64)\n\n                if iszero(success) {\n                    mstore(0, 0)\n                    return(0, 0x20)\n                }\n\n                mstore(add(mIn, 64), mload(pR))\n                mstore(add(mIn, 96), mload(add(pR, 32)))\n\n                success := staticcall(sub(gas(), 2000), 6, mIn, 128, pR, 64)\n\n                if iszero(success) {\n                    mstore(0, 0)\n                    return(0, 0x20)\n                }\n            }\n\n            function checkPairing(pA, pB, pC, pubSignals, pMem) -> isOk {\n                let _pPairing := add(pMem, pPairing)\n                let _pVk := add(pMem, pVk)\n\n                mstore(_pVk, IC0x)\n                mstore(add(_pVk, 32), IC0y)\n\n                // Compute the linear combination vk_x\n                \n                g1_mulAccC(_pVk, IC1x, IC1y, calldataload(add(pubSignals, 0)))\n                \n                g1_mulAccC(_pVk, IC2x, IC2y, calldataload(add(pubSignals, 32)))\n                \n                g1_mulAccC(_pVk, IC3x, IC3y, calldataload(add(pubSignals, 64)))\n                \n                g1_mulAccC(_pVk, IC4x, IC4y, calldataload(add(pubSignals, 96)))\n                \n                g1_mulAccC(_pVk, IC5x, IC5y, calldataload(add(pubSignals, 128)))\n                \n                g1_mulAccC(_pVk, IC6x, IC6y, calldataload(add(pubSignals, 160)))\n                \n                g1_mulAccC(_pVk, IC7x, IC7y, calldataload(add(pubSignals, 192)))\n                \n                g1_mulAccC(_pVk, IC8x, IC8y, calldataload(add(pubSignals, 224)))\n                \n                g1_mulAccC(_pVk, IC9x, IC9y, calldataload(add(pubSignals, 256)))\n                \n\n                // -A\n                mstore(_pPairing, calldataload(pA))\n                mstore(add(_pPairing, 32), mod(sub(q, calldataload(add(pA, 32))), q))\n\n                // B\n                mstore(add(_pPairing, 64), calldataload(pB))\n                mstore(add(_pPairing, 96), calldataload(add(pB, 32)))\n                mstore(add(_pPairing, 128), calldataload(add(pB, 64)))\n                mstore(add(_pPairing, 160), calldataload(add(pB, 96)))\n\n                // alpha1\n                mstore(add(_pPairing, 192), alphax)\n                mstore(add(_pPairing, 224), alphay)\n\n                // beta2\n                mstore(add(_pPairing, 256), betax1)\n                mstore(add(_pPairing, 288), betax2)\n                mstore(add(_pPairing, 320), betay1)\n                mstore(add(_pPairing, 352), betay2)\n\n                // vk_x\n                mstore(add(_pPairing, 384), mload(add(pMem, pVk)))\n                mstore(add(_pPairing, 416), mload(add(pMem, add(pVk, 32))))\n\n\n                // gamma2\n                mstore(add(_pPairing, 448), gammax1)\n                mstore(add(_pPairing, 480), gammax2)\n                mstore(add(_pPairing, 512), gammay1)\n                mstore(add(_pPairing, 544), gammay2)\n\n                // C\n                mstore(add(_pPairing, 576), calldataload(pC))\n                mstore(add(_pPairing, 608), calldataload(add(pC, 32)))\n\n                // delta2\n                mstore(add(_pPairing, 640), deltax1)\n                mstore(add(_pPairing, 672), deltax2)\n                mstore(add(_pPairing, 704), deltay1)\n                mstore(add(_pPairing, 736), deltay2)\n\n\n                let success := staticcall(sub(gas(), 2000), 8, _pPairing, 768, _pPairing, 0x20)\n\n                isOk := and(success, mload(_pPairing))\n            }\n\n            let pMem := mload(0x40)\n            mstore(0x40, add(pMem, pLastMem))\n\n            // Validate that all evaluations ∈ F\n            \n            checkField(calldataload(add(_pubSignals, 0)))\n            \n            checkField(calldataload(add(_pubSignals, 32)))\n            \n            checkField(calldataload(add(_pubSignals, 64)))\n            \n            checkField(calldataload(add(_pubSignals, 96)))\n            \n            checkField(calldataload(add(_pubSignals, 128)))\n            \n            checkField(calldataload(add(_pubSignals, 160)))\n            \n            checkField(calldataload(add(_pubSignals, 192)))\n            \n            checkField(calldataload(add(_pubSignals, 224)))\n            \n            checkField(calldataload(add(_pubSignals, 256)))\n            \n\n            // Validate all evaluations\n            let isValid := checkPairing(_pA, _pB, _pC, _pubSignals, pMem)\n\n            mstore(0, isValid)\n             return(0, 0x20)\n         }\n     }\n }\n",
  "sourcePath": "C:\\Users\\ASUS\\Projects\\BlockVote\\smart-contract\\contracts\\Verifier.sol",
  "compiler": {
    "name": "solc",
    "version": "0.8.19+commit.7dd6d404.Emscripten.clang"
  },
  "schemaVersion": "3.4.16",
  "updatedAt": "2026-03-08T09:40:53.142Z",
  "networkType": "ethereum",
  "devdoc": {
    "kind": "dev",
    "methods": {},
    "version": 1
  },
  "userdoc": {
    "kind": "user",
    "methods": {},
    "version": 1
  }
}