{
  "contractName": "Voter_Register",
  "abi": [
    {
      "anonymous": false,
      "inputs": [
        {
          "indexed": true,
          "internalType": "address",
          "name": "wallet",
          "type": "address"
        },
        {
          "indexed": false,
          "internalType": "string",
          "name": "name",
          "type": "string"
        },
        {
          "indexed": false,
          "internalType": "string",
          "name": "email",
          "type": "string"
        },
        {
          "indexed": false,
          "internalType": "uint256",
          "name": "timestamp",
          "type": "uint256"
        }
      ],
      "name": "VoterRegistered",
      "type": "event"
    },
    {
      "anonymous": false,
      "inputs": [
        {
          "indexed": true,
          "internalType": "address",
          "name": "wallet",
          "type": "address"
        },
        {
          "indexed": false,
          "internalType": "uint256",
          "name": "timestamp",
          "type": "uint256"
        }
      ],
      "name": "VoterVerified",
      "type": "event"
    },
    {
      "inputs": [
        {
          "internalType": "address",
          "name": "",
          "type": "address"
        }
      ],
      "name": "voters",
      "outputs": [
        {
          "internalType": "address",
          "name": "wallet",
          "type": "address"
        },
        {
          "internalType": "string",
          "name": "name",
          "type": "string"
        },
        {
          "internalType": "bytes32",
          "name": "icHash",
          "type": "bytes32"
        },
        {
          "internalType": "string",
          "name": "email",
          "type": "string"
        },
        {
          "internalType": "string",
          "name": "status",
          "type": "string"
        },
        {
          "internalType": "bytes32",
          "name": "verificationCode",
          "type": "bytes32"
        },
        {
          "internalType": "uint256",
          "name": "registeredAt",
          "type": "uint256"
        },
        {
          "internalType": "bool",
          "name": "isRegistered",
          "type": "bool"
        }
      ],
      "stateMutability": "view",
      "type": "function",
      "constant": true
    },
    {
      "inputs": [
        {
          "internalType": "string",
          "name": "_name",
          "type": "string"
        },
        {
          "internalType": "string",
          "name": "_ic",
          "type": "string"
        },
        {
          "internalType": "string",
          "name": "_email",
          "type": "string"
        }
      ],
      "name": "registerVoter",
      "outputs": [
        {
          "internalType": "bytes32",
          "name": "",
          "type": "bytes32"
        }
      ],
      "stateMutability": "nonpayable",
      "type": "function"
    },
    {
      "inputs": [
        {
          "internalType": "bytes32",
          "name": "_verificationCode",
          "type": "bytes32"
        }
      ],
      "name": "verifyVoter",
      "outputs": [],
      "stateMutability": "nonpayable",
      "type": "function"
    },
    {
      "inputs": [
        {
          "internalType": "address",
          "name": "_wallet",
          "type": "address"
        }
      ],
      "name": "getVoterInfo",
      "outputs": [
        {
          "internalType": "string",
          "name": "name",
          "type": "string"
        },
        {
          "internalType": "string",
          "name": "email",
          "type": "string"
        },
        {
          "internalType": "string",
          "name": "status",
          "type": "string"
        },
        {
          "internalType": "uint256",
          "name": "registeredAt",
          "type": "uint256"
        }
      ],
      "stateMutability": "view",
      "type": "function",
      "constant": true
    },
    {
      "inputs": [
        {
          "internalType": "address",
          "name": "_wallet",
          "type": "address"
        }
      ],
      "name": "isWalletRegistered",
      "outputs": [
        {
          "internalType": "bool",
          "name": "",
          "type": "bool"
        }
      ],
      "stateMutability": "view",
      "type": "function",
      "constant": true
    },
    {
      "inputs": [
        {
          "internalType": "string",
          "name": "_ic",
          "type": "string"
        }
      ],
      "name": "isICRegistered",
      "outputs": [
        {
          "internalType": "bool",
          "name": "",
          "type": "bool"
        }
      ],
      "stateMutability": "view",
      "type": "function",
      "constant": true
    },
    {
      "inputs": [
        {
          "internalType": "string",
          "name": "_email",
          "type": "string"
        }
      ],
      "name": "isEmailRegistered",
      "outputs": [
        {
          "internalType": "bool",
          "name": "",
          "type": "bool"
        }
      ],
      "stateMutability": "view",
      "type": "function",
      "constant": true
    },
    {
      "inputs": [],
      "name": "getAllRegisteredAddresses",
      "outputs": [
        {
          "internalType": "address[]",
          "name": "",
          "type": "address[]"
        }
      ],
      "stateMutability": "view",
      "type": "function",
      "constant": true
    },
    {
      "inputs": [],
      "name": "getTotalRegisteredVoters",
      "outputs": [
        {
          "internalType": "uint256",
          "name": "",
          "type": "uint256"
        }
      ],
      "stateMutability": "view",
      "type": "function",
      "constant": true
    },
    {
      "inputs": [
        {
          "internalType": "uint256",
          "name": "_start",
          "type": "uint256"
        },
        {
          "internalType": "uint256",
          "name": "_count",
          "type": "uint256"
        }
      ],
      "name": "getVotersBatch",
      "outputs": [
        {
          "internalType": "address[]",
          "name": "wallets",
          "type": "address[]"
        },
        {
          "internalType": "string[]",
          "name": "names",
          "type": "string[]"
        },
        {
          "internalType": "string[]",
          "name": "emails",
          "type": "string[]"
        },
        {
          "internalType": "string[]",
          "name": "statuses",
          "type": "string[]"
        },
        {
          "internalType": "uint256[]",
          "name": "registeredAts",
          "type": "uint256[]"
        }
      ],
      "stateMutability": "view",
      "type": "function",
      "constant": true
    }
  ],
  "bytecode": "0x608060405234801561001057600080fd5b50612912806100206000396000f3fe608060405234801561001057600080fd5b506004361061009e5760003560e01c80639ed1f255116100665780639ed1f25514610171578063a3ec138d146101a4578063b1717fa8146101db578063d479dbfa1461020b578063df3cdad7146102295761009e565b806307439509146100a357806367a93a31146100d357806369a37b3e146101075780637f247e49146101255780639ebe175d14610155575b600080fd5b6100bd60048036038101906100b891906117a2565b610259565b6040516100ca9190611862565b60405180910390f35b6100ed60048036038101906100e891906118b3565b6106c8565b6040516100fe959493929190611be2565b60405180910390f35b61010f610cc0565b60405161011c9190611c67565b60405180910390f35b61013f600480360381019061013a9190611cae565b610ccd565b60405161014c9190611cf6565b60405180910390f35b61016f600480360381019061016a9190611d3d565b610d25565b005b61018b60048036038101906101869190611cae565b610fd7565b60405161019b9493929190611db4565b60405180910390f35b6101be60048036038101906101b99190611cae565b611323565b6040516101d2989796959493929190611e1d565b60405180910390f35b6101f560048036038101906101f09190611eb0565b611530565b6040516102029190611cf6565b60405180910390f35b610213611585565b6040516102209190611ef9565b60405180910390f35b610243600480360381019061023e9190611eb0565b611613565b6040516102509190611cf6565b60405180910390f35b60008060003373ffffffffffffffffffffffffffffffffffffffff1673ffffffffffffffffffffffffffffffffffffffff16815260200190815260200160002060070160009054906101000a900460ff16156102ea576040517f08c379a00000000000000000000000000000000000000000000000000000000081526004016102e190611f8d565b60405180910390fd5b6000836040516020016102fd9190611fe9565b6040516020818303038152906040528051906020012090506001600082815260200190815260200160002060009054906101000a900460ff1615610376576040517f08c379a000000000000000000000000000000000000000000000000000000000815260040161036d9061204c565b60405180910390fd5b6002836040516103869190611fe9565b908152602001604051809103902060009054906101000a900460ff16156103e2576040517f08c379a00000000000000000000000000000000000000000000000000000000081526004016103d9906120b8565b60405180910390fd5b600033868686426040516020016103fd959493929190612141565b6040516020818303038152906040528051906020012090506040518061010001604052803373ffffffffffffffffffffffffffffffffffffffff1681526020018781526020018381526020018581526020016040518060400160405280601481526020017f50454e44494e475f564552494649434154494f4e0000000000000000000000008152508152602001828152602001428152602001600115158152506000803373ffffffffffffffffffffffffffffffffffffffff1673ffffffffffffffffffffffffffffffffffffffff16815260200190815260200160002060008201518160000160006101000a81548173ffffffffffffffffffffffffffffffffffffffff021916908373ffffffffffffffffffffffffffffffffffffffff160217905550602082015181600101908161053791906123a0565b5060408201518160020155606082015181600301908161055791906123a0565b50608082015181600401908161056d91906123a0565b5060a0820151816005015560c0820151816006015560e08201518160070160006101000a81548160ff0219169083151502179055509050506003339080600181540180825580915050600190039060005260206000200160009091909190916101000a81548173ffffffffffffffffffffffffffffffffffffffff021916908373ffffffffffffffffffffffffffffffffffffffff160217905550600180600084815260200190815260200160002060006101000a81548160ff02191690831515021790555060016002856040516106459190611fe9565b908152602001604051809103902060006101000a81548160ff0219169083151502179055503373ffffffffffffffffffffffffffffffffffffffff167f9cf1682c9291d84aae23538285245cbbabc90127784deda74b7d7ea1136ae4e78786426040516106b493929190612472565b60405180910390a280925050509392505050565b60608060608060606003805490508710610717576040517f08c379a000000000000000000000000000000000000000000000000000000000815260040161070e90612503565b60405180910390fd5b600086886107259190612552565b905060038054905081111561073d5760038054905090505b6000888261074b9190612586565b90508067ffffffffffffffff81111561076757610766611677565b5b6040519080825280602002602001820160405280156107955781602001602082028036833780820191505090505b5096508067ffffffffffffffff8111156107b2576107b1611677565b5b6040519080825280602002602001820160405280156107e557816020015b60608152602001906001900390816107d05790505b5095508067ffffffffffffffff81111561080257610801611677565b5b60405190808252806020026020018201604052801561083557816020015b60608152602001906001900390816108205790505b5094508067ffffffffffffffff81111561085257610851611677565b5b60405190808252806020026020018201604052801561088557816020015b60608152602001906001900390816108705790505b5093508067ffffffffffffffff8111156108a2576108a1611677565b5b6040519080825280602002602001820160405280156108d05781602001602082028036833780820191505090505b50925060005b81811015610cb35760006003828c6108ee9190612552565b815481106108ff576108fe6125ba565b5b9060005260206000200160009054906101000a900473ffffffffffffffffffffffffffffffffffffffff16905060008060008373ffffffffffffffffffffffffffffffffffffffff1673ffffffffffffffffffffffffffffffffffffffff168152602001908152602001600020604051806101000160405290816000820160009054906101000a900473ffffffffffffffffffffffffffffffffffffffff1673ffffffffffffffffffffffffffffffffffffffff1673ffffffffffffffffffffffffffffffffffffffff1681526020016001820180546109de906121c3565b80601f0160208091040260200160405190810160405280929190818152602001828054610a0a906121c3565b8015610a575780601f10610a2c57610100808354040283529160200191610a57565b820191906000526020600020905b815481529060010190602001808311610a3a57829003601f168201915b5050505050815260200160028201548152602001600382018054610a7a906121c3565b80601f0160208091040260200160405190810160405280929190818152602001828054610aa6906121c3565b8015610af35780601f10610ac857610100808354040283529160200191610af3565b820191906000526020600020905b815481529060010190602001808311610ad657829003601f168201915b50505050508152602001600482018054610b0c906121c3565b80601f0160208091040260200160405190810160405280929190818152602001828054610b38906121c3565b8015610b855780601f10610b5a57610100808354040283529160200191610b85565b820191906000526020600020905b815481529060010190602001808311610b6857829003601f168201915b5050505050815260200160058201548152602001600682015481526020016007820160009054906101000a900460ff161515151581525050905080600001518a8481518110610bd757610bd66125ba565b5b602002602001019073ffffffffffffffffffffffffffffffffffffffff16908173ffffffffffffffffffffffffffffffffffffffff16815250508060200151898481518110610c2957610c286125ba565b5b60200260200101819052508060600151888481518110610c4c57610c4b6125ba565b5b60200260200101819052508060800151878481518110610c6f57610c6e6125ba565b5b60200260200101819052508060c00151868481518110610c9257610c916125ba565b5b60200260200101818152505050508080610cab906125e9565b9150506108d6565b5050509295509295909350565b6000600380549050905090565b60008060008373ffffffffffffffffffffffffffffffffffffffff1673ffffffffffffffffffffffffffffffffffffffff16815260200190815260200160002060070160009054906101000a900460ff169050919050565b6000803373ffffffffffffffffffffffffffffffffffffffff1673ffffffffffffffffffffffffffffffffffffffff16815260200190815260200160002060070160009054906101000a900460ff16610db3576040517f08c379a0000000000000000000000000000000000000000000000000000000008152600401610daa9061267d565b60405180910390fd5b806000803373ffffffffffffffffffffffffffffffffffffffff1673ffffffffffffffffffffffffffffffffffffffff1681526020019081526020016000206005015414610e36576040517f08c379a0000000000000000000000000000000000000000000000000000000008152600401610e2d906126e9565b60405180910390fd5b604051602001610e4590612755565b604051602081830303815290604052805190602001206000803373ffffffffffffffffffffffffffffffffffffffff1673ffffffffffffffffffffffffffffffffffffffff168152602001908152602001600020600401604051602001610eac91906127ed565b6040516020818303038152906040528051906020012014610f02576040517f08c379a0000000000000000000000000000000000000000000000000000000008152600401610ef990612850565b60405180910390fd5b6040518060400160405280600881526020017f56455249464945440000000000000000000000000000000000000000000000008152506000803373ffffffffffffffffffffffffffffffffffffffff1673ffffffffffffffffffffffffffffffffffffffff1681526020019081526020016000206004019081610f8591906123a0565b503373ffffffffffffffffffffffffffffffffffffffff167f945486efe706b7939911cd647343f3c1118cd63847a1f1b3d5a06b05120a5bcd42604051610fcc9190611c67565b60405180910390a250565b606080606060008060008673ffffffffffffffffffffffffffffffffffffffff1673ffffffffffffffffffffffffffffffffffffffff16815260200190815260200160002060070160009054906101000a900460ff1661106c576040517f08c379a0000000000000000000000000000000000000000000000000000000008152600401611063906128bc565b60405180910390fd5b60008060008773ffffffffffffffffffffffffffffffffffffffff1673ffffffffffffffffffffffffffffffffffffffff168152602001908152602001600020604051806101000160405290816000820160009054906101000a900473ffffffffffffffffffffffffffffffffffffffff1673ffffffffffffffffffffffffffffffffffffffff1673ffffffffffffffffffffffffffffffffffffffff16815260200160018201805461111e906121c3565b80601f016020809104026020016040519081016040528092919081815260200182805461114a906121c3565b80156111975780601f1061116c57610100808354040283529160200191611197565b820191906000526020600020905b81548152906001019060200180831161117a57829003601f168201915b50505050508152602001600282015481526020016003820180546111ba906121c3565b80601f01602080910402602001604051908101604052809291908181526020018280546111e6906121c3565b80156112335780601f1061120857610100808354040283529160200191611233565b820191906000526020600020905b81548152906001019060200180831161121657829003601f168201915b5050505050815260200160048201805461124c906121c3565b80601f0160208091040260200160405190810160405280929190818152602001828054611278906121c3565b80156112c55780601f1061129a576101008083540402835291602001916112c5565b820191906000526020600020905b8154815290600101906020018083116112a857829003601f168201915b5050505050815260200160058201548152602001600682015481526020016007820160009054906101000a900460ff16151515158152505090508060200151816060015182608001518360c001519450945094509450509193509193565b60006020528060005260406000206000915090508060000160009054906101000a900473ffffffffffffffffffffffffffffffffffffffff169080600101805461136c906121c3565b80601f0160208091040260200160405190810160405280929190818152602001828054611398906121c3565b80156113e55780601f106113ba576101008083540402835291602001916113e5565b820191906000526020600020905b8154815290600101906020018083116113c857829003601f168201915b505050505090806002015490806003018054611400906121c3565b80601f016020809104026020016040519081016040528092919081815260200182805461142c906121c3565b80156114795780601f1061144e57610100808354040283529160200191611479565b820191906000526020600020905b81548152906001019060200180831161145c57829003601f168201915b50505050509080600401805461148e906121c3565b80601f01602080910402602001604051908101604052809291908181526020018280546114ba906121c3565b80156115075780601f106114dc57610100808354040283529160200191611507565b820191906000526020600020905b8154815290600101906020018083116114ea57829003601f168201915b5050505050908060050154908060060154908060070160009054906101000a900460ff16905088565b600080826040516020016115449190611fe9565b6040516020818303038152906040528051906020012090506001600082815260200190815260200160002060009054906101000a900460ff16915050919050565b6060600380548060200260200160405190810160405280929190818152602001828054801561160957602002820191906000526020600020905b8160009054906101000a900473ffffffffffffffffffffffffffffffffffffffff1673ffffffffffffffffffffffffffffffffffffffff16815260200190600101908083116115bf575b5050505050905090565b60006002826040516116259190611fe9565b908152602001604051809103902060009054906101000a900460ff169050919050565b6000604051905090565b600080fd5b600080fd5b600080fd5b600080fd5b6000601f19601f8301169050919050565b7f4e487b7100000000000000000000000000000000000000000000000000000000600052604160045260246000fd5b6116af82611666565b810181811067ffffffffffffffff821117156116ce576116cd611677565b5b80604052505050565b60006116e1611648565b90506116ed82826116a6565b919050565b600067ffffffffffffffff82111561170d5761170c611677565b5b61171682611666565b9050602081019050919050565b82818337600083830152505050565b6000611745611740846116f2565b6116d7565b90508281526020810184848401111561176157611760611661565b5b61176c848285611723565b509392505050565b600082601f8301126117895761178861165c565b5b8135611799848260208601611732565b91505092915050565b6000806000606084860312156117bb576117ba611652565b5b600084013567ffffffffffffffff8111156117d9576117d8611657565b5b6117e586828701611774565b935050602084013567ffffffffffffffff81111561180657611805611657565b5b61181286828701611774565b925050604084013567ffffffffffffffff81111561183357611832611657565b5b61183f86828701611774565b9150509250925092565b6000819050919050565b61185c81611849565b82525050565b60006020820190506118776000830184611853565b92915050565b6000819050919050565b6118908161187d565b811461189b57600080fd5b50565b6000813590506118ad81611887565b92915050565b600080604083850312156118ca576118c9611652565b5b60006118d88582860161189e565b92505060206118e98582860161189e565b9150509250929050565b600081519050919050565b600082825260208201905092915050565b6000819050602082019050919050565b600073ffffffffffffffffffffffffffffffffffffffff82169050919050565b600061194a8261191f565b9050919050565b61195a8161193f565b82525050565b600061196c8383611951565b60208301905092915050565b6000602082019050919050565b6000611990826118f3565b61199a81856118fe565b93506119a58361190f565b8060005b838110156119d65781516119bd8882611960565b97506119c883611978565b9250506001810190506119a9565b5085935050505092915050565b600081519050919050565b600082825260208201905092915050565b6000819050602082019050919050565b600081519050919050565b600082825260208201905092915050565b60005b83811015611a49578082015181840152602081019050611a2e565b60008484015250505050565b6000611a6082611a0f565b611a6a8185611a1a565b9350611a7a818560208601611a2b565b611a8381611666565b840191505092915050565b6000611a9a8383611a55565b905092915050565b6000602082019050919050565b6000611aba826119e3565b611ac481856119ee565b935083602082028501611ad6856119ff565b8060005b85811015611b125784840389528151611af38582611a8e565b9450611afe83611aa2565b925060208a01995050600181019050611ada565b50829750879550505050505092915050565b600081519050919050565b600082825260208201905092915050565b6000819050602082019050919050565b611b598161187d565b82525050565b6000611b6b8383611b50565b60208301905092915050565b6000602082019050919050565b6000611b8f82611b24565b611b998185611b2f565b9350611ba483611b40565b8060005b83811015611bd5578151611bbc8882611b5f565b9750611bc783611b77565b925050600181019050611ba8565b5085935050505092915050565b600060a0820190508181036000830152611bfc8188611985565b90508181036020830152611c108187611aaf565b90508181036040830152611c248186611aaf565b90508181036060830152611c388185611aaf565b90508181036080830152611c4c8184611b84565b90509695505050505050565b611c618161187d565b82525050565b6000602082019050611c7c6000830184611c58565b92915050565b611c8b8161193f565b8114611c9657600080fd5b50565b600081359050611ca881611c82565b92915050565b600060208284031215611cc457611cc3611652565b5b6000611cd284828501611c99565b91505092915050565b60008115159050919050565b611cf081611cdb565b82525050565b6000602082019050611d0b6000830184611ce7565b92915050565b611d1a81611849565b8114611d2557600080fd5b50565b600081359050611d3781611d11565b92915050565b600060208284031215611d5357611d52611652565b5b6000611d6184828501611d28565b91505092915050565b600082825260208201905092915050565b6000611d8682611a0f565b611d908185611d6a565b9350611da0818560208601611a2b565b611da981611666565b840191505092915050565b60006080820190508181036000830152611dce8187611d7b565b90508181036020830152611de28186611d7b565b90508181036040830152611df68185611d7b565b9050611e056060830184611c58565b95945050505050565b611e178161193f565b82525050565b600061010082019050611e33600083018b611e0e565b8181036020830152611e45818a611d7b565b9050611e546040830189611853565b8181036060830152611e668188611d7b565b90508181036080830152611e7a8187611d7b565b9050611e8960a0830186611853565b611e9660c0830185611c58565b611ea360e0830184611ce7565b9998505050505050505050565b600060208284031215611ec657611ec5611652565b5b600082013567ffffffffffffffff811115611ee457611ee3611657565b5b611ef084828501611774565b91505092915050565b60006020820190508181036000830152611f138184611985565b905092915050565b7f57616c6c6574206164647265737320616c72656164792072656769737465726560008201527f6400000000000000000000000000000000000000000000000000000000000000602082015250565b6000611f77602183611d6a565b9150611f8282611f1b565b604082019050919050565b60006020820190508181036000830152611fa681611f6a565b9050919050565b600081905092915050565b6000611fc382611a0f565b611fcd8185611fad565b9350611fdd818560208601611a2b565b80840191505092915050565b6000611ff58284611fb8565b915081905092915050565b7f4943206e756d62657220616c7265616479207265676973746572656400000000600082015250565b6000612036601c83611d6a565b915061204182612000565b602082019050919050565b6000602082019050818103600083015261206581612029565b9050919050565b7f456d61696c20616c726561647920726567697374657265640000000000000000600082015250565b60006120a2601883611d6a565b91506120ad8261206c565b602082019050919050565b600060208201905081810360008301526120d181612095565b9050919050565b60008160601b9050919050565b60006120f0826120d8565b9050919050565b6000612102826120e5565b9050919050565b61211a6121158261193f565b6120f7565b82525050565b6000819050919050565b61213b6121368261187d565b612120565b82525050565b600061214d8288612109565b60148201915061215d8287611fb8565b91506121698286611fb8565b91506121758285611fb8565b9150612181828461212a565b6020820191508190509695505050505050565b7f4e487b7100000000000000000000000000000000000000000000000000000000600052602260045260246000fd5b600060028204905060018216806121db57607f821691505b6020821081036121ee576121ed612194565b5b50919050565b60008190508160005260206000209050919050565b60006020601f8301049050919050565b600082821b905092915050565b6000600883026122567fffffffffffffffffffffffffffffffffffffffffffffffffffffffffffffffff82612219565b6122608683612219565b95508019841693508086168417925050509392505050565b6000819050919050565b600061229d6122986122938461187d565b612278565b61187d565b9050919050565b6000819050919050565b6122b783612282565b6122cb6122c3826122a4565b848454612226565b825550505050565b600090565b6122e06122d3565b6122eb8184846122ae565b505050565b5b8181101561230f576123046000826122d8565b6001810190506122f1565b5050565b601f82111561235457612325816121f4565b61232e84612209565b8101602085101561233d578190505b61235161234985612209565b8301826122f0565b50505b505050565b600082821c905092915050565b600061237760001984600802612359565b1980831691505092915050565b60006123908383612366565b9150826002028217905092915050565b6123a982611a0f565b67ffffffffffffffff8111156123c2576123c1611677565b5b6123cc82546121c3565b6123d7828285612313565b600060209050601f83116001811461240a57600084156123f8578287015190505b6124028582612384565b86555061246a565b601f198416612418866121f4565b60005b828110156124405784890151825560018201915060208501945060208101905061241b565b8683101561245d5784890151612459601f891682612366565b8355505b6001600288020188555050505b505050505050565b6000606082019050818103600083015261248c8186611d7b565b905081810360208301526124a08185611d7b565b90506124af6040830184611c58565b949350505050565b7f537461727420696e646578206f7574206f6620626f756e647300000000000000600082015250565b60006124ed601983611d6a565b91506124f8826124b7565b602082019050919050565b6000602082019050818103600083015261251c816124e0565b9050919050565b7f4e487b7100000000000000000000000000000000000000000000000000000000600052601160045260246000fd5b600061255d8261187d565b91506125688361187d565b92508282019050808211156125805761257f612523565b5b92915050565b60006125918261187d565b915061259c8361187d565b92508282039050818111156125b4576125b3612523565b5b92915050565b7f4e487b7100000000000000000000000000000000000000000000000000000000600052603260045260246000fd5b60006125f48261187d565b91507fffffffffffffffffffffffffffffffffffffffffffffffffffffffffffffffff820361262657612625612523565b5b600182019050919050565b7f566f746572206e6f742072656769737465726564000000000000000000000000600082015250565b6000612667601483611d6a565b915061267282612631565b602082019050919050565b600060208201905081810360008301526126968161265a565b9050919050565b7f496e76616c696420766572696669636174696f6e20636f646500000000000000600082015250565b60006126d3601983611d6a565b91506126de8261269d565b602082019050919050565b60006020820190508181036000830152612702816126c6565b9050919050565b7f50454e44494e475f564552494649434154494f4e000000000000000000000000600082015250565b600061273f601483611fad565b915061274a82612709565b601482019050919050565b600061276082612732565b9150819050919050565b60008154612777816121c3565b6127818186611fad565b9450600182166000811461279c57600181146127b1576127e4565b60ff19831686528115158202860193506127e4565b6127ba856121f4565b60005b838110156127dc578154818901526001820191506020810190506127bd565b838801955050505b50505092915050565b60006127f9828461276a565b915081905092915050565b7f566f74657220616c726561647920766572696669656400000000000000000000600082015250565b600061283a601683611d6a565b915061284582612804565b602082019050919050565b600060208201905081810360008301526128698161282d565b9050919050565b7f566f746572206e6f7420666f756e640000000000000000000000000000000000600082015250565b60006128a6600f83611d6a565b91506128b182612870565b602082019050919050565b600060208201905081810360008301526128d581612899565b905091905056fea264697066735822122014a76f9c4094ff3a554fce5ff8816aac4a49ba44e5a711f33feef8b21174740e64736f6c63430008130033",
  "immutableReferences": {},
  "source": "// SPDX-License-Identifier: MIT\r\npragma solidity ^0.8.0;\r\n\r\ncontract Voter_Register {\r\n    \r\n    struct Voter {\r\n        address wallet;\r\n        string name;\r\n        bytes32 icHash;\r\n        string email;\r\n        string status;\r\n        bytes32 verificationCode;\r\n        uint256 registeredAt;\r\n        bool isRegistered;\r\n    }\r\n    \r\n    mapping(address => Voter) public voters;\r\n    mapping(bytes32 => bool) private usedICs;\r\n    mapping(string => bool) private usedEmails;\r\n    \r\n    // Array to store all registered addresses\r\n    address[] private registeredAddresses;\r\n    \r\n    event VoterRegistered(\r\n        address indexed wallet,\r\n        string name,\r\n        string email,\r\n        uint256 timestamp\r\n    );\r\n    \r\n    event VoterVerified(\r\n        address indexed wallet,\r\n        uint256 timestamp\r\n    );\r\n    \r\n    modifier notRegistered() {\r\n        require(!voters[msg.sender].isRegistered, \"Wallet address already registered\");\r\n        _;\r\n    }\r\n    \r\n    function registerVoter(\r\n        string memory _name,\r\n        string memory _ic,\r\n        string memory _email\r\n    ) public notRegistered returns (bytes32) {\r\n        \r\n        // Hash the IC for privacy\r\n        bytes32 icHash = keccak256(abi.encodePacked(_ic));\r\n        \r\n        // Check if IC is already used\r\n        require(!usedICs[icHash], \"IC number already registered\");\r\n        \r\n        // Check if email is already used (case-sensitive check)\r\n        require(!usedEmails[_email], \"Email already registered\");\r\n        \r\n        // Generate verification code\r\n        bytes32 verificationCode = keccak256(\r\n            abi.encodePacked(\r\n                msg.sender,\r\n                _name,\r\n                _ic,\r\n                _email,\r\n                block.timestamp\r\n            )\r\n        );\r\n        \r\n        // Store voter data\r\n        voters[msg.sender] = Voter({\r\n            wallet: msg.sender,\r\n            name: _name,\r\n            icHash: icHash,\r\n            email: _email,\r\n            status: \"PENDING_VERIFICATION\",\r\n            verificationCode: verificationCode,\r\n            registeredAt: block.timestamp,\r\n            isRegistered: true\r\n        });\r\n        \r\n        // Add address to registered addresses array\r\n        registeredAddresses.push(msg.sender);\r\n        \r\n        // Mark IC and email as used\r\n        usedICs[icHash] = true;\r\n        usedEmails[_email] = true;\r\n        \r\n        emit VoterRegistered(msg.sender, _name, _email, block.timestamp);\r\n        \r\n        return verificationCode;\r\n    }\r\n    \r\n    function verifyVoter(bytes32 _verificationCode) public {\r\n        require(voters[msg.sender].isRegistered, \"Voter not registered\");\r\n        require(\r\n            voters[msg.sender].verificationCode == _verificationCode,\r\n            \"Invalid verification code\"\r\n        );\r\n        require(\r\n            keccak256(abi.encodePacked(voters[msg.sender].status)) == \r\n            keccak256(abi.encodePacked(\"PENDING_VERIFICATION\")),\r\n            \"Voter already verified\"\r\n        );\r\n        \r\n        voters[msg.sender].status = \"VERIFIED\";\r\n        \r\n        emit VoterVerified(msg.sender, block.timestamp);\r\n    }\r\n    \r\n    function getVoterInfo(address _wallet) public view returns (\r\n        string memory name,\r\n        string memory email,\r\n        string memory status,\r\n        uint256 registeredAt\r\n    ) {\r\n        require(voters[_wallet].isRegistered, \"Voter not found\");\r\n        \r\n        Voter memory voter = voters[_wallet];\r\n        return (\r\n            voter.name,\r\n            voter.email,\r\n            voter.status,\r\n            voter.registeredAt\r\n        );\r\n    }\r\n    \r\n    function isWalletRegistered(address _wallet) public view returns (bool) {\r\n        return voters[_wallet].isRegistered;\r\n    }\r\n    \r\n    function isICRegistered(string memory _ic) public view returns (bool) {\r\n        bytes32 icHash = keccak256(abi.encodePacked(_ic));\r\n        return usedICs[icHash];\r\n    }\r\n    \r\n    function isEmailRegistered(string memory _email) public view returns (bool) {\r\n        return usedEmails[_email];\r\n    }\r\n    \r\n    // Get all registered addresses\r\n    function getAllRegisteredAddresses() public view returns (address[] memory) {\r\n        return registeredAddresses;\r\n    }\r\n    \r\n    // Get total number of registered voters\r\n    function getTotalRegisteredVoters() public view returns (uint256) {\r\n        return registeredAddresses.length;\r\n    }\r\n    \r\n    // Get multiple voter details at once (batch query)\r\n    function getVotersBatch(uint256 _start, uint256 _count) public view returns (\r\n        address[] memory wallets,\r\n        string[] memory names,\r\n        string[] memory emails,\r\n        string[] memory statuses,\r\n        uint256[] memory registeredAts\r\n    ) {\r\n        require(_start < registeredAddresses.length, \"Start index out of bounds\");\r\n        \r\n        uint256 end = _start + _count;\r\n        if (end > registeredAddresses.length) {\r\n            end = registeredAddresses.length;\r\n        }\r\n        \r\n        uint256 resultCount = end - _start;\r\n        \r\n        wallets = new address[](resultCount);\r\n        names = new string[](resultCount);\r\n        emails = new string[](resultCount);\r\n        statuses = new string[](resultCount);\r\n        registeredAts = new uint256[](resultCount);\r\n        \r\n        for (uint256 i = 0; i < resultCount; i++) {\r\n            address voterAddress = registeredAddresses[_start + i];\r\n            Voter memory voter = voters[voterAddress];\r\n            \r\n            wallets[i] = voter.wallet;\r\n            names[i] = voter.name;\r\n            emails[i] = voter.email;\r\n            statuses[i] = voter.status;\r\n            registeredAts[i] = voter.registeredAt;\r\n        }\r\n        \r\n        return (wallets, names, emails, statuses, registeredAts);\r\n    }\r\n}",
  "sourcePath": "C:\\Users\\ASUS\\Projects\\BlockVote\\smart-contract\\contracts\\voter_register.sol",
  "compiler": {
    "name": "solc",
    "version": "0.8.19+commit.7dd6d404.Emscripten.clang"
  },
  "schemaVersion": "3.4.16",
  "updatedAt": "2025-11-03T15:08:35.278Z",
  "networkType": "ethereum",
  "devdoc": {
    "kind": "dev",
    "methods": {},
    "version": 1
  },
  "userdoc": {
    "kind": "user",
    "methods": {},
    "version": 1
  }
}