{"project/contracts/Verifier.sol":{"Groth16Verifier":{"abi":[{"inputs":[{"internalType":"uint256[2]","name":"_pA","type":"uint256[2]"},{"internalType":"uint256[2][2]","name":"_pB","type":"uint256[2][2]"},{"internalType":"uint256[2]","name":"_pC","type":"uint256[2]"},{"internalType":"uint256[10]","name":"_pubSignals","type":"uint256[10]"}],"name":"verifyProof","outputs":[{"internalType":"bool","name":"","type":"bool"}],"stateMutability":"view","type":"function"}],"evm":{"bytecode":{"linkReferences":{},"object":"6080806040523461001657610a17908161001c8239f35b600080fdfe6080604052600436101561001257600080fd5b6000803560e01c63f3bb70f61461002857600080fd5b346104275761024080600319360112610423576100443661042a565b903660c41161041f576100563661043c565b91366102441161041b57610400604052610104356100738161044a565b610124356100808161044a565b6101443561008d8161044a565b6101643561009a8161044a565b610184356100a78161044a565b6101a435906100b58261044a565b6101c435926100c38461044a565b6101e435946100d18661044a565b61020435966100df8861044a565b61022435986100ed8a61044a565b7f15b4137ddcd2fdb14b5ee249174fdabeef810fe1d36c44f6eb4a594adcca12da6080527f11effc84acbc6d2d5f3730a91434ab50365f1e95e92e20a67b1d9521fd696cbc60a05261013e9061047d565b61014790610507565b61015090610591565b6101599061061b565b610162906106a5565b61016b9061072f565b610174906107b9565b61017d90610843565b610186906108cd565b61018f90610957565b6101009283928284933584527f30644e72e131a029b85045b68181585d97816a916871ca8d3c208c16d87cfd4790602001358103066101205260443561014052606435610160526084356101805260a4356101a0527f0352d1fe0c0453427d5bf0eecd054a1411324bbc9c33445cb1576dbea91a7e456101c0527ec8e2978440d85542a613378f2ad4a5e189999125f83d45df80f18bee96d8be6101e0527f1c49f990c9a9b353acf69a64db50fa71a9f816c0ba58de2c8fc8f3a94e02b955610200527f18eed5b568e3084cb88c5c6766bccfef2f300741b08c707751258960816c990e610220527e2d586c0f7f8584e11f7d1021f453c1e27cbdf5cc6b13e78d470aa8814b8c6c90527f1000459676d52e75f9093c4697351b53a9049af7d76f77bc9159f94de91f13c1610260526080516102805260a0516102a0527f198e9393920d483a7260bfb731fb5d25f1aa493335a9e71297e485b7aef312c26102c0527f1800deef121f1e76426a00665e5c4479674322d4f75edadd46debd5cd992f6ed6102e052610300907f090689d0585ff075ec9e99ad690c3395bc4b313370b38ef355acdadcd122975b82527f12c85ea5db8c6deb4aab71808dcb408fe3d1e7690c43d37b4ce6cc0166fa7daa6103205280356103405260200135610360527f1cacc1470c7ceebb55d47fa629f1e0bdc8941fd2c8c49ba31d89ac2d8a110a0e610380527f1747c0e533ca6d030ccdebf051c5762ed7022a40dec53052defc6ed7793344fb6103a0527f1092346c1d299ac15ed9e4cf03af7aa1ff13f26fdf68a601992b11e1cea8f6936103c0527f0d2fa657908f9d2a6f26759d514e445dacd5a5a71c1073ad269e92cbe799bd956103e0526107cf195a01926008602094fa9051168152602090f35b8380fd5b8280fd5b5080fd5b80fd5b9060049160441161043757565b600080fd5b9060c4916101041161043757565b7f30644e72e131a029b85045b68181585d2833e84879b9709143e1f593f0000001111561047357565b6000805260206000f35b604051907f02eb5632ca3840b19ee9a4bfb78af617af8ac0e8cf2dabb3c04864f29e52b94b82527f1e07903dee295b641c6391a9f57e078ab9bc5302785d7d7cbfaa3ac64064eafd6020830152604082019081526107cf196040836060816007855a01fa156104735760409260066080939284938451905260a05160608401525a01fa1561047357565b604051907f0a56fb47c2fe3c9e9038518163cecf984e4c1f369202e419aeb92a015178a6fa82527f11c2b4a44a60dca0cd606e60c26e923058078beb91f94179e943239885ccb18c6020830152604082019081526107cf196040836060816007855a01fa156104735760409260066080939284938451905260a05160608401525a01fa1561047357565b604051907f19829eb22846d3f562a3edc62b3eb85dc25d5b7b82f03850d6627783fdf01f7c82527f2a6f84c29f1c067a37947cc2318caea0eb71706af0596d57b9a632b5117e0be96020830152604082019081526107cf196040836060816007855a01fa156104735760409260066080939284938451905260a05160608401525a01fa1561047357565b604051907f11597f6a9ca2d85508f1bee1ca259537df5e185d204c767773cf5c3b712d422f82527f20366329b29ae06a38572f79e155300d92a67682547cd95c9b79ab14657ac1b06020830152604082019081526107cf196040836060816007855a01fa156104735760409260066080939284938451905260a05160608401525a01fa1561047357565b604051907f3004d411557403a1efe5a187e18008f3573cd585160bfe9d55efcfcf6be5cd8382527f0a81212fe398dc0fefb709ebec41db2ad4124cbde8bbf3dd427d1b99263483886020830152604082019081526107cf196040836060816007855a01fa156104735760409260066080939284938451905260a05160608401525a01fa1561047357565b604051907f278f926955cc34ceb18b785477f6b864aa4a36f08ac113ed77a1d3952046469082527f2311f49940d1e45fbd5957eee0ad4148d2e1c94e04d6046a5eb51d886cca02f16020830152604082019081526107cf196040836060816007855a01fa156104735760409260066080939284938451905260a05160608401525a01fa1561047357565b604051907f09087516534afb4d3ea24696c0914329580cd7b0022422d5543a6d464a9ab36482527f14d5269de921a892b75e9b75582c66836edac31ce64996a1e685563a63a9bc286020830152604082019081526107cf196040836060816007855a01fa156104735760409260066080939284938451905260a05160608401525a01fa1561047357565b604051907f19f61377658b696e15aab3c59996fc138ee574ee53c5d3178968003c7d28d50082527f101e662127ec8a702b70415c8448ba5a127b71b89b1323f3cb70f8d554a34b936020830152604082019081526107cf196040836060816007855a01fa156104735760409260066080939284938451905260a05160608401525a01fa1561047357565b604051907f0626083a2372d1d78f0f7ab7989315b98a74dd56e21cda0130458a9c7ace9ce982527f2bd1edad91c1beb98c92860495c3160d9fc724e2b12fb1ea01c07d4ecc4fbd746020830152604082019081526107cf196040836060816007855a01fa156104735760409260066080939284938451905260a05160608401525a01fa1561047357565b604051907f0b8b3cb09e46bc30840b7e36d4fd880edd5d80b1a32a6637c8cb3c20132c6a8d82527f287452bd35f752751dc16988fbdefcf9fda623ba39b47942433e00ad806cf0d26020830152604082019081526107cf196040836060816007855a01fa156104735760409260066080939284938451905260a05160608401525a01fa156104735756fea2646970667358221220353f2676aebbdcb4ce50117017082ae374f90c49658703550af477820198902964736f6c63430008130033","opcodes":"PUSH1 0x80 DUP1 PUSH1 0x40 MSTORE CALLVALUE PUSH2 0x16 JUMPI PUSH2 0xA17 SWAP1 DUP2 PUSH2 0x1C DUP3 CODECOPY RETURN JUMPDEST PUSH1 0x0 DUP1 REVERT INVALID PUSH1 0x80 PUSH1 0x40 MSTORE PUSH1 0x4 CALLDATASIZE LT ISZERO PUSH2 0x12 JUMPI PUSH1 0x0 DUP1 REVERT JUMPDEST PUSH1 0x0 DUP1 CALLDATALOAD PUSH1 0xE0 SHR PUSH4 0xF3BB70F6 EQ PUSH2 0x28 JUMPI PUSH1 0x0 DUP1 REVERT JUMPDEST CALLVALUE PUSH2 0x427 JUMPI PUSH2 0x240 DUP1 PUSH1 0x3 NOT CALLDATASIZE ADD SLT PUSH2 0x423 JUMPI PUSH2 0x44 CALLDATASIZE PUSH2 0x42A JUMP JUMPDEST SWAP1 CALLDATASIZE PUSH1 0xC4 GT PUSH2 0x41F JUMPI PUSH2 0x56 CALLDATASIZE PUSH2 0x43C JUMP JUMPDEST SWAP2 CALLDATASIZE PUSH2 0x244 GT PUSH2 0x41B JUMPI PUSH2 0x400 PUSH1 0x40 MSTORE PUSH2 0x104 CALLDATALOAD PUSH2 0x73 DUP2 PUSH2 0x44A JUMP JUMPDEST PUSH2 0x124 CALLDATALOAD PUSH2 0x80 DUP2 PUSH2 0x44A JUMP JUMPDEST PUSH2 0x144 CALLDATALOAD PUSH2 0x8D DUP2 PUSH2 0x44A JUMP JUMPDEST PUSH2 0x164 CALLDATALOAD PUSH2 0x9A DUP2 PUSH2 0x44A JUMP JUMPDEST PUSH2 0x184 CALLDATALOAD PUSH2 0xA7 DUP2 PUSH2 0x44A JUMP JUMPDEST PUSH2 0x1A4 CALLDATALOAD SWAP1 PUSH2 0xB5 DUP3 PUSH2 0x44A JUMP JUMPDEST PUSH2 0x1C4 CALLDATALOAD SWAP3 PUSH2 0xC3 DUP5 PUSH2 0x44A JUMP JUMPDEST PUSH2 0x1E4 CALLDATALOAD SWAP5 PUSH2 0xD1 DUP7 PUSH2 0x44A JUMP JUMPDEST PUSH2 0x204 CALLDATALOAD SWAP7 PUSH2 0xDF DUP9 PUSH2 0x44A JUMP JUMPDEST PUSH2 0x224 CALLDATALOAD SWAP9 PUSH2 0xED DUP11 PUSH2 0x44A JUMP JUMPDEST PUSH32 0x15B4137DDCD2FDB14B5EE249174FDABEEF810FE1D36C44F6EB4A594ADCCA12DA PUSH1 0x80 MSTORE PUSH32 0x11EFFC84ACBC6D2D5F3730A91434AB50365F1E95E92E20A67B1D9521FD696CBC PUSH1 0xA0 MSTORE PUSH2 0x13E SWAP1 PUSH2 0x47D JUMP JUMPDEST PUSH2 0x147 SWAP1 PUSH2 0x507 JUMP JUMPDEST PUSH2 0x150 SWAP1 PUSH2 0x591 JUMP JUMPDEST PUSH2 0x159 SWAP1 PUSH2 0x61B JUMP JUMPDEST PUSH2 0x162 SWAP1 PUSH2 0x6A5 JUMP JUMPDEST PUSH2 0x16B SWAP1 PUSH2 0x72F JUMP JUMPDEST PUSH2 0x174 SWAP1 PUSH2 0x7B9 JUMP JUMPDEST PUSH2 0x17D SWAP1 PUSH2 0x843 JUMP JUMPDEST PUSH2 0x186 SWAP1 PUSH2 0x8CD JUMP JUMPDEST PUSH2 0x18F SWAP1 PUSH2 0x957 JUMP JUMPDEST PUSH2 0x100 SWAP3 DUP4 SWAP3 DUP3 DUP5 SWAP4 CALLDATALOAD DUP5 MSTORE PUSH32 0x30644E72E131A029B85045B68181585D97816A916871CA8D3C208C16D87CFD47 SWAP1 PUSH1 0x20 ADD CALLDATALOAD DUP2 SUB MOD PUSH2 0x120 MSTORE PUSH1 0x44 CALLDATALOAD PUSH2 0x140 MSTORE PUSH1 0x64 CALLDATALOAD PUSH2 0x160 MSTORE PUSH1 0x84 CALLDATALOAD PUSH2 0x180 MSTORE PUSH1 0xA4 CALLDATALOAD PUSH2 0x1A0 MSTORE PUSH32 0x352D1FE0C0453427D5BF0EECD054A1411324BBC9C33445CB1576DBEA91A7E45 PUSH2 0x1C0 MSTORE PUSH31 0xC8E2978440D85542A613378F2AD4A5E189999125F83D45DF80F18BEE96D8BE PUSH2 0x1E0 MSTORE PUSH32 0x1C49F990C9A9B353ACF69A64DB50FA71A9F816C0BA58DE2C8FC8F3A94E02B955 PUSH2 0x200 MSTORE PUSH32 0x18EED5B568E3084CB88C5C6766BCCFEF2F300741B08C707751258960816C990E PUSH2 0x220 MSTORE PUSH31 0x2D586C0F7F8584E11F7D1021F453C1E27CBDF5CC6B13E78D470AA8814B8C6C SWAP1 MSTORE PUSH32 0x1000459676D52E75F9093C4697351B53A9049AF7D76F77BC9159F94DE91F13C1 PUSH2 0x260 MSTORE PUSH1 0x80 MLOAD PUSH2 0x280 MSTORE PUSH1 0xA0 MLOAD PUSH2 0x2A0 MSTORE PUSH32 0x198E9393920D483A7260BFB731FB5D25F1AA493335A9E71297E485B7AEF312C2 PUSH2 0x2C0 MSTORE PUSH32 0x1800DEEF121F1E76426A00665E5C4479674322D4F75EDADD46DEBD5CD992F6ED PUSH2 0x2E0 MSTORE PUSH2 0x300 SWAP1 PUSH32 0x90689D0585FF075EC9E99AD690C3395BC4B313370B38EF355ACDADCD122975B DUP3 MSTORE PUSH32 0x12C85EA5DB8C6DEB4AAB71808DCB408FE3D1E7690C43D37B4CE6CC0166FA7DAA PUSH2 0x320 MSTORE DUP1 CALLDATALOAD PUSH2 0x340 MSTORE PUSH1 0x20 ADD CALLDATALOAD PUSH2 0x360 MSTORE PUSH32 0x1CACC1470C7CEEBB55D47FA629F1E0BDC8941FD2C8C49BA31D89AC2D8A110A0E PUSH2 0x380 MSTORE PUSH32 0x1747C0E533CA6D030CCDEBF051C5762ED7022A40DEC53052DEFC6ED7793344FB PUSH2 0x3A0 MSTORE PUSH32 0x1092346C1D299AC15ED9E4CF03AF7AA1FF13F26FDF68A601992B11E1CEA8F693 PUSH2 0x3C0 MSTORE PUSH32 0xD2FA657908F9D2A6F26759D514E445DACD5A5A71C1073AD269E92CBE799BD95 PUSH2 0x3E0 MSTORE PUSH2 0x7CF NOT GAS ADD SWAP3 PUSH1 0x8 PUSH1 0x20 SWAP5 STATICCALL SWAP1 MLOAD AND DUP2 MSTORE PUSH1 0x20 SWAP1 RETURN JUMPDEST DUP4 DUP1 REVERT JUMPDEST DUP3 DUP1 REVERT JUMPDEST POP DUP1 REVERT JUMPDEST DUP1 REVERT JUMPDEST SWAP1 PUSH1 0x4 SWAP2 PUSH1 0x44 GT PUSH2 0x437 JUMPI JUMP JUMPDEST PUSH1 0x0 DUP1 REVERT JUMPDEST SWAP1 PUSH1 0xC4 SWAP2 PUSH2 0x104 GT PUSH2 0x437 JUMPI JUMP JUMPDEST PUSH32 0x30644E72E131A029B85045B68181585D2833E84879B9709143E1F593F0000001 GT ISZERO PUSH2 0x473 JUMPI JUMP JUMPDEST PUSH1 0x0 DUP1 MSTORE PUSH1 0x20 PUSH1 0x0 RETURN JUMPDEST PUSH1 0x40 MLOAD SWAP1 PUSH32 0x2EB5632CA3840B19EE9A4BFB78AF617AF8AC0E8CF2DABB3C04864F29E52B94B DUP3 MSTORE PUSH32 0x1E07903DEE295B641C6391A9F57E078AB9BC5302785D7D7CBFAA3AC64064EAFD PUSH1 0x20 DUP4 ADD MSTORE PUSH1 0x40 DUP3 ADD SWAP1 DUP2 MSTORE PUSH2 0x7CF NOT PUSH1 0x40 DUP4 PUSH1 0x60 DUP2 PUSH1 0x7 DUP6 GAS ADD STATICCALL ISZERO PUSH2 0x473 JUMPI PUSH1 0x40 SWAP3 PUSH1 0x6 PUSH1 0x80 SWAP4 SWAP3 DUP5 SWAP4 DUP5 MLOAD SWAP1 MSTORE PUSH1 0xA0 MLOAD PUSH1 0x60 DUP5 ADD MSTORE GAS ADD STATICCALL ISZERO PUSH2 0x473 JUMPI JUMP JUMPDEST PUSH1 0x40 MLOAD SWAP1 PUSH32 0xA56FB47C2FE3C9E9038518163CECF984E4C1F369202E419AEB92A015178A6FA DUP3 MSTORE PUSH32 0x11C2B4A44A60DCA0CD606E60C26E923058078BEB91F94179E943239885CCB18C PUSH1 0x20 DUP4 ADD MSTORE PUSH1 0x40 DUP3 ADD SWAP1 DUP2 MSTORE PUSH2 0x7CF NOT PUSH1 0x40 DUP4 PUSH1 0x60 DUP2 PUSH1 0x7 DUP6 GAS ADD STATICCALL ISZERO PUSH2 0x473 JUMPI PUSH1 0x40 SWAP3 PUSH1 0x6 PUSH1 0x80 SWAP4 SWAP3 DUP5 SWAP4 DUP5 MLOAD SWAP1 MSTORE PUSH1 0xA0 MLOAD PUSH1 0x60 DUP5 ADD MSTORE GAS ADD STATICCALL ISZERO PUSH2 0x473 JUMPI JUMP JUMPDEST PUSH1 0x40 MLOAD SWAP1 PUSH32 0x19829EB22846D3F562A3EDC62B3EB85DC25D5B7B82F03850D6627783FDF01F7C DUP3 MSTORE PUSH32 0x2A6F84C29F1C067A37947CC2318CAEA0EB71706AF0596D57B9A632B5117E0BE9 PUSH1 0x20 DUP4 ADD MSTORE PUSH1 0x40 DUP3 ADD SWAP1 DUP2 MSTORE PUSH2 0x7CF NOT PUSH1 0x40 DUP4 PUSH1 0x60 DUP2 PUSH1 0x7 DUP6 GAS ADD STATICCALL ISZERO PUSH2 0x473 JUMPI PUSH1 0x40 SWAP3 PUSH1 0x6 PUSH1 0x80 SWAP4 SWAP3 DUP5 SWAP4 DUP5 MLOAD SWAP1 MSTORE PUSH1 0xA0 MLOAD PUSH1 0x60 DUP5 ADD MSTORE GAS ADD STATICCALL ISZERO PUSH2 0x473 JUMPI JUMP JUMPDEST PUSH1 0x40 MLOAD SWAP1 PUSH32 0x11597F6A9CA2D85508F1BEE1CA259537DF5E185D204C767773CF5C3B712D422F DUP3 MSTORE PUSH32 0x20366329B29AE06A38572F79E155300D92A67682547CD95C9B79AB14657AC1B0 PUSH1 0x20 DUP4 ADD MSTORE PUSH1 0x40 DUP3 ADD SWAP1 DUP2 MSTORE PUSH2 0x7CF NOT PUSH1 0x40 DUP4 PUSH1 0x60 DUP2 PUSH1 0x7 DUP6 GAS ADD STATICCALL ISZERO PUSH2 0x473 JUMPI PUSH1 0x40 SWAP3 PUSH1 0x6 PUSH1 0x80 SWAP4 SWAP3 DUP5 SWAP4 DUP5 MLOAD SWAP1 MSTORE PUSH1 0xA0 MLOAD PUSH1 0x60 DUP5 ADD MSTORE GAS ADD STATICCALL ISZERO PUSH2 0x473 JUMPI JUMP JUMPDEST PUSH1 0x40 MLOAD SWAP1 PUSH32 0x3004D411557403A1EFE5A187E18008F3573CD585160BFE9D55EFCFCF6BE5CD83 DUP3 MSTORE PUSH32 0xA81212FE398DC0FEFB709EBEC41DB2AD4124CBDE8BBF3DD427D1B9926348388 PUSH1 0x20 DUP4 ADD MSTORE PUSH1 0x40 DUP3 ADD SWAP1 DUP2 MSTORE PUSH2 0x7CF NOT PUSH1 0x40 DUP4 PUSH1 0x60 DUP2 PUSH1 0x7 DUP6 GAS ADD STATICCALL ISZERO PUSH2 0x473 JUMPI PUSH1 0x40 SWAP3 PUSH1 0x6 PUSH1 0x80 SWAP4 SWAP3 DUP5 SWAP4 DUP5 MLOAD SWAP1 MSTORE PUSH1 0xA0 MLOAD PUSH1 0x60 DUP5 ADD MSTORE GAS ADD STATICCALL ISZERO PUSH2 0x473 JUMPI JUMP JUMPDEST PUSH1 0x40 MLOAD SWAP1 PUSH32 0x278F926955CC34CEB18B785477F6B864AA4A36F08AC113ED77A1D39520464690 DUP3 MSTORE PUSH32 0x2311F49940D1E45FBD5957EEE0AD4148D2E1C94E04D6046A5EB51D886CCA02F1 PUSH1 0x20 DUP4 ADD MSTORE PUSH1 0x40 DUP3 ADD SWAP1 DUP2 MSTORE PUSH2 0x7CF NOT PUSH1 0x40 DUP4 PUSH1 0x60 DUP2 PUSH1 0x7 DUP6 GAS ADD STATICCALL ISZERO PUSH2 0x473 JUMPI PUSH1 0x40 SWAP3 PUSH1 0x6 PUSH1 0x80 SWAP4 SWAP3 DUP5 SWAP4 DUP5 MLOAD SWAP1 MSTORE PUSH1 0xA0 MLOAD PUSH1 0x60 DUP5 ADD MSTORE GAS ADD STATICCALL ISZERO PUSH2 0x473 JUMPI JUMP JUMPDEST PUSH1 0x40 MLOAD SWAP1 PUSH32 0x9087516534AFB4D3EA24696C0914329580CD7B0022422D5543A6D464A9AB364 DUP3 MSTORE PUSH32 0x14D5269DE921A892B75E9B75582C66836EDAC31CE64996A1E685563A63A9BC28 PUSH1 0x20 DUP4 ADD MSTORE PUSH1 0x40 DUP3 ADD SWAP1 DUP2 MSTORE PUSH2 0x7CF NOT PUSH1 0x40 DUP4 PUSH1 0x60 DUP2 PUSH1 0x7 DUP6 GAS ADD STATICCALL ISZERO PUSH2 0x473 JUMPI PUSH1 0x40 SWAP3 PUSH1 0x6 PUSH1 0x80 SWAP4 SWAP3 DUP5 SWAP4 DUP5 MLOAD SWAP1 MSTORE PUSH1 0xA0 MLOAD PUSH1 0x60 DUP5 ADD MSTORE GAS ADD STATICCALL ISZERO PUSH2 0x473 JUMPI JUMP JUMPDEST PUSH1 0x40 MLOAD SWAP1 PUSH32 0x19F61377658B696E15AAB3C59996FC138EE574EE53C5D3178968003C7D28D500 DUP3 MSTORE PUSH32 0x101E662127EC8A702B70415C8448BA5A127B71B89B1323F3CB70F8D554A34B93 PUSH1 0x20 DUP4 ADD MSTORE PUSH1 0x40 DUP3 ADD SWAP1 DUP2 MSTORE PUSH2 0x7CF NOT PUSH1 0x40 DUP4 PUSH1 0x60 DUP2 PUSH1 0x7 DUP6 GAS ADD STATICCALL ISZERO PUSH2 0x473 JUMPI PUSH1 0x40 SWAP3 PUSH1 0x6 PUSH1 0x80 SWAP4 SWAP3 DUP5 SWAP4 DUP5 MLOAD SWAP1 MSTORE PUSH1 0xA0 MLOAD PUSH1 0x60 DUP5 ADD MSTORE GAS ADD STATICCALL ISZERO PUSH2 0x473 JUMPI JUMP JUMPDEST PUSH1 0x40 MLOAD SWAP1 PUSH32 0x626083A2372D1D78F0F7AB7989315B98A74DD56E21CDA0130458A9C7ACE9CE9 DUP3 MSTORE PUSH32 0x2BD1EDAD91C1BEB98C92860495C3160D9FC724E2B12FB1EA01C07D4ECC4FBD74 PUSH1 0x20 DUP4 ADD MSTORE PUSH1 0x40 DUP3 ADD SWAP1 DUP2 MSTORE PUSH2 0x7CF NOT PUSH1 0x40 DUP4 PUSH1 0x60 DUP2 PUSH1 0x7 DUP6 GAS ADD STATICCALL ISZERO PUSH2 0x473 JUMPI PUSH1 0x40 SWAP3 PUSH1 0x6 PUSH1 0x80 SWAP4 SWAP3 DUP5 SWAP4 DUP5 MLOAD SWAP1 MSTORE PUSH1 0xA0 MLOAD PUSH1 0x60 DUP5 ADD MSTORE GAS ADD STATICCALL ISZERO PUSH2 0x473 JUMPI JUMP JUMPDEST PUSH1 0x40 MLOAD SWAP1 PUSH32 0xB8B3CB09E46BC30840B7E36D4FD880EDD5D80B1A32A6637C8CB3C20132C6A8D DUP3 MSTORE PUSH32 0x287452BD35F752751DC16988FBDEFCF9FDA623BA39B47942433E00AD806CF0D2 PUSH1 0x20 DUP4 ADD MSTORE PUSH1 0x40 DUP3 ADD SWAP1 DUP2 MSTORE PUSH2 0x7CF NOT PUSH1 0x40 DUP4 PUSH1 0x60 DUP2 PUSH1 0x7 DUP6 GAS ADD STATICCALL ISZERO PUSH2 0x473 JUMPI PUSH1 0x40 SWAP3 PUSH1 0x6 PUSH1 0x80 SWAP4 SWAP3 DUP5 SWAP4 DUP5 MLOAD SWAP1 MSTORE PUSH1 0xA0 MLOAD PUSH1 0x60 DUP5 ADD MSTORE GAS ADD STATICCALL ISZERO PUSH2 0x473 JUMPI JUMP INVALID LOG2 PUSH5 0x6970667358 0x22 SLT KECCAK256 CALLDATALOAD EXTCODEHASH 0x26 PUSH23 0xAEBBDCB4CE50117017082AE374F90C49658703550AF477 DUP3 ADD SWAP9 SWAP1 0x29 PUSH5 0x736F6C6343 STOP ADDMOD SGT STOP CALLER "},"methodIdentifiers":{"verifyProof(uint256[2],uint256[2][2],uint256[2],uint256[10])":"f3bb70f6"}}}}}