{"project/contracts/contract.sol":{"Contract":{"abi":[{"inputs":[{"internalType":"address[]","name":"_trusteeAddresses","type":"address[]"},{"internalType":"uint256","name":"_threshold","type":"uint256"}],"stateMutability":"nonpayable","type":"constructor"},{"inputs":[],"name":"AlreadyCommitted","type":"error"},{"inputs":[],"name":"AlreadyKeySet","type":"error"},{"inputs":[],"name":"AlreadyProcessed","type":"error"},{"inputs":[],"name":"AlreadyPublished","type":"error"},{"inputs":[],"name":"AlreadyRegistered","type":"error"},{"inputs":[],"name":"AlreadyVoted","type":"error"},{"inputs":[],"name":"CandidateCountMismatch","type":"error"},{"inputs":[],"name":"ElectionAlreadyStarted","type":"error"},{"inputs":[],"name":"ElectionNotEnded","type":"error"},{"inputs":[],"name":"ElectionNotFound","type":"error"},{"inputs":[],"name":"ElectionNotOpen","type":"error"},{"inputs":[],"name":"EmailAlreadyUsed","type":"error"},{"inputs":[],"name":"EmptyInput","type":"error"},{"inputs":[],"name":"ICAlreadyUsed","type":"error"},{"inputs":[],"name":"InsufficientTrustees","type":"error"},{"inputs":[],"name":"InvalidAge","type":"error"},{"inputs":[],"name":"InvalidCommitment","type":"error"},{"inputs":[],"name":"InvalidDate","type":"error"},{"inputs":[],"name":"InvalidElectionId","type":"error"},{"inputs":[],"name":"InvalidThreshold","type":"error"},{"inputs":[],"name":"KeyNotSet","type":"error"},{"inputs":[],"name":"NoVerifier","type":"error"},{"inputs":[],"name":"NoVotesCast","type":"error"},{"inputs":[],"name":"NotAdmin","type":"error"},{"inputs":[],"name":"NotInNominationWindow","type":"error"},{"inputs":[],"name":"NotPending","type":"error"},{"inputs":[],"name":"NotRegistered","type":"error"},{"inputs":[],"name":"NotTrustee","type":"error"},{"inputs":[],"name":"NotVerified","type":"error"},{"inputs":[],"name":"PDHashMismatch","type":"error"},{"inputs":[],"name":"ProofFailed","type":"error"},{"inputs":[],"name":"ShareNotCommitted","type":"error"},{"inputs":[],"name":"TallyHashMismatch","type":"error"},{"inputs":[],"name":"TallyNotStored","type":"error"},{"inputs":[],"name":"ThresholdNotMet","type":"error"},{"inputs":[],"name":"ThresholdTooLarge","type":"error"},{"inputs":[],"name":"TimingError","type":"error"},{"inputs":[],"name":"Unauthorized","type":"error"},{"inputs":[],"name":"ZeroAddress","type":"error"},{"anonymous":false,"inputs":[{"indexed":true,"internalType":"uint256","name":"electionId","type":"uint256"},{"indexed":true,"internalType":"address","name":"candidateWallet","type":"address"},{"indexed":false,"internalType":"uint256","name":"timestamp","type":"uint256"}],"name":"CandidateApplied","type":"event"},{"anonymous":false,"inputs":[{"indexed":true,"internalType":"uint256","name":"electionId","type":"uint256"},{"indexed":true,"internalType":"address","name":"candidateWallet","type":"address"},{"indexed":true,"internalType":"address","name":"approver","type":"address"},{"indexed":false,"internalType":"uint256","name":"timestamp","type":"uint256"}],"name":"CandidateApproved","type":"event"},{"anonymous":false,"inputs":[{"indexed":true,"internalType":"address","name":"wallet","type":"address"},{"indexed":false,"internalType":"string","name":"name","type":"string"},{"indexed":false,"internalType":"string","name":"email","type":"string"},{"indexed":false,"internalType":"uint256","name":"timestamp","type":"uint256"}],"name":"CandidateRegistered","type":"event"},{"anonymous":false,"inputs":[{"indexed":true,"internalType":"uint256","name":"electionId","type":"uint256"},{"indexed":true,"internalType":"address","name":"candidateWallet","type":"address"},{"indexed":true,"internalType":"address","name":"rejector","type":"address"},{"indexed":false,"internalType":"uint256","name":"timestamp","type":"uint256"}],"name":"CandidateRejected","type":"event"},{"anonymous":false,"inputs":[{"indexed":true,"internalType":"address","name":"wallet","type":"address"},{"indexed":false,"internalType":"uint256","name":"timestamp","type":"uint256"}],"name":"CandidateVerified","type":"event"},{"anonymous":false,"inputs":[{"indexed":true,"internalType":"uint256","name":"electionId","type":"uint256"},{"indexed":false,"internalType":"string","name":"title","type":"string"},{"indexed":true,"internalType":"address","name":"organizer","type":"address"},{"indexed":false,"internalType":"uint256","name":"nominationStartTime","type":"uint256"},{"indexed":false,"internalType":"uint256","name":"nominationEndTime","type":"uint256"},{"indexed":false,"internalType":"uint256","name":"startTime","type":"uint256"},{"indexed":false,"internalType":"uint256","name":"endTime","type":"uint256"},{"indexed":false,"internalType":"uint256","name":"timestamp","type":"uint256"}],"name":"ElectionCreated","type":"event"},{"anonymous":false,"inputs":[{"indexed":true,"internalType":"uint256","name":"electionId","type":"uint256"},{"indexed":false,"internalType":"string","name":"encryptedTally","type":"string"},{"indexed":false,"internalType":"uint256","name":"totalVotesCounted","type":"uint256"},{"indexed":false,"internalType":"uint256","name":"timestamp","type":"uint256"}],"name":"EncryptedTallyStored","type":"event"},{"anonymous":false,"inputs":[{"indexed":true,"internalType":"address","name":"applicant","type":"address"},{"indexed":false,"internalType":"string","name":"organizationName","type":"string"},{"indexed":false,"internalType":"bytes32","name":"emailHash","type":"bytes32"},{"indexed":false,"internalType":"uint256","name":"timestamp","type":"uint256"}],"name":"OrganizerRegistered","type":"event"},{"anonymous":false,"inputs":[{"indexed":true,"internalType":"address","name":"applicant","type":"address"},{"indexed":false,"internalType":"uint256","name":"timestamp","type":"uint256"}],"name":"OrganizerRejected","type":"event"},{"anonymous":false,"inputs":[{"indexed":true,"internalType":"address","name":"applicant","type":"address"},{"indexed":false,"internalType":"uint256","name":"timestamp","type":"uint256"}],"name":"OrganizerVerified","type":"event"},{"anonymous":false,"inputs":[{"indexed":false,"internalType":"string","name":"publicKeyN","type":"string"},{"indexed":false,"internalType":"uint256","name":"timestamp","type":"uint256"}],"name":"PaillierPublicKeySet","type":"event"},{"anonymous":false,"inputs":[{"indexed":true,"internalType":"uint256","name":"electionId","type":"uint256"},{"indexed":true,"internalType":"address","name":"trustee","type":"address"}],"name":"PartialDecryptionSubmitted","type":"event"},{"anonymous":false,"inputs":[{"indexed":true,"internalType":"uint256","name":"electionId","type":"uint256"},{"indexed":false,"internalType":"string","name":"decryptedResult","type":"string"},{"indexed":false,"internalType":"uint256","name":"timestamp","type":"uint256"}],"name":"ResultsPublished","type":"event"},{"anonymous":false,"inputs":[{"indexed":true,"internalType":"address","name":"trusteeAddress","type":"address"},{"indexed":false,"internalType":"bytes32","name":"commitment","type":"bytes32"},{"indexed":false,"internalType":"uint256","name":"timestamp","type":"uint256"}],"name":"ShareCommitmentSubmitted","type":"event"},{"anonymous":false,"inputs":[{"indexed":true,"internalType":"address","name":"trusteeAddress","type":"address"},{"indexed":false,"internalType":"uint256","name":"timestamp","type":"uint256"}],"name":"TrusteeRegistered","type":"event"},{"anonymous":false,"inputs":[{"indexed":true,"internalType":"bytes32","name":"commitment","type":"bytes32"},{"indexed":false,"internalType":"uint256","name":"timestamp","type":"uint256"}],"name":"VoterCommitmentStored","type":"event"},{"anonymous":false,"inputs":[{"indexed":true,"internalType":"address","name":"wallet","type":"address"},{"indexed":false,"internalType":"bytes32","name":"nameHash","type":"bytes32"},{"indexed":false,"internalType":"bytes32","name":"emailHash","type":"bytes32"},{"indexed":false,"internalType":"uint256","name":"timestamp","type":"uint256"}],"name":"VoterRegistered","type":"event"},{"anonymous":false,"inputs":[{"indexed":true,"internalType":"address","name":"wallet","type":"address"},{"indexed":false,"internalType":"uint256","name":"timestamp","type":"uint256"}],"name":"VoterVerified","type":"event"},{"anonymous":false,"inputs":[{"indexed":true,"internalType":"uint256","name":"electionId","type":"uint256"},{"indexed":true,"internalType":"bytes32","name":"nullifierHash","type":"bytes32"},{"indexed":true,"internalType":"bytes32","name":"choiceCommitment","type":"bytes32"},{"indexed":false,"internalType":"uint256","name":"timestamp","type":"uint256"}],"name":"ZKPVoteCast","type":"event"},{"inputs":[],"name":"admin","outputs":[{"internalType":"address","name":"","type":"address"}],"stateMutability":"view","type":"function"},{"inputs":[],"name":"allTrusteesCommitted","outputs":[{"internalType":"bool","name":"","type":"bool"}],"stateMutability":"view","type":"function"},{"inputs":[{"internalType":"uint256","name":"_electionId","type":"uint256"}],"name":"applyToElection","outputs":[{"internalType":"bool","name":"","type":"bool"}],"stateMutability":"nonpayable","type":"function"},{"inputs":[{"internalType":"uint256","name":"_electionId","type":"uint256"},{"internalType":"address","name":"_candidateWallet","type":"address"}],"name":"approveCandidateForElection","outputs":[{"internalType":"bool","name":"","type":"bool"}],"stateMutability":"nonpayable","type":"function"},{"inputs":[{"internalType":"uint256","name":"","type":"uint256"},{"internalType":"address","name":"","type":"address"}],"name":"candidateApplicationStatus","outputs":[{"internalType":"uint8","name":"","type":"uint8"}],"stateMutability":"view","type":"function"},{"inputs":[{"internalType":"address","name":"","type":"address"}],"name":"candidates","outputs":[{"internalType":"address","name":"wallet","type":"address"},{"internalType":"string","name":"name","type":"string"},{"internalType":"bytes32","name":"icHash","type":"bytes32"},{"internalType":"string","name":"email","type":"string"},{"internalType":"string","name":"party","type":"string"},{"internalType":"string","name":"manifesto","type":"string"},{"internalType":"uint8","name":"status","type":"uint8"},{"internalType":"bytes32","name":"verificationCode","type":"bytes32"},{"internalType":"uint256","name":"registeredAt","type":"uint256"},{"internalType":"uint256","name":"verifiedAt","type":"uint256"},{"internalType":"bool","name":"isRegistered","type":"bool"}],"stateMutability":"view","type":"function"},{"inputs":[{"internalType":"string","name":"_title","type":"string"},{"internalType":"string","name":"_description","type":"string"},{"internalType":"uint256","name":"_nominationStartTime","type":"uint256"},{"internalType":"uint256","name":"_nominationEndTime","type":"uint256"},{"internalType":"uint256","name":"_startTime","type":"uint256"},{"internalType":"uint256","name":"_endTime","type":"uint256"}],"name":"createElection","outputs":[{"internalType":"uint256","name":"","type":"uint256"}],"stateMutability":"nonpayable","type":"function"},{"inputs":[{"internalType":"uint256","name":"","type":"uint256"}],"name":"elections","outputs":[{"internalType":"uint256","name":"id","type":"uint256"},{"internalType":"string","name":"title","type":"string"},{"internalType":"string","name":"description","type":"string"},{"internalType":"address","name":"organizer","type":"address"},{"internalType":"uint256","name":"nominationStartTime","type":"uint256"},{"internalType":"uint256","name":"nominationEndTime","type":"uint256"},{"internalType":"uint256","name":"startTime","type":"uint256"},{"internalType":"uint256","name":"endTime","type":"uint256"},{"internalType":"bool","name":"isActive","type":"bool"},{"internalType":"uint256","name":"createdAt","type":"uint256"},{"internalType":"uint256","name":"totalVotes","type":"uint256"},{"internalType":"string","name":"encryptedTally","type":"string"},{"internalType":"bool","name":"tallyStored","type":"bool"},{"internalType":"string","name":"decryptedResult","type":"string"},{"internalType":"bool","name":"resultsPublished","type":"bool"}],"stateMutability":"view","type":"function"},{"inputs":[],"name":"getActiveElections","outputs":[{"internalType":"uint256[]","name":"","type":"uint256[]"}],"stateMutability":"view","type":"function"},{"inputs":[],"name":"getAllCandidateAddresses","outputs":[{"internalType":"address[]","name":"","type":"address[]"}],"stateMutability":"view","type":"function"},{"inputs":[],"name":"getAllElectionIds","outputs":[{"internalType":"uint256[]","name":"","type":"uint256[]"}],"stateMutability":"view","type":"function"},{"inputs":[],"name":"getAllOrganizers","outputs":[{"internalType":"address[]","name":"","type":"address[]"}],"stateMutability":"view","type":"function"},{"inputs":[],"name":"getAllVoterAddresses","outputs":[{"internalType":"address[]","name":"","type":"address[]"}],"stateMutability":"view","type":"function"},{"inputs":[{"internalType":"uint256","name":"_electionId","type":"uint256"}],"name":"getApprovedCandidates","outputs":[{"internalType":"address[]","name":"","type":"address[]"}],"stateMutability":"view","type":"function"},{"inputs":[{"internalType":"address","name":"_wallet","type":"address"}],"name":"getCandidateInfo","outputs":[{"internalType":"string","name":"name","type":"string"},{"internalType":"string","name":"email","type":"string"},{"internalType":"string","name":"party","type":"string"},{"internalType":"string","name":"manifesto","type":"string"},{"internalType":"string","name":"status","type":"string"},{"internalType":"uint256","name":"registeredAt","type":"uint256"},{"internalType":"uint256","name":"verifiedAt","type":"uint256"}],"stateMutability":"view","type":"function"},{"inputs":[{"internalType":"uint256","name":"_electionId","type":"uint256"},{"internalType":"bytes32","name":"_nullifier","type":"bytes32"}],"name":"getChoiceCommitment","outputs":[{"internalType":"bytes32","name":"","type":"bytes32"}],"stateMutability":"view","type":"function"},{"inputs":[{"internalType":"uint256","name":"_electionId","type":"uint256"}],"name":"getElectionCandidateApplicants","outputs":[{"internalType":"address[]","name":"","type":"address[]"}],"stateMutability":"view","type":"function"},{"inputs":[{"internalType":"uint256","name":"_electionId","type":"uint256"}],"name":"getElectionInfo","outputs":[{"internalType":"string","name":"title","type":"string"},{"internalType":"string","name":"description","type":"string"},{"internalType":"address","name":"organizer","type":"address"},{"internalType":"uint256","name":"nominationStartTime","type":"uint256"},{"internalType":"uint256","name":"nominationEndTime","type":"uint256"},{"internalType":"uint256","name":"startTime","type":"uint256"},{"internalType":"uint256","name":"endTime","type":"uint256"},{"internalType":"bool","name":"isActive","type":"bool"},{"internalType":"uint256","name":"createdAt","type":"uint256"}],"stateMutability":"view","type":"function"},{"inputs":[{"internalType":"uint256","name":"_electionId","type":"uint256"}],"name":"getElectionTotalVotes","outputs":[{"internalType":"uint256","name":"","type":"uint256"}],"stateMutability":"view","type":"function"},{"inputs":[{"internalType":"address","name":"_organizer","type":"address"}],"name":"getElectionsByOrganizer","outputs":[{"internalType":"uint256[]","name":"","type":"uint256[]"}],"stateMutability":"view","type":"function"},{"inputs":[{"internalType":"uint256","name":"_electionId","type":"uint256"}],"name":"getEncryptedTally","outputs":[{"internalType":"string","name":"encryptedTally","type":"string"},{"internalType":"uint256","name":"totalVotes","type":"uint256"},{"internalType":"bool","name":"tallyStored","type":"bool"}],"stateMutability":"view","type":"function"},{"inputs":[{"internalType":"address","name":"_applicant","type":"address"}],"name":"getOrganizerInfo","outputs":[{"internalType":"string","name":"organizationName","type":"string"},{"internalType":"bytes32","name":"emailHash","type":"bytes32"},{"internalType":"string","name":"description","type":"string"},{"internalType":"string","name":"status","type":"string"},{"internalType":"uint256","name":"registeredAt","type":"uint256"}],"stateMutability":"view","type":"function"},{"inputs":[],"name":"getPaillierPublicKey","outputs":[{"internalType":"string","name":"","type":"string"}],"stateMutability":"view","type":"function"},{"inputs":[{"internalType":"uint256","name":"_electionId","type":"uint256"},{"internalType":"address","name":"_trustee","type":"address"}],"name":"getPartialDecryption","outputs":[{"internalType":"string","name":"","type":"string"}],"stateMutability":"view","type":"function"},{"inputs":[{"internalType":"uint256","name":"_electionId","type":"uint256"}],"name":"getPartialDecryptionSubmitters","outputs":[{"internalType":"address[]","name":"","type":"address[]"}],"stateMutability":"view","type":"function"},{"inputs":[],"name":"getPendingOrganizers","outputs":[{"internalType":"address[]","name":"","type":"address[]"}],"stateMutability":"view","type":"function"},{"inputs":[{"internalType":"uint256","name":"_electionId","type":"uint256"}],"name":"getResults","outputs":[{"internalType":"string","name":"decryptedResult","type":"string"},{"internalType":"bool","name":"resultsPublished","type":"bool"},{"internalType":"uint256","name":"shareCount","type":"uint256"}],"stateMutability":"view","type":"function"},{"inputs":[],"name":"getTotalElections","outputs":[{"internalType":"uint256","name":"","type":"uint256"}],"stateMutability":"view","type":"function"},{"inputs":[],"name":"getTotalRegisteredVoters","outputs":[{"internalType":"uint256","name":"","type":"uint256"}],"stateMutability":"view","type":"function"},{"inputs":[],"name":"getTrusteeAddresses","outputs":[{"internalType":"address[]","name":"","type":"address[]"}],"stateMutability":"view","type":"function"},{"inputs":[{"internalType":"address","name":"_trustee","type":"address"}],"name":"getTrusteeInfo","outputs":[{"internalType":"address","name":"walletAddress","type":"address"},{"internalType":"bytes32","name":"shareCommitment","type":"bytes32"},{"internalType":"bool","name":"hasSubmittedCommitment","type":"bool"},{"internalType":"uint256","name":"registeredAt","type":"uint256"}],"stateMutability":"view","type":"function"},{"inputs":[{"internalType":"address","name":"_wallet","type":"address"}],"name":"getVoterInfo","outputs":[{"internalType":"bytes32","name":"nameHash","type":"bytes32"},{"internalType":"bytes32","name":"emailHash","type":"bytes32"},{"internalType":"string","name":"status","type":"string"},{"internalType":"uint256","name":"registeredAt","type":"uint256"},{"internalType":"uint256","name":"verifiedAt","type":"uint256"}],"stateMutability":"view","type":"function"},{"inputs":[{"internalType":"uint256","name":"_electionId","type":"uint256"},{"internalType":"bytes32","name":"_nullifier","type":"bytes32"}],"name":"getZKPVote","outputs":[{"internalType":"string","name":"","type":"string"}],"stateMutability":"view","type":"function"},{"inputs":[{"internalType":"uint256","name":"_electionId","type":"uint256"}],"name":"getZKPVoteNullifiers","outputs":[{"internalType":"bytes32[]","name":"","type":"bytes32[]"}],"stateMutability":"view","type":"function"},{"inputs":[{"internalType":"address","name":"_address","type":"address"}],"name":"isAdmin","outputs":[{"internalType":"bool","name":"","type":"bool"}],"stateMutability":"view","type":"function"},{"inputs":[{"internalType":"address","name":"_wallet","type":"address"}],"name":"isCandidateRegistered","outputs":[{"internalType":"bool","name":"","type":"bool"}],"stateMutability":"view","type":"function"},{"inputs":[{"internalType":"bytes32","name":"_emailHash","type":"bytes32"}],"name":"isEmailRegistered","outputs":[{"internalType":"bool","name":"","type":"bool"}],"stateMutability":"view","type":"function"},{"inputs":[{"internalType":"bytes32","name":"_icHash","type":"bytes32"}],"name":"isICRegistered","outputs":[{"internalType":"bool","name":"","type":"bool"}],"stateMutability":"view","type":"function"},{"inputs":[{"internalType":"address","name":"_address","type":"address"}],"name":"isOrganizer","outputs":[{"internalType":"bool","name":"","type":"bool"}],"stateMutability":"view","type":"function"},{"inputs":[{"internalType":"address","name":"_address","type":"address"}],"name":"isOrganizerRegistered","outputs":[{"internalType":"bool","name":"","type":"bool"}],"stateMutability":"view","type":"function"},{"inputs":[],"name":"isPaillierKeySet","outputs":[{"internalType":"bool","name":"","type":"bool"}],"stateMutability":"view","type":"function"},{"inputs":[{"internalType":"address","name":"_wallet","type":"address"}],"name":"isVoterRegistered","outputs":[{"internalType":"bool","name":"","type":"bool"}],"stateMutability":"view","type":"function"},{"inputs":[{"internalType":"address","name":"_wallet","type":"address"}],"name":"isWalletRegistered","outputs":[{"internalType":"bool","name":"","type":"bool"}],"stateMutability":"view","type":"function"},{"inputs":[{"internalType":"uint256","name":"","type":"uint256"},{"internalType":"bytes32","name":"","type":"bytes32"}],"name":"nullifierUsed","outputs":[{"internalType":"bool","name":"","type":"bool"}],"stateMutability":"view","type":"function"},{"inputs":[],"name":"numTrustees","outputs":[{"internalType":"uint256","name":"","type":"uint256"}],"stateMutability":"view","type":"function"},{"inputs":[{"internalType":"address","name":"","type":"address"}],"name":"organizers","outputs":[{"internalType":"address","name":"wallet","type":"address"},{"internalType":"string","name":"organizationName","type":"string"},{"internalType":"bytes32","name":"emailHash","type":"bytes32"},{"internalType":"string","name":"description","type":"string"},{"internalType":"uint8","name":"status","type":"uint8"},{"internalType":"uint256","name":"registeredAt","type":"uint256"},{"internalType":"bool","name":"isRegistered","type":"bool"}],"stateMutability":"view","type":"function"},{"inputs":[],"name":"paillierPublicKeyN","outputs":[{"internalType":"string","name":"","type":"string"}],"stateMutability":"view","type":"function"},{"inputs":[{"internalType":"uint256","name":"","type":"uint256"},{"internalType":"uint256","name":"","type":"uint256"}],"name":"partialDecryptionSubmitters","outputs":[{"internalType":"address","name":"","type":"address"}],"stateMutability":"view","type":"function"},{"inputs":[{"internalType":"uint256","name":"","type":"uint256"},{"internalType":"address","name":"","type":"address"}],"name":"partialDecryptions","outputs":[{"internalType":"string","name":"","type":"string"}],"stateMutability":"view","type":"function"},{"inputs":[{"internalType":"uint256","name":"_electionId","type":"uint256"},{"internalType":"string","name":"_decryptedResult","type":"string"},{"internalType":"bytes32","name":"_pdInputHash","type":"bytes32"}],"name":"publishResults","outputs":[],"stateMutability":"nonpayable","type":"function"},{"inputs":[{"internalType":"string","name":"_name","type":"string"},{"internalType":"bytes32","name":"_icHash","type":"bytes32"},{"internalType":"string","name":"_email","type":"string"},{"internalType":"string","name":"_party","type":"string"},{"internalType":"string","name":"_manifesto","type":"string"}],"name":"registerCandidate","outputs":[{"internalType":"bytes32","name":"","type":"bytes32"}],"stateMutability":"nonpayable","type":"function"},{"inputs":[{"internalType":"string","name":"_organizationName","type":"string"},{"internalType":"bytes32","name":"_emailHash","type":"bytes32"},{"internalType":"string","name":"_description","type":"string"}],"name":"registerOrganizer","outputs":[{"internalType":"bool","name":"","type":"bool"}],"stateMutability":"nonpayable","type":"function"},{"inputs":[{"internalType":"bytes32","name":"_nameHash","type":"bytes32"},{"internalType":"bytes32","name":"_icHash","type":"bytes32"},{"internalType":"bytes32","name":"_emailHash","type":"bytes32"}],"name":"registerVoter","outputs":[{"internalType":"bytes32","name":"","type":"bytes32"}],"stateMutability":"nonpayable","type":"function"},{"inputs":[{"internalType":"uint256","name":"_electionId","type":"uint256"},{"internalType":"address","name":"_candidateWallet","type":"address"}],"name":"rejectCandidateForElection","outputs":[{"internalType":"bool","name":"","type":"bool"}],"stateMutability":"nonpayable","type":"function"},{"inputs":[{"internalType":"string","name":"_publicKeyN","type":"string"}],"name":"setPaillierPublicKey","outputs":[],"stateMutability":"nonpayable","type":"function"},{"inputs":[{"internalType":"address","name":"_voteVerifier","type":"address"}],"name":"setVoteVerifier","outputs":[],"stateMutability":"nonpayable","type":"function"},{"inputs":[{"internalType":"uint256","name":"_electionId","type":"uint256"},{"internalType":"string","name":"_encryptedTally","type":"string"},{"internalType":"bytes32","name":"_tallyInputHash","type":"bytes32"}],"name":"storeEncryptedTally","outputs":[],"stateMutability":"nonpayable","type":"function"},{"inputs":[{"internalType":"uint256","name":"_electionId","type":"uint256"},{"internalType":"string","name":"_pd","type":"string"}],"name":"submitPartialDecryption","outputs":[],"stateMutability":"nonpayable","type":"function"},{"inputs":[{"internalType":"address","name":"_trustee","type":"address"},{"internalType":"bytes32","name":"_commitment","type":"bytes32"}],"name":"submitShareCommitment","outputs":[],"stateMutability":"nonpayable","type":"function"},{"inputs":[],"name":"threshold","outputs":[{"internalType":"uint256","name":"","type":"uint256"}],"stateMutability":"view","type":"function"},{"inputs":[{"internalType":"uint256","name":"","type":"uint256"}],"name":"trusteeAddresses","outputs":[{"internalType":"address","name":"","type":"address"}],"stateMutability":"view","type":"function"},{"inputs":[{"internalType":"address","name":"","type":"address"}],"name":"trustees","outputs":[{"internalType":"address","name":"walletAddress","type":"address"},{"internalType":"bytes32","name":"shareCommitment","type":"bytes32"},{"internalType":"bool","name":"hasSubmittedCommitment","type":"bool"},{"internalType":"uint256","name":"registeredAt","type":"uint256"}],"stateMutability":"view","type":"function"},{"inputs":[{"internalType":"uint256[2]","name":"_pA","type":"uint256[2]"},{"internalType":"uint256[2][2]","name":"_pB","type":"uint256[2][2]"},{"internalType":"uint256[2]","name":"_pC","type":"uint256[2]"},{"internalType":"uint256[10]","name":"_pubSignals","type":"uint256[10]"}],"name":"verifyCandidateWithZKP","outputs":[],"stateMutability":"nonpayable","type":"function"},{"inputs":[{"internalType":"address","name":"_applicant","type":"address"}],"name":"verifyOrganizer","outputs":[{"internalType":"bool","name":"","type":"bool"}],"stateMutability":"nonpayable","type":"function"},{"inputs":[{"internalType":"uint256[2]","name":"_pA","type":"uint256[2]"},{"internalType":"uint256[2][2]","name":"_pB","type":"uint256[2][2]"},{"internalType":"uint256[2]","name":"_pC","type":"uint256[2]"},{"internalType":"uint256[10]","name":"_pubSignals","type":"uint256[10]"}],"name":"verifyVoterWithZKP","outputs":[],"stateMutability":"nonpayable","type":"function"},{"inputs":[{"internalType":"uint256","name":"_electionId","type":"uint256"},{"internalType":"string","name":"_ipfsCID","type":"string"},{"internalType":"uint256[2]","name":"_pA","type":"uint256[2]"},{"internalType":"uint256[2][2]","name":"_pB","type":"uint256[2][2]"},{"internalType":"uint256[2]","name":"_pC","type":"uint256[2]"},{"internalType":"uint256[10]","name":"_pubSignals","type":"uint256[10]"}],"name":"vote","outputs":[{"internalType":"bool","name":"","type":"bool"}],"stateMutability":"nonpayable","type":"function"},{"inputs":[{"internalType":"uint256","name":"","type":"uint256"},{"internalType":"bytes32","name":"","type":"bytes32"}],"name":"voteChoiceCommitments","outputs":[{"internalType":"bytes32","name":"","type":"bytes32"}],"stateMutability":"view","type":"function"},{"inputs":[],"name":"voteVerifier","outputs":[{"internalType":"contract IVoteVerifier","name":"","type":"address"}],"stateMutability":"view","type":"function"},{"inputs":[{"internalType":"bytes32","name":"","type":"bytes32"}],"name":"voterCommitments","outputs":[{"internalType":"bool","name":"","type":"bool"}],"stateMutability":"view","type":"function"},{"inputs":[{"internalType":"address","name":"","type":"address"}],"name":"voters","outputs":[{"internalType":"address","name":"wallet","type":"address"},{"internalType":"bytes32","name":"nameHash","type":"bytes32"},{"internalType":"bytes32","name":"icHash","type":"bytes32"},{"internalType":"bytes32","name":"emailHash","type":"bytes32"},{"internalType":"uint8","name":"status","type":"uint8"},{"internalType":"bytes32","name":"verificationCode","type":"bytes32"},{"internalType":"uint256","name":"registeredAt","type":"uint256"},{"internalType":"uint256","name":"verifiedAt","type":"uint256"},{"internalType":"bool","name":"isRegistered","type":"bool"}],"stateMutability":"view","type":"function"}],"evm":{"bytecode":{"linkReferences":{},"object":"604060e081523462000339576200566d90813803806200001f816200033e565b93843982018183820312620003395782516001600160401b0393908481116200033957810182601f820112156200033957805193858511620002c45760059285841b9460209384620000738189016200033e565b809981520190858298820101928311620003395790858094939201905b8282106200030d57505050015160029384875110620002fc57848210620002eb5786518211620002da573360c052865195888711620002c457680100000000000000008711620002c457855487875580881062000299575b5095600096868852858820885b8381106200027d57505050506080918252865160a052855b87518110156200020e5780821b88018501516001600160a01b03908116908115620001fd578551908582018281108d821117620001e95788918b918952848452828401828152898501918383528a606087019442865288815260038097522095511660018060a01b03198654161785555160018501558a84019051151560ff80198354169116179055519101557f7f13f422b26c2e8231c2ecd513ed654d95c661911a55fc299b5838be808b5777868651428152a26000198114620001d5576001016200010d565b634e487b7160e01b87526011600452602487fd5b634e487b7160e01b8b52604160045260248bfd5b855163d92e233d60e01b8152600490fd5b8284516153089182620003658339518181816137d101526143f6015260a05181613796015260c05181818161039c015281816105ec01528181610e81015281816111be01528181612f2c0152818161302601528181613a8501528181613ae40152818161406201526143810152f35b82516001600160a01b03168282015591870191600101620000f5565b60008781528887822092830192015b828110620002b8575050620000e8565b818155600101620002a8565b634e487b7160e01b600052604160045260246000fd5b825163f342327960e01b8152600490fd5b825163aabd5a0960e01b8152600490fd5b8251633846957b60e21b8152600490fd5b815193945091929091906001600160a01b03811681036200033957815285939291840190840162000090565b600080fd5b6040519190601f01601f191682016001600160401b03811183821017620002c45760405256fe608080604052600436101561001357600080fd5b60003560e01c90816301bc73821461434e57508063042ae68e146142d25780630544c5b91461421f5780630ccba4c3146103215780630e5495a1146141d457806315a804ae146141615780631e67f721146140dd5780631f28762d146140ba5780631f307f8c1461408957806324d7806c1461403957806326789d5614613eae57806328bde1e114613d1a57806329e7dbd914613cd85780632b12941614613aad5780632e337e68146138dc57806335e176f2146138405780633b0c9d2a14612d955780633b1951d61461381757806341676f15146137f457806342cde4e8146137b95780634baa69011461377e57806353ba6098146130de57806354733f431461300157806354ea3e8714612f035780635e6fef0114612dc85780636640423014612d9557806366ea235e146128e657806369a37b3e146128c85780636d28b653146126c55780637445917e1461266357806378187770146126445780637cf434f71461261f5780637f247e49146125be57806381a60c0d146125415780638644fd711461249b5780638a3b63b014610b745780638ab66a90146123915780638d6d4b25146122685780638eff7ae8146121e457806392d72595146121b157806394cd15db146120b957806395af607414611a8957806399d74c7114611a605780639d18a4f014611a0e5780639ed1f255146118e4578063a3ec138d14611847578063a79a93f81461180e578063a9392e0c146117f0578063b46f49a4146117b8578063b8a76edf14611437578063b9919e7e1461141b578063c214e6d51461136d578063c556bff814611335578063cb2b6ad214611228578063cc24179f1461119a578063cd06ea6314611169578063cd3b869814610e4e578063ce99b5df14610cbe578063cea04b0014610c3a578063d0c2a60914610c09578063d567c41e14610b79578063dee40f7414610b74578063e1907e6c146108f8578063eb2119db146108b6578063eee608a41461083e578063f10c068214610626578063f13a3ab61461040d578063f1ecdc58146103cb578063f851a440146103865763fd4872bd1461032157600080fd5b346103815760403660031901126103815761033a61470a565b600435600052601760205260406000209060018060a01b031660005260205261037d61036960406000206148db565b6040519182916020835260208301906149a2565b0390f35b600080fd5b34610381576000366003190112610381576040517f00000000000000000000000000000000000000000000000000000000000000006001600160a01b03168152602090f35b34610381576020366003190112610381576001600160a01b036103ec6146f4565b16600052600d602052602060ff600a60406000200154166040519015158152f35b346103815760403660031901126103815760043561042961470a565b906007548111610614578060005260209160098352604060002060405161044f81614791565b8154815261045f600183016148db565b8582015261046f600283016148db565b604082015260018060a01b03809181600385015416906060810191825260048501546080820152600585015460a08201526101c060ff600e60068801549760c08501988952600781015460e08601528260088201541615156101008601526009810154610120860152600a8101546101408601526104ef600b82016148db565b61016086015282600c820154161515610180860152610510600d82016148db565b6101a086015201541615159101525116331415806105e8575b6105d75783600052601085526040600020921691826000528452600160ff60406000205416036105c557514210156105b357816000526010835260406000208160005283526040600020600360ff19825416179055604051914283527fc6e463a55006ff0f9fd3fc710bbb06b977f23273a66af0979cbaec5abcea0a47843394a460405160018152f35b60405163d54e430760e01b8152600490fd5b604051633ee3282d60e11b8152600490fd5b6040516282b42960e81b8152600490fd5b50807f000000000000000000000000000000000000000000000000000000000000000016331415610529565b6040516305ce45f760e51b8152600490fd5b34610381576040366003190112610381576001600160401b036004356024358281116103815761065a90369060040161464c565b929092336000526020936003855260018060a01b03604060002054161561082c57836000526009855260ff600c60406000200154161561081757336000526003855260ff600260406000200154161561080557836000526017855260406000203360005285526106ce604060002054614720565b156107ea575b8360005260178552604060002033600052855260406000209282116107d457610707826107018554614720565b85614b98565b600094601f831160011461076c57509381929394600092610761575b50508160011b916000199060031b1c19161790555b33907f209a7f309632f82e36f4ccb21f2d41d561939dbfe1030b045cc17b7563125543600080a3005b013590508480610723565b90601f198316958460005282600020926000905b8882106107bc575050836001959697106107a2575b505050811b019055610738565b0135600019600384901b60f8161c19169055848080610795565b80600184968294958701358155019501920190610780565b634e487b7160e01b600052604160045260246000fd5b8360005260188552610800336040600020614d16565b6106d4565b6040516399c0063d60e01b8152600490fd5b60405160016209c87d60e41b03198152600490fd5b604051635aa309bb60e01b8152600490fd5b34610381576020366003190112610381576001600160a01b03806108606146f4565b16600052600360205260406000209081541661037d600183015492600360ff600283015416910154906040519485948590949392606092608083019660018060a01b031683526020830152151560408201520152565b34610381576020366003190112610381576001600160a01b036108d76146f4565b16600052600c602052602060ff600860406000200154166040519015158152f35b34610381576060366003190112610381576004356024356044359133600052602092600c845260ff60086040600020015416610b625782600052600a845260ff60406000205416610b505780600052600b845260ff60406000205416610b3e57604051848101933360601b85528360348301528060548301528260748301524260948301526094825260c08201948286106001600160401b038711176107d4578560405282519020946109aa816147ad565b338152610a7660e084019186835260088961010087019686885261012081019789895261014082019860008a526101608301908d8252610180840192428452600c6101c06101a087019660008852019660018852336000525260406000209760018060a01b03905116996001600160601b0360a01b9a8b8a541617895551600189015551600288015551600387015560ff600487019a51169960ff199a8b82541617905551600586015551600685015551600784015551151591019060ff801983541691151516179055565b600454600160401b8110156107d4576001810180600455811015610b28577f8a35acfbc15ff81a39ae7d344fd709f28e8600b4aa8c65c6b64bfe7fe36bd19b01903390825416179055600052600a8552604060002060018282541617905581600052600b85526001604060002091825416179055604051918252838201524260408201527f4a0760bd7a43ef7997b737233d55b1b1902178a1448890976c9a3c4cecbda51660603392a2604051908152f35b634e487b7160e01b600052603260045260246000fd5b60405163745491ff60e01b8152600490fd5b6040516331a0efdd60e21b8152600490fd5b604051630ea075bf60e21b8152600490fd5b614b11565b3461038157600036600319011261038157604051806005549182815260208091019260056000527f036b6384b5eca791c62761152d0c79bb0604c104a5fb6f4eb0703f3154bb3db0916000905b828210610be95761037d85610bdd818903826147ff565b604051918291826146b0565b83546001600160a01b031686529485019460019384019390910190610bc6565b34610381576020366003190112610381576004356000526012602052602060ff604060002054166040519015158152f35b3461038157600036600319011261038157604051806004549182815260208091019260046000527f8a35acfbc15ff81a39ae7d344fd709f28e8600b4aa8c65c6b64bfe7fe36bd19b916000905b828210610c9e5761037d85610bdd818903826147ff565b83546001600160a01b031686529485019460019384019390910190610c87565b346103815760203660031901126103815760043580158015610e43575b610614576000526009602052604060002060405190610cf982614791565b80548252610d09600182016148db565b60208301908152610d1c600283016148db565b9260408101938452600160a01b600190039182600385015416916060810192835260048501549360808201948552600586015460a08301908152600687015460c0840190815260078801549160e08501928352600889015460ff169361010096878701951515865260098b0154966101209b8c8201988952600a810154610140830152600b8101610dac906148db565b610160830152600c81015460ff161515610180830152610dce600d82016148db565b6101a0830152600e015460ff161515906101c00152519a519751169751905191519251935115159451966040519a8a8c9b8c528b01610e0c916149a2565b8a810360208c0152610e1d916149a2565b9760408a01526060890152608088015260a087015260c086015260e08501528301520390f35b506007548111610cdb565b3461038157610e5c36614679565b92919082600052600993602090858252604060002054156106145760018060a01b03807f000000000000000000000000000000000000000000000000000000000000000016331415908161114d575b506105d7578460005285825260ff600c604060002001541661113b5782156111295784600052858252600760406000200154421115611117578460005260159081835260406000205491821561110557604051610f07816147c9565b60008152906000905b8585831061108b579150508151910120036110795784600052858252600b604060002001956001600160401b0384116107d457610f5784610f518954614720565b89614b98565b600096601f8511600114610ff557847f0ed878d46369d37bab765405163b91e6cacef96258026b8c7af968904c728b339798600091610fea575b508560011b906000198760031b1c19161790555b86600052825280600a6040600020600c8101600160ff198254161790550155610fdb604051948594606086526060860191614bec565b918301524260408301520390a2005b905086013589610f91565b601f1985169781600052846000209060005b8a81106110625750867f0ed878d46369d37bab765405163b91e6cacef96258026b8c7af968904c728b33999a10611048575b5050600185811b019055610fa5565b870135600019600388901b60f8161c191690558880611039565b90918660018192858c013581550193019101611007565b604051631ed5a3c560e21b8152600490fd5b6110f96110ff9293948b6000528483526110a9866040600020614abe565b90548d6000526014855260406000209160031b1c60005283526110eb604060002060405194836110e2879551809284808901910161497f565b84010190614c93565b03601f1981018352826147ff565b92614c0d565b90610f10565b60405163354ba2d560e01b8152600490fd5b604051635b177c7d60e11b8152600490fd5b60405163a447fc5360e01b8152600490fd5b604051639ac89bcd60e01b8152600490fd5b9050856000528683526003604060002001541633141587610eab565b3461038157602036600319011261038157600435600052600a602052602060ff604060002054166040519015158152f35b34610381576020366003190112610381576111b36146f4565b6001600160a01b03907f00000000000000000000000000000000000000000000000000000000000000008216330361121657168015611204576001600160601b0360a01b6011541617601155600080f35b60405163d92e233d60e01b8152600490fd5b604051637bfa4b9f60e01b8152600490fd5b34610381576000366003190112610381576006546000805b8281106112e0575061125190614f82565b906000805b82811061126b576040518061037d86826146b0565b61127481614a87565b60018060a01b03809254600392831b1c16600052600e60205260ff60046040600020015416156112af575b50506112aa90614c0d565b611256565b926112d89183946112c26112aa95614a87565b9054911b1c166112d28288614fb4565b52614c0d565b91908561129f565b6112e981614a87565b60018060a01b0391549060031b1c16600052600e60205260ff6004604060002001541615611320575b61131b90614c0d565b611240565b9061132d61131b91614c0d565b919050611312565b346103815761134336614a03565b906000526013602052604060002090600052602052602060ff604060002054166040519015158152f35b34610381576020366003190112610381576001600160a01b038061138f6146f4565b166000526003602052604060002060405191608083018381106001600160401b038211176107d45761037d9160609160405283541692838552600181015494856020820152600360ff600284015416151592836040840152015492839101526040519485948590949392606092608083019660018060a01b031683526020830152151560408201520152565b346103815760003660031901126103815761037d610369614820565b34610381576060366003190112610381576004356001600160401b0381116103815761146790369060040161464c565b906044356001600160401b0381116103815761148790369060040161464c565b9033600052600e60205260ff60066040600020015416610b62578315611129576114dc604051916114b78361475a565b3383526114c5368787614f25565b936020840194855260243560408501523691614f25565b60608201526000608082018190524260a0830152600160c0830152338152600e60205260409020815181546001600160a01b0319166001600160a01b039190911617815591518051906001600160401b0382116107d457819061154f826115466001880154614720565b60018801614b98565b602090601f83116001146117465760009261173b575b50508160011b916000199060031b1c19161760018301555b6040810151600283015560608101518051906001600160401b0382116107d4576115b7826115ae6003870154614720565b60038701614b98565b602090601f83116001146116c257928260069360c09361162897966000926116b7575b50508160011b916000199060031b1c19161760038501555b6004840160ff60808301511660ff1982541617905560a081015160058501550151151591019060ff801983541691151516179055565b600654600160401b8110156107d4577fc66b05bf38d91d14a06ea483a62df85883a2efdf48f80e9432ece10c3fe7f9859161166c8260016116979401600655614a87565b81549060031b9033821b9160018060a01b03901b191617905560405193606085526060850191614bec565b9160243560208201524260408201528033930390a2602060405160018152f35b0151905089806115da565b906003850160005260206000209160005b601f198516811061172357508360c093611628979693600193600697601f1981161061170a575b505050811b0160038501556115f2565b015160001960f88460031b161c191690558980806116fa565b919260206001819286850151815501940192016116d3565b015190508680611565565b9250600185016000526020600020906000935b601f198416851061179d576001945083601f19811610611784575b505050811b01600183015561157d565b015160001960f88460031b161c19169055868080611774565b81810151835560209485019460019093019290910190611759565b346103815760203660031901126103815760043560075481116106145760005260096020526020600a60406000200154604051908152f35b34610381576000366003190112610381576020600754604051908152f35b346103815760003660031901126103815760ff60015416156118355761037d610369614820565b604051639096cccb60e01b8152600490fd5b34610381576020366003190112610381576101206001600160a01b038061186c6146f4565b16600052600c602052604060002090815416906001810154906002810154600382015460ff60048401541660058401549160068501549360ff600860078801549701541696604051988952602089015260408801526060870152608086015260a085015260c084015260e08301521515610100820152f35b34610381576020366003190112610381576001600160a01b03806119066146f4565b1680600052600c60205260ff60086040600020015416156119fc57600052600c60205260406000206040519161193b836147ad565b815416825260018101549081602084015260028101546040840152600381015492836060820152600160ff600484015416806080840152600584015460a084015260068401549260c0810193845261010060ff600860078801549760e085019889520154161515910152146000146119eb576119dc6119b8614f01565b915b519251916040519586958652602086015260a0604086015260a08501906149a2565b91606084015260808301520390f35b6119dc6119f6614ed1565b916119ba565b60405163aba4733960e01b8152600490fd5b346103815760403660031901126103815760243560043560005260186020526040600020805482101561038157602091611a4791614abe565b905460405160039290921b1c6001600160a01b03168152f35b34610381576000366003190112610381576011546040516001600160a01b039091168152602090f35b346103815760c0366003190112610381576004356001600160401b03811161038157611ab990369060040161464c565b6024356001600160401b03811161038157611ad890369060040161464c565b611ae492919233614fc8565b156105d7578115611129574260443511156120a75760443560643511156120a75760643560843511156120a75760843560a43511156120a757611b57611b2b600754614c0d565b938460075560405192611b3d84614791565b858452611b4b368689614f25565b60208501523691614f25565b6040820152336060820152604435608082015260643560a082015260843560c082015260a43560e08201526001610100820152426101208201526000610140820152604051611ba5816147c9565b600081526101608201526000610180820152604051611bc3816147c9565b600081526101a082015260006101c08201528260005260096020526040600020908051825560208101518051906001600160401b0382116107d4578190611c11826115466001880154614720565b602090601f83116001146120355760009261202a575b50508160011b916000199060031b1c19161760018301555b60408101518051906001600160401b0382116107d4578190611c7182611c686002880154614720565b60028801614b98565b602090601f8311600114611fb857600092611fad575b50508160011b916000199060031b1c19161760028301555b6003820160018060a01b036060830151166001600160601b0360a01b8254161790556080810151600483015560a0810151600583015560c0810151600683015560e08101516007830155611d096101008201511515600884019060ff801983541691151516179055565b6101208101516009830155610140810151600a83015561016081015180516001600160401b0381116107d45780600b850192611d4f82611d498654614720565b86614b98565b602090601f8311600114611f4757600092611f3c575b50508160011b916000199060031b1c19161790555b611d9a6101808201511515600c84019060ff801983541691151516179055565b6101a081015180516001600160401b0381116107d457600d840191611dc3826107018554614720565b602090601f8311600114611ec95792826101c093611e14979693600e96600092611ebe575b50508160011b916000199060031b1c19161790555b0151151591019060ff801983541691151516179055565b600854600160401b8110156107d4577fd3678a1df7c0a194a6f67f13d263cb5409debb4055904f08c5671ad712d08237611e8a60209585611e76611e5f866001849801600855614a50565b819391549060031b91821b91600019901b19161790565b90556040519460c0865260c0860191614bec565b92604435868201526064356040820152608435606082015260a43560808201524260a08201528033940390a3604051908152f35b015190508b80611de8565b90601f198316918460005260206000209260005b818110611f24575093611e14979693600e9693600193836101c09810611f0b575b505050811b019055611dfd565b015160001960f88460031b161c191690558b8080611efe565b92936020600181928786015181550195019301611edd565b015190508880611d65565b6000858152602081209350601f198516905b818110611f955750908460019594939210611f7c575b505050811b019055611d7a565b015160001960f88460031b161c19169055888080611f6f565b92936020600181928786015181550195019301611f59565b015190508780611c87565b9250600285016000526020600020906000935b601f198416851061200f576001945083601f19811610611ff6575b505050811b016002830155611c9f565b015160001960f88460031b161c19169055878080611fe6565b81810151835560209485019460019093019290910190611fcb565b015190508780611c27565b9250600185016000526020600020906000935b601f198416851061208c576001945083601f19811610612073575b505050811b016001830155611c3f565b015160001960f88460031b161c19169055878080612063565b81810151835560209485019460019093019290910190612048565b604051630398516760e11b8152600490fd5b34610381576120c7366149c7565b909133600052602093600c855260ff60086040600020015416156119fc5733600052600c855260ff600460406000200154166105c55760609361210b928492614d69565b013580600052601282526040600020805460ff811615612176575b8333600052600c8152604060002060048101600160ff198254161790556007429101557f945486efe706b7939911cd647343f3c1118cd63847a1f1b3d5a06b05120a5bcd604051914283523392a2005b60019060ff19161790557f19f3ad95ceff49695c3f339b98cece9dd03d73f9e1783d91ba6a6270ae5a968582604051428152a2818080612126565b34610381576121bf36614a03565b90600052601460205260406000209060005260205261037d61036960406000206148db565b3461038157600036600319011261038157604051806002549182815260208091019260026000527f405787fa12a823e0f2b7631cc41b3ba8828b3321ca811111fa75cd3aa3bb5ace916000905b8282106122485761037d85610bdd818903826147ff565b83546001600160a01b031686529485019460019384019390910190612231565b3461038157602080600319360112610381576122826146f4565b60085460009290916001600160a01b03908116845b84811061234657506122a885614f6b565b946122b660405196876147ff565b8086526122c5601f1991614f6b565b01368487013760009160005b8581106122e6576040518061037d8982614ad6565b6122ef81614a50565b9054600391821b1c6000526009865283838260406000200154161461231e575b5061231990614c0d565b6122d1565b819461233f9161233061231994614a50565b9054911b1c6112d2828b614fb4565b939061230f565b818361235183614a50565b9054600391821b1c6000526009875260406000200154161461237c575b61237790614c0d565b612297565b9461238961237791614c0d565b95905061236e565b34610381576020366003190112610381576001600160a01b03806123b36146f4565b16600052600d602052604060002090815416600182016123d2906148db565b916002810154600382016123e5906148db565b916123f2600482016148db565b926123ff600583016148db565b93600683015460ff1694600784015491600885015493600986015495600a015460ff16966040519a8b9a8b526101608060208d01528b0161243f916149a2565b9060408b015289810360608b0152612456916149a2565b88810360808a0152612467916149a2565b87810360a0890152612478916149a2565b9460c087015260e086015261010085015261012084015215156101408301520390f35b34610381576020806003193601126103815760043560005260158152604060002060405190818382549182815201908192600052846000209060005b8682821061252d5786866124ed828803836147ff565b604051928392818401908285525180915260408401929160005b82811061251657505050500390f35b835185528695509381019392810192600101612507565b8354855290930192600192830192016124d7565b3461038157602036600319011261038157600435806000526009602052604060002054156106145760005260096020526125ad604060002060ff600e820154166018602052612598600d60406000205493016148db565b916040519384936060855260608501906149a2565b911515602084015260408301520390f35b34610381576020366003190112610381576001600160a01b036125df6146f4565b16600052600c60205260ff600860406000200154168015612608575b6020906040519015158152f35b50600d6020526040600020600a015460ff166125fb565b3461038157600036600319011261038157602061263a614c32565b6040519015158152f35b346103815760203660031901126103815761037d610bdd600435615000565b3461038157602036600319011261038157600435806000526009602052604060002054156106145760005260096020526126b46040600020600a810154612598600b60ff600c8501541693016148db565b916020840152151560408301520390f35b3461038157602080600319360112610381576004356007548111610614578060005260098252600e60406000206040516126fe81614791565b8154815261270e600183016148db565b8582015261271e600283016148db565b604082015260018060a01b036003830154166060820152600482015490608081019182526101c060058401549360a08301948552600681015460c0840152600781015460e084015260ff9581876008819401541615156101008601526009810154610120860152600a81015461014086015261279c600b82016148db565b61016086015282600c8201541615156101808601526127bd600d82016148db565b6101a086015201541615159101525142109081156128bd575b506128ab5733600052600d835280600a6040600020015416156119fc5733600052600d83526001816006604060002001541603612899578160005260108352604060002033600052835260406000205416610b6257806000526010825260406000203360005282526040600020600160ff1982541617905580600052600f8252612864336040600020614d16565b604051904282527f79f07716a1285725869298e53bfdb0d51d88314b25b5ed3b21be3b69534c0eaa833393a360405160018152f35b60405163a95362b560e01b8152600490fd5b60405163775a05ef60e01b8152600490fd5b9050514211846127d6565b34610381576000366003190112610381576020600454604051908152f35b3461038157610280366003190112610381576024356001600160401b0381116103815761291790369060040161464c565b3660841161038157366101041161038157366101441161038157366102841161038157600754600435116106145760043560005260096020526040600020600681015442108015612d88575b612d765781156111295760ff6001541615611835576011546001600160a01b03168015612d64577f30644e72e131a029b85045b68181585d2833e84879b9709143e1f593f00000016040516020810190858783376129d16020828881016000838201520380845201826147ff565b519020066102643503612ca1576004356101843503612d525760126101443503612d40576129fe42615172565b916101c43503612d2e576101e43503612d2e576102043503612d2e57612a25600435615000565b516102243503612d1c57600435600052601360205260406000206101643560005260205260ff60406000205416612d0a576101a435600052601260205260ff60406000205416156119fc57604080516379ddb87b60e11b81529182916044600484013760846000604484015b60028210612cee5750505081602091604061010460c48401376101406101446101048401376102449485915afa908115612ce257600091612cb3575b5015612ca157359160043560005260136020526040600020610164356000526020526040600020600160ff1982541617905560043560005260146020526040600020610164356000526020526040600020906001600160401b0381116107d457612b4181612b3b8454614720565b84614b98565b6000601f8211600114612c3a578192939495600092612c2f575b50508160011b916000199060031b1c19161790555b60043560005260166020526040600020610164356000526020528160406000205560043560005260156020526040600020908154600160401b8110156107d457612bc581600a946001612be294018155614abe565b610164929192359083549060031b91821b91600019901b19161790565b905501612bef8154614c0d565b905560405142815261016435907f391cb40dccdc4624de65b9b4f3b144896d68978477f9dc45e908c63d3fedc465602060043592a4602060405160018152f35b013590508580612b5b565b601f198216958360005260206000209160005b888110612c8957508360019596979810612c6f575b505050811b019055612b70565b0135600019600384901b60f8161c19169055858080612c62565b90926020600181928686013581550194019101612c4d565b604051638dce817560e01b8152600490fd5b612cd5915060203d602011612cdb575b612ccd81836147ff565b810190614d51565b85612acd565b503d612cc3565b6040513d6000823e3d90fd5b8293945060408181600194958194370193019101849392612a91565b604051637c9a1cf960e01b8152600490fd5b60405163167dfbb760e11b8152600490fd5b6040516381bf7f6760e01b8152600490fd5b6040516304530cb760e41b8152600490fd5b604051631ec4422d60e11b8152600490fd5b6040516379e2e00360e01b8152600490fd5b60405163b5e0f85160e01b8152600490fd5b5060078101544211612963565b3461038157612da336614a03565b9060005260166020526040600020906000526020526020604060002054604051908152f35b346103815760203660031901126103815760043560005260096020526040600020805460018201612df8906148db565b90612e05600284016148db565b92600160a01b600190036003820154169160048201549060058301549060068401546007850154600886015460ff16600987015491600a88015493600b8901612e4d906148db565b96600c8a015460ff1698600d8b01612e64906148db565b9a600e015460ff169b6040519e8f9e8f9a8b526101e08060208d01528b01612e8b916149a2565b8a810360408c0152612e9c916149a2565b986060015260808d015260a08c015260c08b015260e08a01521515610100890152610120880152610140870152858103610160870152612edb916149a2565b9015156101808501528381036101a0850152612ef6916149a2565b9015156101c08301520390f35b3461038157604036600319011261038157612f1c6146f4565b6001600160a01b039060243590337f00000000000000000000000000000000000000000000000000000000000000008416141580612ff5575b6105d757821691826000526003602052604060002054161561082c5781600052600360205260ff60026040600020015416612fe35780156111295760407f60189f38ccc04374e9c9fd4ab45fe61bb77bd1472fd19f6f39aef2686b14697f9183600052600360205260028260002082600182015501600160ff198254161790558151908152426020820152a2005b6040516317fd8aab60e31b8152600490fd5b50828116331415612f55565b34610381576020806003193601126103815761301b6146f4565b6001600160a01b03907f000000000000000000000000000000000000000000000000000000000000000082163303611216571680600052600e825260ff60066040600020015416156119fc5780600052600e825260ff600460406000200154166130cc5780600052600e82526004604060002001600160ff198254161790557f14814d303617b24306266f30fbbd178fc67e915b8147aa4679460f5ce328912982604051428152a260405160018152f35b604051632bf773b360e11b8152600490fd5b346103815760a0366003190112610381576004356001600160401b0381116103815761310e90369060040161464c565b6044356001600160401b0381116103815761312d90369060040161464c565b6064929192356001600160401b0381116103815761314f90369060040161464c565b9190936084356001600160401b0381116103815761317190369060040161464c565b92909233600052600d60205260ff600a6040600020015416610b62576040516020810190838583376131b36020828681016000838201520380845201826147ff565b51902093602435600052600a60205260ff60406000205416610b505784600052600b60205260ff60406000205416610b3e5761327b9161326f60405160208101903360601b82528a8d603483013761322c6094828d810160243560348201528c60548201524260748201520360748101845201826147ff565b519020996040519861323d8a614775565b338a5261324b368c8f614f25565b60208b015260243560408b015261326336888a614f25565b60608b01523691614f25565b60808801523691614f25565b60a0850152600060c08501528560e0850152426101008501526000610120850152600161014085015233600052600d602052604060002060018060a01b038551166001600160601b0360a01b82541617815560208501518051906001600160401b0382116107d45781906132ff826132f66001870154614720565b60018701614b98565b602090601f831160011461370c57600092613701575b50508160011b916000199060031b1c19161760018201555b6040850151600282015560608501518051906001600160401b0382116107d4578190613360826115ae6003870154614720565b602090601f831160011461368f57600092613684575b50508160011b916000199060031b1c19161760038201555b60808501518051906001600160401b0382116107d45781906133c0826133b76004870154614720565b60048701614b98565b602090601f831160011461361257600092613607575b50508160011b916000199060031b1c19161760048201555b60a08501518051906001600160401b0382116107d45761341e826134156005860154614720565b60058601614b98565b602090601f8311600114613593576134a893929160009183613588575b50508160011b916000199060031b1c19161760058201555b600a610140600683019760ff60c0820151169860ff19998a82541617905560e08101516007850155610100810151600885015561012081015160098501550151151591019060ff801983541691151516179055565b600554600160401b8110156107d4576001810180600555811015610b28576020977f62a383152c7f5dcaccf813b01cb40efbd792ad8179bb25189b78f48c16e4536e9561357395613566937f036b6384b5eca791c62761152d0c79bb0604c104a5fb6f4eb0703f3154bb3db001336001600160601b0360a01b825416179055602435600052600a8b526040600020600183825416179055600052600b8a52600160406000209182541617905560405196606088526060880191614bec565b9185830388870152614bec565b914260408201528033930390a2604051908152f35b015190508b8061343b565b906005840160005260206000209160005b601f19851681106135ef57509183916001936134a89695601f198116106135d6575b505050811b016005820155613453565b015160001960f88460031b161c191690558b80806135c6565b919260206001819286850151815501940192016135a4565b015190508a806133d6565b9250600484016000526020600020906000935b601f1984168510613669576001945083601f19811610613650575b505050811b0160048201556133ee565b015160001960f88460031b161c191690558a8080613640565b81810151835560209485019460019093019290910190613625565b015190508a80613376565b9250600384016000526020600020906000935b601f19841685106136e6576001945083601f198116106136cd575b505050811b01600382015561338e565b015160001960f88460031b161c191690558a80806136bd565b818101518355602094850194600190930192909101906136a2565b015190508a80613315565b9250600184016000526020600020906000935b601f1984168510613763576001945083601f1981161061374a575b505050811b01600182015561332d565b015160001960f88460031b161c191690558a808061373a565b8181015183556020948501946001909301929091019061371f565b346103815760003660031901126103815760206040517f00000000000000000000000000000000000000000000000000000000000000008152f35b346103815760003660031901126103815760206040517f00000000000000000000000000000000000000000000000000000000000000008152f35b3461038157602036600319011261038157602061263a6138126146f4565b614fc8565b346103815760203660031901126103815760043560025481101561038157611a47602091614a19565b346103815761384e366149c7565b9133600052600d60205260ff600a6040600020015416156119fc5733600052600d60205260ff600660406000200154166105c55761388b93614d69565b33600052600d602052604060002060068101600160ff198254161790556009429101556040514281527f2f366f123fabab95492dbb42e8695e5d537354a21c0246601ad90134a982762560203392a2005b34610381576040366003190112610381576004356138f861470a565b906007548111610614578060005260209160098352604060002060405161391e81614791565b8154815261392e600183016148db565b8582015261393e600283016148db565b604082015260018060a01b03809181600385015416906060810191825260048501546080820152600585015460a08201526101c060ff600e60068801549760c08501988952600781015460e08601528260088201541615156101008601526009810154610120860152600a8101546101408601526139be600b82016148db565b61016086015282600c8201541615156101808601526139df600d82016148db565b6101a08601520154161515910152511633141580613a81575b6105d75783600052601085526040600020921691826000528452600160ff60406000205416036105c557514210156105b357816000526010835260406000208160005283526040600020600260ff19825416179055604051914283527e8c02da86b3277809b12d5d51b4daa215b8085d605086df36dc4c12f4ea8b74843394a460405160018152f35b50807f0000000000000000000000000000000000000000000000000000000000000000163314156139f8565b3461038157602080600319360112610381576001600160401b039060043582811161038157613ae090369060040161464c565b90917f00000000000000000000000000000000000000000000000000000000000000006001600160a01b031633036112165760019360ff855416613cc65782156111295782116107d457613b35600054614720565b601f8111613c60575b50600093601f8311600114613bc357827f4d7ace317cababf305a3b0781e111ea315b0fdfad17a816ed7f3d5dbaf16378495600091613bb8575b50600019600385901b1c191683821b176000555b8060ff19815416179055613bad604051938493604085526040850191614bec565b9042908301520390a1005b905084013586613b78565b6000808052601f198416957f290decd9548b62a8d60345a988386fc84ba6bc95484008f6362f93160ef3e563915b878110613c4b5750847f4d7ace317cababf305a3b0781e111ea315b0fdfad17a816ed7f3d5dbaf1637849710613c31575b50508083811b01600055613b8c565b850135600019600386901b60f8161c191690558580613c22565b86820135835591830191908401908401613bf1565b600080527f290decd9548b62a8d60345a988386fc84ba6bc95484008f6362f93160ef3e563601f840160051c810191838510613cbc575b601f0160051c019085905b828110613cb0575050613b3e565b60008155018590613ca2565b9091508190613c97565b604051631e1e262b60e01b8152600490fd5b34610381576020366003190112610381576001600160a01b03613cf96146f4565b16600052600e602052602060ff600660406000200154166040519015158152f35b34610381576020366003190112610381576001600160a01b0380613d3c6146f4565b169081600052600d60205260ff600a6040600020015416156119fc57613e5691600052600d602052604060002060405191613d7683614775565b8154168252613d87600182016148db565b916020810192835260028201546040820152613e8e82613e80613dac600383016148db565b9560608501968752613e72613dc3600485016148db565b95608081019687526001613dd9600587016148db565b938460a084015260ff600688015416928360c0820152600788015460e082015261014060ff600a600960088c01549b61010086019c8d5201549d61012085019e8f52015416151591015251995197519114600014613e9d57613e64613e3c614f01565b955b519851976040519b8c9b60e08d5260e08d01906149a2565b908b820360208d01526149a2565b9089820360408b01526149a2565b9087820360608901526149a2565b9085820360808701526149a2565b9160a084015260c08301520390f35b613e64613ea8614ed1565b95613e3e565b3461038157602080600319360112610381576001600160a01b039081613ed26146f4565b169182600052600e825260ff60066040600020015416156119fc57613fbe92600052600e8252613fdd60406000209260405192613f0e8461475a565b8454168352613fcf613f22600186016148db565b9180850192835260028601549560408601968752613f42600382016148db565b956060810196875260ff6004830154169081608082015260c060ff600660058601549560a08501968752015416151591015260018114600014613fe75750604051613f8c816147e4565b60088152671054141493d5915160c21b83820152935b519651955190519560405198899860a08a5260a08a01906149a2565b9288015286820360408801526149a2565b9084820360608601526149a2565b9060808301520390f35b60020361401557604051613ffa816147e4565b60088152671491529150d5115160c21b838201525b93613fa2565b604051614021816147e4565b600781526650454e44494e4760c81b8382015261400f565b346103815760203660031901126103815760206140546146f4565b6040519060018060a01b03807f0000000000000000000000000000000000000000000000000000000000000000169116148152f35b3461038157602036600319011261038157600435600052600b602052602060ff604060002054166040519015158152f35b3461038157600036600319011261038157602060ff600154166040519015158152f35b3461038157600036600319011261038157604051806006549182815260208091019260066000527ff652222313e28459528d920b65115c16c04f3efc82aaedc97be59f3f377c0d3f916000905b8282106141415761037d85610bdd818903826147ff565b83546001600160a01b03168652948501946001938401939091019061412a565b34610381576020806003193601126103815760043560005260188152604060002090604051908181845491828152019360005281600020916000905b8282106141b45761037d85610bdd818903826147ff565b83546001600160a01b03168652948501946001938401939091019061419d565b34610381576040366003190112610381576141ed61470a565b600435600052601060205260406000209060018060a01b0316600052602052602060ff60406000205416604051908152f35b34610381576020366003190112610381576001600160a01b03806142416146f4565b16600052600e60205260406000209081541661425f600183016148db565b91600281015490614272600382016148db565b906142bc60ff6004830154169360ff6006600585015494015416936142a9604051988998895260e060208a015260e08901906149a2565b91604088015286820360608801526149a2565b92608085015260a0840152151560c08301520390f35b346103815760208060031936011261038157600435600754811161061457600052600f8152604060002090604051908181845491828152019360005281600020916000905b82821061432e5761037d85610bdd818903826147ff565b83546001600160a01b031686529485019460019384019390910190614317565b346103815761435c36614679565b93836000526009946020918683526040600020541561463d57506001600160a01b03337f00000000000000000000000000000000000000000000000000000000000000008216141580614622575b6105d7578560005286835260ff600c604060002001541615610817578560005286835260ff600e604060002001541661113b5783156111295785600052601890818452604060002054907f00000000000000000000000000000000000000000000000000000000000000008210614610579190604051614429816147c9565b60008152926000925b868385106145a55793505050508151910120036145935783600052848152600d604060002001946001600160401b0383116107d45761447b836144758854614720565b88614b98565b600095601f841160011461450f57837fd669546a44855a85b11d2c8185b647a21c6fd25e902e1f54db1ebc3886b54d139697600091614504575b508460011b906000198660031b1c19161790555b856000528152600e604060002001600160ff198254161790556144f9604051938493604085526040850191614bec565b9042908301520390a2005b9050850135886144b5565b601f1984169681600052836000209060005b89811061457c5750857fd669546a44855a85b11d2c8185b647a21c6fd25e902e1f54db1ebc3886b54d13989910614562575b5050600184811b0190556144c9565b860135600019600387901b60f8161c191690558780614553565b90918560018192858b013581550193019101614521565b60405163763b576f60e11b8152600490fd5b61460261460892939495968c6000528483528c866145c78a6040600020614abe565b929054906000526017865260406000209260031b1c1660005283526110eb604060002060405194836110e2879551809284808901910161497f565b94614c0d565b929190614432565b6040516359fa4a9360e01b8152600490fd5b508560005286835280600360406000200154163314156143aa565b6305ce45f760e51b8152600490fd5b9181601f84011215610381578235916001600160401b038311610381576020838186019501011161038157565b9060606003198301126103815760043591602435906001600160401b038211610381576146a89160040161464c565b909160443590565b6020908160408183019282815285518094520193019160005b8281106146d7575050505090565b83516001600160a01b0316855293810193928101926001016146c9565b600435906001600160a01b038216820361038157565b602435906001600160a01b038216820361038157565b90600182811c92168015614750575b602083101461473a57565b634e487b7160e01b600052602260045260246000fd5b91607f169161472f565b60e081019081106001600160401b038211176107d457604052565b61016081019081106001600160401b038211176107d457604052565b6101e081019081106001600160401b038211176107d457604052565b61012081019081106001600160401b038211176107d457604052565b602081019081106001600160401b038211176107d457604052565b604081019081106001600160401b038211176107d457604052565b90601f801991011681019081106001600160401b038211176107d457604052565b6040519060008281549161483383614720565b808352926001908181169081156148b9575060011461485c575b5061485a925003836147ff565b565b600080805291507f290decd9548b62a8d60345a988386fc84ba6bc95484008f6362f93160ef3e5635b84831061489e575061485a93505081016020013861484d565b81935090816020925483858a01015201910190918592614885565b90506020925061485a94915060ff191682840152151560051b8201013861484d565b90604051918260008254926148ef84614720565b90818452600194858116908160001461495c5750600114614919575b505061485a925003836147ff565b9093915060005260209081600020936000915b81831061494457505061485a9350820101388061490b565b8554888401850152948501948794509183019161492c565b91505061485a94506020925060ff191682840152151560051b820101388061490b565b60005b8381106149925750506000910152565b8181015183820152602001614982565b906020916149bb8151809281855285808601910161497f565b601f01601f1916010190565b906102406003198301126103815781604411610381576004918060c411610381576044916101048281116103815760c492610244116103815790565b6040906003190112610381576004359060243590565b600254811015610b285760026000527f405787fa12a823e0f2b7631cc41b3ba8828b3321ca811111fa75cd3aa3bb5ace0190600090565b600854811015610b285760086000527ff3f7a9fe364faab93b216da50a3214154f22a0a2b415b23a84c8169e8b636ee30190600090565b600654811015610b285760066000527ff652222313e28459528d920b65115c16c04f3efc82aaedc97be59f3f377c0d3f0190600090565b8054821015610b285760005260206000200190600090565b6020908160408183019282815285518094520193019160005b828110614afd575050505090565b835185529381019392810192600101614aef565b3461038157600036600319011261038157604051806008549182815260208091019260086000527ff3f7a9fe364faab93b216da50a3214154f22a0a2b415b23a84c8169e8b636ee3916000905b828210614b815761037d85614b75818903826147ff565b60405191829182614ad6565b835486529485019460019384019390910190614b5e565b90601f8111614ba657505050565b600091825260208220906020601f850160051c83019410614be2575b601f0160051c01915b828110614bd757505050565b818155600101614bcb565b9092508290614bc2565b908060209392818452848401376000828201840152601f01601f1916010190565b6000198114614c1c5760010190565b634e487b7160e01b600052601160045260246000fd5b600060028054915b828110614c4957505050600190565b614c5281614a19565b9054600391821b1c6001600160a01b031660009081526020919091526040902082015460ff1615614c8b57614c8690614c0d565b614c3a565b505050600090565b600092918154614ca281614720565b92600191808316908115614cfb5750600114614cbf575b50505050565b90919293945060005260209081600020906000915b858310614cea5750505050019038808080614cb9565b805485840152918301918101614cd4565b60ff1916845250505081151590910201915038808080614cb9565b8054600160401b8110156107d457614d3391600182018155614abe565b819291549060031b9160018060a01b03809116831b921b1916179055565b90816020910312610381575180151581036103815790565b91909260018060a01b0360115416918215612d64576012823503612d405760409485830135614ec057606083013515614eaf57614da542615172565b91608086013503614e9e5760a085013503614e8d5760c084013503614e7c5785516379ddb87b60e11b81529485939287929091839060048701376000604486015b60028210614e5c575050509361014061024493859360209760c48601376101048401375afa908115614e5157600091614e33575b5015614e235750565b51638dce817560e01b8152600490fd5b614e4b915060203d8111612cdb57612ccd81836147ff565b38614e1a565b82513d6000823e3d90fd5b849193959650938481846001959737019301910190869493918893614de6565b85516381bf7f6760e01b8152600490fd5b86516381bf7f6760e01b8152600490fd5b87516381bf7f6760e01b8152600490fd5b8551636033c4fd60e11b8152600490fd5b8551631ec4422d60e11b8152600490fd5b60405190614ede826147e4565b60148252732822a72224a723afab22a924a324a1a0aa24a7a760611b6020830152565b60405190614f0e826147e4565b6008825267159154925192515160c21b6020830152565b9291926001600160401b0382116107d45760405191614f4e601f8201601f1916602001846147ff565b829481845281830111610381578281602093846000960137010152565b6001600160401b0381116107d45760051b60200190565b90614f8c82614f6b565b614f9960405191826147ff565b8281528092614faa601f1991614f6b565b0190602036910137565b8051821015610b285760209160051b010190565b6001600160a01b03166000908152600e60205260409020600681015460ff169081614ff1575090565b6004015460ff16600114919050565b90600754821161061457600091808352602092600f84526040908181208251808288829454938481520190855288852092855b8a8282106151395750505061504a925003826147ff565b8193825b82518110156150ab57818452601088528484206001600160a01b036150738386614fb4565b511685528852600260ff868620541614615096575b61509190614c0d565b61504e565b946150a361509191614c0d565b959050615088565b509295936150b890614f82565b918093815b835181101561512e57818352601087528883206001600160a01b0390816150e48488614fb4565b511685528852600260ff8b8620541614615108575b5061510390614c0d565b6150bd565b81966151279161511b6151039488614fb4565b51166112d28289614fb4565b95906150f9565b509296505050505050565b85546001600160a01b0316845260019586019587955093019201615033565b91908201809211614c1c57565b91908203918211614c1c57565b62015180900490620afa6c8201809211614c1c5762023ab18083048181029381159282860414831715614c1c576151db946151ac91615165565b906151c96151be6105b4840484615165565b618eac840490615158565b61016d95869162023ab0850490615165565b0492610190808302928304141715614c1c576151f79083615158565b938281029081048303614c1c5782606461521b615223936152299660021c90615158565b910490615165565b90615165565b80600502600581048203614c1c5760028101809111614c1c5760999004908160990290609982048303614c1c5760028201809211614c1c57600561526e920490615165565b60018101809111614c1c57906000600a8210156152ab575060038101809111614c1c57915b600283111561529e57565b926152a890614c0d565b92565b60081982019182116152be575091615293565b634e487b7160e01b81526011600452602490fdfea2646970667358221220579692a8f69d91b619bdd8c68232ff5284cfc5eed920afe9fc33aa8099c9c3a664736f6c63430008130033","opcodes":"PUSH1 0x40 PUSH1 0xE0 DUP2 MSTORE CALLVALUE PUSH3 0x339 JUMPI PUSH3 0x566D SWAP1 DUP2 CODESIZE SUB DUP1 PUSH3 0x1F DUP2 PUSH3 0x33E JUMP JUMPDEST SWAP4 DUP5 CODECOPY DUP3 ADD DUP2 DUP4 DUP3 SUB SLT PUSH3 0x339 JUMPI DUP3 MLOAD PUSH1 0x1 PUSH1 0x1 PUSH1 0x40 SHL SUB SWAP4 SWAP1 DUP5 DUP2 GT PUSH3 0x339 JUMPI DUP2 ADD DUP3 PUSH1 0x1F DUP3 ADD SLT ISZERO PUSH3 0x339 JUMPI DUP1 MLOAD SWAP4 DUP6 DUP6 GT PUSH3 0x2C4 JUMPI PUSH1 0x5 SWAP3 DUP6 DUP5 SHL SWAP5 PUSH1 0x20 SWAP4 DUP5 PUSH3 0x73 DUP2 DUP10 ADD PUSH3 0x33E JUMP JUMPDEST DUP1 SWAP10 DUP2 MSTORE ADD SWAP1 DUP6 DUP3 SWAP9 DUP3 ADD ADD SWAP3 DUP4 GT PUSH3 0x339 JUMPI SWAP1 DUP6 DUP1 SWAP5 SWAP4 SWAP3 ADD SWAP1 JUMPDEST DUP3 DUP3 LT PUSH3 0x30D JUMPI POP POP POP ADD MLOAD PUSH1 0x2 SWAP4 DUP5 DUP8 MLOAD LT PUSH3 0x2FC JUMPI DUP5 DUP3 LT PUSH3 0x2EB JUMPI DUP7 MLOAD DUP3 GT PUSH3 0x2DA JUMPI CALLER PUSH1 0xC0 MSTORE DUP7 MLOAD SWAP6 DUP9 DUP8 GT PUSH3 0x2C4 JUMPI PUSH9 0x10000000000000000 DUP8 GT PUSH3 0x2C4 JUMPI DUP6 SLOAD DUP8 DUP8 SSTORE DUP1 DUP9 LT PUSH3 0x299 JUMPI JUMPDEST POP SWAP6 PUSH1 0x0 SWAP7 DUP7 DUP9 MSTORE DUP6 DUP9 KECCAK256 DUP9 JUMPDEST DUP4 DUP2 LT PUSH3 0x27D JUMPI POP POP POP POP PUSH1 0x80 SWAP2 DUP3 MSTORE DUP7 MLOAD PUSH1 0xA0 MSTORE DUP6 JUMPDEST DUP8 MLOAD DUP2 LT ISZERO PUSH3 0x20E JUMPI DUP1 DUP3 SHL DUP9 ADD DUP6 ADD MLOAD PUSH1 0x1 PUSH1 0x1 PUSH1 0xA0 SHL SUB SWAP1 DUP2 AND SWAP1 DUP2 ISZERO PUSH3 0x1FD JUMPI DUP6 MLOAD SWAP1 DUP6 DUP3 ADD DUP3 DUP2 LT DUP14 DUP3 GT OR PUSH3 0x1E9 JUMPI DUP9 SWAP2 DUP12 SWAP2 DUP10 MSTORE DUP5 DUP5 MSTORE DUP3 DUP5 ADD DUP3 DUP2 MSTORE DUP10 DUP6 ADD SWAP2 DUP4 DUP4 MSTORE DUP11 PUSH1 0x60 DUP8 ADD SWAP5 TIMESTAMP DUP7 MSTORE DUP9 DUP2 MSTORE PUSH1 0x3 DUP1 SWAP8 MSTORE KECCAK256 SWAP6 MLOAD AND PUSH1 0x1 DUP1 PUSH1 0xA0 SHL SUB NOT DUP7 SLOAD AND OR DUP6 SSTORE MLOAD PUSH1 0x1 DUP6 ADD SSTORE DUP11 DUP5 ADD SWAP1 MLOAD ISZERO ISZERO PUSH1 0xFF DUP1 NOT DUP4 SLOAD AND SWAP2 AND OR SWAP1 SSTORE MLOAD SWAP2 ADD SSTORE PUSH32 0x7F13F422B26C2E8231C2ECD513ED654D95C661911A55FC299B5838BE808B5777 DUP7 DUP7 MLOAD TIMESTAMP DUP2 MSTORE LOG2 PUSH1 0x0 NOT DUP2 EQ PUSH3 0x1D5 JUMPI PUSH1 0x1 ADD PUSH3 0x10D JUMP JUMPDEST PUSH4 0x4E487B71 PUSH1 0xE0 SHL DUP8 MSTORE PUSH1 0x11 PUSH1 0x4 MSTORE PUSH1 0x24 DUP8 REVERT JUMPDEST PUSH4 0x4E487B71 PUSH1 0xE0 SHL DUP12 MSTORE PUSH1 0x41 PUSH1 0x4 MSTORE PUSH1 0x24 DUP12 REVERT JUMPDEST DUP6 MLOAD PUSH4 0xD92E233D PUSH1 0xE0 SHL DUP2 MSTORE PUSH1 0x4 SWAP1 REVERT JUMPDEST DUP3 DUP5 MLOAD PUSH2 0x5308 SWAP2 DUP3 PUSH3 0x365 DUP4 CODECOPY MLOAD DUP2 DUP2 DUP2 PUSH2 0x37D1 ADD MSTORE PUSH2 0x43F6 ADD MSTORE PUSH1 0xA0 MLOAD DUP2 PUSH2 0x3796 ADD MSTORE PUSH1 0xC0 MLOAD DUP2 DUP2 DUP2 PUSH2 0x39C ADD MSTORE DUP2 DUP2 PUSH2 0x5EC ADD MSTORE DUP2 DUP2 PUSH2 0xE81 ADD MSTORE DUP2 DUP2 PUSH2 0x11BE ADD MSTORE DUP2 DUP2 PUSH2 0x2F2C ADD MSTORE DUP2 DUP2 PUSH2 0x3026 ADD MSTORE DUP2 DUP2 PUSH2 0x3A85 ADD MSTORE DUP2 DUP2 PUSH2 0x3AE4 ADD MSTORE DUP2 DUP2 PUSH2 0x4062 ADD MSTORE PUSH2 0x4381 ADD MSTORE RETURN JUMPDEST DUP3 MLOAD PUSH1 0x1 PUSH1 0x1 PUSH1 0xA0 SHL SUB AND DUP3 DUP3 ADD SSTORE SWAP2 DUP8 ADD SWAP2 PUSH1 0x1 ADD PUSH3 0xF5 JUMP JUMPDEST PUSH1 0x0 DUP8 DUP2 MSTORE DUP9 DUP8 DUP3 KECCAK256 SWAP3 DUP4 ADD SWAP3 ADD JUMPDEST DUP3 DUP2 LT PUSH3 0x2B8 JUMPI POP POP PUSH3 0xE8 JUMP JUMPDEST DUP2 DUP2 SSTORE PUSH1 0x1 ADD PUSH3 0x2A8 JUMP JUMPDEST PUSH4 0x4E487B71 PUSH1 0xE0 SHL PUSH1 0x0 MSTORE PUSH1 0x41 PUSH1 0x4 MSTORE PUSH1 0x24 PUSH1 0x0 REVERT JUMPDEST DUP3 MLOAD PUSH4 0xF3423279 PUSH1 0xE0 SHL DUP2 MSTORE PUSH1 0x4 SWAP1 REVERT JUMPDEST DUP3 MLOAD PUSH4 0xAABD5A09 PUSH1 0xE0 SHL DUP2 MSTORE PUSH1 0x4 SWAP1 REVERT JUMPDEST DUP3 MLOAD PUSH4 0x3846957B PUSH1 0xE2 SHL DUP2 MSTORE PUSH1 0x4 SWAP1 REVERT JUMPDEST DUP2 MLOAD SWAP4 SWAP5 POP SWAP2 SWAP3 SWAP1 SWAP2 SWAP1 PUSH1 0x1 PUSH1 0x1 PUSH1 0xA0 SHL SUB DUP2 AND DUP2 SUB PUSH3 0x339 JUMPI DUP2 MSTORE DUP6 SWAP4 SWAP3 SWAP2 DUP5 ADD SWAP1 DUP5 ADD PUSH3 0x90 JUMP JUMPDEST PUSH1 0x0 DUP1 REVERT JUMPDEST PUSH1 0x40 MLOAD SWAP2 SWAP1 PUSH1 0x1F ADD PUSH1 0x1F NOT AND DUP3 ADD PUSH1 0x1 PUSH1 0x1 PUSH1 0x40 SHL SUB DUP2 GT DUP4 DUP3 LT OR PUSH3 0x2C4 JUMPI PUSH1 0x40 MSTORE JUMP INVALID PUSH1 0x80 DUP1 PUSH1 0x40 MSTORE PUSH1 0x4 CALLDATASIZE LT ISZERO PUSH2 0x13 JUMPI PUSH1 0x0 DUP1 REVERT JUMPDEST PUSH1 0x0 CALLDATALOAD PUSH1 0xE0 SHR SWAP1 DUP2 PUSH4 0x1BC7382 EQ PUSH2 0x434E JUMPI POP DUP1 PUSH4 0x42AE68E EQ PUSH2 0x42D2 JUMPI DUP1 PUSH4 0x544C5B9 EQ PUSH2 0x421F JUMPI DUP1 PUSH4 0xCCBA4C3 EQ PUSH2 0x321 JUMPI DUP1 PUSH4 0xE5495A1 EQ PUSH2 0x41D4 JUMPI DUP1 PUSH4 0x15A804AE EQ PUSH2 0x4161 JUMPI DUP1 PUSH4 0x1E67F721 EQ PUSH2 0x40DD JUMPI DUP1 PUSH4 0x1F28762D EQ PUSH2 0x40BA JUMPI DUP1 PUSH4 0x1F307F8C EQ PUSH2 0x4089 JUMPI DUP1 PUSH4 0x24D7806C EQ PUSH2 0x4039 JUMPI DUP1 PUSH4 0x26789D56 EQ PUSH2 0x3EAE JUMPI DUP1 PUSH4 0x28BDE1E1 EQ PUSH2 0x3D1A JUMPI DUP1 PUSH4 0x29E7DBD9 EQ PUSH2 0x3CD8 JUMPI DUP1 PUSH4 0x2B129416 EQ PUSH2 0x3AAD JUMPI DUP1 PUSH4 0x2E337E68 EQ PUSH2 0x38DC JUMPI DUP1 PUSH4 0x35E176F2 EQ PUSH2 0x3840 JUMPI DUP1 PUSH4 0x3B0C9D2A EQ PUSH2 0x2D95 JUMPI DUP1 PUSH4 0x3B1951D6 EQ PUSH2 0x3817 JUMPI DUP1 PUSH4 0x41676F15 EQ PUSH2 0x37F4 JUMPI DUP1 PUSH4 0x42CDE4E8 EQ PUSH2 0x37B9 JUMPI DUP1 PUSH4 0x4BAA6901 EQ PUSH2 0x377E JUMPI DUP1 PUSH4 0x53BA6098 EQ PUSH2 0x30DE JUMPI DUP1 PUSH4 0x54733F43 EQ PUSH2 0x3001 JUMPI DUP1 PUSH4 0x54EA3E87 EQ PUSH2 0x2F03 JUMPI DUP1 PUSH4 0x5E6FEF01 EQ PUSH2 0x2DC8 JUMPI DUP1 PUSH4 0x66404230 EQ PUSH2 0x2D95 JUMPI DUP1 PUSH4 0x66EA235E EQ PUSH2 0x28E6 JUMPI DUP1 PUSH4 0x69A37B3E EQ PUSH2 0x28C8 JUMPI DUP1 PUSH4 0x6D28B653 EQ PUSH2 0x26C5 JUMPI DUP1 PUSH4 0x7445917E EQ PUSH2 0x2663 JUMPI DUP1 PUSH4 0x78187770 EQ PUSH2 0x2644 JUMPI DUP1 PUSH4 0x7CF434F7 EQ PUSH2 0x261F JUMPI DUP1 PUSH4 0x7F247E49 EQ PUSH2 0x25BE JUMPI DUP1 PUSH4 0x81A60C0D EQ PUSH2 0x2541 JUMPI DUP1 PUSH4 0x8644FD71 EQ PUSH2 0x249B JUMPI DUP1 PUSH4 0x8A3B63B0 EQ PUSH2 0xB74 JUMPI DUP1 PUSH4 0x8AB66A90 EQ PUSH2 0x2391 JUMPI DUP1 PUSH4 0x8D6D4B25 EQ PUSH2 0x2268 JUMPI DUP1 PUSH4 0x8EFF7AE8 EQ PUSH2 0x21E4 JUMPI DUP1 PUSH4 0x92D72595 EQ PUSH2 0x21B1 JUMPI DUP1 PUSH4 0x94CD15DB EQ PUSH2 0x20B9 JUMPI DUP1 PUSH4 0x95AF6074 EQ PUSH2 0x1A89 JUMPI DUP1 PUSH4 0x99D74C71 EQ PUSH2 0x1A60 JUMPI DUP1 PUSH4 0x9D18A4F0 EQ PUSH2 0x1A0E JUMPI DUP1 PUSH4 0x9ED1F255 EQ PUSH2 0x18E4 JUMPI DUP1 PUSH4 0xA3EC138D EQ PUSH2 0x1847 JUMPI DUP1 PUSH4 0xA79A93F8 EQ PUSH2 0x180E JUMPI DUP1 PUSH4 0xA9392E0C EQ PUSH2 0x17F0 JUMPI DUP1 PUSH4 0xB46F49A4 EQ PUSH2 0x17B8 JUMPI DUP1 PUSH4 0xB8A76EDF EQ PUSH2 0x1437 JUMPI DUP1 PUSH4 0xB9919E7E EQ PUSH2 0x141B JUMPI DUP1 PUSH4 0xC214E6D5 EQ PUSH2 0x136D JUMPI DUP1 PUSH4 0xC556BFF8 EQ PUSH2 0x1335 JUMPI DUP1 PUSH4 0xCB2B6AD2 EQ PUSH2 0x1228 JUMPI DUP1 PUSH4 0xCC24179F EQ PUSH2 0x119A JUMPI DUP1 PUSH4 0xCD06EA63 EQ PUSH2 0x1169 JUMPI DUP1 PUSH4 0xCD3B8698 EQ PUSH2 0xE4E JUMPI DUP1 PUSH4 0xCE99B5DF EQ PUSH2 0xCBE JUMPI DUP1 PUSH4 0xCEA04B00 EQ PUSH2 0xC3A JUMPI DUP1 PUSH4 0xD0C2A609 EQ PUSH2 0xC09 JUMPI DUP1 PUSH4 0xD567C41E EQ PUSH2 0xB79 JUMPI DUP1 PUSH4 0xDEE40F74 EQ PUSH2 0xB74 JUMPI DUP1 PUSH4 0xE1907E6C EQ PUSH2 0x8F8 JUMPI DUP1 PUSH4 0xEB2119DB EQ PUSH2 0x8B6 JUMPI DUP1 PUSH4 0xEEE608A4 EQ PUSH2 0x83E JUMPI DUP1 PUSH4 0xF10C0682 EQ PUSH2 0x626 JUMPI DUP1 PUSH4 0xF13A3AB6 EQ PUSH2 0x40D JUMPI DUP1 PUSH4 0xF1ECDC58 EQ PUSH2 0x3CB JUMPI DUP1 PUSH4 0xF851A440 EQ PUSH2 0x386 JUMPI PUSH4 0xFD4872BD EQ PUSH2 0x321 JUMPI PUSH1 0x0 DUP1 REVERT JUMPDEST CALLVALUE PUSH2 0x381 JUMPI PUSH1 0x40 CALLDATASIZE PUSH1 0x3 NOT ADD SLT PUSH2 0x381 JUMPI PUSH2 0x33A PUSH2 0x470A JUMP JUMPDEST PUSH1 0x4 CALLDATALOAD PUSH1 0x0 MSTORE PUSH1 0x17 PUSH1 0x20 MSTORE PUSH1 0x40 PUSH1 0x0 KECCAK256 SWAP1 PUSH1 0x1 DUP1 PUSH1 0xA0 SHL SUB AND PUSH1 0x0 MSTORE PUSH1 0x20 MSTORE PUSH2 0x37D PUSH2 0x369 PUSH1 0x40 PUSH1 0x0 KECCAK256 PUSH2 0x48DB JUMP JUMPDEST PUSH1 0x40 MLOAD SWAP2 DUP3 SWAP2 PUSH1 0x20 DUP4 MSTORE PUSH1 0x20 DUP4 ADD SWAP1 PUSH2 0x49A2 JUMP JUMPDEST SUB SWAP1 RETURN JUMPDEST PUSH1 0x0 DUP1 REVERT JUMPDEST CALLVALUE PUSH2 0x381 JUMPI PUSH1 0x0 CALLDATASIZE PUSH1 0x3 NOT ADD SLT PUSH2 0x381 JUMPI PUSH1 0x40 MLOAD PUSH32 0x0 PUSH1 0x1 PUSH1 0x1 PUSH1 0xA0 SHL SUB AND DUP2 MSTORE PUSH1 0x20 SWAP1 RETURN JUMPDEST CALLVALUE PUSH2 0x381 JUMPI PUSH1 0x20 CALLDATASIZE PUSH1 0x3 NOT ADD SLT PUSH2 0x381 JUMPI PUSH1 0x1 PUSH1 0x1 PUSH1 0xA0 SHL SUB PUSH2 0x3EC PUSH2 0x46F4 JUMP JUMPDEST AND PUSH1 0x0 MSTORE PUSH1 0xD PUSH1 0x20 MSTORE PUSH1 0x20 PUSH1 0xFF PUSH1 0xA PUSH1 0x40 PUSH1 0x0 KECCAK256 ADD SLOAD AND PUSH1 0x40 MLOAD SWAP1 ISZERO ISZERO DUP2 MSTORE RETURN JUMPDEST CALLVALUE PUSH2 0x381 JUMPI PUSH1 0x40 CALLDATASIZE PUSH1 0x3 NOT ADD SLT PUSH2 0x381 JUMPI PUSH1 0x4 CALLDATALOAD PUSH2 0x429 PUSH2 0x470A JUMP JUMPDEST SWAP1 PUSH1 0x7 SLOAD DUP2 GT PUSH2 0x614 JUMPI DUP1 PUSH1 0x0 MSTORE PUSH1 0x20 SWAP2 PUSH1 0x9 DUP4 MSTORE PUSH1 0x40 PUSH1 0x0 KECCAK256 PUSH1 0x40 MLOAD PUSH2 0x44F DUP2 PUSH2 0x4791 JUMP JUMPDEST DUP2 SLOAD DUP2 MSTORE PUSH2 0x45F PUSH1 0x1 DUP4 ADD PUSH2 0x48DB JUMP JUMPDEST DUP6 DUP3 ADD MSTORE PUSH2 0x46F PUSH1 0x2 DUP4 ADD PUSH2 0x48DB JUMP JUMPDEST PUSH1 0x40 DUP3 ADD MSTORE PUSH1 0x1 DUP1 PUSH1 0xA0 SHL SUB DUP1 SWAP2 DUP2 PUSH1 0x3 DUP6 ADD SLOAD AND SWAP1 PUSH1 0x60 DUP2 ADD SWAP2 DUP3 MSTORE PUSH1 0x4 DUP6 ADD SLOAD PUSH1 0x80 DUP3 ADD MSTORE PUSH1 0x5 DUP6 ADD SLOAD PUSH1 0xA0 DUP3 ADD MSTORE PUSH2 0x1C0 PUSH1 0xFF PUSH1 0xE PUSH1 0x6 DUP9 ADD SLOAD SWAP8 PUSH1 0xC0 DUP6 ADD SWAP9 DUP10 MSTORE PUSH1 0x7 DUP2 ADD SLOAD PUSH1 0xE0 DUP7 ADD MSTORE DUP3 PUSH1 0x8 DUP3 ADD SLOAD AND ISZERO ISZERO PUSH2 0x100 DUP7 ADD MSTORE PUSH1 0x9 DUP2 ADD SLOAD PUSH2 0x120 DUP7 ADD MSTORE PUSH1 0xA DUP2 ADD SLOAD PUSH2 0x140 DUP7 ADD MSTORE PUSH2 0x4EF PUSH1 0xB DUP3 ADD PUSH2 0x48DB JUMP JUMPDEST PUSH2 0x160 DUP7 ADD MSTORE DUP3 PUSH1 0xC DUP3 ADD SLOAD AND ISZERO ISZERO PUSH2 0x180 DUP7 ADD MSTORE PUSH2 0x510 PUSH1 0xD DUP3 ADD PUSH2 0x48DB JUMP JUMPDEST PUSH2 0x1A0 DUP7 ADD MSTORE ADD SLOAD AND ISZERO ISZERO SWAP2 ADD MSTORE MLOAD AND CALLER EQ ISZERO DUP1 PUSH2 0x5E8 JUMPI JUMPDEST PUSH2 0x5D7 JUMPI DUP4 PUSH1 0x0 MSTORE PUSH1 0x10 DUP6 MSTORE PUSH1 0x40 PUSH1 0x0 KECCAK256 SWAP3 AND SWAP2 DUP3 PUSH1 0x0 MSTORE DUP5 MSTORE PUSH1 0x1 PUSH1 0xFF PUSH1 0x40 PUSH1 0x0 KECCAK256 SLOAD AND SUB PUSH2 0x5C5 JUMPI MLOAD TIMESTAMP LT ISZERO PUSH2 0x5B3 JUMPI DUP2 PUSH1 0x0 MSTORE PUSH1 0x10 DUP4 MSTORE PUSH1 0x40 PUSH1 0x0 KECCAK256 DUP2 PUSH1 0x0 MSTORE DUP4 MSTORE PUSH1 0x40 PUSH1 0x0 KECCAK256 PUSH1 0x3 PUSH1 0xFF NOT DUP3 SLOAD AND OR SWAP1 SSTORE PUSH1 0x40 MLOAD SWAP2 TIMESTAMP DUP4 MSTORE PUSH32 0xC6E463A55006FF0F9FD3FC710BBB06B977F23273A66AF0979CBAEC5ABCEA0A47 DUP5 CALLER SWAP5 LOG4 PUSH1 0x40 MLOAD PUSH1 0x1 DUP2 MSTORE RETURN JUMPDEST PUSH1 0x40 MLOAD PUSH4 0xD54E4307 PUSH1 0xE0 SHL DUP2 MSTORE PUSH1 0x4 SWAP1 REVERT JUMPDEST PUSH1 0x40 MLOAD PUSH4 0x3EE3282D PUSH1 0xE1 SHL DUP2 MSTORE PUSH1 0x4 SWAP1 REVERT JUMPDEST PUSH1 0x40 MLOAD PUSH3 0x82B429 PUSH1 0xE8 SHL DUP2 MSTORE PUSH1 0x4 SWAP1 REVERT JUMPDEST POP DUP1 PUSH32 0x0 AND CALLER EQ ISZERO PUSH2 0x529 JUMP JUMPDEST PUSH1 0x40 MLOAD PUSH4 0x5CE45F7 PUSH1 0xE5 SHL DUP2 MSTORE PUSH1 0x4 SWAP1 REVERT JUMPDEST CALLVALUE PUSH2 0x381 JUMPI PUSH1 0x40 CALLDATASIZE PUSH1 0x3 NOT ADD SLT PUSH2 0x381 JUMPI PUSH1 0x1 PUSH1 0x1 PUSH1 0x40 SHL SUB PUSH1 0x4 CALLDATALOAD PUSH1 0x24 CALLDATALOAD DUP3 DUP2 GT PUSH2 0x381 JUMPI PUSH2 0x65A SWAP1 CALLDATASIZE SWAP1 PUSH1 0x4 ADD PUSH2 0x464C JUMP JUMPDEST SWAP3 SWAP1 SWAP3 CALLER PUSH1 0x0 MSTORE PUSH1 0x20 SWAP4 PUSH1 0x3 DUP6 MSTORE PUSH1 0x1 DUP1 PUSH1 0xA0 SHL SUB PUSH1 0x40 PUSH1 0x0 KECCAK256 SLOAD AND ISZERO PUSH2 0x82C JUMPI DUP4 PUSH1 0x0 MSTORE PUSH1 0x9 DUP6 MSTORE PUSH1 0xFF PUSH1 0xC PUSH1 0x40 PUSH1 0x0 KECCAK256 ADD SLOAD AND ISZERO PUSH2 0x817 JUMPI CALLER PUSH1 0x0 MSTORE PUSH1 0x3 DUP6 MSTORE PUSH1 0xFF PUSH1 0x2 PUSH1 0x40 PUSH1 0x0 KECCAK256 ADD SLOAD AND ISZERO PUSH2 0x805 JUMPI DUP4 PUSH1 0x0 MSTORE PUSH1 0x17 DUP6 MSTORE PUSH1 0x40 PUSH1 0x0 KECCAK256 CALLER PUSH1 0x0 MSTORE DUP6 MSTORE PUSH2 0x6CE PUSH1 0x40 PUSH1 0x0 KECCAK256 SLOAD PUSH2 0x4720 JUMP JUMPDEST ISZERO PUSH2 0x7EA JUMPI JUMPDEST DUP4 PUSH1 0x0 MSTORE PUSH1 0x17 DUP6 MSTORE PUSH1 0x40 PUSH1 0x0 KECCAK256 CALLER PUSH1 0x0 MSTORE DUP6 MSTORE PUSH1 0x40 PUSH1 0x0 KECCAK256 SWAP3 DUP3 GT PUSH2 0x7D4 JUMPI PUSH2 0x707 DUP3 PUSH2 0x701 DUP6 SLOAD PUSH2 0x4720 JUMP JUMPDEST DUP6 PUSH2 0x4B98 JUMP JUMPDEST PUSH1 0x0 SWAP5 PUSH1 0x1F DUP4 GT PUSH1 0x1 EQ PUSH2 0x76C JUMPI POP SWAP4 DUP2 SWAP3 SWAP4 SWAP5 PUSH1 0x0 SWAP3 PUSH2 0x761 JUMPI JUMPDEST POP POP DUP2 PUSH1 0x1 SHL SWAP2 PUSH1 0x0 NOT SWAP1 PUSH1 0x3 SHL SHR NOT AND OR SWAP1 SSTORE JUMPDEST CALLER SWAP1 PUSH32 0x209A7F309632F82E36F4CCB21F2D41D561939DBFE1030B045CC17B7563125543 PUSH1 0x0 DUP1 LOG3 STOP JUMPDEST ADD CALLDATALOAD SWAP1 POP DUP5 DUP1 PUSH2 0x723 JUMP JUMPDEST SWAP1 PUSH1 0x1F NOT DUP4 AND SWAP6 DUP5 PUSH1 0x0 MSTORE DUP3 PUSH1 0x0 KECCAK256 SWAP3 PUSH1 0x0 SWAP1 JUMPDEST DUP9 DUP3 LT PUSH2 0x7BC JUMPI POP POP DUP4 PUSH1 0x1 SWAP6 SWAP7 SWAP8 LT PUSH2 0x7A2 JUMPI JUMPDEST POP POP POP DUP2 SHL ADD SWAP1 SSTORE PUSH2 0x738 JUMP JUMPDEST ADD CALLDATALOAD PUSH1 0x0 NOT PUSH1 0x3 DUP5 SWAP1 SHL PUSH1 0xF8 AND SHR NOT AND SWAP1 SSTORE DUP5 DUP1 DUP1 PUSH2 0x795 JUMP JUMPDEST DUP1 PUSH1 0x1 DUP5 SWAP7 DUP3 SWAP5 SWAP6 DUP8 ADD CALLDATALOAD DUP2 SSTORE ADD SWAP6 ADD SWAP3 ADD SWAP1 PUSH2 0x780 JUMP JUMPDEST PUSH4 0x4E487B71 PUSH1 0xE0 SHL PUSH1 0x0 MSTORE PUSH1 0x41 PUSH1 0x4 MSTORE PUSH1 0x24 PUSH1 0x0 REVERT JUMPDEST DUP4 PUSH1 0x0 MSTORE PUSH1 0x18 DUP6 MSTORE PUSH2 0x800 CALLER PUSH1 0x40 PUSH1 0x0 KECCAK256 PUSH2 0x4D16 JUMP JUMPDEST PUSH2 0x6D4 JUMP JUMPDEST PUSH1 0x40 MLOAD PUSH4 0x99C0063D PUSH1 0xE0 SHL DUP2 MSTORE PUSH1 0x4 SWAP1 REVERT JUMPDEST PUSH1 0x40 MLOAD PUSH1 0x1 PUSH3 0x9C87D PUSH1 0xE4 SHL SUB NOT DUP2 MSTORE PUSH1 0x4 SWAP1 REVERT JUMPDEST PUSH1 0x40 MLOAD PUSH4 0x5AA309BB PUSH1 0xE0 SHL DUP2 MSTORE PUSH1 0x4 SWAP1 REVERT JUMPDEST CALLVALUE PUSH2 0x381 JUMPI PUSH1 0x20 CALLDATASIZE PUSH1 0x3 NOT ADD SLT PUSH2 0x381 JUMPI PUSH1 0x1 PUSH1 0x1 PUSH1 0xA0 SHL SUB DUP1 PUSH2 0x860 PUSH2 0x46F4 JUMP JUMPDEST AND PUSH1 0x0 MSTORE PUSH1 0x3 PUSH1 0x20 MSTORE PUSH1 0x40 PUSH1 0x0 KECCAK256 SWAP1 DUP2 SLOAD AND PUSH2 0x37D PUSH1 0x1 DUP4 ADD SLOAD SWAP3 PUSH1 0x3 PUSH1 0xFF PUSH1 0x2 DUP4 ADD SLOAD AND SWAP2 ADD SLOAD SWAP1 PUSH1 0x40 MLOAD SWAP5 DUP6 SWAP5 DUP6 SWAP1 SWAP5 SWAP4 SWAP3 PUSH1 0x60 SWAP3 PUSH1 0x80 DUP4 ADD SWAP7 PUSH1 0x1 DUP1 PUSH1 0xA0 SHL SUB AND DUP4 MSTORE PUSH1 0x20 DUP4 ADD MSTORE ISZERO ISZERO PUSH1 0x40 DUP3 ADD MSTORE ADD MSTORE JUMP JUMPDEST CALLVALUE PUSH2 0x381 JUMPI PUSH1 0x20 CALLDATASIZE PUSH1 0x3 NOT ADD SLT PUSH2 0x381 JUMPI PUSH1 0x1 PUSH1 0x1 PUSH1 0xA0 SHL SUB PUSH2 0x8D7 PUSH2 0x46F4 JUMP JUMPDEST AND PUSH1 0x0 MSTORE PUSH1 0xC PUSH1 0x20 MSTORE PUSH1 0x20 PUSH1 0xFF PUSH1 0x8 PUSH1 0x40 PUSH1 0x0 KECCAK256 ADD SLOAD AND PUSH1 0x40 MLOAD SWAP1 ISZERO ISZERO DUP2 MSTORE RETURN JUMPDEST CALLVALUE PUSH2 0x381 JUMPI PUSH1 0x60 CALLDATASIZE PUSH1 0x3 NOT ADD SLT PUSH2 0x381 JUMPI PUSH1 0x4 CALLDATALOAD PUSH1 0x24 CALLDATALOAD PUSH1 0x44 CALLDATALOAD SWAP2 CALLER PUSH1 0x0 MSTORE PUSH1 0x20 SWAP3 PUSH1 0xC DUP5 MSTORE PUSH1 0xFF PUSH1 0x8 PUSH1 0x40 PUSH1 0x0 KECCAK256 ADD SLOAD AND PUSH2 0xB62 JUMPI DUP3 PUSH1 0x0 MSTORE PUSH1 0xA DUP5 MSTORE PUSH1 0xFF PUSH1 0x40 PUSH1 0x0 KECCAK256 SLOAD AND PUSH2 0xB50 JUMPI DUP1 PUSH1 0x0 MSTORE PUSH1 0xB DUP5 MSTORE PUSH1 0xFF PUSH1 0x40 PUSH1 0x0 KECCAK256 SLOAD AND PUSH2 0xB3E JUMPI PUSH1 0x40 MLOAD DUP5 DUP2 ADD SWAP4 CALLER PUSH1 0x60 SHL DUP6 MSTORE DUP4 PUSH1 0x34 DUP4 ADD MSTORE DUP1 PUSH1 0x54 DUP4 ADD MSTORE DUP3 PUSH1 0x74 DUP4 ADD MSTORE TIMESTAMP PUSH1 0x94 DUP4 ADD MSTORE PUSH1 0x94 DUP3 MSTORE PUSH1 0xC0 DUP3 ADD SWAP5 DUP3 DUP7 LT PUSH1 0x1 PUSH1 0x1 PUSH1 0x40 SHL SUB DUP8 GT OR PUSH2 0x7D4 JUMPI DUP6 PUSH1 0x40 MSTORE DUP3 MLOAD SWAP1 KECCAK256 SWAP5 PUSH2 0x9AA DUP2 PUSH2 0x47AD JUMP JUMPDEST CALLER DUP2 MSTORE PUSH2 0xA76 PUSH1 0xE0 DUP5 ADD SWAP2 DUP7 DUP4 MSTORE PUSH1 0x8 DUP10 PUSH2 0x100 DUP8 ADD SWAP7 DUP7 DUP9 MSTORE PUSH2 0x120 DUP2 ADD SWAP8 DUP10 DUP10 MSTORE PUSH2 0x140 DUP3 ADD SWAP9 PUSH1 0x0 DUP11 MSTORE PUSH2 0x160 DUP4 ADD SWAP1 DUP14 DUP3 MSTORE PUSH2 0x180 DUP5 ADD SWAP3 TIMESTAMP DUP5 MSTORE PUSH1 0xC PUSH2 0x1C0 PUSH2 0x1A0 DUP8 ADD SWAP7 PUSH1 0x0 DUP9 MSTORE ADD SWAP7 PUSH1 0x1 DUP9 MSTORE CALLER PUSH1 0x0 MSTORE MSTORE PUSH1 0x40 PUSH1 0x0 KECCAK256 SWAP8 PUSH1 0x1 DUP1 PUSH1 0xA0 SHL SUB SWAP1 MLOAD AND SWAP10 PUSH1 0x1 PUSH1 0x1 PUSH1 0x60 SHL SUB PUSH1 0xA0 SHL SWAP11 DUP12 DUP11 SLOAD AND OR DUP10 SSTORE MLOAD PUSH1 0x1 DUP10 ADD SSTORE MLOAD PUSH1 0x2 DUP9 ADD SSTORE MLOAD PUSH1 0x3 DUP8 ADD SSTORE PUSH1 0xFF PUSH1 0x4 DUP8 ADD SWAP11 MLOAD AND SWAP10 PUSH1 0xFF NOT SWAP11 DUP12 DUP3 SLOAD AND OR SWAP1 SSTORE MLOAD PUSH1 0x5 DUP7 ADD SSTORE MLOAD PUSH1 0x6 DUP6 ADD SSTORE MLOAD PUSH1 0x7 DUP5 ADD SSTORE MLOAD ISZERO ISZERO SWAP2 ADD SWAP1 PUSH1 0xFF DUP1 NOT DUP4 SLOAD AND SWAP2 ISZERO ISZERO AND OR SWAP1 SSTORE JUMP JUMPDEST PUSH1 0x4 SLOAD PUSH1 0x1 PUSH1 0x40 SHL DUP2 LT ISZERO PUSH2 0x7D4 JUMPI PUSH1 0x1 DUP2 ADD DUP1 PUSH1 0x4 SSTORE DUP2 LT ISZERO PUSH2 0xB28 JUMPI PUSH32 0x8A35ACFBC15FF81A39AE7D344FD709F28E8600B4AA8C65C6B64BFE7FE36BD19B ADD SWAP1 CALLER SWAP1 DUP3 SLOAD AND OR SWAP1 SSTORE PUSH1 0x0 MSTORE PUSH1 0xA DUP6 MSTORE PUSH1 0x40 PUSH1 0x0 KECCAK256 PUSH1 0x1 DUP3 DUP3 SLOAD AND OR SWAP1 SSTORE DUP2 PUSH1 0x0 MSTORE PUSH1 0xB DUP6 MSTORE PUSH1 0x1 PUSH1 0x40 PUSH1 0x0 KECCAK256 SWAP2 DUP3 SLOAD AND OR SWAP1 SSTORE PUSH1 0x40 MLOAD SWAP2 DUP3 MSTORE DUP4 DUP3 ADD MSTORE TIMESTAMP PUSH1 0x40 DUP3 ADD MSTORE PUSH32 0x4A0760BD7A43EF7997B737233D55B1B1902178A1448890976C9A3C4CECBDA516 PUSH1 0x60 CALLER SWAP3 LOG2 PUSH1 0x40 MLOAD SWAP1 DUP2 MSTORE RETURN JUMPDEST PUSH4 0x4E487B71 PUSH1 0xE0 SHL PUSH1 0x0 MSTORE PUSH1 0x32 PUSH1 0x4 MSTORE PUSH1 0x24 PUSH1 0x0 REVERT JUMPDEST PUSH1 0x40 MLOAD PUSH4 0x745491FF PUSH1 0xE0 SHL DUP2 MSTORE PUSH1 0x4 SWAP1 REVERT JUMPDEST PUSH1 0x40 MLOAD PUSH4 0x31A0EFDD PUSH1 0xE2 SHL DUP2 MSTORE PUSH1 0x4 SWAP1 REVERT JUMPDEST PUSH1 0x40 MLOAD PUSH4 0xEA075BF PUSH1 0xE2 SHL DUP2 MSTORE PUSH1 0x4 SWAP1 REVERT JUMPDEST PUSH2 0x4B11 JUMP JUMPDEST CALLVALUE PUSH2 0x381 JUMPI PUSH1 0x0 CALLDATASIZE PUSH1 0x3 NOT ADD SLT PUSH2 0x381 JUMPI PUSH1 0x40 MLOAD DUP1 PUSH1 0x5 SLOAD SWAP2 DUP3 DUP2 MSTORE PUSH1 0x20 DUP1 SWAP2 ADD SWAP3 PUSH1 0x5 PUSH1 0x0 MSTORE PUSH32 0x36B6384B5ECA791C62761152D0C79BB0604C104A5FB6F4EB0703F3154BB3DB0 SWAP2 PUSH1 0x0 SWAP1 JUMPDEST DUP3 DUP3 LT PUSH2 0xBE9 JUMPI PUSH2 0x37D DUP6 PUSH2 0xBDD DUP2 DUP10 SUB DUP3 PUSH2 0x47FF JUMP JUMPDEST PUSH1 0x40 MLOAD SWAP2 DUP3 SWAP2 DUP3 PUSH2 0x46B0 JUMP JUMPDEST DUP4 SLOAD PUSH1 0x1 PUSH1 0x1 PUSH1 0xA0 SHL SUB AND DUP7 MSTORE SWAP5 DUP6 ADD SWAP5 PUSH1 0x1 SWAP4 DUP5 ADD SWAP4 SWAP1 SWAP2 ADD SWAP1 PUSH2 0xBC6 JUMP JUMPDEST CALLVALUE PUSH2 0x381 JUMPI PUSH1 0x20 CALLDATASIZE PUSH1 0x3 NOT ADD SLT PUSH2 0x381 JUMPI PUSH1 0x4 CALLDATALOAD PUSH1 0x0 MSTORE PUSH1 0x12 PUSH1 0x20 MSTORE PUSH1 0x20 PUSH1 0xFF PUSH1 0x40 PUSH1 0x0 KECCAK256 SLOAD AND PUSH1 0x40 MLOAD SWAP1 ISZERO ISZERO DUP2 MSTORE RETURN JUMPDEST CALLVALUE PUSH2 0x381 JUMPI PUSH1 0x0 CALLDATASIZE PUSH1 0x3 NOT ADD SLT PUSH2 0x381 JUMPI PUSH1 0x40 MLOAD DUP1 PUSH1 0x4 SLOAD SWAP2 DUP3 DUP2 MSTORE PUSH1 0x20 DUP1 SWAP2 ADD SWAP3 PUSH1 0x4 PUSH1 0x0 MSTORE PUSH32 0x8A35ACFBC15FF81A39AE7D344FD709F28E8600B4AA8C65C6B64BFE7FE36BD19B SWAP2 PUSH1 0x0 SWAP1 JUMPDEST DUP3 DUP3 LT PUSH2 0xC9E JUMPI PUSH2 0x37D DUP6 PUSH2 0xBDD DUP2 DUP10 SUB DUP3 PUSH2 0x47FF JUMP JUMPDEST DUP4 SLOAD PUSH1 0x1 PUSH1 0x1 PUSH1 0xA0 SHL SUB AND DUP7 MSTORE SWAP5 DUP6 ADD SWAP5 PUSH1 0x1 SWAP4 DUP5 ADD SWAP4 SWAP1 SWAP2 ADD SWAP1 PUSH2 0xC87 JUMP JUMPDEST CALLVALUE PUSH2 0x381 JUMPI PUSH1 0x20 CALLDATASIZE PUSH1 0x3 NOT ADD SLT PUSH2 0x381 JUMPI PUSH1 0x4 CALLDATALOAD DUP1 ISZERO DUP1 ISZERO PUSH2 0xE43 JUMPI JUMPDEST PUSH2 0x614 JUMPI PUSH1 0x0 MSTORE PUSH1 0x9 PUSH1 0x20 MSTORE PUSH1 0x40 PUSH1 0x0 KECCAK256 PUSH1 0x40 MLOAD SWAP1 PUSH2 0xCF9 DUP3 PUSH2 0x4791 JUMP JUMPDEST DUP1 SLOAD DUP3 MSTORE PUSH2 0xD09 PUSH1 0x1 DUP3 ADD PUSH2 0x48DB JUMP JUMPDEST PUSH1 0x20 DUP4 ADD SWAP1 DUP2 MSTORE PUSH2 0xD1C PUSH1 0x2 DUP4 ADD PUSH2 0x48DB JUMP JUMPDEST SWAP3 PUSH1 0x40 DUP2 ADD SWAP4 DUP5 MSTORE PUSH1 0x1 PUSH1 0xA0 SHL PUSH1 0x1 SWAP1 SUB SWAP2 DUP3 PUSH1 0x3 DUP6 ADD SLOAD AND SWAP2 PUSH1 0x60 DUP2 ADD SWAP3 DUP4 MSTORE PUSH1 0x4 DUP6 ADD SLOAD SWAP4 PUSH1 0x80 DUP3 ADD SWAP5 DUP6 MSTORE PUSH1 0x5 DUP7 ADD SLOAD PUSH1 0xA0 DUP4 ADD SWAP1 DUP2 MSTORE PUSH1 0x6 DUP8 ADD SLOAD PUSH1 0xC0 DUP5 ADD SWAP1 DUP2 MSTORE PUSH1 0x7 DUP9 ADD SLOAD SWAP2 PUSH1 0xE0 DUP6 ADD SWAP3 DUP4 MSTORE PUSH1 0x8 DUP10 ADD SLOAD PUSH1 0xFF AND SWAP4 PUSH2 0x100 SWAP7 DUP8 DUP8 ADD SWAP6 ISZERO ISZERO DUP7 MSTORE PUSH1 0x9 DUP12 ADD SLOAD SWAP7 PUSH2 0x120 SWAP12 DUP13 DUP3 ADD SWAP9 DUP10 MSTORE PUSH1 0xA DUP2 ADD SLOAD PUSH2 0x140 DUP4 ADD MSTORE PUSH1 0xB DUP2 ADD PUSH2 0xDAC SWAP1 PUSH2 0x48DB JUMP JUMPDEST PUSH2 0x160 DUP4 ADD MSTORE PUSH1 0xC DUP2 ADD SLOAD PUSH1 0xFF AND ISZERO ISZERO PUSH2 0x180 DUP4 ADD MSTORE PUSH2 0xDCE PUSH1 0xD DUP3 ADD PUSH2 0x48DB JUMP JUMPDEST PUSH2 0x1A0 DUP4 ADD MSTORE PUSH1 0xE ADD SLOAD PUSH1 0xFF AND ISZERO ISZERO SWAP1 PUSH2 0x1C0 ADD MSTORE MLOAD SWAP11 MLOAD SWAP8 MLOAD AND SWAP8 MLOAD SWAP1 MLOAD SWAP2 MLOAD SWAP3 MLOAD SWAP4 MLOAD ISZERO ISZERO SWAP5 MLOAD SWAP7 PUSH1 0x40 MLOAD SWAP11 DUP11 DUP13 SWAP12 DUP13 MSTORE DUP12 ADD PUSH2 0xE0C SWAP2 PUSH2 0x49A2 JUMP JUMPDEST DUP11 DUP2 SUB PUSH1 0x20 DUP13 ADD MSTORE PUSH2 0xE1D SWAP2 PUSH2 0x49A2 JUMP JUMPDEST SWAP8 PUSH1 0x40 DUP11 ADD MSTORE PUSH1 0x60 DUP10 ADD MSTORE PUSH1 0x80 DUP9 ADD MSTORE PUSH1 0xA0 DUP8 ADD MSTORE PUSH1 0xC0 DUP7 ADD MSTORE PUSH1 0xE0 DUP6 ADD MSTORE DUP4 ADD MSTORE SUB SWAP1 RETURN JUMPDEST POP PUSH1 0x7 SLOAD DUP2 GT PUSH2 0xCDB JUMP JUMPDEST CALLVALUE PUSH2 0x381 JUMPI PUSH2 0xE5C CALLDATASIZE PUSH2 0x4679 JUMP JUMPDEST SWAP3 SWAP2 SWAP1 DUP3 PUSH1 0x0 MSTORE PUSH1 0x9 SWAP4 PUSH1 0x20 SWAP1 DUP6 DUP3 MSTORE PUSH1 0x40 PUSH1 0x0 KECCAK256 SLOAD ISZERO PUSH2 0x614 JUMPI PUSH1 0x1 DUP1 PUSH1 0xA0 SHL SUB DUP1 PUSH32 0x0 AND CALLER EQ ISZERO SWAP1 DUP2 PUSH2 0x114D JUMPI JUMPDEST POP PUSH2 0x5D7 JUMPI DUP5 PUSH1 0x0 MSTORE DUP6 DUP3 MSTORE PUSH1 0xFF PUSH1 0xC PUSH1 0x40 PUSH1 0x0 KECCAK256 ADD SLOAD AND PUSH2 0x113B JUMPI DUP3 ISZERO PUSH2 0x1129 JUMPI DUP5 PUSH1 0x0 MSTORE DUP6 DUP3 MSTORE PUSH1 0x7 PUSH1 0x40 PUSH1 0x0 KECCAK256 ADD SLOAD TIMESTAMP GT ISZERO PUSH2 0x1117 JUMPI DUP5 PUSH1 0x0 MSTORE PUSH1 0x15 SWAP1 DUP2 DUP4 MSTORE PUSH1 0x40 PUSH1 0x0 KECCAK256 SLOAD SWAP2 DUP3 ISZERO PUSH2 0x1105 JUMPI PUSH1 0x40 MLOAD PUSH2 0xF07 DUP2 PUSH2 0x47C9 JUMP JUMPDEST PUSH1 0x0 DUP2 MSTORE SWAP1 PUSH1 0x0 SWAP1 JUMPDEST DUP6 DUP6 DUP4 LT PUSH2 0x108B JUMPI SWAP2 POP POP DUP2 MLOAD SWAP2 ADD KECCAK256 SUB PUSH2 0x1079 JUMPI DUP5 PUSH1 0x0 MSTORE DUP6 DUP3 MSTORE PUSH1 0xB PUSH1 0x40 PUSH1 0x0 KECCAK256 ADD SWAP6 PUSH1 0x1 PUSH1 0x1 PUSH1 0x40 SHL SUB DUP5 GT PUSH2 0x7D4 JUMPI PUSH2 0xF57 DUP5 PUSH2 0xF51 DUP10 SLOAD PUSH2 0x4720 JUMP JUMPDEST DUP10 PUSH2 0x4B98 JUMP JUMPDEST PUSH1 0x0 SWAP7 PUSH1 0x1F DUP6 GT PUSH1 0x1 EQ PUSH2 0xFF5 JUMPI DUP5 PUSH32 0xED878D46369D37BAB765405163B91E6CACEF96258026B8C7AF968904C728B33 SWAP8 SWAP9 PUSH1 0x0 SWAP2 PUSH2 0xFEA JUMPI JUMPDEST POP DUP6 PUSH1 0x1 SHL SWAP1 PUSH1 0x0 NOT DUP8 PUSH1 0x3 SHL SHR NOT AND OR SWAP1 SSTORE JUMPDEST DUP7 PUSH1 0x0 MSTORE DUP3 MSTORE DUP1 PUSH1 0xA PUSH1 0x40 PUSH1 0x0 KECCAK256 PUSH1 0xC DUP2 ADD PUSH1 0x1 PUSH1 0xFF NOT DUP3 SLOAD AND OR SWAP1 SSTORE ADD SSTORE PUSH2 0xFDB PUSH1 0x40 MLOAD SWAP5 DUP6 SWAP5 PUSH1 0x60 DUP7 MSTORE PUSH1 0x60 DUP7 ADD SWAP2 PUSH2 0x4BEC JUMP JUMPDEST SWAP2 DUP4 ADD MSTORE TIMESTAMP PUSH1 0x40 DUP4 ADD MSTORE SUB SWAP1 LOG2 STOP JUMPDEST SWAP1 POP DUP7 ADD CALLDATALOAD DUP10 PUSH2 0xF91 JUMP JUMPDEST PUSH1 0x1F NOT DUP6 AND SWAP8 DUP2 PUSH1 0x0 MSTORE DUP5 PUSH1 0x0 KECCAK256 SWAP1 PUSH1 0x0 JUMPDEST DUP11 DUP2 LT PUSH2 0x1062 JUMPI POP DUP7 PUSH32 0xED878D46369D37BAB765405163B91E6CACEF96258026B8C7AF968904C728B33 SWAP10 SWAP11 LT PUSH2 0x1048 JUMPI JUMPDEST POP POP PUSH1 0x1 DUP6 DUP2 SHL ADD SWAP1 SSTORE PUSH2 0xFA5 JUMP JUMPDEST DUP8 ADD CALLDATALOAD PUSH1 0x0 NOT PUSH1 0x3 DUP9 SWAP1 SHL PUSH1 0xF8 AND SHR NOT AND SWAP1 SSTORE DUP9 DUP1 PUSH2 0x1039 JUMP JUMPDEST SWAP1 SWAP2 DUP7 PUSH1 0x1 DUP2 SWAP3 DUP6 DUP13 ADD CALLDATALOAD DUP2 SSTORE ADD SWAP4 ADD SWAP2 ADD PUSH2 0x1007 JUMP JUMPDEST PUSH1 0x40 MLOAD PUSH4 0x1ED5A3C5 PUSH1 0xE2 SHL DUP2 MSTORE PUSH1 0x4 SWAP1 REVERT JUMPDEST PUSH2 0x10F9 PUSH2 0x10FF SWAP3 SWAP4 SWAP5 DUP12 PUSH1 0x0 MSTORE DUP5 DUP4 MSTORE PUSH2 0x10A9 DUP7 PUSH1 0x40 PUSH1 0x0 KECCAK256 PUSH2 0x4ABE JUMP JUMPDEST SWAP1 SLOAD DUP14 PUSH1 0x0 MSTORE PUSH1 0x14 DUP6 MSTORE PUSH1 0x40 PUSH1 0x0 KECCAK256 SWAP2 PUSH1 0x3 SHL SHR PUSH1 0x0 MSTORE DUP4 MSTORE PUSH2 0x10EB PUSH1 0x40 PUSH1 0x0 KECCAK256 PUSH1 0x40 MLOAD SWAP5 DUP4 PUSH2 0x10E2 DUP8 SWAP6 MLOAD DUP1 SWAP3 DUP5 DUP1 DUP10 ADD SWAP2 ADD PUSH2 0x497F JUMP JUMPDEST DUP5 ADD ADD SWAP1 PUSH2 0x4C93 JUMP JUMPDEST SUB PUSH1 0x1F NOT DUP2 ADD DUP4 MSTORE DUP3 PUSH2 0x47FF JUMP JUMPDEST SWAP3 PUSH2 0x4C0D JUMP JUMPDEST SWAP1 PUSH2 0xF10 JUMP JUMPDEST PUSH1 0x40 MLOAD PUSH4 0x354BA2D5 PUSH1 0xE0 SHL DUP2 MSTORE PUSH1 0x4 SWAP1 REVERT JUMPDEST PUSH1 0x40 MLOAD PUSH4 0x5B177C7D PUSH1 0xE1 SHL DUP2 MSTORE PUSH1 0x4 SWAP1 REVERT JUMPDEST PUSH1 0x40 MLOAD PUSH4 0xA447FC53 PUSH1 0xE0 SHL DUP2 MSTORE PUSH1 0x4 SWAP1 REVERT JUMPDEST PUSH1 0x40 MLOAD PUSH4 0x9AC89BCD PUSH1 0xE0 SHL DUP2 MSTORE PUSH1 0x4 SWAP1 REVERT JUMPDEST SWAP1 POP DUP6 PUSH1 0x0 MSTORE DUP7 DUP4 MSTORE PUSH1 0x3 PUSH1 0x40 PUSH1 0x0 KECCAK256 ADD SLOAD AND CALLER EQ ISZERO DUP8 PUSH2 0xEAB JUMP JUMPDEST CALLVALUE PUSH2 0x381 JUMPI PUSH1 0x20 CALLDATASIZE PUSH1 0x3 NOT ADD SLT PUSH2 0x381 JUMPI PUSH1 0x4 CALLDATALOAD PUSH1 0x0 MSTORE PUSH1 0xA PUSH1 0x20 MSTORE PUSH1 0x20 PUSH1 0xFF PUSH1 0x40 PUSH1 0x0 KECCAK256 SLOAD AND PUSH1 0x40 MLOAD SWAP1 ISZERO ISZERO DUP2 MSTORE RETURN JUMPDEST CALLVALUE PUSH2 0x381 JUMPI PUSH1 0x20 CALLDATASIZE PUSH1 0x3 NOT ADD SLT PUSH2 0x381 JUMPI PUSH2 0x11B3 PUSH2 0x46F4 JUMP JUMPDEST PUSH1 0x1 PUSH1 0x1 PUSH1 0xA0 SHL SUB SWAP1 PUSH32 0x0 DUP3 AND CALLER SUB PUSH2 0x1216 JUMPI AND DUP1 ISZERO PUSH2 0x1204 JUMPI PUSH1 0x1 PUSH1 0x1 PUSH1 0x60 SHL SUB PUSH1 0xA0 SHL PUSH1 0x11 SLOAD AND OR PUSH1 0x11 SSTORE PUSH1 0x0 DUP1 RETURN JUMPDEST PUSH1 0x40 MLOAD PUSH4 0xD92E233D PUSH1 0xE0 SHL DUP2 MSTORE PUSH1 0x4 SWAP1 REVERT JUMPDEST PUSH1 0x40 MLOAD PUSH4 0x7BFA4B9F PUSH1 0xE0 SHL DUP2 MSTORE PUSH1 0x4 SWAP1 REVERT JUMPDEST CALLVALUE PUSH2 0x381 JUMPI PUSH1 0x0 CALLDATASIZE PUSH1 0x3 NOT ADD SLT PUSH2 0x381 JUMPI PUSH1 0x6 SLOAD PUSH1 0x0 DUP1 JUMPDEST DUP3 DUP2 LT PUSH2 0x12E0 JUMPI POP PUSH2 0x1251 SWAP1 PUSH2 0x4F82 JUMP JUMPDEST SWAP1 PUSH1 0x0 DUP1 JUMPDEST DUP3 DUP2 LT PUSH2 0x126B JUMPI PUSH1 0x40 MLOAD DUP1 PUSH2 0x37D DUP7 DUP3 PUSH2 0x46B0 JUMP JUMPDEST PUSH2 0x1274 DUP2 PUSH2 0x4A87 JUMP JUMPDEST PUSH1 0x1 DUP1 PUSH1 0xA0 SHL SUB DUP1 SWAP3 SLOAD PUSH1 0x3 SWAP3 DUP4 SHL SHR AND PUSH1 0x0 MSTORE PUSH1 0xE PUSH1 0x20 MSTORE PUSH1 0xFF PUSH1 0x4 PUSH1 0x40 PUSH1 0x0 KECCAK256 ADD SLOAD AND ISZERO PUSH2 0x12AF JUMPI JUMPDEST POP POP PUSH2 0x12AA SWAP1 PUSH2 0x4C0D JUMP JUMPDEST PUSH2 0x1256 JUMP JUMPDEST SWAP3 PUSH2 0x12D8 SWAP2 DUP4 SWAP5 PUSH2 0x12C2 PUSH2 0x12AA SWAP6 PUSH2 0x4A87 JUMP JUMPDEST SWAP1 SLOAD SWAP2 SHL SHR AND PUSH2 0x12D2 DUP3 DUP9 PUSH2 0x4FB4 JUMP JUMPDEST MSTORE PUSH2 0x4C0D JUMP JUMPDEST SWAP2 SWAP1 DUP6 PUSH2 0x129F JUMP JUMPDEST PUSH2 0x12E9 DUP2 PUSH2 0x4A87 JUMP JUMPDEST PUSH1 0x1 DUP1 PUSH1 0xA0 SHL SUB SWAP2 SLOAD SWAP1 PUSH1 0x3 SHL SHR AND PUSH1 0x0 MSTORE PUSH1 0xE PUSH1 0x20 MSTORE PUSH1 0xFF PUSH1 0x4 PUSH1 0x40 PUSH1 0x0 KECCAK256 ADD SLOAD AND ISZERO PUSH2 0x1320 JUMPI JUMPDEST PUSH2 0x131B SWAP1 PUSH2 0x4C0D JUMP JUMPDEST PUSH2 0x1240 JUMP JUMPDEST SWAP1 PUSH2 0x132D PUSH2 0x131B SWAP2 PUSH2 0x4C0D JUMP JUMPDEST SWAP2 SWAP1 POP PUSH2 0x1312 JUMP JUMPDEST CALLVALUE PUSH2 0x381 JUMPI PUSH2 0x1343 CALLDATASIZE PUSH2 0x4A03 JUMP JUMPDEST SWAP1 PUSH1 0x0 MSTORE PUSH1 0x13 PUSH1 0x20 MSTORE PUSH1 0x40 PUSH1 0x0 KECCAK256 SWAP1 PUSH1 0x0 MSTORE PUSH1 0x20 MSTORE PUSH1 0x20 PUSH1 0xFF PUSH1 0x40 PUSH1 0x0 KECCAK256 SLOAD AND PUSH1 0x40 MLOAD SWAP1 ISZERO ISZERO DUP2 MSTORE RETURN JUMPDEST CALLVALUE PUSH2 0x381 JUMPI PUSH1 0x20 CALLDATASIZE PUSH1 0x3 NOT ADD SLT PUSH2 0x381 JUMPI PUSH1 0x1 PUSH1 0x1 PUSH1 0xA0 SHL SUB DUP1 PUSH2 0x138F PUSH2 0x46F4 JUMP JUMPDEST AND PUSH1 0x0 MSTORE PUSH1 0x3 PUSH1 0x20 MSTORE PUSH1 0x40 PUSH1 0x0 KECCAK256 PUSH1 0x40 MLOAD SWAP2 PUSH1 0x80 DUP4 ADD DUP4 DUP2 LT PUSH1 0x1 PUSH1 0x1 PUSH1 0x40 SHL SUB DUP3 GT OR PUSH2 0x7D4 JUMPI PUSH2 0x37D SWAP2 PUSH1 0x60 SWAP2 PUSH1 0x40 MSTORE DUP4 SLOAD AND SWAP3 DUP4 DUP6 MSTORE PUSH1 0x1 DUP2 ADD SLOAD SWAP5 DUP6 PUSH1 0x20 DUP3 ADD MSTORE PUSH1 0x3 PUSH1 0xFF PUSH1 0x2 DUP5 ADD SLOAD AND ISZERO ISZERO SWAP3 DUP4 PUSH1 0x40 DUP5 ADD MSTORE ADD SLOAD SWAP3 DUP4 SWAP2 ADD MSTORE PUSH1 0x40 MLOAD SWAP5 DUP6 SWAP5 DUP6 SWAP1 SWAP5 SWAP4 SWAP3 PUSH1 0x60 SWAP3 PUSH1 0x80 DUP4 ADD SWAP7 PUSH1 0x1 DUP1 PUSH1 0xA0 SHL SUB AND DUP4 MSTORE PUSH1 0x20 DUP4 ADD MSTORE ISZERO ISZERO PUSH1 0x40 DUP3 ADD MSTORE ADD MSTORE JUMP JUMPDEST CALLVALUE PUSH2 0x381 JUMPI PUSH1 0x0 CALLDATASIZE PUSH1 0x3 NOT ADD SLT PUSH2 0x381 JUMPI PUSH2 0x37D PUSH2 0x369 PUSH2 0x4820 JUMP JUMPDEST CALLVALUE PUSH2 0x381 JUMPI PUSH1 0x60 CALLDATASIZE PUSH1 0x3 NOT ADD SLT PUSH2 0x381 JUMPI PUSH1 0x4 CALLDATALOAD PUSH1 0x1 PUSH1 0x1 PUSH1 0x40 SHL SUB DUP2 GT PUSH2 0x381 JUMPI PUSH2 0x1467 SWAP1 CALLDATASIZE SWAP1 PUSH1 0x4 ADD PUSH2 0x464C JUMP JUMPDEST SWAP1 PUSH1 0x44 CALLDATALOAD PUSH1 0x1 PUSH1 0x1 PUSH1 0x40 SHL SUB DUP2 GT PUSH2 0x381 JUMPI PUSH2 0x1487 SWAP1 CALLDATASIZE SWAP1 PUSH1 0x4 ADD PUSH2 0x464C JUMP JUMPDEST SWAP1 CALLER PUSH1 0x0 MSTORE PUSH1 0xE PUSH1 0x20 MSTORE PUSH1 0xFF PUSH1 0x6 PUSH1 0x40 PUSH1 0x0 KECCAK256 ADD SLOAD AND PUSH2 0xB62 JUMPI DUP4 ISZERO PUSH2 0x1129 JUMPI PUSH2 0x14DC PUSH1 0x40 MLOAD SWAP2 PUSH2 0x14B7 DUP4 PUSH2 0x475A JUMP JUMPDEST CALLER DUP4 MSTORE PUSH2 0x14C5 CALLDATASIZE DUP8 DUP8 PUSH2 0x4F25 JUMP JUMPDEST SWAP4 PUSH1 0x20 DUP5 ADD SWAP5 DUP6 MSTORE PUSH1 0x24 CALLDATALOAD PUSH1 0x40 DUP6 ADD MSTORE CALLDATASIZE SWAP2 PUSH2 0x4F25 JUMP JUMPDEST PUSH1 0x60 DUP3 ADD MSTORE PUSH1 0x0 PUSH1 0x80 DUP3 ADD DUP2 SWAP1 MSTORE TIMESTAMP PUSH1 0xA0 DUP4 ADD MSTORE PUSH1 0x1 PUSH1 0xC0 DUP4 ADD MSTORE CALLER DUP2 MSTORE PUSH1 0xE PUSH1 0x20 MSTORE PUSH1 0x40 SWAP1 KECCAK256 DUP2 MLOAD DUP2 SLOAD PUSH1 0x1 PUSH1 0x1 PUSH1 0xA0 SHL SUB NOT AND PUSH1 0x1 PUSH1 0x1 PUSH1 0xA0 SHL SUB SWAP2 SWAP1 SWAP2 AND OR DUP2 SSTORE SWAP2 MLOAD DUP1 MLOAD SWAP1 PUSH1 0x1 PUSH1 0x1 PUSH1 0x40 SHL SUB DUP3 GT PUSH2 0x7D4 JUMPI DUP2 SWAP1 PUSH2 0x154F DUP3 PUSH2 0x1546 PUSH1 0x1 DUP9 ADD SLOAD PUSH2 0x4720 JUMP JUMPDEST PUSH1 0x1 DUP9 ADD PUSH2 0x4B98 JUMP JUMPDEST PUSH1 0x20 SWAP1 PUSH1 0x1F DUP4 GT PUSH1 0x1 EQ PUSH2 0x1746 JUMPI PUSH1 0x0 SWAP3 PUSH2 0x173B JUMPI JUMPDEST POP POP DUP2 PUSH1 0x1 SHL SWAP2 PUSH1 0x0 NOT SWAP1 PUSH1 0x3 SHL SHR NOT AND OR PUSH1 0x1 DUP4 ADD SSTORE JUMPDEST PUSH1 0x40 DUP2 ADD MLOAD PUSH1 0x2 DUP4 ADD SSTORE PUSH1 0x60 DUP2 ADD MLOAD DUP1 MLOAD SWAP1 PUSH1 0x1 PUSH1 0x1 PUSH1 0x40 SHL SUB DUP3 GT PUSH2 0x7D4 JUMPI PUSH2 0x15B7 DUP3 PUSH2 0x15AE PUSH1 0x3 DUP8 ADD SLOAD PUSH2 0x4720 JUMP JUMPDEST PUSH1 0x3 DUP8 ADD PUSH2 0x4B98 JUMP JUMPDEST PUSH1 0x20 SWAP1 PUSH1 0x1F DUP4 GT PUSH1 0x1 EQ PUSH2 0x16C2 JUMPI SWAP3 DUP3 PUSH1 0x6 SWAP4 PUSH1 0xC0 SWAP4 PUSH2 0x1628 SWAP8 SWAP7 PUSH1 0x0 SWAP3 PUSH2 0x16B7 JUMPI JUMPDEST POP POP DUP2 PUSH1 0x1 SHL SWAP2 PUSH1 0x0 NOT SWAP1 PUSH1 0x3 SHL SHR NOT AND OR PUSH1 0x3 DUP6 ADD SSTORE JUMPDEST PUSH1 0x4 DUP5 ADD PUSH1 0xFF PUSH1 0x80 DUP4 ADD MLOAD AND PUSH1 0xFF NOT DUP3 SLOAD AND OR SWAP1 SSTORE PUSH1 0xA0 DUP2 ADD MLOAD PUSH1 0x5 DUP6 ADD SSTORE ADD MLOAD ISZERO ISZERO SWAP2 ADD SWAP1 PUSH1 0xFF DUP1 NOT DUP4 SLOAD AND SWAP2 ISZERO ISZERO AND OR SWAP1 SSTORE JUMP JUMPDEST PUSH1 0x6 SLOAD PUSH1 0x1 PUSH1 0x40 SHL DUP2 LT ISZERO PUSH2 0x7D4 JUMPI PUSH32 0xC66B05BF38D91D14A06EA483A62DF85883A2EFDF48F80E9432ECE10C3FE7F985 SWAP2 PUSH2 0x166C DUP3 PUSH1 0x1 PUSH2 0x1697 SWAP5 ADD PUSH1 0x6 SSTORE PUSH2 0x4A87 JUMP JUMPDEST DUP2 SLOAD SWAP1 PUSH1 0x3 SHL SWAP1 CALLER DUP3 SHL SWAP2 PUSH1 0x1 DUP1 PUSH1 0xA0 SHL SUB SWAP1 SHL NOT AND OR SWAP1 SSTORE PUSH1 0x40 MLOAD SWAP4 PUSH1 0x60 DUP6 MSTORE PUSH1 0x60 DUP6 ADD SWAP2 PUSH2 0x4BEC JUMP JUMPDEST SWAP2 PUSH1 0x24 CALLDATALOAD PUSH1 0x20 DUP3 ADD MSTORE TIMESTAMP PUSH1 0x40 DUP3 ADD MSTORE DUP1 CALLER SWAP4 SUB SWAP1 LOG2 PUSH1 0x20 PUSH1 0x40 MLOAD PUSH1 0x1 DUP2 MSTORE RETURN JUMPDEST ADD MLOAD SWAP1 POP DUP10 DUP1 PUSH2 0x15DA JUMP JUMPDEST SWAP1 PUSH1 0x3 DUP6 ADD PUSH1 0x0 MSTORE PUSH1 0x20 PUSH1 0x0 KECCAK256 SWAP2 PUSH1 0x0 JUMPDEST PUSH1 0x1F NOT DUP6 AND DUP2 LT PUSH2 0x1723 JUMPI POP DUP4 PUSH1 0xC0 SWAP4 PUSH2 0x1628 SWAP8 SWAP7 SWAP4 PUSH1 0x1 SWAP4 PUSH1 0x6 SWAP8 PUSH1 0x1F NOT DUP2 AND LT PUSH2 0x170A JUMPI JUMPDEST POP POP POP DUP2 SHL ADD PUSH1 0x3 DUP6 ADD SSTORE PUSH2 0x15F2 JUMP JUMPDEST ADD MLOAD PUSH1 0x0 NOT PUSH1 0xF8 DUP5 PUSH1 0x3 SHL AND SHR NOT AND SWAP1 SSTORE DUP10 DUP1 DUP1 PUSH2 0x16FA JUMP JUMPDEST SWAP2 SWAP3 PUSH1 0x20 PUSH1 0x1 DUP2 SWAP3 DUP7 DUP6 ADD MLOAD DUP2 SSTORE ADD SWAP5 ADD SWAP3 ADD PUSH2 0x16D3 JUMP JUMPDEST ADD MLOAD SWAP1 POP DUP7 DUP1 PUSH2 0x1565 JUMP JUMPDEST SWAP3 POP PUSH1 0x1 DUP6 ADD PUSH1 0x0 MSTORE PUSH1 0x20 PUSH1 0x0 KECCAK256 SWAP1 PUSH1 0x0 SWAP4 JUMPDEST PUSH1 0x1F NOT DUP5 AND DUP6 LT PUSH2 0x179D JUMPI PUSH1 0x1 SWAP5 POP DUP4 PUSH1 0x1F NOT DUP2 AND LT PUSH2 0x1784 JUMPI JUMPDEST POP POP POP DUP2 SHL ADD PUSH1 0x1 DUP4 ADD SSTORE PUSH2 0x157D JUMP JUMPDEST ADD MLOAD PUSH1 0x0 NOT PUSH1 0xF8 DUP5 PUSH1 0x3 SHL AND SHR NOT AND SWAP1 SSTORE DUP7 DUP1 DUP1 PUSH2 0x1774 JUMP JUMPDEST DUP2 DUP2 ADD MLOAD DUP4 SSTORE PUSH1 0x20 SWAP5 DUP6 ADD SWAP5 PUSH1 0x1 SWAP1 SWAP4 ADD SWAP3 SWAP1 SWAP2 ADD SWAP1 PUSH2 0x1759 JUMP JUMPDEST CALLVALUE PUSH2 0x381 JUMPI PUSH1 0x20 CALLDATASIZE PUSH1 0x3 NOT ADD SLT PUSH2 0x381 JUMPI PUSH1 0x4 CALLDATALOAD PUSH1 0x7 SLOAD DUP2 GT PUSH2 0x614 JUMPI PUSH1 0x0 MSTORE PUSH1 0x9 PUSH1 0x20 MSTORE PUSH1 0x20 PUSH1 0xA PUSH1 0x40 PUSH1 0x0 KECCAK256 ADD SLOAD PUSH1 0x40 MLOAD SWAP1 DUP2 MSTORE RETURN JUMPDEST CALLVALUE PUSH2 0x381 JUMPI PUSH1 0x0 CALLDATASIZE PUSH1 0x3 NOT ADD SLT PUSH2 0x381 JUMPI PUSH1 0x20 PUSH1 0x7 SLOAD PUSH1 0x40 MLOAD SWAP1 DUP2 MSTORE RETURN JUMPDEST CALLVALUE PUSH2 0x381 JUMPI PUSH1 0x0 CALLDATASIZE PUSH1 0x3 NOT ADD SLT PUSH2 0x381 JUMPI PUSH1 0xFF PUSH1 0x1 SLOAD AND ISZERO PUSH2 0x1835 JUMPI PUSH2 0x37D PUSH2 0x369 PUSH2 0x4820 JUMP JUMPDEST PUSH1 0x40 MLOAD PUSH4 0x9096CCCB PUSH1 0xE0 SHL DUP2 MSTORE PUSH1 0x4 SWAP1 REVERT JUMPDEST CALLVALUE PUSH2 0x381 JUMPI PUSH1 0x20 CALLDATASIZE PUSH1 0x3 NOT ADD SLT PUSH2 0x381 JUMPI PUSH2 0x120 PUSH1 0x1 PUSH1 0x1 PUSH1 0xA0 SHL SUB DUP1 PUSH2 0x186C PUSH2 0x46F4 JUMP JUMPDEST AND PUSH1 0x0 MSTORE PUSH1 0xC PUSH1 0x20 MSTORE PUSH1 0x40 PUSH1 0x0 KECCAK256 SWAP1 DUP2 SLOAD AND SWAP1 PUSH1 0x1 DUP2 ADD SLOAD SWAP1 PUSH1 0x2 DUP2 ADD SLOAD PUSH1 0x3 DUP3 ADD SLOAD PUSH1 0xFF PUSH1 0x4 DUP5 ADD SLOAD AND PUSH1 0x5 DUP5 ADD SLOAD SWAP2 PUSH1 0x6 DUP6 ADD SLOAD SWAP4 PUSH1 0xFF PUSH1 0x8 PUSH1 0x7 DUP9 ADD SLOAD SWAP8 ADD SLOAD AND SWAP7 PUSH1 0x40 MLOAD SWAP9 DUP10 MSTORE PUSH1 0x20 DUP10 ADD MSTORE PUSH1 0x40 DUP9 ADD MSTORE PUSH1 0x60 DUP8 ADD MSTORE PUSH1 0x80 DUP7 ADD MSTORE PUSH1 0xA0 DUP6 ADD MSTORE PUSH1 0xC0 DUP5 ADD MSTORE PUSH1 0xE0 DUP4 ADD MSTORE ISZERO ISZERO PUSH2 0x100 DUP3 ADD MSTORE RETURN JUMPDEST CALLVALUE PUSH2 0x381 JUMPI PUSH1 0x20 CALLDATASIZE PUSH1 0x3 NOT ADD SLT PUSH2 0x381 JUMPI PUSH1 0x1 PUSH1 0x1 PUSH1 0xA0 SHL SUB DUP1 PUSH2 0x1906 PUSH2 0x46F4 JUMP JUMPDEST AND DUP1 PUSH1 0x0 MSTORE PUSH1 0xC PUSH1 0x20 MSTORE PUSH1 0xFF PUSH1 0x8 PUSH1 0x40 PUSH1 0x0 KECCAK256 ADD SLOAD AND ISZERO PUSH2 0x19FC JUMPI PUSH1 0x0 MSTORE PUSH1 0xC PUSH1 0x20 MSTORE PUSH1 0x40 PUSH1 0x0 KECCAK256 PUSH1 0x40 MLOAD SWAP2 PUSH2 0x193B DUP4 PUSH2 0x47AD JUMP JUMPDEST DUP2 SLOAD AND DUP3 MSTORE PUSH1 0x1 DUP2 ADD SLOAD SWAP1 DUP2 PUSH1 0x20 DUP5 ADD MSTORE PUSH1 0x2 DUP2 ADD SLOAD PUSH1 0x40 DUP5 ADD MSTORE PUSH1 0x3 DUP2 ADD SLOAD SWAP3 DUP4 PUSH1 0x60 DUP3 ADD MSTORE PUSH1 0x1 PUSH1 0xFF PUSH1 0x4 DUP5 ADD SLOAD AND DUP1 PUSH1 0x80 DUP5 ADD MSTORE PUSH1 0x5 DUP5 ADD SLOAD PUSH1 0xA0 DUP5 ADD MSTORE PUSH1 0x6 DUP5 ADD SLOAD SWAP3 PUSH1 0xC0 DUP2 ADD SWAP4 DUP5 MSTORE PUSH2 0x100 PUSH1 0xFF PUSH1 0x8 PUSH1 0x7 DUP9 ADD SLOAD SWAP8 PUSH1 0xE0 DUP6 ADD SWAP9 DUP10 MSTORE ADD SLOAD AND ISZERO ISZERO SWAP2 ADD MSTORE EQ PUSH1 0x0 EQ PUSH2 0x19EB JUMPI PUSH2 0x19DC PUSH2 0x19B8 PUSH2 0x4F01 JUMP JUMPDEST SWAP2 JUMPDEST MLOAD SWAP3 MLOAD SWAP2 PUSH1 0x40 MLOAD SWAP6 DUP7 SWAP6 DUP7 MSTORE PUSH1 0x20 DUP7 ADD MSTORE PUSH1 0xA0 PUSH1 0x40 DUP7 ADD MSTORE PUSH1 0xA0 DUP6 ADD SWAP1 PUSH2 0x49A2 JUMP JUMPDEST SWAP2 PUSH1 0x60 DUP5 ADD MSTORE PUSH1 0x80 DUP4 ADD MSTORE SUB SWAP1 RETURN JUMPDEST PUSH2 0x19DC PUSH2 0x19F6 PUSH2 0x4ED1 JUMP JUMPDEST SWAP2 PUSH2 0x19BA JUMP JUMPDEST PUSH1 0x40 MLOAD PUSH4 0xABA47339 PUSH1 0xE0 SHL DUP2 MSTORE PUSH1 0x4 SWAP1 REVERT JUMPDEST CALLVALUE PUSH2 0x381 JUMPI PUSH1 0x40 CALLDATASIZE PUSH1 0x3 NOT ADD SLT PUSH2 0x381 JUMPI PUSH1 0x24 CALLDATALOAD PUSH1 0x4 CALLDATALOAD PUSH1 0x0 MSTORE PUSH1 0x18 PUSH1 0x20 MSTORE PUSH1 0x40 PUSH1 0x0 KECCAK256 DUP1 SLOAD DUP3 LT ISZERO PUSH2 0x381 JUMPI PUSH1 0x20 SWAP2 PUSH2 0x1A47 SWAP2 PUSH2 0x4ABE JUMP JUMPDEST SWAP1 SLOAD PUSH1 0x40 MLOAD PUSH1 0x3 SWAP3 SWAP1 SWAP3 SHL SHR PUSH1 0x1 PUSH1 0x1 PUSH1 0xA0 SHL SUB AND DUP2 MSTORE RETURN JUMPDEST CALLVALUE PUSH2 0x381 JUMPI PUSH1 0x0 CALLDATASIZE PUSH1 0x3 NOT ADD SLT PUSH2 0x381 JUMPI PUSH1 0x11 SLOAD PUSH1 0x40 MLOAD PUSH1 0x1 PUSH1 0x1 PUSH1 0xA0 SHL SUB SWAP1 SWAP2 AND DUP2 MSTORE PUSH1 0x20 SWAP1 RETURN JUMPDEST CALLVALUE PUSH2 0x381 JUMPI PUSH1 0xC0 CALLDATASIZE PUSH1 0x3 NOT ADD SLT PUSH2 0x381 JUMPI PUSH1 0x4 CALLDATALOAD PUSH1 0x1 PUSH1 0x1 PUSH1 0x40 SHL SUB DUP2 GT PUSH2 0x381 JUMPI PUSH2 0x1AB9 SWAP1 CALLDATASIZE SWAP1 PUSH1 0x4 ADD PUSH2 0x464C JUMP JUMPDEST PUSH1 0x24 CALLDATALOAD PUSH1 0x1 PUSH1 0x1 PUSH1 0x40 SHL SUB DUP2 GT PUSH2 0x381 JUMPI PUSH2 0x1AD8 SWAP1 CALLDATASIZE SWAP1 PUSH1 0x4 ADD PUSH2 0x464C JUMP JUMPDEST PUSH2 0x1AE4 SWAP3 SWAP2 SWAP3 CALLER PUSH2 0x4FC8 JUMP JUMPDEST ISZERO PUSH2 0x5D7 JUMPI DUP2 ISZERO PUSH2 0x1129 JUMPI TIMESTAMP PUSH1 0x44 CALLDATALOAD GT ISZERO PUSH2 0x20A7 JUMPI PUSH1 0x44 CALLDATALOAD PUSH1 0x64 CALLDATALOAD GT ISZERO PUSH2 0x20A7 JUMPI PUSH1 0x64 CALLDATALOAD PUSH1 0x84 CALLDATALOAD GT ISZERO PUSH2 0x20A7 JUMPI PUSH1 0x84 CALLDATALOAD PUSH1 0xA4 CALLDATALOAD GT ISZERO PUSH2 0x20A7 JUMPI PUSH2 0x1B57 PUSH2 0x1B2B PUSH1 0x7 SLOAD PUSH2 0x4C0D JUMP JUMPDEST SWAP4 DUP5 PUSH1 0x7 SSTORE PUSH1 0x40 MLOAD SWAP3 PUSH2 0x1B3D DUP5 PUSH2 0x4791 JUMP JUMPDEST DUP6 DUP5 MSTORE PUSH2 0x1B4B CALLDATASIZE DUP7 DUP10 PUSH2 0x4F25 JUMP JUMPDEST PUSH1 0x20 DUP6 ADD MSTORE CALLDATASIZE SWAP2 PUSH2 0x4F25 JUMP JUMPDEST PUSH1 0x40 DUP3 ADD MSTORE CALLER PUSH1 0x60 DUP3 ADD MSTORE PUSH1 0x44 CALLDATALOAD PUSH1 0x80 DUP3 ADD MSTORE PUSH1 0x64 CALLDATALOAD PUSH1 0xA0 DUP3 ADD MSTORE PUSH1 0x84 CALLDATALOAD PUSH1 0xC0 DUP3 ADD MSTORE PUSH1 0xA4 CALLDATALOAD PUSH1 0xE0 DUP3 ADD MSTORE PUSH1 0x1 PUSH2 0x100 DUP3 ADD MSTORE TIMESTAMP PUSH2 0x120 DUP3 ADD MSTORE PUSH1 0x0 PUSH2 0x140 DUP3 ADD MSTORE PUSH1 0x40 MLOAD PUSH2 0x1BA5 DUP2 PUSH2 0x47C9 JUMP JUMPDEST PUSH1 0x0 DUP2 MSTORE PUSH2 0x160 DUP3 ADD MSTORE PUSH1 0x0 PUSH2 0x180 DUP3 ADD MSTORE PUSH1 0x40 MLOAD PUSH2 0x1BC3 DUP2 PUSH2 0x47C9 JUMP JUMPDEST PUSH1 0x0 DUP2 MSTORE PUSH2 0x1A0 DUP3 ADD MSTORE PUSH1 0x0 PUSH2 0x1C0 DUP3 ADD MSTORE DUP3 PUSH1 0x0 MSTORE PUSH1 0x9 PUSH1 0x20 MSTORE PUSH1 0x40 PUSH1 0x0 KECCAK256 SWAP1 DUP1 MLOAD DUP3 SSTORE PUSH1 0x20 DUP2 ADD MLOAD DUP1 MLOAD SWAP1 PUSH1 0x1 PUSH1 0x1 PUSH1 0x40 SHL SUB DUP3 GT PUSH2 0x7D4 JUMPI DUP2 SWAP1 PUSH2 0x1C11 DUP3 PUSH2 0x1546 PUSH1 0x1 DUP9 ADD SLOAD PUSH2 0x4720 JUMP JUMPDEST PUSH1 0x20 SWAP1 PUSH1 0x1F DUP4 GT PUSH1 0x1 EQ PUSH2 0x2035 JUMPI PUSH1 0x0 SWAP3 PUSH2 0x202A JUMPI JUMPDEST POP POP DUP2 PUSH1 0x1 SHL SWAP2 PUSH1 0x0 NOT SWAP1 PUSH1 0x3 SHL SHR NOT AND OR PUSH1 0x1 DUP4 ADD SSTORE JUMPDEST PUSH1 0x40 DUP2 ADD MLOAD DUP1 MLOAD SWAP1 PUSH1 0x1 PUSH1 0x1 PUSH1 0x40 SHL SUB DUP3 GT PUSH2 0x7D4 JUMPI DUP2 SWAP1 PUSH2 0x1C71 DUP3 PUSH2 0x1C68 PUSH1 0x2 DUP9 ADD SLOAD PUSH2 0x4720 JUMP JUMPDEST PUSH1 0x2 DUP9 ADD PUSH2 0x4B98 JUMP JUMPDEST PUSH1 0x20 SWAP1 PUSH1 0x1F DUP4 GT PUSH1 0x1 EQ PUSH2 0x1FB8 JUMPI PUSH1 0x0 SWAP3 PUSH2 0x1FAD JUMPI JUMPDEST POP POP DUP2 PUSH1 0x1 SHL SWAP2 PUSH1 0x0 NOT SWAP1 PUSH1 0x3 SHL SHR NOT AND OR PUSH1 0x2 DUP4 ADD SSTORE JUMPDEST PUSH1 0x3 DUP3 ADD PUSH1 0x1 DUP1 PUSH1 0xA0 SHL SUB PUSH1 0x60 DUP4 ADD MLOAD AND PUSH1 0x1 PUSH1 0x1 PUSH1 0x60 SHL SUB PUSH1 0xA0 SHL DUP3 SLOAD AND OR SWAP1 SSTORE PUSH1 0x80 DUP2 ADD MLOAD PUSH1 0x4 DUP4 ADD SSTORE PUSH1 0xA0 DUP2 ADD MLOAD PUSH1 0x5 DUP4 ADD SSTORE PUSH1 0xC0 DUP2 ADD MLOAD PUSH1 0x6 DUP4 ADD SSTORE PUSH1 0xE0 DUP2 ADD MLOAD PUSH1 0x7 DUP4 ADD SSTORE PUSH2 0x1D09 PUSH2 0x100 DUP3 ADD MLOAD ISZERO ISZERO PUSH1 0x8 DUP5 ADD SWAP1 PUSH1 0xFF DUP1 NOT DUP4 SLOAD AND SWAP2 ISZERO ISZERO AND OR SWAP1 SSTORE JUMP JUMPDEST PUSH2 0x120 DUP2 ADD MLOAD PUSH1 0x9 DUP4 ADD SSTORE PUSH2 0x140 DUP2 ADD MLOAD PUSH1 0xA DUP4 ADD SSTORE PUSH2 0x160 DUP2 ADD MLOAD DUP1 MLOAD PUSH1 0x1 PUSH1 0x1 PUSH1 0x40 SHL SUB DUP2 GT PUSH2 0x7D4 JUMPI DUP1 PUSH1 0xB DUP6 ADD SWAP3 PUSH2 0x1D4F DUP3 PUSH2 0x1D49 DUP7 SLOAD PUSH2 0x4720 JUMP JUMPDEST DUP7 PUSH2 0x4B98 JUMP JUMPDEST PUSH1 0x20 SWAP1 PUSH1 0x1F DUP4 GT PUSH1 0x1 EQ PUSH2 0x1F47 JUMPI PUSH1 0x0 SWAP3 PUSH2 0x1F3C JUMPI JUMPDEST POP POP DUP2 PUSH1 0x1 SHL SWAP2 PUSH1 0x0 NOT SWAP1 PUSH1 0x3 SHL SHR NOT AND OR SWAP1 SSTORE JUMPDEST PUSH2 0x1D9A PUSH2 0x180 DUP3 ADD MLOAD ISZERO ISZERO PUSH1 0xC DUP5 ADD SWAP1 PUSH1 0xFF DUP1 NOT DUP4 SLOAD AND SWAP2 ISZERO ISZERO AND OR SWAP1 SSTORE JUMP JUMPDEST PUSH2 0x1A0 DUP2 ADD MLOAD DUP1 MLOAD PUSH1 0x1 PUSH1 0x1 PUSH1 0x40 SHL SUB DUP2 GT PUSH2 0x7D4 JUMPI PUSH1 0xD DUP5 ADD SWAP2 PUSH2 0x1DC3 DUP3 PUSH2 0x701 DUP6 SLOAD PUSH2 0x4720 JUMP JUMPDEST PUSH1 0x20 SWAP1 PUSH1 0x1F DUP4 GT PUSH1 0x1 EQ PUSH2 0x1EC9 JUMPI SWAP3 DUP3 PUSH2 0x1C0 SWAP4 PUSH2 0x1E14 SWAP8 SWAP7 SWAP4 PUSH1 0xE SWAP7 PUSH1 0x0 SWAP3 PUSH2 0x1EBE JUMPI JUMPDEST POP POP DUP2 PUSH1 0x1 SHL SWAP2 PUSH1 0x0 NOT SWAP1 PUSH1 0x3 SHL SHR NOT AND OR SWAP1 SSTORE JUMPDEST ADD MLOAD ISZERO ISZERO SWAP2 ADD SWAP1 PUSH1 0xFF DUP1 NOT DUP4 SLOAD AND SWAP2 ISZERO ISZERO AND OR SWAP1 SSTORE JUMP JUMPDEST PUSH1 0x8 SLOAD PUSH1 0x1 PUSH1 0x40 SHL DUP2 LT ISZERO PUSH2 0x7D4 JUMPI PUSH32 0xD3678A1DF7C0A194A6F67F13D263CB5409DEBB4055904F08C5671AD712D08237 PUSH2 0x1E8A PUSH1 0x20 SWAP6 DUP6 PUSH2 0x1E76 PUSH2 0x1E5F DUP7 PUSH1 0x1 DUP5 SWAP9 ADD PUSH1 0x8 SSTORE PUSH2 0x4A50 JUMP JUMPDEST DUP2 SWAP4 SWAP2 SLOAD SWAP1 PUSH1 0x3 SHL SWAP2 DUP3 SHL SWAP2 PUSH1 0x0 NOT SWAP1 SHL NOT AND OR SWAP1 JUMP JUMPDEST SWAP1 SSTORE PUSH1 0x40 MLOAD SWAP5 PUSH1 0xC0 DUP7 MSTORE PUSH1 0xC0 DUP7 ADD SWAP2 PUSH2 0x4BEC JUMP JUMPDEST SWAP3 PUSH1 0x44 CALLDATALOAD DUP7 DUP3 ADD MSTORE PUSH1 0x64 CALLDATALOAD PUSH1 0x40 DUP3 ADD MSTORE PUSH1 0x84 CALLDATALOAD PUSH1 0x60 DUP3 ADD MSTORE PUSH1 0xA4 CALLDATALOAD PUSH1 0x80 DUP3 ADD MSTORE TIMESTAMP PUSH1 0xA0 DUP3 ADD MSTORE DUP1 CALLER SWAP5 SUB SWAP1 LOG3 PUSH1 0x40 MLOAD SWAP1 DUP2 MSTORE RETURN JUMPDEST ADD MLOAD SWAP1 POP DUP12 DUP1 PUSH2 0x1DE8 JUMP JUMPDEST SWAP1 PUSH1 0x1F NOT DUP4 AND SWAP2 DUP5 PUSH1 0x0 MSTORE PUSH1 0x20 PUSH1 0x0 KECCAK256 SWAP3 PUSH1 0x0 JUMPDEST DUP2 DUP2 LT PUSH2 0x1F24 JUMPI POP SWAP4 PUSH2 0x1E14 SWAP8 SWAP7 SWAP4 PUSH1 0xE SWAP7 SWAP4 PUSH1 0x1 SWAP4 DUP4 PUSH2 0x1C0 SWAP9 LT PUSH2 0x1F0B JUMPI JUMPDEST POP POP POP DUP2 SHL ADD SWAP1 SSTORE PUSH2 0x1DFD JUMP JUMPDEST ADD MLOAD PUSH1 0x0 NOT PUSH1 0xF8 DUP5 PUSH1 0x3 SHL AND SHR NOT AND SWAP1 SSTORE DUP12 DUP1 DUP1 PUSH2 0x1EFE JUMP JUMPDEST SWAP3 SWAP4 PUSH1 0x20 PUSH1 0x1 DUP2 SWAP3 DUP8 DUP7 ADD MLOAD DUP2 SSTORE ADD SWAP6 ADD SWAP4 ADD PUSH2 0x1EDD JUMP JUMPDEST ADD MLOAD SWAP1 POP DUP9 DUP1 PUSH2 0x1D65 JUMP JUMPDEST PUSH1 0x0 DUP6 DUP2 MSTORE PUSH1 0x20 DUP2 KECCAK256 SWAP4 POP PUSH1 0x1F NOT DUP6 AND SWAP1 JUMPDEST DUP2 DUP2 LT PUSH2 0x1F95 JUMPI POP SWAP1 DUP5 PUSH1 0x1 SWAP6 SWAP5 SWAP4 SWAP3 LT PUSH2 0x1F7C JUMPI JUMPDEST POP POP POP DUP2 SHL ADD SWAP1 SSTORE PUSH2 0x1D7A JUMP JUMPDEST ADD MLOAD PUSH1 0x0 NOT PUSH1 0xF8 DUP5 PUSH1 0x3 SHL AND SHR NOT AND SWAP1 SSTORE DUP9 DUP1 DUP1 PUSH2 0x1F6F JUMP JUMPDEST SWAP3 SWAP4 PUSH1 0x20 PUSH1 0x1 DUP2 SWAP3 DUP8 DUP7 ADD MLOAD DUP2 SSTORE ADD SWAP6 ADD SWAP4 ADD PUSH2 0x1F59 JUMP JUMPDEST ADD MLOAD SWAP1 POP DUP8 DUP1 PUSH2 0x1C87 JUMP JUMPDEST SWAP3 POP PUSH1 0x2 DUP6 ADD PUSH1 0x0 MSTORE PUSH1 0x20 PUSH1 0x0 KECCAK256 SWAP1 PUSH1 0x0 SWAP4 JUMPDEST PUSH1 0x1F NOT DUP5 AND DUP6 LT PUSH2 0x200F JUMPI PUSH1 0x1 SWAP5 POP DUP4 PUSH1 0x1F NOT DUP2 AND LT PUSH2 0x1FF6 JUMPI JUMPDEST POP POP POP DUP2 SHL ADD PUSH1 0x2 DUP4 ADD SSTORE PUSH2 0x1C9F JUMP JUMPDEST ADD MLOAD PUSH1 0x0 NOT PUSH1 0xF8 DUP5 PUSH1 0x3 SHL AND SHR NOT AND SWAP1 SSTORE DUP8 DUP1 DUP1 PUSH2 0x1FE6 JUMP JUMPDEST DUP2 DUP2 ADD MLOAD DUP4 SSTORE PUSH1 0x20 SWAP5 DUP6 ADD SWAP5 PUSH1 0x1 SWAP1 SWAP4 ADD SWAP3 SWAP1 SWAP2 ADD SWAP1 PUSH2 0x1FCB JUMP JUMPDEST ADD MLOAD SWAP1 POP DUP8 DUP1 PUSH2 0x1C27 JUMP JUMPDEST SWAP3 POP PUSH1 0x1 DUP6 ADD PUSH1 0x0 MSTORE PUSH1 0x20 PUSH1 0x0 KECCAK256 SWAP1 PUSH1 0x0 SWAP4 JUMPDEST PUSH1 0x1F NOT DUP5 AND DUP6 LT PUSH2 0x208C JUMPI PUSH1 0x1 SWAP5 POP DUP4 PUSH1 0x1F NOT DUP2 AND LT PUSH2 0x2073 JUMPI JUMPDEST POP POP POP DUP2 SHL ADD PUSH1 0x1 DUP4 ADD SSTORE PUSH2 0x1C3F JUMP JUMPDEST ADD MLOAD PUSH1 0x0 NOT PUSH1 0xF8 DUP5 PUSH1 0x3 SHL AND SHR NOT AND SWAP1 SSTORE DUP8 DUP1 DUP1 PUSH2 0x2063 JUMP JUMPDEST DUP2 DUP2 ADD MLOAD DUP4 SSTORE PUSH1 0x20 SWAP5 DUP6 ADD SWAP5 PUSH1 0x1 SWAP1 SWAP4 ADD SWAP3 SWAP1 SWAP2 ADD SWAP1 PUSH2 0x2048 JUMP JUMPDEST PUSH1 0x40 MLOAD PUSH4 0x3985167 PUSH1 0xE1 SHL DUP2 MSTORE PUSH1 0x4 SWAP1 REVERT JUMPDEST CALLVALUE PUSH2 0x381 JUMPI PUSH2 0x20C7 CALLDATASIZE PUSH2 0x49C7 JUMP JUMPDEST SWAP1 SWAP2 CALLER PUSH1 0x0 MSTORE PUSH1 0x20 SWAP4 PUSH1 0xC DUP6 MSTORE PUSH1 0xFF PUSH1 0x8 PUSH1 0x40 PUSH1 0x0 KECCAK256 ADD SLOAD AND ISZERO PUSH2 0x19FC JUMPI CALLER PUSH1 0x0 MSTORE PUSH1 0xC DUP6 MSTORE PUSH1 0xFF PUSH1 0x4 PUSH1 0x40 PUSH1 0x0 KECCAK256 ADD SLOAD AND PUSH2 0x5C5 JUMPI PUSH1 0x60 SWAP4 PUSH2 0x210B SWAP3 DUP5 SWAP3 PUSH2 0x4D69 JUMP JUMPDEST ADD CALLDATALOAD DUP1 PUSH1 0x0 MSTORE PUSH1 0x12 DUP3 MSTORE PUSH1 0x40 PUSH1 0x0 KECCAK256 DUP1 SLOAD PUSH1 0xFF DUP2 AND ISZERO PUSH2 0x2176 JUMPI JUMPDEST DUP4 CALLER PUSH1 0x0 MSTORE PUSH1 0xC DUP2 MSTORE PUSH1 0x40 PUSH1 0x0 KECCAK256 PUSH1 0x4 DUP2 ADD PUSH1 0x1 PUSH1 0xFF NOT DUP3 SLOAD AND OR SWAP1 SSTORE PUSH1 0x7 TIMESTAMP SWAP2 ADD SSTORE PUSH32 0x945486EFE706B7939911CD647343F3C1118CD63847A1F1B3D5A06B05120A5BCD PUSH1 0x40 MLOAD SWAP2 TIMESTAMP DUP4 MSTORE CALLER SWAP3 LOG2 STOP JUMPDEST PUSH1 0x1 SWAP1 PUSH1 0xFF NOT AND OR SWAP1 SSTORE PUSH32 0x19F3AD95CEFF49695C3F339B98CECE9DD03D73F9E1783D91BA6A6270AE5A9685 DUP3 PUSH1 0x40 MLOAD TIMESTAMP DUP2 MSTORE LOG2 DUP2 DUP1 DUP1 PUSH2 0x2126 JUMP JUMPDEST CALLVALUE PUSH2 0x381 JUMPI PUSH2 0x21BF CALLDATASIZE PUSH2 0x4A03 JUMP JUMPDEST SWAP1 PUSH1 0x0 MSTORE PUSH1 0x14 PUSH1 0x20 MSTORE PUSH1 0x40 PUSH1 0x0 KECCAK256 SWAP1 PUSH1 0x0 MSTORE PUSH1 0x20 MSTORE PUSH2 0x37D PUSH2 0x369 PUSH1 0x40 PUSH1 0x0 KECCAK256 PUSH2 0x48DB JUMP JUMPDEST CALLVALUE PUSH2 0x381 JUMPI PUSH1 0x0 CALLDATASIZE PUSH1 0x3 NOT ADD SLT PUSH2 0x381 JUMPI PUSH1 0x40 MLOAD DUP1 PUSH1 0x2 SLOAD SWAP2 DUP3 DUP2 MSTORE PUSH1 0x20 DUP1 SWAP2 ADD SWAP3 PUSH1 0x2 PUSH1 0x0 MSTORE PUSH32 0x405787FA12A823E0F2B7631CC41B3BA8828B3321CA811111FA75CD3AA3BB5ACE SWAP2 PUSH1 0x0 SWAP1 JUMPDEST DUP3 DUP3 LT PUSH2 0x2248 JUMPI PUSH2 0x37D DUP6 PUSH2 0xBDD DUP2 DUP10 SUB DUP3 PUSH2 0x47FF JUMP JUMPDEST DUP4 SLOAD PUSH1 0x1 PUSH1 0x1 PUSH1 0xA0 SHL SUB AND DUP7 MSTORE SWAP5 DUP6 ADD SWAP5 PUSH1 0x1 SWAP4 DUP5 ADD SWAP4 SWAP1 SWAP2 ADD SWAP1 PUSH2 0x2231 JUMP JUMPDEST CALLVALUE PUSH2 0x381 JUMPI PUSH1 0x20 DUP1 PUSH1 0x3 NOT CALLDATASIZE ADD SLT PUSH2 0x381 JUMPI PUSH2 0x2282 PUSH2 0x46F4 JUMP JUMPDEST PUSH1 0x8 SLOAD PUSH1 0x0 SWAP3 SWAP1 SWAP2 PUSH1 0x1 PUSH1 0x1 PUSH1 0xA0 SHL SUB SWAP1 DUP2 AND DUP5 JUMPDEST DUP5 DUP2 LT PUSH2 0x2346 JUMPI POP PUSH2 0x22A8 DUP6 PUSH2 0x4F6B JUMP JUMPDEST SWAP5 PUSH2 0x22B6 PUSH1 0x40 MLOAD SWAP7 DUP8 PUSH2 0x47FF JUMP JUMPDEST DUP1 DUP7 MSTORE PUSH2 0x22C5 PUSH1 0x1F NOT SWAP2 PUSH2 0x4F6B JUMP JUMPDEST ADD CALLDATASIZE DUP5 DUP8 ADD CALLDATACOPY PUSH1 0x0 SWAP2 PUSH1 0x0 JUMPDEST DUP6 DUP2 LT PUSH2 0x22E6 JUMPI PUSH1 0x40 MLOAD DUP1 PUSH2 0x37D DUP10 DUP3 PUSH2 0x4AD6 JUMP JUMPDEST PUSH2 0x22EF DUP2 PUSH2 0x4A50 JUMP JUMPDEST SWAP1 SLOAD PUSH1 0x3 SWAP2 DUP3 SHL SHR PUSH1 0x0 MSTORE PUSH1 0x9 DUP7 MSTORE DUP4 DUP4 DUP3 PUSH1 0x40 PUSH1 0x0 KECCAK256 ADD SLOAD AND EQ PUSH2 0x231E JUMPI JUMPDEST POP PUSH2 0x2319 SWAP1 PUSH2 0x4C0D JUMP JUMPDEST PUSH2 0x22D1 JUMP JUMPDEST DUP2 SWAP5 PUSH2 0x233F SWAP2 PUSH2 0x2330 PUSH2 0x2319 SWAP5 PUSH2 0x4A50 JUMP JUMPDEST SWAP1 SLOAD SWAP2 SHL SHR PUSH2 0x12D2 DUP3 DUP12 PUSH2 0x4FB4 JUMP JUMPDEST SWAP4 SWAP1 PUSH2 0x230F JUMP JUMPDEST DUP2 DUP4 PUSH2 0x2351 DUP4 PUSH2 0x4A50 JUMP JUMPDEST SWAP1 SLOAD PUSH1 0x3 SWAP2 DUP3 SHL SHR PUSH1 0x0 MSTORE PUSH1 0x9 DUP8 MSTORE PUSH1 0x40 PUSH1 0x0 KECCAK256 ADD SLOAD AND EQ PUSH2 0x237C JUMPI JUMPDEST PUSH2 0x2377 SWAP1 PUSH2 0x4C0D JUMP JUMPDEST PUSH2 0x2297 JUMP JUMPDEST SWAP5 PUSH2 0x2389 PUSH2 0x2377 SWAP2 PUSH2 0x4C0D JUMP JUMPDEST SWAP6 SWAP1 POP PUSH2 0x236E JUMP JUMPDEST CALLVALUE PUSH2 0x381 JUMPI PUSH1 0x20 CALLDATASIZE PUSH1 0x3 NOT ADD SLT PUSH2 0x381 JUMPI PUSH1 0x1 PUSH1 0x1 PUSH1 0xA0 SHL SUB DUP1 PUSH2 0x23B3 PUSH2 0x46F4 JUMP JUMPDEST AND PUSH1 0x0 MSTORE PUSH1 0xD PUSH1 0x20 MSTORE PUSH1 0x40 PUSH1 0x0 KECCAK256 SWAP1 DUP2 SLOAD AND PUSH1 0x1 DUP3 ADD PUSH2 0x23D2 SWAP1 PUSH2 0x48DB JUMP JUMPDEST SWAP2 PUSH1 0x2 DUP2 ADD SLOAD PUSH1 0x3 DUP3 ADD PUSH2 0x23E5 SWAP1 PUSH2 0x48DB JUMP JUMPDEST SWAP2 PUSH2 0x23F2 PUSH1 0x4 DUP3 ADD PUSH2 0x48DB JUMP JUMPDEST SWAP3 PUSH2 0x23FF PUSH1 0x5 DUP4 ADD PUSH2 0x48DB JUMP JUMPDEST SWAP4 PUSH1 0x6 DUP4 ADD SLOAD PUSH1 0xFF AND SWAP5 PUSH1 0x7 DUP5 ADD SLOAD SWAP2 PUSH1 0x8 DUP6 ADD SLOAD SWAP4 PUSH1 0x9 DUP7 ADD SLOAD SWAP6 PUSH1 0xA ADD SLOAD PUSH1 0xFF AND SWAP7 PUSH1 0x40 MLOAD SWAP11 DUP12 SWAP11 DUP12 MSTORE PUSH2 0x160 DUP1 PUSH1 0x20 DUP14 ADD MSTORE DUP12 ADD PUSH2 0x243F SWAP2 PUSH2 0x49A2 JUMP JUMPDEST SWAP1 PUSH1 0x40 DUP12 ADD MSTORE DUP10 DUP2 SUB PUSH1 0x60 DUP12 ADD MSTORE PUSH2 0x2456 SWAP2 PUSH2 0x49A2 JUMP JUMPDEST DUP9 DUP2 SUB PUSH1 0x80 DUP11 ADD MSTORE PUSH2 0x2467 SWAP2 PUSH2 0x49A2 JUMP JUMPDEST DUP8 DUP2 SUB PUSH1 0xA0 DUP10 ADD MSTORE PUSH2 0x2478 SWAP2 PUSH2 0x49A2 JUMP JUMPDEST SWAP5 PUSH1 0xC0 DUP8 ADD MSTORE PUSH1 0xE0 DUP7 ADD MSTORE PUSH2 0x100 DUP6 ADD MSTORE PUSH2 0x120 DUP5 ADD MSTORE ISZERO ISZERO PUSH2 0x140 DUP4 ADD MSTORE SUB SWAP1 RETURN JUMPDEST CALLVALUE PUSH2 0x381 JUMPI PUSH1 0x20 DUP1 PUSH1 0x3 NOT CALLDATASIZE ADD SLT PUSH2 0x381 JUMPI PUSH1 0x4 CALLDATALOAD PUSH1 0x0 MSTORE PUSH1 0x15 DUP2 MSTORE PUSH1 0x40 PUSH1 0x0 KECCAK256 PUSH1 0x40 MLOAD SWAP1 DUP2 DUP4 DUP3 SLOAD SWAP2 DUP3 DUP2 MSTORE ADD SWAP1 DUP2 SWAP3 PUSH1 0x0 MSTORE DUP5 PUSH1 0x0 KECCAK256 SWAP1 PUSH1 0x0 JUMPDEST DUP7 DUP3 DUP3 LT PUSH2 0x252D JUMPI DUP7 DUP7 PUSH2 0x24ED DUP3 DUP9 SUB DUP4 PUSH2 0x47FF JUMP JUMPDEST PUSH1 0x40 MLOAD SWAP3 DUP4 SWAP3 DUP2 DUP5 ADD SWAP1 DUP3 DUP6 MSTORE MLOAD DUP1 SWAP2 MSTORE PUSH1 0x40 DUP5 ADD SWAP3 SWAP2 PUSH1 0x0 JUMPDEST DUP3 DUP2 LT PUSH2 0x2516 JUMPI POP POP POP POP SUB SWAP1 RETURN JUMPDEST DUP4 MLOAD DUP6 MSTORE DUP7 SWAP6 POP SWAP4 DUP2 ADD SWAP4 SWAP3 DUP2 ADD SWAP3 PUSH1 0x1 ADD PUSH2 0x2507 JUMP JUMPDEST DUP4 SLOAD DUP6 MSTORE SWAP1 SWAP4 ADD SWAP3 PUSH1 0x1 SWAP3 DUP4 ADD SWAP3 ADD PUSH2 0x24D7 JUMP JUMPDEST CALLVALUE PUSH2 0x381 JUMPI PUSH1 0x20 CALLDATASIZE PUSH1 0x3 NOT ADD SLT PUSH2 0x381 JUMPI PUSH1 0x4 CALLDATALOAD DUP1 PUSH1 0x0 MSTORE PUSH1 0x9 PUSH1 0x20 MSTORE PUSH1 0x40 PUSH1 0x0 KECCAK256 SLOAD ISZERO PUSH2 0x614 JUMPI PUSH1 0x0 MSTORE PUSH1 0x9 PUSH1 0x20 MSTORE PUSH2 0x25AD PUSH1 0x40 PUSH1 0x0 KECCAK256 PUSH1 0xFF PUSH1 0xE DUP3 ADD SLOAD AND PUSH1 0x18 PUSH1 0x20 MSTORE PUSH2 0x2598 PUSH1 0xD PUSH1 0x40 PUSH1 0x0 KECCAK256 SLOAD SWAP4 ADD PUSH2 0x48DB JUMP JUMPDEST SWAP2 PUSH1 0x40 MLOAD SWAP4 DUP5 SWAP4 PUSH1 0x60 DUP6 MSTORE PUSH1 0x60 DUP6 ADD SWAP1 PUSH2 0x49A2 JUMP JUMPDEST SWAP2 ISZERO ISZERO PUSH1 0x20 DUP5 ADD MSTORE PUSH1 0x40 DUP4 ADD MSTORE SUB SWAP1 RETURN JUMPDEST CALLVALUE PUSH2 0x381 JUMPI PUSH1 0x20 CALLDATASIZE PUSH1 0x3 NOT ADD SLT PUSH2 0x381 JUMPI PUSH1 0x1 PUSH1 0x1 PUSH1 0xA0 SHL SUB PUSH2 0x25DF PUSH2 0x46F4 JUMP JUMPDEST AND PUSH1 0x0 MSTORE PUSH1 0xC PUSH1 0x20 MSTORE PUSH1 0xFF PUSH1 0x8 PUSH1 0x40 PUSH1 0x0 KECCAK256 ADD SLOAD AND DUP1 ISZERO PUSH2 0x2608 JUMPI JUMPDEST PUSH1 0x20 SWAP1 PUSH1 0x40 MLOAD SWAP1 ISZERO ISZERO DUP2 MSTORE RETURN JUMPDEST POP PUSH1 0xD PUSH1 0x20 MSTORE PUSH1 0x40 PUSH1 0x0 KECCAK256 PUSH1 0xA ADD SLOAD PUSH1 0xFF AND PUSH2 0x25FB JUMP JUMPDEST CALLVALUE PUSH2 0x381 JUMPI PUSH1 0x0 CALLDATASIZE PUSH1 0x3 NOT ADD SLT PUSH2 0x381 JUMPI PUSH1 0x20 PUSH2 0x263A PUSH2 0x4C32 JUMP JUMPDEST PUSH1 0x40 MLOAD SWAP1 ISZERO ISZERO DUP2 MSTORE RETURN JUMPDEST CALLVALUE PUSH2 0x381 JUMPI PUSH1 0x20 CALLDATASIZE PUSH1 0x3 NOT ADD SLT PUSH2 0x381 JUMPI PUSH2 0x37D PUSH2 0xBDD PUSH1 0x4 CALLDATALOAD PUSH2 0x5000 JUMP JUMPDEST CALLVALUE PUSH2 0x381 JUMPI PUSH1 0x20 CALLDATASIZE PUSH1 0x3 NOT ADD SLT PUSH2 0x381 JUMPI PUSH1 0x4 CALLDATALOAD DUP1 PUSH1 0x0 MSTORE PUSH1 0x9 PUSH1 0x20 MSTORE PUSH1 0x40 PUSH1 0x0 KECCAK256 SLOAD ISZERO PUSH2 0x614 JUMPI PUSH1 0x0 MSTORE PUSH1 0x9 PUSH1 0x20 MSTORE PUSH2 0x26B4 PUSH1 0x40 PUSH1 0x0 KECCAK256 PUSH1 0xA DUP2 ADD SLOAD PUSH2 0x2598 PUSH1 0xB PUSH1 0xFF PUSH1 0xC DUP6 ADD SLOAD AND SWAP4 ADD PUSH2 0x48DB JUMP JUMPDEST SWAP2 PUSH1 0x20 DUP5 ADD MSTORE ISZERO ISZERO PUSH1 0x40 DUP4 ADD MSTORE SUB SWAP1 RETURN JUMPDEST CALLVALUE PUSH2 0x381 JUMPI PUSH1 0x20 DUP1 PUSH1 0x3 NOT CALLDATASIZE ADD SLT PUSH2 0x381 JUMPI PUSH1 0x4 CALLDATALOAD PUSH1 0x7 SLOAD DUP2 GT PUSH2 0x614 JUMPI DUP1 PUSH1 0x0 MSTORE PUSH1 0x9 DUP3 MSTORE PUSH1 0xE PUSH1 0x40 PUSH1 0x0 KECCAK256 PUSH1 0x40 MLOAD PUSH2 0x26FE DUP2 PUSH2 0x4791 JUMP JUMPDEST DUP2 SLOAD DUP2 MSTORE PUSH2 0x270E PUSH1 0x1 DUP4 ADD PUSH2 0x48DB JUMP JUMPDEST DUP6 DUP3 ADD MSTORE PUSH2 0x271E PUSH1 0x2 DUP4 ADD PUSH2 0x48DB JUMP JUMPDEST PUSH1 0x40 DUP3 ADD MSTORE PUSH1 0x1 DUP1 PUSH1 0xA0 SHL SUB PUSH1 0x3 DUP4 ADD SLOAD AND PUSH1 0x60 DUP3 ADD MSTORE PUSH1 0x4 DUP3 ADD SLOAD SWAP1 PUSH1 0x80 DUP2 ADD SWAP2 DUP3 MSTORE PUSH2 0x1C0 PUSH1 0x5 DUP5 ADD SLOAD SWAP4 PUSH1 0xA0 DUP4 ADD SWAP5 DUP6 MSTORE PUSH1 0x6 DUP2 ADD SLOAD PUSH1 0xC0 DUP5 ADD MSTORE PUSH1 0x7 DUP2 ADD SLOAD PUSH1 0xE0 DUP5 ADD MSTORE PUSH1 0xFF SWAP6 DUP2 DUP8 PUSH1 0x8 DUP2 SWAP5 ADD SLOAD AND ISZERO ISZERO PUSH2 0x100 DUP7 ADD MSTORE PUSH1 0x9 DUP2 ADD SLOAD PUSH2 0x120 DUP7 ADD MSTORE PUSH1 0xA DUP2 ADD SLOAD PUSH2 0x140 DUP7 ADD MSTORE PUSH2 0x279C PUSH1 0xB DUP3 ADD PUSH2 0x48DB JUMP JUMPDEST PUSH2 0x160 DUP7 ADD MSTORE DUP3 PUSH1 0xC DUP3 ADD SLOAD AND ISZERO ISZERO PUSH2 0x180 DUP7 ADD MSTORE PUSH2 0x27BD PUSH1 0xD DUP3 ADD PUSH2 0x48DB JUMP JUMPDEST PUSH2 0x1A0 DUP7 ADD MSTORE ADD SLOAD AND ISZERO ISZERO SWAP2 ADD MSTORE MLOAD TIMESTAMP LT SWAP1 DUP2 ISZERO PUSH2 0x28BD JUMPI JUMPDEST POP PUSH2 0x28AB JUMPI CALLER PUSH1 0x0 MSTORE PUSH1 0xD DUP4 MSTORE DUP1 PUSH1 0xA PUSH1 0x40 PUSH1 0x0 KECCAK256 ADD SLOAD AND ISZERO PUSH2 0x19FC JUMPI CALLER PUSH1 0x0 MSTORE PUSH1 0xD DUP4 MSTORE PUSH1 0x1 DUP2 PUSH1 0x6 PUSH1 0x40 PUSH1 0x0 KECCAK256 ADD SLOAD AND SUB PUSH2 0x2899 JUMPI DUP2 PUSH1 0x0 MSTORE PUSH1 0x10 DUP4 MSTORE PUSH1 0x40 PUSH1 0x0 KECCAK256 CALLER PUSH1 0x0 MSTORE DUP4 MSTORE PUSH1 0x40 PUSH1 0x0 KECCAK256 SLOAD AND PUSH2 0xB62 JUMPI DUP1 PUSH1 0x0 MSTORE PUSH1 0x10 DUP3 MSTORE PUSH1 0x40 PUSH1 0x0 KECCAK256 CALLER PUSH1 0x0 MSTORE DUP3 MSTORE PUSH1 0x40 PUSH1 0x0 KECCAK256 PUSH1 0x1 PUSH1 0xFF NOT DUP3 SLOAD AND OR SWAP1 SSTORE DUP1 PUSH1 0x0 MSTORE PUSH1 0xF DUP3 MSTORE PUSH2 0x2864 CALLER PUSH1 0x40 PUSH1 0x0 KECCAK256 PUSH2 0x4D16 JUMP JUMPDEST PUSH1 0x40 MLOAD SWAP1 TIMESTAMP DUP3 MSTORE PUSH32 0x79F07716A1285725869298E53BFDB0D51D88314B25B5ED3B21BE3B69534C0EAA DUP4 CALLER SWAP4 LOG3 PUSH1 0x40 MLOAD PUSH1 0x1 DUP2 MSTORE RETURN JUMPDEST PUSH1 0x40 MLOAD PUSH4 0xA95362B5 PUSH1 0xE0 SHL DUP2 MSTORE PUSH1 0x4 SWAP1 REVERT JUMPDEST PUSH1 0x40 MLOAD PUSH4 0x775A05EF PUSH1 0xE0 SHL DUP2 MSTORE PUSH1 0x4 SWAP1 REVERT JUMPDEST SWAP1 POP MLOAD TIMESTAMP GT DUP5 PUSH2 0x27D6 JUMP JUMPDEST CALLVALUE PUSH2 0x381 JUMPI PUSH1 0x0 CALLDATASIZE PUSH1 0x3 NOT ADD SLT PUSH2 0x381 JUMPI PUSH1 0x20 PUSH1 0x4 SLOAD PUSH1 0x40 MLOAD SWAP1 DUP2 MSTORE RETURN JUMPDEST CALLVALUE PUSH2 0x381 JUMPI PUSH2 0x280 CALLDATASIZE PUSH1 0x3 NOT ADD SLT PUSH2 0x381 JUMPI PUSH1 0x24 CALLDATALOAD PUSH1 0x1 PUSH1 0x1 PUSH1 0x40 SHL SUB DUP2 GT PUSH2 0x381 JUMPI PUSH2 0x2917 SWAP1 CALLDATASIZE SWAP1 PUSH1 0x4 ADD PUSH2 0x464C JUMP JUMPDEST CALLDATASIZE PUSH1 0x84 GT PUSH2 0x381 JUMPI CALLDATASIZE PUSH2 0x104 GT PUSH2 0x381 JUMPI CALLDATASIZE PUSH2 0x144 GT PUSH2 0x381 JUMPI CALLDATASIZE PUSH2 0x284 GT PUSH2 0x381 JUMPI PUSH1 0x7 SLOAD PUSH1 0x4 CALLDATALOAD GT PUSH2 0x614 JUMPI PUSH1 0x4 CALLDATALOAD PUSH1 0x0 MSTORE PUSH1 0x9 PUSH1 0x20 MSTORE PUSH1 0x40 PUSH1 0x0 KECCAK256 PUSH1 0x6 DUP2 ADD SLOAD TIMESTAMP LT DUP1 ISZERO PUSH2 0x2D88 JUMPI JUMPDEST PUSH2 0x2D76 JUMPI DUP2 ISZERO PUSH2 0x1129 JUMPI PUSH1 0xFF PUSH1 0x1 SLOAD AND ISZERO PUSH2 0x1835 JUMPI PUSH1 0x11 SLOAD PUSH1 0x1 PUSH1 0x1 PUSH1 0xA0 SHL SUB AND DUP1 ISZERO PUSH2 0x2D64 JUMPI PUSH32 0x30644E72E131A029B85045B68181585D2833E84879B9709143E1F593F0000001 PUSH1 0x40 MLOAD PUSH1 0x20 DUP2 ADD SWAP1 DUP6 DUP8 DUP4 CALLDATACOPY PUSH2 0x29D1 PUSH1 0x20 DUP3 DUP9 DUP2 ADD PUSH1 0x0 DUP4 DUP3 ADD MSTORE SUB DUP1 DUP5 MSTORE ADD DUP3 PUSH2 0x47FF JUMP JUMPDEST MLOAD SWAP1 KECCAK256 MOD PUSH2 0x264 CALLDATALOAD SUB PUSH2 0x2CA1 JUMPI PUSH1 0x4 CALLDATALOAD PUSH2 0x184 CALLDATALOAD SUB PUSH2 0x2D52 JUMPI PUSH1 0x12 PUSH2 0x144 CALLDATALOAD SUB PUSH2 0x2D40 JUMPI PUSH2 0x29FE TIMESTAMP PUSH2 0x5172 JUMP JUMPDEST SWAP2 PUSH2 0x1C4 CALLDATALOAD SUB PUSH2 0x2D2E JUMPI PUSH2 0x1E4 CALLDATALOAD SUB PUSH2 0x2D2E JUMPI PUSH2 0x204 CALLDATALOAD SUB PUSH2 0x2D2E JUMPI PUSH2 0x2A25 PUSH1 0x4 CALLDATALOAD PUSH2 0x5000 JUMP JUMPDEST MLOAD PUSH2 0x224 CALLDATALOAD SUB PUSH2 0x2D1C JUMPI PUSH1 0x4 CALLDATALOAD PUSH1 0x0 MSTORE PUSH1 0x13 PUSH1 0x20 MSTORE PUSH1 0x40 PUSH1 0x0 KECCAK256 PUSH2 0x164 CALLDATALOAD PUSH1 0x0 MSTORE PUSH1 0x20 MSTORE PUSH1 0xFF PUSH1 0x40 PUSH1 0x0 KECCAK256 SLOAD AND PUSH2 0x2D0A JUMPI PUSH2 0x1A4 CALLDATALOAD PUSH1 0x0 MSTORE PUSH1 0x12 PUSH1 0x20 MSTORE PUSH1 0xFF PUSH1 0x40 PUSH1 0x0 KECCAK256 SLOAD AND ISZERO PUSH2 0x19FC JUMPI PUSH1 0x40 DUP1 MLOAD PUSH4 0x79DDB87B PUSH1 0xE1 SHL DUP2 MSTORE SWAP2 DUP3 SWAP2 PUSH1 0x44 PUSH1 0x4 DUP5 ADD CALLDATACOPY PUSH1 0x84 PUSH1 0x0 PUSH1 0x44 DUP5 ADD JUMPDEST PUSH1 0x2 DUP3 LT PUSH2 0x2CEE JUMPI POP POP POP DUP2 PUSH1 0x20 SWAP2 PUSH1 0x40 PUSH2 0x104 PUSH1 0xC4 DUP5 ADD CALLDATACOPY PUSH2 0x140 PUSH2 0x144 PUSH2 0x104 DUP5 ADD CALLDATACOPY PUSH2 0x244 SWAP5 DUP6 SWAP2 GAS STATICCALL SWAP1 DUP2 ISZERO PUSH2 0x2CE2 JUMPI PUSH1 0x0 SWAP2 PUSH2 0x2CB3 JUMPI JUMPDEST POP ISZERO PUSH2 0x2CA1 JUMPI CALLDATALOAD SWAP2 PUSH1 0x4 CALLDATALOAD PUSH1 0x0 MSTORE PUSH1 0x13 PUSH1 0x20 MSTORE PUSH1 0x40 PUSH1 0x0 KECCAK256 PUSH2 0x164 CALLDATALOAD PUSH1 0x0 MSTORE PUSH1 0x20 MSTORE PUSH1 0x40 PUSH1 0x0 KECCAK256 PUSH1 0x1 PUSH1 0xFF NOT DUP3 SLOAD AND OR SWAP1 SSTORE PUSH1 0x4 CALLDATALOAD PUSH1 0x0 MSTORE PUSH1 0x14 PUSH1 0x20 MSTORE PUSH1 0x40 PUSH1 0x0 KECCAK256 PUSH2 0x164 CALLDATALOAD PUSH1 0x0 MSTORE PUSH1 0x20 MSTORE PUSH1 0x40 PUSH1 0x0 KECCAK256 SWAP1 PUSH1 0x1 PUSH1 0x1 PUSH1 0x40 SHL SUB DUP2 GT PUSH2 0x7D4 JUMPI PUSH2 0x2B41 DUP2 PUSH2 0x2B3B DUP5 SLOAD PUSH2 0x4720 JUMP JUMPDEST DUP5 PUSH2 0x4B98 JUMP JUMPDEST PUSH1 0x0 PUSH1 0x1F DUP3 GT PUSH1 0x1 EQ PUSH2 0x2C3A JUMPI DUP2 SWAP3 SWAP4 SWAP5 SWAP6 PUSH1 0x0 SWAP3 PUSH2 0x2C2F JUMPI JUMPDEST POP POP DUP2 PUSH1 0x1 SHL SWAP2 PUSH1 0x0 NOT SWAP1 PUSH1 0x3 SHL SHR NOT AND OR SWAP1 SSTORE JUMPDEST PUSH1 0x4 CALLDATALOAD PUSH1 0x0 MSTORE PUSH1 0x16 PUSH1 0x20 MSTORE PUSH1 0x40 PUSH1 0x0 KECCAK256 PUSH2 0x164 CALLDATALOAD PUSH1 0x0 MSTORE PUSH1 0x20 MSTORE DUP2 PUSH1 0x40 PUSH1 0x0 KECCAK256 SSTORE PUSH1 0x4 CALLDATALOAD PUSH1 0x0 MSTORE PUSH1 0x15 PUSH1 0x20 MSTORE PUSH1 0x40 PUSH1 0x0 KECCAK256 SWAP1 DUP2 SLOAD PUSH1 0x1 PUSH1 0x40 SHL DUP2 LT ISZERO PUSH2 0x7D4 JUMPI PUSH2 0x2BC5 DUP2 PUSH1 0xA SWAP5 PUSH1 0x1 PUSH2 0x2BE2 SWAP5 ADD DUP2 SSTORE PUSH2 0x4ABE JUMP JUMPDEST PUSH2 0x164 SWAP3 SWAP2 SWAP3 CALLDATALOAD SWAP1 DUP4 SLOAD SWAP1 PUSH1 0x3 SHL SWAP2 DUP3 SHL SWAP2 PUSH1 0x0 NOT SWAP1 SHL NOT AND OR SWAP1 JUMP JUMPDEST SWAP1 SSTORE ADD PUSH2 0x2BEF DUP2 SLOAD PUSH2 0x4C0D JUMP JUMPDEST SWAP1 SSTORE PUSH1 0x40 MLOAD TIMESTAMP DUP2 MSTORE PUSH2 0x164 CALLDATALOAD SWAP1 PUSH32 0x391CB40DCCDC4624DE65B9B4F3B144896D68978477F9DC45E908C63D3FEDC465 PUSH1 0x20 PUSH1 0x4 CALLDATALOAD SWAP3 LOG4 PUSH1 0x20 PUSH1 0x40 MLOAD PUSH1 0x1 DUP2 MSTORE RETURN JUMPDEST ADD CALLDATALOAD SWAP1 POP DUP6 DUP1 PUSH2 0x2B5B JUMP JUMPDEST PUSH1 0x1F NOT DUP3 AND SWAP6 DUP4 PUSH1 0x0 MSTORE PUSH1 0x20 PUSH1 0x0 KECCAK256 SWAP2 PUSH1 0x0 JUMPDEST DUP9 DUP2 LT PUSH2 0x2C89 JUMPI POP DUP4 PUSH1 0x1 SWAP6 SWAP7 SWAP8 SWAP9 LT PUSH2 0x2C6F JUMPI JUMPDEST POP POP POP DUP2 SHL ADD SWAP1 SSTORE PUSH2 0x2B70 JUMP JUMPDEST ADD CALLDATALOAD PUSH1 0x0 NOT PUSH1 0x3 DUP5 SWAP1 SHL PUSH1 0xF8 AND SHR NOT AND SWAP1 SSTORE DUP6 DUP1 DUP1 PUSH2 0x2C62 JUMP JUMPDEST SWAP1 SWAP3 PUSH1 0x20 PUSH1 0x1 DUP2 SWAP3 DUP7 DUP7 ADD CALLDATALOAD DUP2 SSTORE ADD SWAP5 ADD SWAP2 ADD PUSH2 0x2C4D JUMP JUMPDEST PUSH1 0x40 MLOAD PUSH4 0x8DCE8175 PUSH1 0xE0 SHL DUP2 MSTORE PUSH1 0x4 SWAP1 REVERT JUMPDEST PUSH2 0x2CD5 SWAP2 POP PUSH1 0x20 RETURNDATASIZE PUSH1 0x20 GT PUSH2 0x2CDB JUMPI JUMPDEST PUSH2 0x2CCD DUP2 DUP4 PUSH2 0x47FF JUMP JUMPDEST DUP2 ADD SWAP1 PUSH2 0x4D51 JUMP JUMPDEST DUP6 PUSH2 0x2ACD JUMP JUMPDEST POP RETURNDATASIZE PUSH2 0x2CC3 JUMP JUMPDEST PUSH1 0x40 MLOAD RETURNDATASIZE PUSH1 0x0 DUP3 RETURNDATACOPY RETURNDATASIZE SWAP1 REVERT JUMPDEST DUP3 SWAP4 SWAP5 POP PUSH1 0x40 DUP2 DUP2 PUSH1 0x1 SWAP5 SWAP6 DUP2 SWAP5 CALLDATACOPY ADD SWAP4 ADD SWAP2 ADD DUP5 SWAP4 SWAP3 PUSH2 0x2A91 JUMP JUMPDEST PUSH1 0x40 MLOAD PUSH4 0x7C9A1CF9 PUSH1 0xE0 SHL DUP2 MSTORE PUSH1 0x4 SWAP1 REVERT JUMPDEST PUSH1 0x40 MLOAD PUSH4 0x167DFBB7 PUSH1 0xE1 SHL DUP2 MSTORE PUSH1 0x4 SWAP1 REVERT JUMPDEST PUSH1 0x40 MLOAD PUSH4 0x81BF7F67 PUSH1 0xE0 SHL DUP2 MSTORE PUSH1 0x4 SWAP1 REVERT JUMPDEST PUSH1 0x40 MLOAD PUSH4 0x4530CB7 PUSH1 0xE4 SHL DUP2 MSTORE PUSH1 0x4 SWAP1 REVERT JUMPDEST PUSH1 0x40 MLOAD PUSH4 0x1EC4422D PUSH1 0xE1 SHL DUP2 MSTORE PUSH1 0x4 SWAP1 REVERT JUMPDEST PUSH1 0x40 MLOAD PUSH4 0x79E2E003 PUSH1 0xE0 SHL DUP2 MSTORE PUSH1 0x4 SWAP1 REVERT JUMPDEST PUSH1 0x40 MLOAD PUSH4 0xB5E0F851 PUSH1 0xE0 SHL DUP2 MSTORE PUSH1 0x4 SWAP1 REVERT JUMPDEST POP PUSH1 0x7 DUP2 ADD SLOAD TIMESTAMP GT PUSH2 0x2963 JUMP JUMPDEST CALLVALUE PUSH2 0x381 JUMPI PUSH2 0x2DA3 CALLDATASIZE PUSH2 0x4A03 JUMP JUMPDEST SWAP1 PUSH1 0x0 MSTORE PUSH1 0x16 PUSH1 0x20 MSTORE PUSH1 0x40 PUSH1 0x0 KECCAK256 SWAP1 PUSH1 0x0 MSTORE PUSH1 0x20 MSTORE PUSH1 0x20 PUSH1 0x40 PUSH1 0x0 KECCAK256 SLOAD PUSH1 0x40 MLOAD SWAP1 DUP2 MSTORE RETURN JUMPDEST CALLVALUE PUSH2 0x381 JUMPI PUSH1 0x20 CALLDATASIZE PUSH1 0x3 NOT ADD SLT PUSH2 0x381 JUMPI PUSH1 0x4 CALLDATALOAD PUSH1 0x0 MSTORE PUSH1 0x9 PUSH1 0x20 MSTORE PUSH1 0x40 PUSH1 0x0 KECCAK256 DUP1 SLOAD PUSH1 0x1 DUP3 ADD PUSH2 0x2DF8 SWAP1 PUSH2 0x48DB JUMP JUMPDEST SWAP1 PUSH2 0x2E05 PUSH1 0x2 DUP5 ADD PUSH2 0x48DB JUMP JUMPDEST SWAP3 PUSH1 0x1 PUSH1 0xA0 SHL PUSH1 0x1 SWAP1 SUB PUSH1 0x3 DUP3 ADD SLOAD AND SWAP2 PUSH1 0x4 DUP3 ADD SLOAD SWAP1 PUSH1 0x5 DUP4 ADD SLOAD SWAP1 PUSH1 0x6 DUP5 ADD SLOAD PUSH1 0x7 DUP6 ADD SLOAD PUSH1 0x8 DUP7 ADD SLOAD PUSH1 0xFF AND PUSH1 0x9 DUP8 ADD SLOAD SWAP2 PUSH1 0xA DUP9 ADD SLOAD SWAP4 PUSH1 0xB DUP10 ADD PUSH2 0x2E4D SWAP1 PUSH2 0x48DB JUMP JUMPDEST SWAP7 PUSH1 0xC DUP11 ADD SLOAD PUSH1 0xFF AND SWAP9 PUSH1 0xD DUP12 ADD PUSH2 0x2E64 SWAP1 PUSH2 0x48DB JUMP JUMPDEST SWAP11 PUSH1 0xE ADD SLOAD PUSH1 0xFF AND SWAP12 PUSH1 0x40 MLOAD SWAP15 DUP16 SWAP15 DUP16 SWAP11 DUP12 MSTORE PUSH2 0x1E0 DUP1 PUSH1 0x20 DUP14 ADD MSTORE DUP12 ADD PUSH2 0x2E8B SWAP2 PUSH2 0x49A2 JUMP JUMPDEST DUP11 DUP2 SUB PUSH1 0x40 DUP13 ADD MSTORE PUSH2 0x2E9C SWAP2 PUSH2 0x49A2 JUMP JUMPDEST SWAP9 PUSH1 0x60 ADD MSTORE PUSH1 0x80 DUP14 ADD MSTORE PUSH1 0xA0 DUP13 ADD MSTORE PUSH1 0xC0 DUP12 ADD MSTORE PUSH1 0xE0 DUP11 ADD MSTORE ISZERO ISZERO PUSH2 0x100 DUP10 ADD MSTORE PUSH2 0x120 DUP9 ADD MSTORE PUSH2 0x140 DUP8 ADD MSTORE DUP6 DUP2 SUB PUSH2 0x160 DUP8 ADD MSTORE PUSH2 0x2EDB SWAP2 PUSH2 0x49A2 JUMP JUMPDEST SWAP1 ISZERO ISZERO PUSH2 0x180 DUP6 ADD MSTORE DUP4 DUP2 SUB PUSH2 0x1A0 DUP6 ADD MSTORE PUSH2 0x2EF6 SWAP2 PUSH2 0x49A2 JUMP JUMPDEST SWAP1 ISZERO ISZERO PUSH2 0x1C0 DUP4 ADD MSTORE SUB SWAP1 RETURN JUMPDEST CALLVALUE PUSH2 0x381 JUMPI PUSH1 0x40 CALLDATASIZE PUSH1 0x3 NOT ADD SLT PUSH2 0x381 JUMPI PUSH2 0x2F1C PUSH2 0x46F4 JUMP JUMPDEST PUSH1 0x1 PUSH1 0x1 PUSH1 0xA0 SHL SUB SWAP1 PUSH1 0x24 CALLDATALOAD SWAP1 CALLER PUSH32 0x0 DUP5 AND EQ ISZERO DUP1 PUSH2 0x2FF5 JUMPI JUMPDEST PUSH2 0x5D7 JUMPI DUP3 AND SWAP2 DUP3 PUSH1 0x0 MSTORE PUSH1 0x3 PUSH1 0x20 MSTORE PUSH1 0x40 PUSH1 0x0 KECCAK256 SLOAD AND ISZERO PUSH2 0x82C JUMPI DUP2 PUSH1 0x0 MSTORE PUSH1 0x3 PUSH1 0x20 MSTORE PUSH1 0xFF PUSH1 0x2 PUSH1 0x40 PUSH1 0x0 KECCAK256 ADD SLOAD AND PUSH2 0x2FE3 JUMPI DUP1 ISZERO PUSH2 0x1129 JUMPI PUSH1 0x40 PUSH32 0x60189F38CCC04374E9C9FD4AB45FE61BB77BD1472FD19F6F39AEF2686B14697F SWAP2 DUP4 PUSH1 0x0 MSTORE PUSH1 0x3 PUSH1 0x20 MSTORE PUSH1 0x2 DUP3 PUSH1 0x0 KECCAK256 DUP3 PUSH1 0x1 DUP3 ADD SSTORE ADD PUSH1 0x1 PUSH1 0xFF NOT DUP3 SLOAD AND OR SWAP1 SSTORE DUP2 MLOAD SWAP1 DUP2 MSTORE TIMESTAMP PUSH1 0x20 DUP3 ADD MSTORE LOG2 STOP JUMPDEST PUSH1 0x40 MLOAD PUSH4 0x17FD8AAB PUSH1 0xE3 SHL DUP2 MSTORE PUSH1 0x4 SWAP1 REVERT JUMPDEST POP DUP3 DUP2 AND CALLER EQ ISZERO PUSH2 0x2F55 JUMP JUMPDEST CALLVALUE PUSH2 0x381 JUMPI PUSH1 0x20 DUP1 PUSH1 0x3 NOT CALLDATASIZE ADD SLT PUSH2 0x381 JUMPI PUSH2 0x301B PUSH2 0x46F4 JUMP JUMPDEST PUSH1 0x1 PUSH1 0x1 PUSH1 0xA0 SHL SUB SWAP1 PUSH32 0x0 DUP3 AND CALLER SUB PUSH2 0x1216 JUMPI AND DUP1 PUSH1 0x0 MSTORE PUSH1 0xE DUP3 MSTORE PUSH1 0xFF PUSH1 0x6 PUSH1 0x40 PUSH1 0x0 KECCAK256 ADD SLOAD AND ISZERO PUSH2 0x19FC JUMPI DUP1 PUSH1 0x0 MSTORE PUSH1 0xE DUP3 MSTORE PUSH1 0xFF PUSH1 0x4 PUSH1 0x40 PUSH1 0x0 KECCAK256 ADD SLOAD AND PUSH2 0x30CC JUMPI DUP1 PUSH1 0x0 MSTORE PUSH1 0xE DUP3 MSTORE PUSH1 0x4 PUSH1 0x40 PUSH1 0x0 KECCAK256 ADD PUSH1 0x1 PUSH1 0xFF NOT DUP3 SLOAD AND OR SWAP1 SSTORE PUSH32 0x14814D303617B24306266F30FBBD178FC67E915B8147AA4679460F5CE3289129 DUP3 PUSH1 0x40 MLOAD TIMESTAMP DUP2 MSTORE LOG2 PUSH1 0x40 MLOAD PUSH1 0x1 DUP2 MSTORE RETURN JUMPDEST PUSH1 0x40 MLOAD PUSH4 0x2BF773B3 PUSH1 0xE1 SHL DUP2 MSTORE PUSH1 0x4 SWAP1 REVERT JUMPDEST CALLVALUE PUSH2 0x381 JUMPI PUSH1 0xA0 CALLDATASIZE PUSH1 0x3 NOT ADD SLT PUSH2 0x381 JUMPI PUSH1 0x4 CALLDATALOAD PUSH1 0x1 PUSH1 0x1 PUSH1 0x40 SHL SUB DUP2 GT PUSH2 0x381 JUMPI PUSH2 0x310E SWAP1 CALLDATASIZE SWAP1 PUSH1 0x4 ADD PUSH2 0x464C JUMP JUMPDEST PUSH1 0x44 CALLDATALOAD PUSH1 0x1 PUSH1 0x1 PUSH1 0x40 SHL SUB DUP2 GT PUSH2 0x381 JUMPI PUSH2 0x312D SWAP1 CALLDATASIZE SWAP1 PUSH1 0x4 ADD PUSH2 0x464C JUMP JUMPDEST PUSH1 0x64 SWAP3 SWAP2 SWAP3 CALLDATALOAD PUSH1 0x1 PUSH1 0x1 PUSH1 0x40 SHL SUB DUP2 GT PUSH2 0x381 JUMPI PUSH2 0x314F SWAP1 CALLDATASIZE SWAP1 PUSH1 0x4 ADD PUSH2 0x464C JUMP JUMPDEST SWAP2 SWAP1 SWAP4 PUSH1 0x84 CALLDATALOAD PUSH1 0x1 PUSH1 0x1 PUSH1 0x40 SHL SUB DUP2 GT PUSH2 0x381 JUMPI PUSH2 0x3171 SWAP1 CALLDATASIZE SWAP1 PUSH1 0x4 ADD PUSH2 0x464C JUMP JUMPDEST SWAP3 SWAP1 SWAP3 CALLER PUSH1 0x0 MSTORE PUSH1 0xD PUSH1 0x20 MSTORE PUSH1 0xFF PUSH1 0xA PUSH1 0x40 PUSH1 0x0 KECCAK256 ADD SLOAD AND PUSH2 0xB62 JUMPI PUSH1 0x40 MLOAD PUSH1 0x20 DUP2 ADD SWAP1 DUP4 DUP6 DUP4 CALLDATACOPY PUSH2 0x31B3 PUSH1 0x20 DUP3 DUP7 DUP2 ADD PUSH1 0x0 DUP4 DUP3 ADD MSTORE SUB DUP1 DUP5 MSTORE ADD DUP3 PUSH2 0x47FF JUMP JUMPDEST MLOAD SWAP1 KECCAK256 SWAP4 PUSH1 0x24 CALLDATALOAD PUSH1 0x0 MSTORE PUSH1 0xA PUSH1 0x20 MSTORE PUSH1 0xFF PUSH1 0x40 PUSH1 0x0 KECCAK256 SLOAD AND PUSH2 0xB50 JUMPI DUP5 PUSH1 0x0 MSTORE PUSH1 0xB PUSH1 0x20 MSTORE PUSH1 0xFF PUSH1 0x40 PUSH1 0x0 KECCAK256 SLOAD AND PUSH2 0xB3E JUMPI PUSH2 0x327B SWAP2 PUSH2 0x326F PUSH1 0x40 MLOAD PUSH1 0x20 DUP2 ADD SWAP1 CALLER PUSH1 0x60 SHL DUP3 MSTORE DUP11 DUP14 PUSH1 0x34 DUP4 ADD CALLDATACOPY PUSH2 0x322C PUSH1 0x94 DUP3 DUP14 DUP2 ADD PUSH1 0x24 CALLDATALOAD PUSH1 0x34 DUP3 ADD MSTORE DUP13 PUSH1 0x54 DUP3 ADD MSTORE TIMESTAMP PUSH1 0x74 DUP3 ADD MSTORE SUB PUSH1 0x74 DUP2 ADD DUP5 MSTORE ADD DUP3 PUSH2 0x47FF JUMP JUMPDEST MLOAD SWAP1 KECCAK256 SWAP10 PUSH1 0x40 MLOAD SWAP9 PUSH2 0x323D DUP11 PUSH2 0x4775 JUMP JUMPDEST CALLER DUP11 MSTORE PUSH2 0x324B CALLDATASIZE DUP13 DUP16 PUSH2 0x4F25 JUMP JUMPDEST PUSH1 0x20 DUP12 ADD MSTORE PUSH1 0x24 CALLDATALOAD PUSH1 0x40 DUP12 ADD MSTORE PUSH2 0x3263 CALLDATASIZE DUP9 DUP11 PUSH2 0x4F25 JUMP JUMPDEST PUSH1 0x60 DUP12 ADD MSTORE CALLDATASIZE SWAP2 PUSH2 0x4F25 JUMP JUMPDEST PUSH1 0x80 DUP9 ADD MSTORE CALLDATASIZE SWAP2 PUSH2 0x4F25 JUMP JUMPDEST PUSH1 0xA0 DUP6 ADD MSTORE PUSH1 0x0 PUSH1 0xC0 DUP6 ADD MSTORE DUP6 PUSH1 0xE0 DUP6 ADD MSTORE TIMESTAMP PUSH2 0x100 DUP6 ADD MSTORE PUSH1 0x0 PUSH2 0x120 DUP6 ADD MSTORE PUSH1 0x1 PUSH2 0x140 DUP6 ADD MSTORE CALLER PUSH1 0x0 MSTORE PUSH1 0xD PUSH1 0x20 MSTORE PUSH1 0x40 PUSH1 0x0 KECCAK256 PUSH1 0x1 DUP1 PUSH1 0xA0 SHL SUB DUP6 MLOAD AND PUSH1 0x1 PUSH1 0x1 PUSH1 0x60 SHL SUB PUSH1 0xA0 SHL DUP3 SLOAD AND OR DUP2 SSTORE PUSH1 0x20 DUP6 ADD MLOAD DUP1 MLOAD SWAP1 PUSH1 0x1 PUSH1 0x1 PUSH1 0x40 SHL SUB DUP3 GT PUSH2 0x7D4 JUMPI DUP2 SWAP1 PUSH2 0x32FF DUP3 PUSH2 0x32F6 PUSH1 0x1 DUP8 ADD SLOAD PUSH2 0x4720 JUMP JUMPDEST PUSH1 0x1 DUP8 ADD PUSH2 0x4B98 JUMP JUMPDEST PUSH1 0x20 SWAP1 PUSH1 0x1F DUP4 GT PUSH1 0x1 EQ PUSH2 0x370C JUMPI PUSH1 0x0 SWAP3 PUSH2 0x3701 JUMPI JUMPDEST POP POP DUP2 PUSH1 0x1 SHL SWAP2 PUSH1 0x0 NOT SWAP1 PUSH1 0x3 SHL SHR NOT AND OR PUSH1 0x1 DUP3 ADD SSTORE JUMPDEST PUSH1 0x40 DUP6 ADD MLOAD PUSH1 0x2 DUP3 ADD SSTORE PUSH1 0x60 DUP6 ADD MLOAD DUP1 MLOAD SWAP1 PUSH1 0x1 PUSH1 0x1 PUSH1 0x40 SHL SUB DUP3 GT PUSH2 0x7D4 JUMPI DUP2 SWAP1 PUSH2 0x3360 DUP3 PUSH2 0x15AE PUSH1 0x3 DUP8 ADD SLOAD PUSH2 0x4720 JUMP JUMPDEST PUSH1 0x20 SWAP1 PUSH1 0x1F DUP4 GT PUSH1 0x1 EQ PUSH2 0x368F JUMPI PUSH1 0x0 SWAP3 PUSH2 0x3684 JUMPI JUMPDEST POP POP DUP2 PUSH1 0x1 SHL SWAP2 PUSH1 0x0 NOT SWAP1 PUSH1 0x3 SHL SHR NOT AND OR PUSH1 0x3 DUP3 ADD SSTORE JUMPDEST PUSH1 0x80 DUP6 ADD MLOAD DUP1 MLOAD SWAP1 PUSH1 0x1 PUSH1 0x1 PUSH1 0x40 SHL SUB DUP3 GT PUSH2 0x7D4 JUMPI DUP2 SWAP1 PUSH2 0x33C0 DUP3 PUSH2 0x33B7 PUSH1 0x4 DUP8 ADD SLOAD PUSH2 0x4720 JUMP JUMPDEST PUSH1 0x4 DUP8 ADD PUSH2 0x4B98 JUMP JUMPDEST PUSH1 0x20 SWAP1 PUSH1 0x1F DUP4 GT PUSH1 0x1 EQ PUSH2 0x3612 JUMPI PUSH1 0x0 SWAP3 PUSH2 0x3607 JUMPI JUMPDEST POP POP DUP2 PUSH1 0x1 SHL SWAP2 PUSH1 0x0 NOT SWAP1 PUSH1 0x3 SHL SHR NOT AND OR PUSH1 0x4 DUP3 ADD SSTORE JUMPDEST PUSH1 0xA0 DUP6 ADD MLOAD DUP1 MLOAD SWAP1 PUSH1 0x1 PUSH1 0x1 PUSH1 0x40 SHL SUB DUP3 GT PUSH2 0x7D4 JUMPI PUSH2 0x341E DUP3 PUSH2 0x3415 PUSH1 0x5 DUP7 ADD SLOAD PUSH2 0x4720 JUMP JUMPDEST PUSH1 0x5 DUP7 ADD PUSH2 0x4B98 JUMP JUMPDEST PUSH1 0x20 SWAP1 PUSH1 0x1F DUP4 GT PUSH1 0x1 EQ PUSH2 0x3593 JUMPI PUSH2 0x34A8 SWAP4 SWAP3 SWAP2 PUSH1 0x0 SWAP2 DUP4 PUSH2 0x3588 JUMPI JUMPDEST POP POP DUP2 PUSH1 0x1 SHL SWAP2 PUSH1 0x0 NOT SWAP1 PUSH1 0x3 SHL SHR NOT AND OR PUSH1 0x5 DUP3 ADD SSTORE JUMPDEST PUSH1 0xA PUSH2 0x140 PUSH1 0x6 DUP4 ADD SWAP8 PUSH1 0xFF PUSH1 0xC0 DUP3 ADD MLOAD AND SWAP9 PUSH1 0xFF NOT SWAP10 DUP11 DUP3 SLOAD AND OR SWAP1 SSTORE PUSH1 0xE0 DUP2 ADD MLOAD PUSH1 0x7 DUP6 ADD SSTORE PUSH2 0x100 DUP2 ADD MLOAD PUSH1 0x8 DUP6 ADD SSTORE PUSH2 0x120 DUP2 ADD MLOAD PUSH1 0x9 DUP6 ADD SSTORE ADD MLOAD ISZERO ISZERO SWAP2 ADD SWAP1 PUSH1 0xFF DUP1 NOT DUP4 SLOAD AND SWAP2 ISZERO ISZERO AND OR SWAP1 SSTORE JUMP JUMPDEST PUSH1 0x5 SLOAD PUSH1 0x1 PUSH1 0x40 SHL DUP2 LT ISZERO PUSH2 0x7D4 JUMPI PUSH1 0x1 DUP2 ADD DUP1 PUSH1 0x5 SSTORE DUP2 LT ISZERO PUSH2 0xB28 JUMPI PUSH1 0x20 SWAP8 PUSH32 0x62A383152C7F5DCACCF813B01CB40EFBD792AD8179BB25189B78F48C16E4536E SWAP6 PUSH2 0x3573 SWAP6 PUSH2 0x3566 SWAP4 PUSH32 0x36B6384B5ECA791C62761152D0C79BB0604C104A5FB6F4EB0703F3154BB3DB0 ADD CALLER PUSH1 0x1 PUSH1 0x1 PUSH1 0x60 SHL SUB PUSH1 0xA0 SHL DUP3 SLOAD AND OR SWAP1 SSTORE PUSH1 0x24 CALLDATALOAD PUSH1 0x0 MSTORE PUSH1 0xA DUP12 MSTORE PUSH1 0x40 PUSH1 0x0 KECCAK256 PUSH1 0x1 DUP4 DUP3 SLOAD AND OR SWAP1 SSTORE PUSH1 0x0 MSTORE PUSH1 0xB DUP11 MSTORE PUSH1 0x1 PUSH1 0x40 PUSH1 0x0 KECCAK256 SWAP2 DUP3 SLOAD AND OR SWAP1 SSTORE PUSH1 0x40 MLOAD SWAP7 PUSH1 0x60 DUP9 MSTORE PUSH1 0x60 DUP9 ADD SWAP2 PUSH2 0x4BEC JUMP JUMPDEST SWAP2 DUP6 DUP4 SUB DUP9 DUP8 ADD MSTORE PUSH2 0x4BEC JUMP JUMPDEST SWAP2 TIMESTAMP PUSH1 0x40 DUP3 ADD MSTORE DUP1 CALLER SWAP4 SUB SWAP1 LOG2 PUSH1 0x40 MLOAD SWAP1 DUP2 MSTORE RETURN JUMPDEST ADD MLOAD SWAP1 POP DUP12 DUP1 PUSH2 0x343B JUMP JUMPDEST SWAP1 PUSH1 0x5 DUP5 ADD PUSH1 0x0 MSTORE PUSH1 0x20 PUSH1 0x0 KECCAK256 SWAP2 PUSH1 0x0 JUMPDEST PUSH1 0x1F NOT DUP6 AND DUP2 LT PUSH2 0x35EF JUMPI POP SWAP2 DUP4 SWAP2 PUSH1 0x1 SWAP4 PUSH2 0x34A8 SWAP7 SWAP6 PUSH1 0x1F NOT DUP2 AND LT PUSH2 0x35D6 JUMPI JUMPDEST POP POP POP DUP2 SHL ADD PUSH1 0x5 DUP3 ADD SSTORE PUSH2 0x3453 JUMP JUMPDEST ADD MLOAD PUSH1 0x0 NOT PUSH1 0xF8 DUP5 PUSH1 0x3 SHL AND SHR NOT AND SWAP1 SSTORE DUP12 DUP1 DUP1 PUSH2 0x35C6 JUMP JUMPDEST SWAP2 SWAP3 PUSH1 0x20 PUSH1 0x1 DUP2 SWAP3 DUP7 DUP6 ADD MLOAD DUP2 SSTORE ADD SWAP5 ADD SWAP3 ADD PUSH2 0x35A4 JUMP JUMPDEST ADD MLOAD SWAP1 POP DUP11 DUP1 PUSH2 0x33D6 JUMP JUMPDEST SWAP3 POP PUSH1 0x4 DUP5 ADD PUSH1 0x0 MSTORE PUSH1 0x20 PUSH1 0x0 KECCAK256 SWAP1 PUSH1 0x0 SWAP4 JUMPDEST PUSH1 0x1F NOT DUP5 AND DUP6 LT PUSH2 0x3669 JUMPI PUSH1 0x1 SWAP5 POP DUP4 PUSH1 0x1F NOT DUP2 AND LT PUSH2 0x3650 JUMPI JUMPDEST POP POP POP DUP2 SHL ADD PUSH1 0x4 DUP3 ADD SSTORE PUSH2 0x33EE JUMP JUMPDEST ADD MLOAD PUSH1 0x0 NOT PUSH1 0xF8 DUP5 PUSH1 0x3 SHL AND SHR NOT AND SWAP1 SSTORE DUP11 DUP1 DUP1 PUSH2 0x3640 JUMP JUMPDEST DUP2 DUP2 ADD MLOAD DUP4 SSTORE PUSH1 0x20 SWAP5 DUP6 ADD SWAP5 PUSH1 0x1 SWAP1 SWAP4 ADD SWAP3 SWAP1 SWAP2 ADD SWAP1 PUSH2 0x3625 JUMP JUMPDEST ADD MLOAD SWAP1 POP DUP11 DUP1 PUSH2 0x3376 JUMP JUMPDEST SWAP3 POP PUSH1 0x3 DUP5 ADD PUSH1 0x0 MSTORE PUSH1 0x20 PUSH1 0x0 KECCAK256 SWAP1 PUSH1 0x0 SWAP4 JUMPDEST PUSH1 0x1F NOT DUP5 AND DUP6 LT PUSH2 0x36E6 JUMPI PUSH1 0x1 SWAP5 POP DUP4 PUSH1 0x1F NOT DUP2 AND LT PUSH2 0x36CD JUMPI JUMPDEST POP POP POP DUP2 SHL ADD PUSH1 0x3 DUP3 ADD SSTORE PUSH2 0x338E JUMP JUMPDEST ADD MLOAD PUSH1 0x0 NOT PUSH1 0xF8 DUP5 PUSH1 0x3 SHL AND SHR NOT AND SWAP1 SSTORE DUP11 DUP1 DUP1 PUSH2 0x36BD JUMP JUMPDEST DUP2 DUP2 ADD MLOAD DUP4 SSTORE PUSH1 0x20 SWAP5 DUP6 ADD SWAP5 PUSH1 0x1 SWAP1 SWAP4 ADD SWAP3 SWAP1 SWAP2 ADD SWAP1 PUSH2 0x36A2 JUMP JUMPDEST ADD MLOAD SWAP1 POP DUP11 DUP1 PUSH2 0x3315 JUMP JUMPDEST SWAP3 POP PUSH1 0x1 DUP5 ADD PUSH1 0x0 MSTORE PUSH1 0x20 PUSH1 0x0 KECCAK256 SWAP1 PUSH1 0x0 SWAP4 JUMPDEST PUSH1 0x1F NOT DUP5 AND DUP6 LT PUSH2 0x3763 JUMPI PUSH1 0x1 SWAP5 POP DUP4 PUSH1 0x1F NOT DUP2 AND LT PUSH2 0x374A JUMPI JUMPDEST POP POP POP DUP2 SHL ADD PUSH1 0x1 DUP3 ADD SSTORE PUSH2 0x332D JUMP JUMPDEST ADD MLOAD PUSH1 0x0 NOT PUSH1 0xF8 DUP5 PUSH1 0x3 SHL AND SHR NOT AND SWAP1 SSTORE DUP11 DUP1 DUP1 PUSH2 0x373A JUMP JUMPDEST DUP2 DUP2 ADD MLOAD DUP4 SSTORE PUSH1 0x20 SWAP5 DUP6 ADD SWAP5 PUSH1 0x1 SWAP1 SWAP4 ADD SWAP3 SWAP1 SWAP2 ADD SWAP1 PUSH2 0x371F JUMP JUMPDEST CALLVALUE PUSH2 0x381 JUMPI PUSH1 0x0 CALLDATASIZE PUSH1 0x3 NOT ADD SLT PUSH2 0x381 JUMPI PUSH1 0x20 PUSH1 0x40 MLOAD PUSH32 0x0 DUP2 MSTORE RETURN JUMPDEST CALLVALUE PUSH2 0x381 JUMPI PUSH1 0x0 CALLDATASIZE PUSH1 0x3 NOT ADD SLT PUSH2 0x381 JUMPI PUSH1 0x20 PUSH1 0x40 MLOAD PUSH32 0x0 DUP2 MSTORE RETURN JUMPDEST CALLVALUE PUSH2 0x381 JUMPI PUSH1 0x20 CALLDATASIZE PUSH1 0x3 NOT ADD SLT PUSH2 0x381 JUMPI PUSH1 0x20 PUSH2 0x263A PUSH2 0x3812 PUSH2 0x46F4 JUMP JUMPDEST PUSH2 0x4FC8 JUMP JUMPDEST CALLVALUE PUSH2 0x381 JUMPI PUSH1 0x20 CALLDATASIZE PUSH1 0x3 NOT ADD SLT PUSH2 0x381 JUMPI PUSH1 0x4 CALLDATALOAD PUSH1 0x2 SLOAD DUP2 LT ISZERO PUSH2 0x381 JUMPI PUSH2 0x1A47 PUSH1 0x20 SWAP2 PUSH2 0x4A19 JUMP JUMPDEST CALLVALUE PUSH2 0x381 JUMPI PUSH2 0x384E CALLDATASIZE PUSH2 0x49C7 JUMP JUMPDEST SWAP2 CALLER PUSH1 0x0 MSTORE PUSH1 0xD PUSH1 0x20 MSTORE PUSH1 0xFF PUSH1 0xA PUSH1 0x40 PUSH1 0x0 KECCAK256 ADD SLOAD AND ISZERO PUSH2 0x19FC JUMPI CALLER PUSH1 0x0 MSTORE PUSH1 0xD PUSH1 0x20 MSTORE PUSH1 0xFF PUSH1 0x6 PUSH1 0x40 PUSH1 0x0 KECCAK256 ADD SLOAD AND PUSH2 0x5C5 JUMPI PUSH2 0x388B SWAP4 PUSH2 0x4D69 JUMP JUMPDEST CALLER PUSH1 0x0 MSTORE PUSH1 0xD PUSH1 0x20 MSTORE PUSH1 0x40 PUSH1 0x0 KECCAK256 PUSH1 0x6 DUP2 ADD PUSH1 0x1 PUSH1 0xFF NOT DUP3 SLOAD AND OR SWAP1 SSTORE PUSH1 0x9 TIMESTAMP SWAP2 ADD SSTORE PUSH1 0x40 MLOAD TIMESTAMP DUP2 MSTORE PUSH32 0x2F366F123FABAB95492DBB42E8695E5D537354A21C0246601AD90134A9827625 PUSH1 0x20 CALLER SWAP3 LOG2 STOP JUMPDEST CALLVALUE PUSH2 0x381 JUMPI PUSH1 0x40 CALLDATASIZE PUSH1 0x3 NOT ADD SLT PUSH2 0x381 JUMPI PUSH1 0x4 CALLDATALOAD PUSH2 0x38F8 PUSH2 0x470A JUMP JUMPDEST SWAP1 PUSH1 0x7 SLOAD DUP2 GT PUSH2 0x614 JUMPI DUP1 PUSH1 0x0 MSTORE PUSH1 0x20 SWAP2 PUSH1 0x9 DUP4 MSTORE PUSH1 0x40 PUSH1 0x0 KECCAK256 PUSH1 0x40 MLOAD PUSH2 0x391E DUP2 PUSH2 0x4791 JUMP JUMPDEST DUP2 SLOAD DUP2 MSTORE PUSH2 0x392E PUSH1 0x1 DUP4 ADD PUSH2 0x48DB JUMP JUMPDEST DUP6 DUP3 ADD MSTORE PUSH2 0x393E PUSH1 0x2 DUP4 ADD PUSH2 0x48DB JUMP JUMPDEST PUSH1 0x40 DUP3 ADD MSTORE PUSH1 0x1 DUP1 PUSH1 0xA0 SHL SUB DUP1 SWAP2 DUP2 PUSH1 0x3 DUP6 ADD SLOAD AND SWAP1 PUSH1 0x60 DUP2 ADD SWAP2 DUP3 MSTORE PUSH1 0x4 DUP6 ADD SLOAD PUSH1 0x80 DUP3 ADD MSTORE PUSH1 0x5 DUP6 ADD SLOAD PUSH1 0xA0 DUP3 ADD MSTORE PUSH2 0x1C0 PUSH1 0xFF PUSH1 0xE PUSH1 0x6 DUP9 ADD SLOAD SWAP8 PUSH1 0xC0 DUP6 ADD SWAP9 DUP10 MSTORE PUSH1 0x7 DUP2 ADD SLOAD PUSH1 0xE0 DUP7 ADD MSTORE DUP3 PUSH1 0x8 DUP3 ADD SLOAD AND ISZERO ISZERO PUSH2 0x100 DUP7 ADD MSTORE PUSH1 0x9 DUP2 ADD SLOAD PUSH2 0x120 DUP7 ADD MSTORE PUSH1 0xA DUP2 ADD SLOAD PUSH2 0x140 DUP7 ADD MSTORE PUSH2 0x39BE PUSH1 0xB DUP3 ADD PUSH2 0x48DB JUMP JUMPDEST PUSH2 0x160 DUP7 ADD MSTORE DUP3 PUSH1 0xC DUP3 ADD SLOAD AND ISZERO ISZERO PUSH2 0x180 DUP7 ADD MSTORE PUSH2 0x39DF PUSH1 0xD DUP3 ADD PUSH2 0x48DB JUMP JUMPDEST PUSH2 0x1A0 DUP7 ADD MSTORE ADD SLOAD AND ISZERO ISZERO SWAP2 ADD MSTORE MLOAD AND CALLER EQ ISZERO DUP1 PUSH2 0x3A81 JUMPI JUMPDEST PUSH2 0x5D7 JUMPI DUP4 PUSH1 0x0 MSTORE PUSH1 0x10 DUP6 MSTORE PUSH1 0x40 PUSH1 0x0 KECCAK256 SWAP3 AND SWAP2 DUP3 PUSH1 0x0 MSTORE DUP5 MSTORE PUSH1 0x1 PUSH1 0xFF PUSH1 0x40 PUSH1 0x0 KECCAK256 SLOAD AND SUB PUSH2 0x5C5 JUMPI MLOAD TIMESTAMP LT ISZERO PUSH2 0x5B3 JUMPI DUP2 PUSH1 0x0 MSTORE PUSH1 0x10 DUP4 MSTORE PUSH1 0x40 PUSH1 0x0 KECCAK256 DUP2 PUSH1 0x0 MSTORE DUP4 MSTORE PUSH1 0x40 PUSH1 0x0 KECCAK256 PUSH1 0x2 PUSH1 0xFF NOT DUP3 SLOAD AND OR SWAP1 SSTORE PUSH1 0x40 MLOAD SWAP2 TIMESTAMP DUP4 MSTORE PUSH31 0x8C02DA86B3277809B12D5D51B4DAA215B8085D605086DF36DC4C12F4EA8B74 DUP5 CALLER SWAP5 LOG4 PUSH1 0x40 MLOAD PUSH1 0x1 DUP2 MSTORE RETURN JUMPDEST POP DUP1 PUSH32 0x0 AND CALLER EQ ISZERO PUSH2 0x39F8 JUMP JUMPDEST CALLVALUE PUSH2 0x381 JUMPI PUSH1 0x20 DUP1 PUSH1 0x3 NOT CALLDATASIZE ADD SLT PUSH2 0x381 JUMPI PUSH1 0x1 PUSH1 0x1 PUSH1 0x40 SHL SUB SWAP1 PUSH1 0x4 CALLDATALOAD DUP3 DUP2 GT PUSH2 0x381 JUMPI PUSH2 0x3AE0 SWAP1 CALLDATASIZE SWAP1 PUSH1 0x4 ADD PUSH2 0x464C JUMP JUMPDEST SWAP1 SWAP2 PUSH32 0x0 PUSH1 0x1 PUSH1 0x1 PUSH1 0xA0 SHL SUB AND CALLER SUB PUSH2 0x1216 JUMPI PUSH1 0x1 SWAP4 PUSH1 0xFF DUP6 SLOAD AND PUSH2 0x3CC6 JUMPI DUP3 ISZERO PUSH2 0x1129 JUMPI DUP3 GT PUSH2 0x7D4 JUMPI PUSH2 0x3B35 PUSH1 0x0 SLOAD PUSH2 0x4720 JUMP JUMPDEST PUSH1 0x1F DUP2 GT PUSH2 0x3C60 JUMPI JUMPDEST POP PUSH1 0x0 SWAP4 PUSH1 0x1F DUP4 GT PUSH1 0x1 EQ PUSH2 0x3BC3 JUMPI DUP3 PUSH32 0x4D7ACE317CABABF305A3B0781E111EA315B0FDFAD17A816ED7F3D5DBAF163784 SWAP6 PUSH1 0x0 SWAP2 PUSH2 0x3BB8 JUMPI JUMPDEST POP PUSH1 0x0 NOT PUSH1 0x3 DUP6 SWAP1 SHL SHR NOT AND DUP4 DUP3 SHL OR PUSH1 0x0 SSTORE JUMPDEST DUP1 PUSH1 0xFF NOT DUP2 SLOAD AND OR SWAP1 SSTORE PUSH2 0x3BAD PUSH1 0x40 MLOAD SWAP4 DUP5 SWAP4 PUSH1 0x40 DUP6 MSTORE PUSH1 0x40 DUP6 ADD SWAP2 PUSH2 0x4BEC JUMP JUMPDEST SWAP1 TIMESTAMP SWAP1 DUP4 ADD MSTORE SUB SWAP1 LOG1 STOP JUMPDEST SWAP1 POP DUP5 ADD CALLDATALOAD DUP7 PUSH2 0x3B78 JUMP JUMPDEST PUSH1 0x0 DUP1 DUP1 MSTORE PUSH1 0x1F NOT DUP5 AND SWAP6 PUSH32 0x290DECD9548B62A8D60345A988386FC84BA6BC95484008F6362F93160EF3E563 SWAP2 JUMPDEST DUP8 DUP2 LT PUSH2 0x3C4B JUMPI POP DUP5 PUSH32 0x4D7ACE317CABABF305A3B0781E111EA315B0FDFAD17A816ED7F3D5DBAF163784 SWAP8 LT PUSH2 0x3C31 JUMPI JUMPDEST POP POP DUP1 DUP4 DUP2 SHL ADD PUSH1 0x0 SSTORE PUSH2 0x3B8C JUMP JUMPDEST DUP6 ADD CALLDATALOAD PUSH1 0x0 NOT PUSH1 0x3 DUP7 SWAP1 SHL PUSH1 0xF8 AND SHR NOT AND SWAP1 SSTORE DUP6 DUP1 PUSH2 0x3C22 JUMP JUMPDEST DUP7 DUP3 ADD CALLDATALOAD DUP4 SSTORE SWAP2 DUP4 ADD SWAP2 SWAP1 DUP5 ADD SWAP1 DUP5 ADD PUSH2 0x3BF1 JUMP JUMPDEST PUSH1 0x0 DUP1 MSTORE PUSH32 0x290DECD9548B62A8D60345A988386FC84BA6BC95484008F6362F93160EF3E563 PUSH1 0x1F DUP5 ADD PUSH1 0x5 SHR DUP2 ADD SWAP2 DUP4 DUP6 LT PUSH2 0x3CBC JUMPI JUMPDEST PUSH1 0x1F ADD PUSH1 0x5 SHR ADD SWAP1 DUP6 SWAP1 JUMPDEST DUP3 DUP2 LT PUSH2 0x3CB0 JUMPI POP POP PUSH2 0x3B3E JUMP JUMPDEST PUSH1 0x0 DUP2 SSTORE ADD DUP6 SWAP1 PUSH2 0x3CA2 JUMP JUMPDEST SWAP1 SWAP2 POP DUP2 SWAP1 PUSH2 0x3C97 JUMP JUMPDEST PUSH1 0x40 MLOAD PUSH4 0x1E1E262B PUSH1 0xE0 SHL DUP2 MSTORE PUSH1 0x4 SWAP1 REVERT JUMPDEST CALLVALUE PUSH2 0x381 JUMPI PUSH1 0x20 CALLDATASIZE PUSH1 0x3 NOT ADD SLT PUSH2 0x381 JUMPI PUSH1 0x1 PUSH1 0x1 PUSH1 0xA0 SHL SUB PUSH2 0x3CF9 PUSH2 0x46F4 JUMP JUMPDEST AND PUSH1 0x0 MSTORE PUSH1 0xE PUSH1 0x20 MSTORE PUSH1 0x20 PUSH1 0xFF PUSH1 0x6 PUSH1 0x40 PUSH1 0x0 KECCAK256 ADD SLOAD AND PUSH1 0x40 MLOAD SWAP1 ISZERO ISZERO DUP2 MSTORE RETURN JUMPDEST CALLVALUE PUSH2 0x381 JUMPI PUSH1 0x20 CALLDATASIZE PUSH1 0x3 NOT ADD SLT PUSH2 0x381 JUMPI PUSH1 0x1 PUSH1 0x1 PUSH1 0xA0 SHL SUB DUP1 PUSH2 0x3D3C PUSH2 0x46F4 JUMP JUMPDEST AND SWAP1 DUP2 PUSH1 0x0 MSTORE PUSH1 0xD PUSH1 0x20 MSTORE PUSH1 0xFF PUSH1 0xA PUSH1 0x40 PUSH1 0x0 KECCAK256 ADD SLOAD AND ISZERO PUSH2 0x19FC JUMPI PUSH2 0x3E56 SWAP2 PUSH1 0x0 MSTORE PUSH1 0xD PUSH1 0x20 MSTORE PUSH1 0x40 PUSH1 0x0 KECCAK256 PUSH1 0x40 MLOAD SWAP2 PUSH2 0x3D76 DUP4 PUSH2 0x4775 JUMP JUMPDEST DUP2 SLOAD AND DUP3 MSTORE PUSH2 0x3D87 PUSH1 0x1 DUP3 ADD PUSH2 0x48DB JUMP JUMPDEST SWAP2 PUSH1 0x20 DUP2 ADD SWAP3 DUP4 MSTORE PUSH1 0x2 DUP3 ADD SLOAD PUSH1 0x40 DUP3 ADD MSTORE PUSH2 0x3E8E DUP3 PUSH2 0x3E80 PUSH2 0x3DAC PUSH1 0x3 DUP4 ADD PUSH2 0x48DB JUMP JUMPDEST SWAP6 PUSH1 0x60 DUP6 ADD SWAP7 DUP8 MSTORE PUSH2 0x3E72 PUSH2 0x3DC3 PUSH1 0x4 DUP6 ADD PUSH2 0x48DB JUMP JUMPDEST SWAP6 PUSH1 0x80 DUP2 ADD SWAP7 DUP8 MSTORE PUSH1 0x1 PUSH2 0x3DD9 PUSH1 0x5 DUP8 ADD PUSH2 0x48DB JUMP JUMPDEST SWAP4 DUP5 PUSH1 0xA0 DUP5 ADD MSTORE PUSH1 0xFF PUSH1 0x6 DUP9 ADD SLOAD AND SWAP3 DUP4 PUSH1 0xC0 DUP3 ADD MSTORE PUSH1 0x7 DUP9 ADD SLOAD PUSH1 0xE0 DUP3 ADD MSTORE PUSH2 0x140 PUSH1 0xFF PUSH1 0xA PUSH1 0x9 PUSH1 0x8 DUP13 ADD SLOAD SWAP12 PUSH2 0x100 DUP7 ADD SWAP13 DUP14 MSTORE ADD SLOAD SWAP14 PUSH2 0x120 DUP6 ADD SWAP15 DUP16 MSTORE ADD SLOAD AND ISZERO ISZERO SWAP2 ADD MSTORE MLOAD SWAP10 MLOAD SWAP8 MLOAD SWAP2 EQ PUSH1 0x0 EQ PUSH2 0x3E9D JUMPI PUSH2 0x3E64 PUSH2 0x3E3C PUSH2 0x4F01 JUMP JUMPDEST SWAP6 JUMPDEST MLOAD SWAP9 MLOAD SWAP8 PUSH1 0x40 MLOAD SWAP12 DUP13 SWAP12 PUSH1 0xE0 DUP14 MSTORE PUSH1 0xE0 DUP14 ADD SWAP1 PUSH2 0x49A2 JUMP JUMPDEST SWAP1 DUP12 DUP3 SUB PUSH1 0x20 DUP14 ADD MSTORE PUSH2 0x49A2 JUMP JUMPDEST SWAP1 DUP10 DUP3 SUB PUSH1 0x40 DUP12 ADD MSTORE PUSH2 0x49A2 JUMP JUMPDEST SWAP1 DUP8 DUP3 SUB PUSH1 0x60 DUP10 ADD MSTORE PUSH2 0x49A2 JUMP JUMPDEST SWAP1 DUP6 DUP3 SUB PUSH1 0x80 DUP8 ADD MSTORE PUSH2 0x49A2 JUMP JUMPDEST SWAP2 PUSH1 0xA0 DUP5 ADD MSTORE PUSH1 0xC0 DUP4 ADD MSTORE SUB SWAP1 RETURN JUMPDEST PUSH2 0x3E64 PUSH2 0x3EA8 PUSH2 0x4ED1 JUMP JUMPDEST SWAP6 PUSH2 0x3E3E JUMP JUMPDEST CALLVALUE PUSH2 0x381 JUMPI PUSH1 0x20 DUP1 PUSH1 0x3 NOT CALLDATASIZE ADD SLT PUSH2 0x381 JUMPI PUSH1 0x1 PUSH1 0x1 PUSH1 0xA0 SHL SUB SWAP1 DUP2 PUSH2 0x3ED2 PUSH2 0x46F4 JUMP JUMPDEST AND SWAP2 DUP3 PUSH1 0x0 MSTORE PUSH1 0xE DUP3 MSTORE PUSH1 0xFF PUSH1 0x6 PUSH1 0x40 PUSH1 0x0 KECCAK256 ADD SLOAD AND ISZERO PUSH2 0x19FC JUMPI PUSH2 0x3FBE SWAP3 PUSH1 0x0 MSTORE PUSH1 0xE DUP3 MSTORE PUSH2 0x3FDD PUSH1 0x40 PUSH1 0x0 KECCAK256 SWAP3 PUSH1 0x40 MLOAD SWAP3 PUSH2 0x3F0E DUP5 PUSH2 0x475A JUMP JUMPDEST DUP5 SLOAD AND DUP4 MSTORE PUSH2 0x3FCF PUSH2 0x3F22 PUSH1 0x1 DUP7 ADD PUSH2 0x48DB JUMP JUMPDEST SWAP2 DUP1 DUP6 ADD SWAP3 DUP4 MSTORE PUSH1 0x2 DUP7 ADD SLOAD SWAP6 PUSH1 0x40 DUP7 ADD SWAP7 DUP8 MSTORE PUSH2 0x3F42 PUSH1 0x3 DUP3 ADD PUSH2 0x48DB JUMP JUMPDEST SWAP6 PUSH1 0x60 DUP2 ADD SWAP7 DUP8 MSTORE PUSH1 0xFF PUSH1 0x4 DUP4 ADD SLOAD AND SWAP1 DUP2 PUSH1 0x80 DUP3 ADD MSTORE PUSH1 0xC0 PUSH1 0xFF PUSH1 0x6 PUSH1 0x5 DUP7 ADD SLOAD SWAP6 PUSH1 0xA0 DUP6 ADD SWAP7 DUP8 MSTORE ADD SLOAD AND ISZERO ISZERO SWAP2 ADD MSTORE PUSH1 0x1 DUP2 EQ PUSH1 0x0 EQ PUSH2 0x3FE7 JUMPI POP PUSH1 0x40 MLOAD PUSH2 0x3F8C DUP2 PUSH2 0x47E4 JUMP JUMPDEST PUSH1 0x8 DUP2 MSTORE PUSH8 0x1054141493D59151 PUSH1 0xC2 SHL DUP4 DUP3 ADD MSTORE SWAP4 JUMPDEST MLOAD SWAP7 MLOAD SWAP6 MLOAD SWAP1 MLOAD SWAP6 PUSH1 0x40 MLOAD SWAP9 DUP10 SWAP9 PUSH1 0xA0 DUP11 MSTORE PUSH1 0xA0 DUP11 ADD SWAP1 PUSH2 0x49A2 JUMP JUMPDEST SWAP3 DUP9 ADD MSTORE DUP7 DUP3 SUB PUSH1 0x40 DUP9 ADD MSTORE PUSH2 0x49A2 JUMP JUMPDEST SWAP1 DUP5 DUP3 SUB PUSH1 0x60 DUP7 ADD MSTORE PUSH2 0x49A2 JUMP JUMPDEST SWAP1 PUSH1 0x80 DUP4 ADD MSTORE SUB SWAP1 RETURN JUMPDEST PUSH1 0x2 SUB PUSH2 0x4015 JUMPI PUSH1 0x40 MLOAD PUSH2 0x3FFA DUP2 PUSH2 0x47E4 JUMP JUMPDEST PUSH1 0x8 DUP2 MSTORE PUSH8 0x1491529150D51151 PUSH1 0xC2 SHL DUP4 DUP3 ADD MSTORE JUMPDEST SWAP4 PUSH2 0x3FA2 JUMP JUMPDEST PUSH1 0x40 MLOAD PUSH2 0x4021 DUP2 PUSH2 0x47E4 JUMP JUMPDEST PUSH1 0x7 DUP2 MSTORE PUSH7 0x50454E44494E47 PUSH1 0xC8 SHL DUP4 DUP3 ADD MSTORE PUSH2 0x400F JUMP JUMPDEST CALLVALUE PUSH2 0x381 JUMPI PUSH1 0x20 CALLDATASIZE PUSH1 0x3 NOT ADD SLT PUSH2 0x381 JUMPI PUSH1 0x20 PUSH2 0x4054 PUSH2 0x46F4 JUMP JUMPDEST PUSH1 0x40 MLOAD SWAP1 PUSH1 0x1 DUP1 PUSH1 0xA0 SHL SUB DUP1 PUSH32 0x0 AND SWAP2 AND EQ DUP2 MSTORE RETURN JUMPDEST CALLVALUE PUSH2 0x381 JUMPI PUSH1 0x20 CALLDATASIZE PUSH1 0x3 NOT ADD SLT PUSH2 0x381 JUMPI PUSH1 0x4 CALLDATALOAD PUSH1 0x0 MSTORE PUSH1 0xB PUSH1 0x20 MSTORE PUSH1 0x20 PUSH1 0xFF PUSH1 0x40 PUSH1 0x0 KECCAK256 SLOAD AND PUSH1 0x40 MLOAD SWAP1 ISZERO ISZERO DUP2 MSTORE RETURN JUMPDEST CALLVALUE PUSH2 0x381 JUMPI PUSH1 0x0 CALLDATASIZE PUSH1 0x3 NOT ADD SLT PUSH2 0x381 JUMPI PUSH1 0x20 PUSH1 0xFF PUSH1 0x1 SLOAD AND PUSH1 0x40 MLOAD SWAP1 ISZERO ISZERO DUP2 MSTORE RETURN JUMPDEST CALLVALUE PUSH2 0x381 JUMPI PUSH1 0x0 CALLDATASIZE PUSH1 0x3 NOT ADD SLT PUSH2 0x381 JUMPI PUSH1 0x40 MLOAD DUP1 PUSH1 0x6 SLOAD SWAP2 DUP3 DUP2 MSTORE PUSH1 0x20 DUP1 SWAP2 ADD SWAP3 PUSH1 0x6 PUSH1 0x0 MSTORE PUSH32 0xF652222313E28459528D920B65115C16C04F3EFC82AAEDC97BE59F3F377C0D3F SWAP2 PUSH1 0x0 SWAP1 JUMPDEST DUP3 DUP3 LT PUSH2 0x4141 JUMPI PUSH2 0x37D DUP6 PUSH2 0xBDD DUP2 DUP10 SUB DUP3 PUSH2 0x47FF JUMP JUMPDEST DUP4 SLOAD PUSH1 0x1 PUSH1 0x1 PUSH1 0xA0 SHL SUB AND DUP7 MSTORE SWAP5 DUP6 ADD SWAP5 PUSH1 0x1 SWAP4 DUP5 ADD SWAP4 SWAP1 SWAP2 ADD SWAP1 PUSH2 0x412A JUMP JUMPDEST CALLVALUE PUSH2 0x381 JUMPI PUSH1 0x20 DUP1 PUSH1 0x3 NOT CALLDATASIZE ADD SLT PUSH2 0x381 JUMPI PUSH1 0x4 CALLDATALOAD PUSH1 0x0 MSTORE PUSH1 0x18 DUP2 MSTORE PUSH1 0x40 PUSH1 0x0 KECCAK256 SWAP1 PUSH1 0x40 MLOAD SWAP1 DUP2 DUP2 DUP5 SLOAD SWAP2 DUP3 DUP2 MSTORE ADD SWAP4 PUSH1 0x0 MSTORE DUP2 PUSH1 0x0 KECCAK256 SWAP2 PUSH1 0x0 SWAP1 JUMPDEST DUP3 DUP3 LT PUSH2 0x41B4 JUMPI PUSH2 0x37D DUP6 PUSH2 0xBDD DUP2 DUP10 SUB DUP3 PUSH2 0x47FF JUMP JUMPDEST DUP4 SLOAD PUSH1 0x1 PUSH1 0x1 PUSH1 0xA0 SHL SUB AND DUP7 MSTORE SWAP5 DUP6 ADD SWAP5 PUSH1 0x1 SWAP4 DUP5 ADD SWAP4 SWAP1 SWAP2 ADD SWAP1 PUSH2 0x419D JUMP JUMPDEST CALLVALUE PUSH2 0x381 JUMPI PUSH1 0x40 CALLDATASIZE PUSH1 0x3 NOT ADD SLT PUSH2 0x381 JUMPI PUSH2 0x41ED PUSH2 0x470A JUMP JUMPDEST PUSH1 0x4 CALLDATALOAD PUSH1 0x0 MSTORE PUSH1 0x10 PUSH1 0x20 MSTORE PUSH1 0x40 PUSH1 0x0 KECCAK256 SWAP1 PUSH1 0x1 DUP1 PUSH1 0xA0 SHL SUB AND PUSH1 0x0 MSTORE PUSH1 0x20 MSTORE PUSH1 0x20 PUSH1 0xFF PUSH1 0x40 PUSH1 0x0 KECCAK256 SLOAD AND PUSH1 0x40 MLOAD SWAP1 DUP2 MSTORE RETURN JUMPDEST CALLVALUE PUSH2 0x381 JUMPI PUSH1 0x20 CALLDATASIZE PUSH1 0x3 NOT ADD SLT PUSH2 0x381 JUMPI PUSH1 0x1 PUSH1 0x1 PUSH1 0xA0 SHL SUB DUP1 PUSH2 0x4241 PUSH2 0x46F4 JUMP JUMPDEST AND PUSH1 0x0 MSTORE PUSH1 0xE PUSH1 0x20 MSTORE PUSH1 0x40 PUSH1 0x0 KECCAK256 SWAP1 DUP2 SLOAD AND PUSH2 0x425F PUSH1 0x1 DUP4 ADD PUSH2 0x48DB JUMP JUMPDEST SWAP2 PUSH1 0x2 DUP2 ADD SLOAD SWAP1 PUSH2 0x4272 PUSH1 0x3 DUP3 ADD PUSH2 0x48DB JUMP JUMPDEST SWAP1 PUSH2 0x42BC PUSH1 0xFF PUSH1 0x4 DUP4 ADD SLOAD AND SWAP4 PUSH1 0xFF PUSH1 0x6 PUSH1 0x5 DUP6 ADD SLOAD SWAP5 ADD SLOAD AND SWAP4 PUSH2 0x42A9 PUSH1 0x40 MLOAD SWAP9 DUP10 SWAP9 DUP10 MSTORE PUSH1 0xE0 PUSH1 0x20 DUP11 ADD MSTORE PUSH1 0xE0 DUP10 ADD SWAP1 PUSH2 0x49A2 JUMP JUMPDEST SWAP2 PUSH1 0x40 DUP9 ADD MSTORE DUP7 DUP3 SUB PUSH1 0x60 DUP9 ADD MSTORE PUSH2 0x49A2 JUMP JUMPDEST SWAP3 PUSH1 0x80 DUP6 ADD MSTORE PUSH1 0xA0 DUP5 ADD MSTORE ISZERO ISZERO PUSH1 0xC0 DUP4 ADD MSTORE SUB SWAP1 RETURN JUMPDEST CALLVALUE PUSH2 0x381 JUMPI PUSH1 0x20 DUP1 PUSH1 0x3 NOT CALLDATASIZE ADD SLT PUSH2 0x381 JUMPI PUSH1 0x4 CALLDATALOAD PUSH1 0x7 SLOAD DUP2 GT PUSH2 0x614 JUMPI PUSH1 0x0 MSTORE PUSH1 0xF DUP2 MSTORE PUSH1 0x40 PUSH1 0x0 KECCAK256 SWAP1 PUSH1 0x40 MLOAD SWAP1 DUP2 DUP2 DUP5 SLOAD SWAP2 DUP3 DUP2 MSTORE ADD SWAP4 PUSH1 0x0 MSTORE DUP2 PUSH1 0x0 KECCAK256 SWAP2 PUSH1 0x0 SWAP1 JUMPDEST DUP3 DUP3 LT PUSH2 0x432E JUMPI PUSH2 0x37D DUP6 PUSH2 0xBDD DUP2 DUP10 SUB DUP3 PUSH2 0x47FF JUMP JUMPDEST DUP4 SLOAD PUSH1 0x1 PUSH1 0x1 PUSH1 0xA0 SHL SUB AND DUP7 MSTORE SWAP5 DUP6 ADD SWAP5 PUSH1 0x1 SWAP4 DUP5 ADD SWAP4 SWAP1 SWAP2 ADD SWAP1 PUSH2 0x4317 JUMP JUMPDEST CALLVALUE PUSH2 0x381 JUMPI PUSH2 0x435C CALLDATASIZE PUSH2 0x4679 JUMP JUMPDEST SWAP4 DUP4 PUSH1 0x0 MSTORE PUSH1 0x9 SWAP5 PUSH1 0x20 SWAP2 DUP7 DUP4 MSTORE PUSH1 0x40 PUSH1 0x0 KECCAK256 SLOAD ISZERO PUSH2 0x463D JUMPI POP PUSH1 0x1 PUSH1 0x1 PUSH1 0xA0 SHL SUB CALLER PUSH32 0x0 DUP3 AND EQ ISZERO DUP1 PUSH2 0x4622 JUMPI JUMPDEST PUSH2 0x5D7 JUMPI DUP6 PUSH1 0x0 MSTORE DUP7 DUP4 MSTORE PUSH1 0xFF PUSH1 0xC PUSH1 0x40 PUSH1 0x0 KECCAK256 ADD SLOAD AND ISZERO PUSH2 0x817 JUMPI DUP6 PUSH1 0x0 MSTORE DUP7 DUP4 MSTORE PUSH1 0xFF PUSH1 0xE PUSH1 0x40 PUSH1 0x0 KECCAK256 ADD SLOAD AND PUSH2 0x113B JUMPI DUP4 ISZERO PUSH2 0x1129 JUMPI DUP6 PUSH1 0x0 MSTORE PUSH1 0x18 SWAP1 DUP2 DUP5 MSTORE PUSH1 0x40 PUSH1 0x0 KECCAK256 SLOAD SWAP1 PUSH32 0x0 DUP3 LT PUSH2 0x4610 JUMPI SWAP2 SWAP1 PUSH1 0x40 MLOAD PUSH2 0x4429 DUP2 PUSH2 0x47C9 JUMP JUMPDEST PUSH1 0x0 DUP2 MSTORE SWAP3 PUSH1 0x0 SWAP3 JUMPDEST DUP7 DUP4 DUP6 LT PUSH2 0x45A5 JUMPI SWAP4 POP POP POP POP DUP2 MLOAD SWAP2 ADD KECCAK256 SUB PUSH2 0x4593 JUMPI DUP4 PUSH1 0x0 MSTORE DUP5 DUP2 MSTORE PUSH1 0xD PUSH1 0x40 PUSH1 0x0 KECCAK256 ADD SWAP5 PUSH1 0x1 PUSH1 0x1 PUSH1 0x40 SHL SUB DUP4 GT PUSH2 0x7D4 JUMPI PUSH2 0x447B DUP4 PUSH2 0x4475 DUP9 SLOAD PUSH2 0x4720 JUMP JUMPDEST DUP9 PUSH2 0x4B98 JUMP JUMPDEST PUSH1 0x0 SWAP6 PUSH1 0x1F DUP5 GT PUSH1 0x1 EQ PUSH2 0x450F JUMPI DUP4 PUSH32 0xD669546A44855A85B11D2C8185B647A21C6FD25E902E1F54DB1EBC3886B54D13 SWAP7 SWAP8 PUSH1 0x0 SWAP2 PUSH2 0x4504 JUMPI JUMPDEST POP DUP5 PUSH1 0x1 SHL SWAP1 PUSH1 0x0 NOT DUP7 PUSH1 0x3 SHL SHR NOT AND OR SWAP1 SSTORE JUMPDEST DUP6 PUSH1 0x0 MSTORE DUP2 MSTORE PUSH1 0xE PUSH1 0x40 PUSH1 0x0 KECCAK256 ADD PUSH1 0x1 PUSH1 0xFF NOT DUP3 SLOAD AND OR SWAP1 SSTORE PUSH2 0x44F9 PUSH1 0x40 MLOAD SWAP4 DUP5 SWAP4 PUSH1 0x40 DUP6 MSTORE PUSH1 0x40 DUP6 ADD SWAP2 PUSH2 0x4BEC JUMP JUMPDEST SWAP1 TIMESTAMP SWAP1 DUP4 ADD MSTORE SUB SWAP1 LOG2 STOP JUMPDEST SWAP1 POP DUP6 ADD CALLDATALOAD DUP9 PUSH2 0x44B5 JUMP JUMPDEST PUSH1 0x1F NOT DUP5 AND SWAP7 DUP2 PUSH1 0x0 MSTORE DUP4 PUSH1 0x0 KECCAK256 SWAP1 PUSH1 0x0 JUMPDEST DUP10 DUP2 LT PUSH2 0x457C JUMPI POP DUP6 PUSH32 0xD669546A44855A85B11D2C8185B647A21C6FD25E902E1F54DB1EBC3886B54D13 SWAP9 SWAP10 LT PUSH2 0x4562 JUMPI JUMPDEST POP POP PUSH1 0x1 DUP5 DUP2 SHL ADD SWAP1 SSTORE PUSH2 0x44C9 JUMP JUMPDEST DUP7 ADD CALLDATALOAD PUSH1 0x0 NOT PUSH1 0x3 DUP8 SWAP1 SHL PUSH1 0xF8 AND SHR NOT AND SWAP1 SSTORE DUP8 DUP1 PUSH2 0x4553 JUMP JUMPDEST SWAP1 SWAP2 DUP6 PUSH1 0x1 DUP2 SWAP3 DUP6 DUP12 ADD CALLDATALOAD DUP2 SSTORE ADD SWAP4 ADD SWAP2 ADD PUSH2 0x4521 JUMP JUMPDEST PUSH1 0x40 MLOAD PUSH4 0x763B576F PUSH1 0xE1 SHL DUP2 MSTORE PUSH1 0x4 SWAP1 REVERT JUMPDEST PUSH2 0x4602 PUSH2 0x4608 SWAP3 SWAP4 SWAP5 SWAP6 SWAP7 DUP13 PUSH1 0x0 MSTORE DUP5 DUP4 MSTORE DUP13 DUP7 PUSH2 0x45C7 DUP11 PUSH1 0x40 PUSH1 0x0 KECCAK256 PUSH2 0x4ABE JUMP JUMPDEST SWAP3 SWAP1 SLOAD SWAP1 PUSH1 0x0 MSTORE PUSH1 0x17 DUP7 MSTORE PUSH1 0x40 PUSH1 0x0 KECCAK256 SWAP3 PUSH1 0x3 SHL SHR AND PUSH1 0x0 MSTORE DUP4 MSTORE PUSH2 0x10EB PUSH1 0x40 PUSH1 0x0 KECCAK256 PUSH1 0x40 MLOAD SWAP5 DUP4 PUSH2 0x10E2 DUP8 SWAP6 MLOAD DUP1 SWAP3 DUP5 DUP1 DUP10 ADD SWAP2 ADD PUSH2 0x497F JUMP JUMPDEST SWAP5 PUSH2 0x4C0D JUMP JUMPDEST SWAP3 SWAP2 SWAP1 PUSH2 0x4432 JUMP JUMPDEST PUSH1 0x40 MLOAD PUSH4 0x59FA4A93 PUSH1 0xE0 SHL DUP2 MSTORE PUSH1 0x4 SWAP1 REVERT JUMPDEST POP DUP6 PUSH1 0x0 MSTORE DUP7 DUP4 MSTORE DUP1 PUSH1 0x3 PUSH1 0x40 PUSH1 0x0 KECCAK256 ADD SLOAD AND CALLER EQ ISZERO PUSH2 0x43AA JUMP JUMPDEST PUSH4 0x5CE45F7 PUSH1 0xE5 SHL DUP2 MSTORE PUSH1 0x4 SWAP1 REVERT JUMPDEST SWAP2 DUP2 PUSH1 0x1F DUP5 ADD SLT ISZERO PUSH2 0x381 JUMPI DUP3 CALLDATALOAD SWAP2 PUSH1 0x1 PUSH1 0x1 PUSH1 0x40 SHL SUB DUP4 GT PUSH2 0x381 JUMPI PUSH1 0x20 DUP4 DUP2 DUP7 ADD SWAP6 ADD ADD GT PUSH2 0x381 JUMPI JUMP JUMPDEST SWAP1 PUSH1 0x60 PUSH1 0x3 NOT DUP4 ADD SLT PUSH2 0x381 JUMPI PUSH1 0x4 CALLDATALOAD SWAP2 PUSH1 0x24 CALLDATALOAD SWAP1 PUSH1 0x1 PUSH1 0x1 PUSH1 0x40 SHL SUB DUP3 GT PUSH2 0x381 JUMPI PUSH2 0x46A8 SWAP2 PUSH1 0x4 ADD PUSH2 0x464C JUMP JUMPDEST SWAP1 SWAP2 PUSH1 0x44 CALLDATALOAD SWAP1 JUMP JUMPDEST PUSH1 0x20 SWAP1 DUP2 PUSH1 0x40 DUP2 DUP4 ADD SWAP3 DUP3 DUP2 MSTORE DUP6 MLOAD DUP1 SWAP5 MSTORE ADD SWAP4 ADD SWAP2 PUSH1 0x0 JUMPDEST DUP3 DUP2 LT PUSH2 0x46D7 JUMPI POP POP POP POP SWAP1 JUMP JUMPDEST DUP4 MLOAD PUSH1 0x1 PUSH1 0x1 PUSH1 0xA0 SHL SUB AND DUP6 MSTORE SWAP4 DUP2 ADD SWAP4 SWAP3 DUP2 ADD SWAP3 PUSH1 0x1 ADD PUSH2 0x46C9 JUMP JUMPDEST PUSH1 0x4 CALLDATALOAD SWAP1 PUSH1 0x1 PUSH1 0x1 PUSH1 0xA0 SHL SUB DUP3 AND DUP3 SUB PUSH2 0x381 JUMPI JUMP JUMPDEST PUSH1 0x24 CALLDATALOAD SWAP1 PUSH1 0x1 PUSH1 0x1 PUSH1 0xA0 SHL SUB DUP3 AND DUP3 SUB PUSH2 0x381 JUMPI JUMP JUMPDEST SWAP1 PUSH1 0x1 DUP3 DUP2 SHR SWAP3 AND DUP1 ISZERO PUSH2 0x4750 JUMPI JUMPDEST PUSH1 0x20 DUP4 LT EQ PUSH2 0x473A JUMPI JUMP JUMPDEST PUSH4 0x4E487B71 PUSH1 0xE0 SHL PUSH1 0x0 MSTORE PUSH1 0x22 PUSH1 0x4 MSTORE PUSH1 0x24 PUSH1 0x0 REVERT JUMPDEST SWAP2 PUSH1 0x7F AND SWAP2 PUSH2 0x472F JUMP JUMPDEST PUSH1 0xE0 DUP2 ADD SWAP1 DUP2 LT PUSH1 0x1 PUSH1 0x1 PUSH1 0x40 SHL SUB DUP3 GT OR PUSH2 0x7D4 JUMPI PUSH1 0x40 MSTORE JUMP JUMPDEST PUSH2 0x160 DUP2 ADD SWAP1 DUP2 LT PUSH1 0x1 PUSH1 0x1 PUSH1 0x40 SHL SUB DUP3 GT OR PUSH2 0x7D4 JUMPI PUSH1 0x40 MSTORE JUMP JUMPDEST PUSH2 0x1E0 DUP2 ADD SWAP1 DUP2 LT PUSH1 0x1 PUSH1 0x1 PUSH1 0x40 SHL SUB DUP3 GT OR PUSH2 0x7D4 JUMPI PUSH1 0x40 MSTORE JUMP JUMPDEST PUSH2 0x120 DUP2 ADD SWAP1 DUP2 LT PUSH1 0x1 PUSH1 0x1 PUSH1 0x40 SHL SUB DUP3 GT OR PUSH2 0x7D4 JUMPI PUSH1 0x40 MSTORE JUMP JUMPDEST PUSH1 0x20 DUP2 ADD SWAP1 DUP2 LT PUSH1 0x1 PUSH1 0x1 PUSH1 0x40 SHL SUB DUP3 GT OR PUSH2 0x7D4 JUMPI PUSH1 0x40 MSTORE JUMP JUMPDEST PUSH1 0x40 DUP2 ADD SWAP1 DUP2 LT PUSH1 0x1 PUSH1 0x1 PUSH1 0x40 SHL SUB DUP3 GT OR PUSH2 0x7D4 JUMPI PUSH1 0x40 MSTORE JUMP JUMPDEST SWAP1 PUSH1 0x1F DUP1 NOT SWAP2 ADD AND DUP2 ADD SWAP1 DUP2 LT PUSH1 0x1 PUSH1 0x1 PUSH1 0x40 SHL SUB DUP3 GT OR PUSH2 0x7D4 JUMPI PUSH1 0x40 MSTORE JUMP JUMPDEST PUSH1 0x40 MLOAD SWAP1 PUSH1 0x0 DUP3 DUP2 SLOAD SWAP2 PUSH2 0x4833 DUP4 PUSH2 0x4720 JUMP JUMPDEST DUP1 DUP4 MSTORE SWAP3 PUSH1 0x1 SWAP1 DUP2 DUP2 AND SWAP1 DUP2 ISZERO PUSH2 0x48B9 JUMPI POP PUSH1 0x1 EQ PUSH2 0x485C JUMPI JUMPDEST POP PUSH2 0x485A SWAP3 POP SUB DUP4 PUSH2 0x47FF JUMP JUMPDEST JUMP JUMPDEST PUSH1 0x0 DUP1 DUP1 MSTORE SWAP2 POP PUSH32 0x290DECD9548B62A8D60345A988386FC84BA6BC95484008F6362F93160EF3E563 JUMPDEST DUP5 DUP4 LT PUSH2 0x489E JUMPI POP PUSH2 0x485A SWAP4 POP POP DUP2 ADD PUSH1 0x20 ADD CODESIZE PUSH2 0x484D JUMP JUMPDEST DUP2 SWAP4 POP SWAP1 DUP2 PUSH1 0x20 SWAP3 SLOAD DUP4 DUP6 DUP11 ADD ADD MSTORE ADD SWAP2 ADD SWAP1 SWAP2 DUP6 SWAP3 PUSH2 0x4885 JUMP JUMPDEST SWAP1 POP PUSH1 0x20 SWAP3 POP PUSH2 0x485A SWAP5 SWAP2 POP PUSH1 0xFF NOT AND DUP3 DUP5 ADD MSTORE ISZERO ISZERO PUSH1 0x5 SHL DUP3 ADD ADD CODESIZE PUSH2 0x484D JUMP JUMPDEST SWAP1 PUSH1 0x40 MLOAD SWAP2 DUP3 PUSH1 0x0 DUP3 SLOAD SWAP3 PUSH2 0x48EF DUP5 PUSH2 0x4720 JUMP JUMPDEST SWAP1 DUP2 DUP5 MSTORE PUSH1 0x1 SWAP5 DUP6 DUP2 AND SWAP1 DUP2 PUSH1 0x0 EQ PUSH2 0x495C JUMPI POP PUSH1 0x1 EQ PUSH2 0x4919 JUMPI JUMPDEST POP POP PUSH2 0x485A SWAP3 POP SUB DUP4 PUSH2 0x47FF JUMP JUMPDEST SWAP1 SWAP4 SWAP2 POP PUSH1 0x0 MSTORE PUSH1 0x20 SWAP1 DUP2 PUSH1 0x0 KECCAK256 SWAP4 PUSH1 0x0 SWAP2 JUMPDEST DUP2 DUP4 LT PUSH2 0x4944 JUMPI POP POP PUSH2 0x485A SWAP4 POP DUP3 ADD ADD CODESIZE DUP1 PUSH2 0x490B JUMP JUMPDEST DUP6 SLOAD DUP9 DUP5 ADD DUP6 ADD MSTORE SWAP5 DUP6 ADD SWAP5 DUP8 SWAP5 POP SWAP2 DUP4 ADD SWAP2 PUSH2 0x492C JUMP JUMPDEST SWAP2 POP POP PUSH2 0x485A SWAP5 POP PUSH1 0x20 SWAP3 POP PUSH1 0xFF NOT AND DUP3 DUP5 ADD MSTORE ISZERO ISZERO PUSH1 0x5 SHL DUP3 ADD ADD CODESIZE DUP1 PUSH2 0x490B JUMP JUMPDEST PUSH1 0x0 JUMPDEST DUP4 DUP2 LT PUSH2 0x4992 JUMPI POP POP PUSH1 0x0 SWAP2 ADD MSTORE JUMP JUMPDEST DUP2 DUP2 ADD MLOAD DUP4 DUP3 ADD MSTORE PUSH1 0x20 ADD PUSH2 0x4982 JUMP JUMPDEST SWAP1 PUSH1 0x20 SWAP2 PUSH2 0x49BB DUP2 MLOAD DUP1 SWAP3 DUP2 DUP6 MSTORE DUP6 DUP1 DUP7 ADD SWAP2 ADD PUSH2 0x497F JUMP JUMPDEST PUSH1 0x1F ADD PUSH1 0x1F NOT AND ADD ADD SWAP1 JUMP JUMPDEST SWAP1 PUSH2 0x240 PUSH1 0x3 NOT DUP4 ADD SLT PUSH2 0x381 JUMPI DUP2 PUSH1 0x44 GT PUSH2 0x381 JUMPI PUSH1 0x4 SWAP2 DUP1 PUSH1 0xC4 GT PUSH2 0x381 JUMPI PUSH1 0x44 SWAP2 PUSH2 0x104 DUP3 DUP2 GT PUSH2 0x381 JUMPI PUSH1 0xC4 SWAP3 PUSH2 0x244 GT PUSH2 0x381 JUMPI SWAP1 JUMP JUMPDEST PUSH1 0x40 SWAP1 PUSH1 0x3 NOT ADD SLT PUSH2 0x381 JUMPI PUSH1 0x4 CALLDATALOAD SWAP1 PUSH1 0x24 CALLDATALOAD SWAP1 JUMP JUMPDEST PUSH1 0x2 SLOAD DUP2 LT ISZERO PUSH2 0xB28 JUMPI PUSH1 0x2 PUSH1 0x0 MSTORE PUSH32 0x405787FA12A823E0F2B7631CC41B3BA8828B3321CA811111FA75CD3AA3BB5ACE ADD SWAP1 PUSH1 0x0 SWAP1 JUMP JUMPDEST PUSH1 0x8 SLOAD DUP2 LT ISZERO PUSH2 0xB28 JUMPI PUSH1 0x8 PUSH1 0x0 MSTORE PUSH32 0xF3F7A9FE364FAAB93B216DA50A3214154F22A0A2B415B23A84C8169E8B636EE3 ADD SWAP1 PUSH1 0x0 SWAP1 JUMP JUMPDEST PUSH1 0x6 SLOAD DUP2 LT ISZERO PUSH2 0xB28 JUMPI PUSH1 0x6 PUSH1 0x0 MSTORE PUSH32 0xF652222313E28459528D920B65115C16C04F3EFC82AAEDC97BE59F3F377C0D3F ADD SWAP1 PUSH1 0x0 SWAP1 JUMP JUMPDEST DUP1 SLOAD DUP3 LT ISZERO PUSH2 0xB28 JUMPI PUSH1 0x0 MSTORE PUSH1 0x20 PUSH1 0x0 KECCAK256 ADD SWAP1 PUSH1 0x0 SWAP1 JUMP JUMPDEST PUSH1 0x20 SWAP1 DUP2 PUSH1 0x40 DUP2 DUP4 ADD SWAP3 DUP3 DUP2 MSTORE DUP6 MLOAD DUP1 SWAP5 MSTORE ADD SWAP4 ADD SWAP2 PUSH1 0x0 JUMPDEST DUP3 DUP2 LT PUSH2 0x4AFD JUMPI POP POP POP POP SWAP1 JUMP JUMPDEST DUP4 MLOAD DUP6 MSTORE SWAP4 DUP2 ADD SWAP4 SWAP3 DUP2 ADD SWAP3 PUSH1 0x1 ADD PUSH2 0x4AEF JUMP JUMPDEST CALLVALUE PUSH2 0x381 JUMPI PUSH1 0x0 CALLDATASIZE PUSH1 0x3 NOT ADD SLT PUSH2 0x381 JUMPI PUSH1 0x40 MLOAD DUP1 PUSH1 0x8 SLOAD SWAP2 DUP3 DUP2 MSTORE PUSH1 0x20 DUP1 SWAP2 ADD SWAP3 PUSH1 0x8 PUSH1 0x0 MSTORE PUSH32 0xF3F7A9FE364FAAB93B216DA50A3214154F22A0A2B415B23A84C8169E8B636EE3 SWAP2 PUSH1 0x0 SWAP1 JUMPDEST DUP3 DUP3 LT PUSH2 0x4B81 JUMPI PUSH2 0x37D DUP6 PUSH2 0x4B75 DUP2 DUP10 SUB DUP3 PUSH2 0x47FF JUMP JUMPDEST PUSH1 0x40 MLOAD SWAP2 DUP3 SWAP2 DUP3 PUSH2 0x4AD6 JUMP JUMPDEST DUP4 SLOAD DUP7 MSTORE SWAP5 DUP6 ADD SWAP5 PUSH1 0x1 SWAP4 DUP5 ADD SWAP4 SWAP1 SWAP2 ADD SWAP1 PUSH2 0x4B5E JUMP JUMPDEST SWAP1 PUSH1 0x1F DUP2 GT PUSH2 0x4BA6 JUMPI POP POP POP JUMP JUMPDEST PUSH1 0x0 SWAP2 DUP3 MSTORE PUSH1 0x20 DUP3 KECCAK256 SWAP1 PUSH1 0x20 PUSH1 0x1F DUP6 ADD PUSH1 0x5 SHR DUP4 ADD SWAP5 LT PUSH2 0x4BE2 JUMPI JUMPDEST PUSH1 0x1F ADD PUSH1 0x5 SHR ADD SWAP2 JUMPDEST DUP3 DUP2 LT PUSH2 0x4BD7 JUMPI POP POP POP JUMP JUMPDEST DUP2 DUP2 SSTORE PUSH1 0x1 ADD PUSH2 0x4BCB JUMP JUMPDEST SWAP1 SWAP3 POP DUP3 SWAP1 PUSH2 0x4BC2 JUMP JUMPDEST SWAP1 DUP1 PUSH1 0x20 SWAP4 SWAP3 DUP2 DUP5 MSTORE DUP5 DUP5 ADD CALLDATACOPY PUSH1 0x0 DUP3 DUP3 ADD DUP5 ADD MSTORE PUSH1 0x1F ADD PUSH1 0x1F NOT AND ADD ADD SWAP1 JUMP JUMPDEST PUSH1 0x0 NOT DUP2 EQ PUSH2 0x4C1C JUMPI PUSH1 0x1 ADD SWAP1 JUMP JUMPDEST PUSH4 0x4E487B71 PUSH1 0xE0 SHL PUSH1 0x0 MSTORE PUSH1 0x11 PUSH1 0x4 MSTORE PUSH1 0x24 PUSH1 0x0 REVERT JUMPDEST PUSH1 0x0 PUSH1 0x2 DUP1 SLOAD SWAP2 JUMPDEST DUP3 DUP2 LT PUSH2 0x4C49 JUMPI POP POP POP PUSH1 0x1 SWAP1 JUMP JUMPDEST PUSH2 0x4C52 DUP2 PUSH2 0x4A19 JUMP JUMPDEST SWAP1 SLOAD PUSH1 0x3 SWAP2 DUP3 SHL SHR PUSH1 0x1 PUSH1 0x1 PUSH1 0xA0 SHL SUB AND PUSH1 0x0 SWAP1 DUP2 MSTORE PUSH1 0x20 SWAP2 SWAP1 SWAP2 MSTORE PUSH1 0x40 SWAP1 KECCAK256 DUP3 ADD SLOAD PUSH1 0xFF AND ISZERO PUSH2 0x4C8B JUMPI PUSH2 0x4C86 SWAP1 PUSH2 0x4C0D JUMP JUMPDEST PUSH2 0x4C3A JUMP JUMPDEST POP POP POP PUSH1 0x0 SWAP1 JUMP JUMPDEST PUSH1 0x0 SWAP3 SWAP2 DUP2 SLOAD PUSH2 0x4CA2 DUP2 PUSH2 0x4720 JUMP JUMPDEST SWAP3 PUSH1 0x1 SWAP2 DUP1 DUP4 AND SWAP1 DUP2 ISZERO PUSH2 0x4CFB JUMPI POP PUSH1 0x1 EQ PUSH2 0x4CBF JUMPI JUMPDEST POP POP POP POP JUMP JUMPDEST SWAP1 SWAP2 SWAP3 SWAP4 SWAP5 POP PUSH1 0x0 MSTORE PUSH1 0x20 SWAP1 DUP2 PUSH1 0x0 KECCAK256 SWAP1 PUSH1 0x0 SWAP2 JUMPDEST DUP6 DUP4 LT PUSH2 0x4CEA JUMPI POP POP POP POP ADD SWAP1 CODESIZE DUP1 DUP1 DUP1 PUSH2 0x4CB9 JUMP JUMPDEST DUP1 SLOAD DUP6 DUP5 ADD MSTORE SWAP2 DUP4 ADD SWAP2 DUP2 ADD PUSH2 0x4CD4 JUMP JUMPDEST PUSH1 0xFF NOT AND DUP5 MSTORE POP POP POP DUP2 ISZERO ISZERO SWAP1 SWAP2 MUL ADD SWAP2 POP CODESIZE DUP1 DUP1 DUP1 PUSH2 0x4CB9 JUMP JUMPDEST DUP1 SLOAD PUSH1 0x1 PUSH1 0x40 SHL DUP2 LT ISZERO PUSH2 0x7D4 JUMPI PUSH2 0x4D33 SWAP2 PUSH1 0x1 DUP3 ADD DUP2 SSTORE PUSH2 0x4ABE JUMP JUMPDEST DUP2 SWAP3 SWAP2 SLOAD SWAP1 PUSH1 0x3 SHL SWAP2 PUSH1 0x1 DUP1 PUSH1 0xA0 SHL SUB DUP1 SWAP2 AND DUP4 SHL SWAP3 SHL NOT AND OR SWAP1 SSTORE JUMP JUMPDEST SWAP1 DUP2 PUSH1 0x20 SWAP2 SUB SLT PUSH2 0x381 JUMPI MLOAD DUP1 ISZERO ISZERO DUP2 SUB PUSH2 0x381 JUMPI SWAP1 JUMP JUMPDEST SWAP2 SWAP1 SWAP3 PUSH1 0x1 DUP1 PUSH1 0xA0 SHL SUB PUSH1 0x11 SLOAD AND SWAP2 DUP3 ISZERO PUSH2 0x2D64 JUMPI PUSH1 0x12 DUP3 CALLDATALOAD SUB PUSH2 0x2D40 JUMPI PUSH1 0x40 SWAP5 DUP6 DUP4 ADD CALLDATALOAD PUSH2 0x4EC0 JUMPI PUSH1 0x60 DUP4 ADD CALLDATALOAD ISZERO PUSH2 0x4EAF JUMPI PUSH2 0x4DA5 TIMESTAMP PUSH2 0x5172 JUMP JUMPDEST SWAP2 PUSH1 0x80 DUP7 ADD CALLDATALOAD SUB PUSH2 0x4E9E JUMPI PUSH1 0xA0 DUP6 ADD CALLDATALOAD SUB PUSH2 0x4E8D JUMPI PUSH1 0xC0 DUP5 ADD CALLDATALOAD SUB PUSH2 0x4E7C JUMPI DUP6 MLOAD PUSH4 0x79DDB87B PUSH1 0xE1 SHL DUP2 MSTORE SWAP5 DUP6 SWAP4 SWAP3 DUP8 SWAP3 SWAP1 SWAP2 DUP4 SWAP1 PUSH1 0x4 DUP8 ADD CALLDATACOPY PUSH1 0x0 PUSH1 0x44 DUP7 ADD JUMPDEST PUSH1 0x2 DUP3 LT PUSH2 0x4E5C JUMPI POP POP POP SWAP4 PUSH2 0x140 PUSH2 0x244 SWAP4 DUP6 SWAP4 PUSH1 0x20 SWAP8 PUSH1 0xC4 DUP7 ADD CALLDATACOPY PUSH2 0x104 DUP5 ADD CALLDATACOPY GAS STATICCALL SWAP1 DUP2 ISZERO PUSH2 0x4E51 JUMPI PUSH1 0x0 SWAP2 PUSH2 0x4E33 JUMPI JUMPDEST POP ISZERO PUSH2 0x4E23 JUMPI POP JUMP JUMPDEST MLOAD PUSH4 0x8DCE8175 PUSH1 0xE0 SHL DUP2 MSTORE PUSH1 0x4 SWAP1 REVERT JUMPDEST PUSH2 0x4E4B SWAP2 POP PUSH1 0x20 RETURNDATASIZE DUP2 GT PUSH2 0x2CDB JUMPI PUSH2 0x2CCD DUP2 DUP4 PUSH2 0x47FF JUMP JUMPDEST CODESIZE PUSH2 0x4E1A JUMP JUMPDEST DUP3 MLOAD RETURNDATASIZE PUSH1 0x0 DUP3 RETURNDATACOPY RETURNDATASIZE SWAP1 REVERT JUMPDEST DUP5 SWAP2 SWAP4 SWAP6 SWAP7 POP SWAP4 DUP5 DUP2 DUP5 PUSH1 0x1 SWAP6 SWAP8 CALLDATACOPY ADD SWAP4 ADD SWAP2 ADD SWAP1 DUP7 SWAP5 SWAP4 SWAP2 DUP9 SWAP4 PUSH2 0x4DE6 JUMP JUMPDEST DUP6 MLOAD PUSH4 0x81BF7F67 PUSH1 0xE0 SHL DUP2 MSTORE PUSH1 0x4 SWAP1 REVERT JUMPDEST DUP7 MLOAD PUSH4 0x81BF7F67 PUSH1 0xE0 SHL DUP2 MSTORE PUSH1 0x4 SWAP1 REVERT JUMPDEST DUP8 MLOAD PUSH4 0x81BF7F67 PUSH1 0xE0 SHL DUP2 MSTORE PUSH1 0x4 SWAP1 REVERT JUMPDEST DUP6 MLOAD PUSH4 0x6033C4FD PUSH1 0xE1 SHL DUP2 MSTORE PUSH1 0x4 SWAP1 REVERT JUMPDEST DUP6 MLOAD PUSH4 0x1EC4422D PUSH1 0xE1 SHL DUP2 MSTORE PUSH1 0x4 SWAP1 REVERT JUMPDEST PUSH1 0x40 MLOAD SWAP1 PUSH2 0x4EDE DUP3 PUSH2 0x47E4 JUMP JUMPDEST PUSH1 0x14 DUP3 MSTORE PUSH20 0x2822A72224A723AFAB22A924A324A1A0AA24A7A7 PUSH1 0x61 SHL PUSH1 0x20 DUP4 ADD MSTORE JUMP JUMPDEST PUSH1 0x40 MLOAD SWAP1 PUSH2 0x4F0E DUP3 PUSH2 0x47E4 JUMP JUMPDEST PUSH1 0x8 DUP3 MSTORE PUSH8 0x1591549251925151 PUSH1 0xC2 SHL PUSH1 0x20 DUP4 ADD MSTORE JUMP JUMPDEST SWAP3 SWAP2 SWAP3 PUSH1 0x1 PUSH1 0x1 PUSH1 0x40 SHL SUB DUP3 GT PUSH2 0x7D4 JUMPI PUSH1 0x40 MLOAD SWAP2 PUSH2 0x4F4E PUSH1 0x1F DUP3 ADD PUSH1 0x1F NOT AND PUSH1 0x20 ADD DUP5 PUSH2 0x47FF JUMP JUMPDEST DUP3 SWAP5 DUP2 DUP5 MSTORE DUP2 DUP4 ADD GT PUSH2 0x381 JUMPI DUP3 DUP2 PUSH1 0x20 SWAP4 DUP5 PUSH1 0x0 SWAP7 ADD CALLDATACOPY ADD ADD MSTORE JUMP JUMPDEST PUSH1 0x1 PUSH1 0x1 PUSH1 0x40 SHL SUB DUP2 GT PUSH2 0x7D4 JUMPI PUSH1 0x5 SHL PUSH1 0x20 ADD SWAP1 JUMP JUMPDEST SWAP1 PUSH2 0x4F8C DUP3 PUSH2 0x4F6B JUMP JUMPDEST PUSH2 0x4F99 PUSH1 0x40 MLOAD SWAP2 DUP3 PUSH2 0x47FF JUMP JUMPDEST DUP3 DUP2 MSTORE DUP1 SWAP3 PUSH2 0x4FAA PUSH1 0x1F NOT SWAP2 PUSH2 0x4F6B JUMP JUMPDEST ADD SWAP1 PUSH1 0x20 CALLDATASIZE SWAP2 ADD CALLDATACOPY JUMP JUMPDEST DUP1 MLOAD DUP3 LT ISZERO PUSH2 0xB28 JUMPI PUSH1 0x20 SWAP2 PUSH1 0x5 SHL ADD ADD SWAP1 JUMP JUMPDEST PUSH1 0x1 PUSH1 0x1 PUSH1 0xA0 SHL SUB AND PUSH1 0x0 SWAP1 DUP2 MSTORE PUSH1 0xE PUSH1 0x20 MSTORE PUSH1 0x40 SWAP1 KECCAK256 PUSH1 0x6 DUP2 ADD SLOAD PUSH1 0xFF AND SWAP1 DUP2 PUSH2 0x4FF1 JUMPI POP SWAP1 JUMP JUMPDEST PUSH1 0x4 ADD SLOAD PUSH1 0xFF AND PUSH1 0x1 EQ SWAP2 SWAP1 POP JUMP JUMPDEST SWAP1 PUSH1 0x7 SLOAD DUP3 GT PUSH2 0x614 JUMPI PUSH1 0x0 SWAP2 DUP1 DUP4 MSTORE PUSH1 0x20 SWAP3 PUSH1 0xF DUP5 MSTORE PUSH1 0x40 SWAP1 DUP2 DUP2 KECCAK256 DUP3 MLOAD DUP1 DUP3 DUP9 DUP3 SWAP5 SLOAD SWAP4 DUP5 DUP2 MSTORE ADD SWAP1 DUP6 MSTORE DUP9 DUP6 KECCAK256 SWAP3 DUP6 JUMPDEST DUP11 DUP3 DUP3 LT PUSH2 0x5139 JUMPI POP POP POP PUSH2 0x504A SWAP3 POP SUB DUP3 PUSH2 0x47FF JUMP JUMPDEST DUP2 SWAP4 DUP3 JUMPDEST DUP3 MLOAD DUP2 LT ISZERO PUSH2 0x50AB JUMPI DUP2 DUP5 MSTORE PUSH1 0x10 DUP9 MSTORE DUP5 DUP5 KECCAK256 PUSH1 0x1 PUSH1 0x1 PUSH1 0xA0 SHL SUB PUSH2 0x5073 DUP4 DUP7 PUSH2 0x4FB4 JUMP JUMPDEST MLOAD AND DUP6 MSTORE DUP9 MSTORE PUSH1 0x2 PUSH1 0xFF DUP7 DUP7 KECCAK256 SLOAD AND EQ PUSH2 0x5096 JUMPI JUMPDEST PUSH2 0x5091 SWAP1 PUSH2 0x4C0D JUMP JUMPDEST PUSH2 0x504E JUMP JUMPDEST SWAP5 PUSH2 0x50A3 PUSH2 0x5091 SWAP2 PUSH2 0x4C0D JUMP JUMPDEST SWAP6 SWAP1 POP PUSH2 0x5088 JUMP JUMPDEST POP SWAP3 SWAP6 SWAP4 PUSH2 0x50B8 SWAP1 PUSH2 0x4F82 JUMP JUMPDEST SWAP2 DUP1 SWAP4 DUP2 JUMPDEST DUP4 MLOAD DUP2 LT ISZERO PUSH2 0x512E JUMPI DUP2 DUP4 MSTORE PUSH1 0x10 DUP8 MSTORE DUP9 DUP4 KECCAK256 PUSH1 0x1 PUSH1 0x1 PUSH1 0xA0 SHL SUB SWAP1 DUP2 PUSH2 0x50E4 DUP5 DUP9 PUSH2 0x4FB4 JUMP JUMPDEST MLOAD AND DUP6 MSTORE DUP9 MSTORE PUSH1 0x2 PUSH1 0xFF DUP12 DUP7 KECCAK256 SLOAD AND EQ PUSH2 0x5108 JUMPI JUMPDEST POP PUSH2 0x5103 SWAP1 PUSH2 0x4C0D JUMP JUMPDEST PUSH2 0x50BD JUMP JUMPDEST DUP2 SWAP7 PUSH2 0x5127 SWAP2 PUSH2 0x511B PUSH2 0x5103 SWAP5 DUP9 PUSH2 0x4FB4 JUMP JUMPDEST MLOAD AND PUSH2 0x12D2 DUP3 DUP10 PUSH2 0x4FB4 JUMP JUMPDEST SWAP6 SWAP1 PUSH2 0x50F9 JUMP JUMPDEST POP SWAP3 SWAP7 POP POP POP POP POP POP JUMP JUMPDEST DUP6 SLOAD PUSH1 0x1 PUSH1 0x1 PUSH1 0xA0 SHL SUB AND DUP5 MSTORE PUSH1 0x1 SWAP6 DUP7 ADD SWAP6 DUP8 SWAP6 POP SWAP4 ADD SWAP3 ADD PUSH2 0x5033 JUMP JUMPDEST SWAP2 SWAP1 DUP3 ADD DUP1 SWAP3 GT PUSH2 0x4C1C JUMPI JUMP JUMPDEST SWAP2 SWAP1 DUP3 SUB SWAP2 DUP3 GT PUSH2 0x4C1C JUMPI JUMP JUMPDEST PUSH3 0x15180 SWAP1 DIV SWAP1 PUSH3 0xAFA6C DUP3 ADD DUP1 SWAP3 GT PUSH2 0x4C1C JUMPI PUSH3 0x23AB1 DUP1 DUP4 DIV DUP2 DUP2 MUL SWAP4 DUP2 ISZERO SWAP3 DUP3 DUP7 DIV EQ DUP4 OR ISZERO PUSH2 0x4C1C JUMPI PUSH2 0x51DB SWAP5 PUSH2 0x51AC SWAP2 PUSH2 0x5165 JUMP JUMPDEST SWAP1 PUSH2 0x51C9 PUSH2 0x51BE PUSH2 0x5B4 DUP5 DIV DUP5 PUSH2 0x5165 JUMP JUMPDEST PUSH2 0x8EAC DUP5 DIV SWAP1 PUSH2 0x5158 JUMP JUMPDEST PUSH2 0x16D SWAP6 DUP7 SWAP2 PUSH3 0x23AB0 DUP6 DIV SWAP1 PUSH2 0x5165 JUMP JUMPDEST DIV SWAP3 PUSH2 0x190 DUP1 DUP4 MUL SWAP3 DUP4 DIV EQ OR ISZERO PUSH2 0x4C1C JUMPI PUSH2 0x51F7 SWAP1 DUP4 PUSH2 0x5158 JUMP JUMPDEST SWAP4 DUP3 DUP2 MUL SWAP1 DUP2 DIV DUP4 SUB PUSH2 0x4C1C JUMPI DUP3 PUSH1 0x64 PUSH2 0x521B PUSH2 0x5223 SWAP4 PUSH2 0x5229 SWAP7 PUSH1 0x2 SHR SWAP1 PUSH2 0x5158 JUMP JUMPDEST SWAP2 DIV SWAP1 PUSH2 0x5165 JUMP JUMPDEST SWAP1 PUSH2 0x5165 JUMP JUMPDEST DUP1 PUSH1 0x5 MUL PUSH1 0x5 DUP2 DIV DUP3 SUB PUSH2 0x4C1C JUMPI PUSH1 0x2 DUP2 ADD DUP1 SWAP2 GT PUSH2 0x4C1C JUMPI PUSH1 0x99 SWAP1 DIV SWAP1 DUP2 PUSH1 0x99 MUL SWAP1 PUSH1 0x99 DUP3 DIV DUP4 SUB PUSH2 0x4C1C JUMPI PUSH1 0x2 DUP3 ADD DUP1 SWAP3 GT PUSH2 0x4C1C JUMPI PUSH1 0x5 PUSH2 0x526E SWAP3 DIV SWAP1 PUSH2 0x5165 JUMP JUMPDEST PUSH1 0x1 DUP2 ADD DUP1 SWAP2 GT PUSH2 0x4C1C JUMPI SWAP1 PUSH1 0x0 PUSH1 0xA DUP3 LT ISZERO PUSH2 0x52AB JUMPI POP PUSH1 0x3 DUP2 ADD DUP1 SWAP2 GT PUSH2 0x4C1C JUMPI SWAP2 JUMPDEST PUSH1 0x2 DUP4 GT ISZERO PUSH2 0x529E JUMPI JUMP JUMPDEST SWAP3 PUSH2 0x52A8 SWAP1 PUSH2 0x4C0D JUMP JUMPDEST SWAP3 JUMP JUMPDEST PUSH1 0x8 NOT DUP3 ADD SWAP2 DUP3 GT PUSH2 0x52BE JUMPI POP SWAP2 PUSH2 0x5293 JUMP JUMPDEST PUSH4 0x4E487B71 PUSH1 0xE0 SHL DUP2 MSTORE PUSH1 0x11 PUSH1 0x4 MSTORE PUSH1 0x24 SWAP1 REVERT INVALID LOG2 PUSH5 0x6970667358 0x22 SLT KECCAK256 JUMPI SWAP7 SWAP3 0xA8 0xF6 SWAP14 SWAP2 0xB6 NOT 0xBD 0xD8 0xC6 DUP3 ORIGIN SELFDESTRUCT MSTORE DUP5 0xCF 0xC5 0xEE 0xD9 KECCAK256 0xAF 0xE9 0xFC CALLER 0xAA DUP1 SWAP10 0xC9 0xC3 0xA6 PUSH5 0x736F6C6343 STOP ADDMOD SGT STOP CALLER "},"methodIdentifiers":{"admin()":"f851a440","allTrusteesCommitted()":"7cf434f7","applyToElection(uint256)":"6d28b653","approveCandidateForElection(uint256,address)":"2e337e68","candidateApplicationStatus(uint256,address)":"0e5495a1","candidates(address)":"8ab66a90","createElection(string,string,uint256,uint256,uint256,uint256)":"95af6074","elections(uint256)":"5e6fef01","getActiveElections()":"8a3b63b0","getAllCandidateAddresses()":"d567c41e","getAllElectionIds()":"dee40f74","getAllOrganizers()":"1e67f721","getAllVoterAddresses()":"cea04b00","getApprovedCandidates(uint256)":"78187770","getCandidateInfo(address)":"28bde1e1","getChoiceCommitment(uint256,bytes32)":"66404230","getElectionCandidateApplicants(uint256)":"042ae68e","getElectionInfo(uint256)":"ce99b5df","getElectionTotalVotes(uint256)":"b46f49a4","getElectionsByOrganizer(address)":"8d6d4b25","getEncryptedTally(uint256)":"7445917e","getOrganizerInfo(address)":"26789d56","getPaillierPublicKey()":"a79a93f8","getPartialDecryption(uint256,address)":"0ccba4c3","getPartialDecryptionSubmitters(uint256)":"15a804ae","getPendingOrganizers()":"cb2b6ad2","getResults(uint256)":"81a60c0d","getTotalElections()":"a9392e0c","getTotalRegisteredVoters()":"69a37b3e","getTrusteeAddresses()":"8eff7ae8","getTrusteeInfo(address)":"c214e6d5","getVoterInfo(address)":"9ed1f255","getZKPVote(uint256,bytes32)":"92d72595","getZKPVoteNullifiers(uint256)":"8644fd71","isAdmin(address)":"24d7806c","isCandidateRegistered(address)":"f1ecdc58","isEmailRegistered(bytes32)":"1f307f8c","isICRegistered(bytes32)":"cd06ea63","isOrganizer(address)":"41676f15","isOrganizerRegistered(address)":"29e7dbd9","isPaillierKeySet()":"1f28762d","isVoterRegistered(address)":"eb2119db","isWalletRegistered(address)":"7f247e49","nullifierUsed(uint256,bytes32)":"c556bff8","numTrustees()":"4baa6901","organizers(address)":"0544c5b9","paillierPublicKeyN()":"b9919e7e","partialDecryptionSubmitters(uint256,uint256)":"9d18a4f0","partialDecryptions(uint256,address)":"fd4872bd","publishResults(uint256,string,bytes32)":"01bc7382","registerCandidate(string,bytes32,string,string,string)":"53ba6098","registerOrganizer(string,bytes32,string)":"b8a76edf","registerVoter(bytes32,bytes32,bytes32)":"e1907e6c","rejectCandidateForElection(uint256,address)":"f13a3ab6","setPaillierPublicKey(string)":"2b129416","setVoteVerifier(address)":"cc24179f","storeEncryptedTally(uint256,string,bytes32)":"cd3b8698","submitPartialDecryption(uint256,string)":"f10c0682","submitShareCommitment(address,bytes32)":"54ea3e87","threshold()":"42cde4e8","trusteeAddresses(uint256)":"3b1951d6","trustees(address)":"eee608a4","verifyCandidateWithZKP(uint256[2],uint256[2][2],uint256[2],uint256[10])":"35e176f2","verifyOrganizer(address)":"54733f43","verifyVoterWithZKP(uint256[2],uint256[2][2],uint256[2],uint256[10])":"94cd15db","vote(uint256,string,uint256[2],uint256[2][2],uint256[2],uint256[10])":"66ea235e","voteChoiceCommitments(uint256,bytes32)":"3b0c9d2a","voteVerifier()":"99d74c71","voterCommitments(bytes32)":"d0c2a609","voters(address)":"a3ec138d"}}}}}