{
  "contractName": "EncryptedVoting",
  "abi": [
    {
      "inputs": [],
      "stateMutability": "nonpayable",
      "type": "constructor"
    },
    {
      "anonymous": false,
      "inputs": [
        {
          "indexed": true,
          "internalType": "address",
          "name": "voter",
          "type": "address"
        },
        {
          "indexed": false,
          "internalType": "uint256",
          "name": "index",
          "type": "uint256"
        }
      ],
      "name": "VoteSubmitted",
      "type": "event"
    },
    {
      "inputs": [],
      "name": "owner",
      "outputs": [
        {
          "internalType": "address",
          "name": "",
          "type": "address"
        }
      ],
      "stateMutability": "view",
      "type": "function",
      "constant": true
    },
    {
      "inputs": [
        {
          "internalType": "bytes",
          "name": "encryptedName",
          "type": "bytes"
        },
        {
          "internalType": "bytes",
          "name": "encryptedVote",
          "type": "bytes"
        }
      ],
      "name": "submitVote",
      "outputs": [],
      "stateMutability": "nonpayable",
      "type": "function"
    },
    {
      "inputs": [],
      "name": "voteCount",
      "outputs": [
        {
          "internalType": "uint256",
          "name": "",
          "type": "uint256"
        }
      ],
      "stateMutability": "view",
      "type": "function",
      "constant": true
    },
    {
      "inputs": [
        {
          "internalType": "uint256",
          "name": "i",
          "type": "uint256"
        }
      ],
      "name": "getVoterRecord",
      "outputs": [
        {
          "internalType": "bytes",
          "name": "encryptedName",
          "type": "bytes"
        },
        {
          "internalType": "bytes",
          "name": "encryptedVote",
          "type": "bytes"
        }
      ],
      "stateMutability": "view",
      "type": "function",
      "constant": true
    },
    {
      "inputs": [
        {
          "internalType": "uint256",
          "name": "i",
          "type": "uint256"
        }
      ],
      "name": "getEncryptedVote",
      "outputs": [
        {
          "internalType": "bytes",
          "name": "",
          "type": "bytes"
        }
      ],
      "stateMutability": "view",
      "type": "function",
      "constant": true
    }
  ],
  "bytecode": "0x608060405234801561001057600080fd5b50336000806101000a81548173ffffffffffffffffffffffffffffffffffffffff021916908373ffffffffffffffffffffffffffffffffffffffff160217905550610c67806100606000396000f3fe608060405234801561001057600080fd5b50600436106100575760003560e01c8063339fbd061461005c57806384e4ead31461008d57806388c50c76146100a95780638da5cb5b146100d9578063c6384071146100f7575b600080fd5b61007660048036038101906100719190610593565b610115565b604051610084929190610650565b60405180910390f35b6100a760048036038101906100a291906106ec565b6102ca565b005b6100c360048036038101906100be9190610593565b610424565b6040516100d0919061076d565b60405180910390f35b6100e1610522565b6040516100ee91906107d0565b60405180910390f35b6100ff610546565b60405161010c91906107fa565b60405180910390f35b606080600180549050831061015f576040517f08c379a000000000000000000000000000000000000000000000000000000000815260040161015690610872565b60405180910390fd5b6001838154811061017357610172610892565b5b90600052602060002090600202016000016001848154811061019857610197610892565b5b90600052602060002090600202016001018180546101b5906108f0565b80601f01602080910402602001604051908101604052809291908181526020018280546101e1906108f0565b801561022e5780601f106102035761010080835404028352916020019161022e565b820191906000526020600020905b81548152906001019060200180831161021157829003601f168201915b50505050509150808054610241906108f0565b80601f016020809104026020016040519081016040528092919081815260200182805461026d906108f0565b80156102ba5780601f1061028f576101008083540402835291602001916102ba565b820191906000526020600020905b81548152906001019060200180831161029d57829003601f168201915b5050505050905091509150915091565b6001604051806040016040528086868080601f016020809104026020016040519081016040528093929190818152602001838380828437600081840152601f19601f82011690508083019250505050505050815260200184848080601f016020809104026020016040519081016040528093929190818152602001838380828437600081840152601f19601f82011690508083019250505050505050815250908060018154018082558091505060019003906000526020600020906002020160009091909190915060008201518160000190816103a79190610afc565b5060208201518160010190816103bd9190610afc565b5050503373ffffffffffffffffffffffffffffffffffffffff167f98f81efbbc42e3175555266dc8fda4ea0859ca75447f118fdde2c72a2b8735f1600180805490506104099190610bfd565b60405161041691906107fa565b60405180910390a250505050565b6060600180549050821061046d576040517f08c379a000000000000000000000000000000000000000000000000000000000815260040161046490610872565b60405180910390fd5b6001828154811061048157610480610892565b5b9060005260206000209060020201600101805461049d906108f0565b80601f01602080910402602001604051908101604052809291908181526020018280546104c9906108f0565b80156105165780601f106104eb57610100808354040283529160200191610516565b820191906000526020600020905b8154815290600101906020018083116104f957829003601f168201915b50505050509050919050565b60008054906101000a900473ffffffffffffffffffffffffffffffffffffffff1681565b6000600180549050905090565b600080fd5b600080fd5b6000819050919050565b6105708161055d565b811461057b57600080fd5b50565b60008135905061058d81610567565b92915050565b6000602082840312156105a9576105a8610553565b5b60006105b78482850161057e565b91505092915050565b600081519050919050565b600082825260208201905092915050565b60005b838110156105fa5780820151818401526020810190506105df565b60008484015250505050565b6000601f19601f8301169050919050565b6000610622826105c0565b61062c81856105cb565b935061063c8185602086016105dc565b61064581610606565b840191505092915050565b6000604082019050818103600083015261066a8185610617565b9050818103602083015261067e8184610617565b90509392505050565b600080fd5b600080fd5b600080fd5b60008083601f8401126106ac576106ab610687565b5b8235905067ffffffffffffffff8111156106c9576106c861068c565b5b6020830191508360018202830111156106e5576106e4610691565b5b9250929050565b6000806000806040858703121561070657610705610553565b5b600085013567ffffffffffffffff81111561072457610723610558565b5b61073087828801610696565b9450945050602085013567ffffffffffffffff81111561075357610752610558565b5b61075f87828801610696565b925092505092959194509250565b600060208201905081810360008301526107878184610617565b905092915050565b600073ffffffffffffffffffffffffffffffffffffffff82169050919050565b60006107ba8261078f565b9050919050565b6107ca816107af565b82525050565b60006020820190506107e560008301846107c1565b92915050565b6107f48161055d565b82525050565b600060208201905061080f60008301846107eb565b92915050565b600082825260208201905092915050565b7f6f7574206f662072616e67650000000000000000000000000000000000000000600082015250565b600061085c600c83610815565b915061086782610826565b602082019050919050565b6000602082019050818103600083015261088b8161084f565b9050919050565b7f4e487b7100000000000000000000000000000000000000000000000000000000600052603260045260246000fd5b7f4e487b7100000000000000000000000000000000000000000000000000000000600052602260045260246000fd5b6000600282049050600182168061090857607f821691505b60208210810361091b5761091a6108c1565b5b50919050565b7f4e487b7100000000000000000000000000000000000000000000000000000000600052604160045260246000fd5b60008190508160005260206000209050919050565b60006020601f8301049050919050565b600082821b905092915050565b6000600883026109b27fffffffffffffffffffffffffffffffffffffffffffffffffffffffffffffffff82610975565b6109bc8683610975565b95508019841693508086168417925050509392505050565b6000819050919050565b60006109f96109f46109ef8461055d565b6109d4565b61055d565b9050919050565b6000819050919050565b610a13836109de565b610a27610a1f82610a00565b848454610982565b825550505050565b600090565b610a3c610a2f565b610a47818484610a0a565b505050565b5b81811015610a6b57610a60600082610a34565b600181019050610a4d565b5050565b601f821115610ab057610a8181610950565b610a8a84610965565b81016020851015610a99578190505b610aad610aa585610965565b830182610a4c565b50505b505050565b600082821c905092915050565b6000610ad360001984600802610ab5565b1980831691505092915050565b6000610aec8383610ac2565b9150826002028217905092915050565b610b05826105c0565b67ffffffffffffffff811115610b1e57610b1d610921565b5b610b2882546108f0565b610b33828285610a6f565b600060209050601f831160018114610b665760008415610b54578287015190505b610b5e8582610ae0565b865550610bc6565b601f198416610b7486610950565b60005b82811015610b9c57848901518255600182019150602085019450602081019050610b77565b86831015610bb95784890151610bb5601f891682610ac2565b8355505b6001600288020188555050505b505050505050565b7f4e487b7100000000000000000000000000000000000000000000000000000000600052601160045260246000fd5b6000610c088261055d565b9150610c138361055d565b9250828203905081811115610c2b57610c2a610bce565b5b9291505056fea264697066735822122021a25c573e4828f9f1c9319f56a00a1fe5cf553cea2e352baff6340dbf53425f64736f6c63430008130033",
  "immutableReferences": {},
  "source": "// SPDX-License-Identifier: MIT\r\npragma solidity ^0.8.19;\r\n\r\ncontract EncryptedVoting {\r\n    address public owner;\r\n    \r\n    struct VoterRecord {\r\n        bytes encryptedName;\r\n        bytes encryptedVote;\r\n    }\r\n    \r\n    VoterRecord[] private voterRecords;\r\n\r\n    event VoteSubmitted(address indexed voter, uint256 index);\r\n\r\n    constructor() {\r\n        owner = msg.sender;\r\n    }\r\n\r\n    function submitVote(bytes calldata encryptedName, bytes calldata encryptedVote) external {\r\n        voterRecords.push(VoterRecord({\r\n            encryptedName: encryptedName,\r\n            encryptedVote: encryptedVote\r\n        }));\r\n        emit VoteSubmitted(msg.sender, voterRecords.length - 1);\r\n    }\r\n\r\n    function voteCount() external view returns (uint256) {\r\n        return voterRecords.length;\r\n    }\r\n\r\n    function getVoterRecord(uint256 i) external view returns (bytes memory encryptedName, bytes memory encryptedVote) {\r\n        require(i < voterRecords.length, \"out of range\");\r\n        return (voterRecords[i].encryptedName, voterRecords[i].encryptedVote);\r\n    }\r\n    \r\n    function getEncryptedVote(uint256 i) external view returns (bytes memory) {\r\n        require(i < voterRecords.length, \"out of range\");\r\n        return voterRecords[i].encryptedVote;\r\n    }\r\n}\r\n",
  "sourcePath": "C:\\Users\\ASUS\\Projects\\phe\\contracts\\EncryptedVoting.sol",
  "compiler": {
    "name": "solc",
    "version": "0.8.19+commit.7dd6d404.Emscripten.clang"
  },
  "schemaVersion": "3.4.16",
  "updatedAt": "2026-02-02T04:04:11.219Z",
  "networkType": "ethereum",
  "devdoc": {
    "kind": "dev",
    "methods": {},
    "version": 1
  },
  "userdoc": {
    "kind": "user",
    "methods": {},
    "version": 1
  }
}