{
  "_format": "hh3-artifact-1",
  "contractName": "Groth16Verifier",
  "sourceName": "contracts/Verifier.sol",
  "abi": [
    {
      "inputs": [
        {
          "internalType": "uint256[2]",
          "name": "_pA",
          "type": "uint256[2]"
        },
        {
          "internalType": "uint256[2][2]",
          "name": "_pB",
          "type": "uint256[2][2]"
        },
        {
          "internalType": "uint256[2]",
          "name": "_pC",
          "type": "uint256[2]"
        },
        {
          "internalType": "uint256[10]",
          "name": "_pubSignals",
          "type": "uint256[10]"
        }
      ],
      "name": "verifyProof",
      "outputs": [
        {
          "internalType": "bool",
          "name": "",
          "type": "bool"
        }
      ],
      "stateMutability": "view",
      "type": "function"
    }
  ],
  "bytecode": "0x6080806040523461001657610a17908161001c8239f35b600080fdfe6080604052600436101561001257600080fd5b6000803560e01c63f3bb70f61461002857600080fd5b346104275761024080600319360112610423576100443661042a565b903660c41161041f576100563661043c565b91366102441161041b57610400604052610104356100738161044a565b610124356100808161044a565b6101443561008d8161044a565b6101643561009a8161044a565b610184356100a78161044a565b6101a435906100b58261044a565b6101c435926100c38461044a565b6101e435946100d18661044a565b61020435966100df8861044a565b61022435986100ed8a61044a565b7f15b4137ddcd2fdb14b5ee249174fdabeef810fe1d36c44f6eb4a594adcca12da6080527f11effc84acbc6d2d5f3730a91434ab50365f1e95e92e20a67b1d9521fd696cbc60a05261013e9061047d565b61014790610507565b61015090610591565b6101599061061b565b610162906106a5565b61016b9061072f565b610174906107b9565b61017d90610843565b610186906108cd565b61018f90610957565b6101009283928284933584527f30644e72e131a029b85045b68181585d97816a916871ca8d3c208c16d87cfd4790602001358103066101205260443561014052606435610160526084356101805260a4356101a0527f0352d1fe0c0453427d5bf0eecd054a1411324bbc9c33445cb1576dbea91a7e456101c0527ec8e2978440d85542a613378f2ad4a5e189999125f83d45df80f18bee96d8be6101e0527f1c49f990c9a9b353acf69a64db50fa71a9f816c0ba58de2c8fc8f3a94e02b955610200527f18eed5b568e3084cb88c5c6766bccfef2f300741b08c707751258960816c990e610220527e2d586c0f7f8584e11f7d1021f453c1e27cbdf5cc6b13e78d470aa8814b8c6c90527f1000459676d52e75f9093c4697351b53a9049af7d76f77bc9159f94de91f13c1610260526080516102805260a0516102a0527f198e9393920d483a7260bfb731fb5d25f1aa493335a9e71297e485b7aef312c26102c0527f1800deef121f1e76426a00665e5c4479674322d4f75edadd46debd5cd992f6ed6102e052610300907f090689d0585ff075ec9e99ad690c3395bc4b313370b38ef355acdadcd122975b82527f12c85ea5db8c6deb4aab71808dcb408fe3d1e7690c43d37b4ce6cc0166fa7daa6103205280356103405260200135610360527f1cacc1470c7ceebb55d47fa629f1e0bdc8941fd2c8c49ba31d89ac2d8a110a0e610380527f1747c0e533ca6d030ccdebf051c5762ed7022a40dec53052defc6ed7793344fb6103a0527f1092346c1d299ac15ed9e4cf03af7aa1ff13f26fdf68a601992b11e1cea8f6936103c0527f0d2fa657908f9d2a6f26759d514e445dacd5a5a71c1073ad269e92cbe799bd956103e0526107cf195a01926008602094fa9051168152602090f35b8380fd5b8280fd5b5080fd5b80fd5b9060049160441161043757565b600080fd5b9060c4916101041161043757565b7f30644e72e131a029b85045b68181585d2833e84879b9709143e1f593f0000001111561047357565b6000805260206000f35b604051907f02eb5632ca3840b19ee9a4bfb78af617af8ac0e8cf2dabb3c04864f29e52b94b82527f1e07903dee295b641c6391a9f57e078ab9bc5302785d7d7cbfaa3ac64064eafd6020830152604082019081526107cf196040836060816007855a01fa156104735760409260066080939284938451905260a05160608401525a01fa1561047357565b604051907f0a56fb47c2fe3c9e9038518163cecf984e4c1f369202e419aeb92a015178a6fa82527f11c2b4a44a60dca0cd606e60c26e923058078beb91f94179e943239885ccb18c6020830152604082019081526107cf196040836060816007855a01fa156104735760409260066080939284938451905260a05160608401525a01fa1561047357565b604051907f19829eb22846d3f562a3edc62b3eb85dc25d5b7b82f03850d6627783fdf01f7c82527f2a6f84c29f1c067a37947cc2318caea0eb71706af0596d57b9a632b5117e0be96020830152604082019081526107cf196040836060816007855a01fa156104735760409260066080939284938451905260a05160608401525a01fa1561047357565b604051907f11597f6a9ca2d85508f1bee1ca259537df5e185d204c767773cf5c3b712d422f82527f20366329b29ae06a38572f79e155300d92a67682547cd95c9b79ab14657ac1b06020830152604082019081526107cf196040836060816007855a01fa156104735760409260066080939284938451905260a05160608401525a01fa1561047357565b604051907f3004d411557403a1efe5a187e18008f3573cd585160bfe9d55efcfcf6be5cd8382527f0a81212fe398dc0fefb709ebec41db2ad4124cbde8bbf3dd427d1b99263483886020830152604082019081526107cf196040836060816007855a01fa156104735760409260066080939284938451905260a05160608401525a01fa1561047357565b604051907f278f926955cc34ceb18b785477f6b864aa4a36f08ac113ed77a1d3952046469082527f2311f49940d1e45fbd5957eee0ad4148d2e1c94e04d6046a5eb51d886cca02f16020830152604082019081526107cf196040836060816007855a01fa156104735760409260066080939284938451905260a05160608401525a01fa1561047357565b604051907f09087516534afb4d3ea24696c0914329580cd7b0022422d5543a6d464a9ab36482527f14d5269de921a892b75e9b75582c66836edac31ce64996a1e685563a63a9bc286020830152604082019081526107cf196040836060816007855a01fa156104735760409260066080939284938451905260a05160608401525a01fa1561047357565b604051907f19f61377658b696e15aab3c59996fc138ee574ee53c5d3178968003c7d28d50082527f101e662127ec8a702b70415c8448ba5a127b71b89b1323f3cb70f8d554a34b936020830152604082019081526107cf196040836060816007855a01fa156104735760409260066080939284938451905260a05160608401525a01fa1561047357565b604051907f0626083a2372d1d78f0f7ab7989315b98a74dd56e21cda0130458a9c7ace9ce982527f2bd1edad91c1beb98c92860495c3160d9fc724e2b12fb1ea01c07d4ecc4fbd746020830152604082019081526107cf196040836060816007855a01fa156104735760409260066080939284938451905260a05160608401525a01fa1561047357565b604051907f0b8b3cb09e46bc30840b7e36d4fd880edd5d80b1a32a6637c8cb3c20132c6a8d82527f287452bd35f752751dc16988fbdefcf9fda623ba39b47942433e00ad806cf0d26020830152604082019081526107cf196040836060816007855a01fa156104735760409260066080939284938451905260a05160608401525a01fa156104735756fea2646970667358221220353f2676aebbdcb4ce50117017082ae374f90c49658703550af477820198902964736f6c63430008130033",
  "linkReferences": {},
  "deployedLinkReferences": {},
  "immutableReferences": {},
  "inputSourceName": "project/contracts/Verifier.sol",
  "buildInfoId": "solc-0_8_19-96d40031cdf49627844f0c7637763dc4e51016d4"
}